{
  "address": "0x07eFA7a9139Ec6760845e9eA12DA55218c14F029",
  "abi": [
    {
      "anonymous": false,
      "inputs": [
        {
          "indexed": false,
          "internalType": "bytes32",
          "name": "name",
          "type": "bytes32"
        },
        {
          "indexed": false,
          "internalType": "address",
          "name": "destination",
          "type": "address"
        }
      ],
      "name": "AddressImported",
      "type": "event"
    },
    {
      "anonymous": false,
      "inputs": [
        {
          "indexed": false,
          "internalType": "uint8",
          "name": "version",
          "type": "uint8"
        }
      ],
      "name": "Initialized",
      "type": "event"
    },
    {
      "anonymous": false,
      "inputs": [
        {
          "indexed": true,
          "internalType": "address",
          "name": "previousOwner",
          "type": "address"
        },
        {
          "indexed": true,
          "internalType": "address",
          "name": "newOwner",
          "type": "address"
        }
      ],
      "name": "OwnershipTransferred",
      "type": "event"
    },
    {
      "inputs": [
        {
          "internalType": "bytes32[]",
          "name": "_names",
          "type": "bytes32[]"
        },
        {
          "internalType": "address[]",
          "name": "_addresses",
          "type": "address[]"
        }
      ],
      "name": "areAddressesImported",
      "outputs": [
        {
          "internalType": "bool",
          "name": "",
          "type": "bool"
        }
      ],
      "stateMutability": "view",
      "type": "function"
    },
    {
      "inputs": [
        {
          "internalType": "bytes32",
          "name": "_name",
          "type": "bytes32"
        }
      ],
      "name": "getAddress",
      "outputs": [
        {
          "internalType": "address",
          "name": "",
          "type": "address"
        }
      ],
      "stateMutability": "view",
      "type": "function"
    },
    {
      "inputs": [
        {
          "internalType": "bytes32",
          "name": "_name",
          "type": "bytes32"
        },
        {
          "internalType": "string",
          "name": "_reason",
          "type": "string"
        }
      ],
      "name": "getAddress",
      "outputs": [
        {
          "internalType": "address",
          "name": "",
          "type": "address"
        }
      ],
      "stateMutability": "view",
      "type": "function"
    },
    {
      "inputs": [],
      "name": "getAddresses",
      "outputs": [
        {
          "internalType": "address[]",
          "name": "",
          "type": "address[]"
        }
      ],
      "stateMutability": "view",
      "type": "function"
    },
    {
      "inputs": [
        {
          "internalType": "bytes32[]",
          "name": "_names",
          "type": "bytes32[]"
        },
        {
          "internalType": "address[]",
          "name": "_addresses",
          "type": "address[]"
        }
      ],
      "name": "importAddresses",
      "outputs": [],
      "stateMutability": "nonpayable",
      "type": "function"
    },
    {
      "inputs": [
        {
          "internalType": "address",
          "name": "_owner",
          "type": "address"
        }
      ],
      "name": "initialize",
      "outputs": [],
      "stateMutability": "nonpayable",
      "type": "function"
    },
    {
      "inputs": [],
      "name": "owner",
      "outputs": [
        {
          "internalType": "address",
          "name": "",
          "type": "address"
        }
      ],
      "stateMutability": "view",
      "type": "function"
    },
    {
      "inputs": [],
      "name": "renounceOwnership",
      "outputs": [],
      "stateMutability": "nonpayable",
      "type": "function"
    },
    {
      "inputs": [
        {
          "internalType": "address",
          "name": "newOwner",
          "type": "address"
        }
      ],
      "name": "transferOwnership",
      "outputs": [],
      "stateMutability": "nonpayable",
      "type": "function"
    }
  ],
  "transactionHash": "0xed271e2aab518c648b4bd4fa42dd8cc551476aa386e4f2503324b1e48b849349",
  "args": [],
  "numDeployments": 1,
  "solcInputHash": "3f85b78d4f02b33ea339ac5a99716c70",
  "bytecode": "0x608060405234801561001057600080fd5b50610c94806100206000396000f3fe608060405234801561001057600080fd5b50600436106100935760003560e01c80639f42102f116100665780639f42102f14610110578063a39fac1214610133578063ab0b8f7714610148578063c4d66de81461015b578063f2fde38b1461016e57600080fd5b806321f8a721146100985780636795dbcd146100eb578063715018a6146100fe5780638da5cb5b14610108575b600080fd5b6100ce6100a636600461082d565b6000908152600080516020610c3f83398151915260205260409020546001600160a01b031690565b6040516001600160a01b0390911681526020015b60405180910390f35b6100ce6100f9366004610846565b610181565b6101066101db565b005b6100ce610216565b61012361011e36600461090e565b610249565b60405190151581526020016100e2565b61013b6102fa565b6040516100e2919061097a565b610106610156366004610ac0565b61036c565b610106610169366004610b79565b6104fb565b61010661017c366004610b79565b61067a565b6000838152600080516020610c3f83398151915260205260408120546001600160a01b03168383826101d05760405162461bcd60e51b81526004016101c7929190610b9b565b60405180910390fd5b509095945050505050565b336101e4610216565b6001600160a01b03161461020a5760405162461bcd60e51b81526004016101c790610bca565b610214600061071a565b565b60007f9acda75aebd150dd434541a4747a6dc606f4f1a59662477e67daf1fc0bf9e0aa5b546001600160a01b0316919050565b6000805b848110156102ec5783838281811061026757610267610bff565b905060200201602081019061027c9190610b79565b6001600160a01b0316600080516020610c3f83398151915260008888858181106102a8576102a8610bff565b60209081029290920135835250810191909152604001600020546001600160a01b0316146102da5760009150506102f2565b806102e481610c15565b91505061024d565b50600190505b949350505050565b6060600080516020610c3f83398151915260010180548060200260200160405190810160405280929190818152602001828054801561036257602002820191906000526020600020905b81546001600160a01b03168152600190910190602001808311610344575b5050505050905090565b33610375610216565b6001600160a01b03161461039b5760405162461bcd60e51b81526004016101c790610bca565b80518251146103ec5760405162461bcd60e51b815260206004820152601860248201527f496e707574206c656e67746873206d757374206d61746368000000000000000060448201526064016101c7565b805161041e907fcc50d67f473b12f6909b9d9962760e48c561299d97e9c3ef3fb57160167be9239060208401906107b3565b5060005b82518110156104f657600083828151811061043f5761043f610bff565b60200260200101519050600083838151811061045d5761045d610bff565b602002602001015190508061047d600080516020610c3f83398151915290565b6000848152602091825260409081902080546001600160a01b0319166001600160a01b039485161790558051858152928416918301919091527fefe884cc7f82a6cf3cf68f64221519dcf96b5cae9048e1bb008ee32cd05aaa91910160405180910390a1505080806104ee90610c15565b915050610422565b505050565b600054610100900460ff161580801561051b5750600054600160ff909116105b806105355750303b158015610535575060005460ff166001145b6105985760405162461bcd60e51b815260206004820152602e60248201527f496e697469616c697a61626c653a20636f6e747261637420697320616c72656160448201526d191e481a5b9a5d1a585b1a5e995960921b60648201526084016101c7565b6000805460ff1916600117905580156105bb576000805461ff0019166101001790555b60006105c561078b565b6001600160a01b031614156106275760405162461bcd60e51b815260206004820152602260248201527f4d7573742062652063616c6c65642066726f6d2070726f787920636f6e74726160448201526118dd60f21b60648201526084016101c7565b6106308261071a565b8015610676576000805461ff0019169055604051600181527f7f26b83ff96e1f2b6a682f133852f6798a09c465da95921460cefb38474024989060200160405180910390a15b5050565b33610683610216565b6001600160a01b0316146106a95760405162461bcd60e51b81526004016101c790610bca565b6001600160a01b03811661070e5760405162461bcd60e51b815260206004820152602660248201527f4f776e61626c653a206e6577206f776e657220697320746865207a65726f206160448201526564647265737360d01b60648201526084016101c7565b6107178161071a565b50565b7f9acda75aebd150dd434541a4747a6dc606f4f1a59662477e67daf1fc0bf9e0aa80546001600160a01b038381166001600160a01b0319831681179093556040519116919082907f8be0079c531659141344cd1fd0a4f28419497f9722a3daafe3b4186f6b6457e090600090a35050565b60007f360894a13ba1a3210667c828492db98dca3e2076cc3735a920a3ca505d382bbc61023a565b828054828255906000526020600020908101928215610808579160200282015b8281111561080857825182546001600160a01b0319166001600160a01b039091161782556020909201916001909101906107d3565b50610814929150610818565b5090565b5b808211156108145760008155600101610819565b60006020828403121561083f57600080fd5b5035919050565b60008060006040848603121561085b57600080fd5b83359250602084013567ffffffffffffffff8082111561087a57600080fd5b818601915086601f83011261088e57600080fd5b81358181111561089d57600080fd5b8760208285010111156108af57600080fd5b6020830194508093505050509250925092565b60008083601f8401126108d457600080fd5b50813567ffffffffffffffff8111156108ec57600080fd5b6020830191508360208260051b850101111561090757600080fd5b9250929050565b6000806000806040858703121561092457600080fd5b843567ffffffffffffffff8082111561093c57600080fd5b610948888389016108c2565b9096509450602087013591508082111561096157600080fd5b5061096e878288016108c2565b95989497509550505050565b6020808252825182820181905260009190848201906040850190845b818110156109bb5783516001600160a01b031683529284019291840191600101610996565b50909695505050505050565b634e487b7160e01b600052604160045260246000fd5b604051601f8201601f1916810167ffffffffffffffff81118282101715610a0657610a066109c7565b604052919050565b600067ffffffffffffffff821115610a2857610a286109c7565b5060051b60200190565b80356001600160a01b0381168114610a4957600080fd5b919050565b600082601f830112610a5f57600080fd5b81356020610a74610a6f83610a0e565b6109dd565b82815260059290921b84018101918181019086841115610a9357600080fd5b8286015b84811015610ab557610aa881610a32565b8352918301918301610a97565b509695505050505050565b60008060408385031215610ad357600080fd5b823567ffffffffffffffff80821115610aeb57600080fd5b818501915085601f830112610aff57600080fd5b81356020610b0f610a6f83610a0e565b82815260059290921b84018101918181019089841115610b2e57600080fd5b948201945b83861015610b4c57853582529482019490820190610b33565b96505086013592505080821115610b6257600080fd5b50610b6f85828601610a4e565b9150509250929050565b600060208284031215610b8b57600080fd5b610b9482610a32565b9392505050565b60208152816020820152818360408301376000818301604090810191909152601f909201601f19160101919050565b6020808252818101527f4f776e61626c653a2063616c6c6572206973206e6f7420746865206f776e6572604082015260600190565b634e487b7160e01b600052603260045260246000fd5b6000600019821415610c3757634e487b7160e01b600052601160045260246000fd5b506001019056fecc50d67f473b12f6909b9d9962760e48c561299d97e9c3ef3fb57160167be922a2646970667358221220995113f5c2f74e586028ffa584622d8028810e4469ffb8f28ce765bb1f244d4764736f6c63430008090033",
  "devdoc": {
    "details": "This contract is used through the `./mixins/MixinAddressResolver.sol`. The names of the contracts that need to be imported into this contract are managed in `./libraries/Contracts.sol`.",
    "kind": "dev",
    "methods": {
      "areAddressesImported(bytes32[],address[])": {
        "returns": {
          "_0": "The boolean if the addresses are imported or not"
        }
      },
      "getAddress(bytes32)": {
        "details": "This method is used when the caller doesn't need to get an error if the address in the name is not imported.",
        "returns": {
          "_0": "The contract address"
        }
      },
      "getAddress(bytes32,string)": {
        "details": "This method is used when the caller need to get an error if the address in the name is not imported.",
        "returns": {
          "_0": "The contract address"
        }
      },
      "getAddresses()": {
        "returns": {
          "_0": "Array with the contract address"
        }
      },
      "importAddresses(bytes32[],address[])": {
        "details": "All addresses in the contract are overridden by `_addresses` in the argument."
      },
      "initialize(address)": {
        "details": "Function is invoked by the proxy contract when the contract is added to the ProxyController.",
        "params": {
          "_owner": "The address of the contract owner"
        }
      },
      "owner()": {
        "details": "Returns the address of the current owner."
      },
      "renounceOwnership()": {
        "details": "Leaves the contract without owner. It will not be possible to call `onlyOwner` functions anymore. Can only be called by the current owner. NOTE: Renouncing ownership will leave the contract without an owner, thereby removing any functionality that is only available to the owner."
      },
      "transferOwnership(address)": {
        "details": "Transfers ownership of the contract to a new account (`newOwner`). Can only be called by the current owner."
      }
    },
    "version": 1
  },
  "userdoc": {
    "kind": "user",
    "methods": {
      "areAddressesImported(bytes32[],address[])": {
        "notice": "Gets if the addresses are imported."
      },
      "getAddress(bytes32)": {
        "notice": "Gets the imported contract addresses for the name."
      },
      "getAddress(bytes32,string)": {
        "notice": "Gets the imported contract addresses for the name with error."
      },
      "getAddresses()": {
        "notice": "Gets the all imported contract addresses."
      },
      "importAddresses(bytes32[],address[])": {
        "notice": "Imports contract addresses."
      },
      "initialize(address)": {
        "notice": "Initializes the contract."
      }
    },
    "notice": "Implements the logic to manage the contract addresses. This contract store the contract name and contract address. When the contract calls other contracts, the caller contract gets the contract address from this contract. However, the contract addresses are cashed into the caller contract through the `MixinAddressResolver.sol` at the deployment, so the caller doesn't need to call this contract each time it calls other contracts.",
    "version": 1
  },
  "storageLayout": {
    "storage": [
      {
        "astId": 1183,
        "contract": "contracts/AddressResolver.sol:AddressResolver",
        "label": "_initialized",
        "offset": 0,
        "slot": "0",
        "type": "t_uint8"
      },
      {
        "astId": 1186,
        "contract": "contracts/AddressResolver.sol:AddressResolver",
        "label": "_initializing",
        "offset": 1,
        "slot": "0",
        "type": "t_bool"
      }
    ],
    "types": {
      "t_bool": {
        "encoding": "inplace",
        "label": "bool",
        "numberOfBytes": "1"
      },
      "t_uint8": {
        "encoding": "inplace",
        "label": "uint8",
        "numberOfBytes": "1"
      }
    }
  }
}