{
  "address": "0xF37D0549C1BDc67F03b06d47bf4E1796eF724b64",
  "abi": [
    {
      "anonymous": false,
      "inputs": [
        {
          "indexed": true,
          "internalType": "bytes32",
          "name": "id",
          "type": "bytes32"
        },
        {
          "indexed": true,
          "internalType": "address",
          "name": "proxyAddress",
          "type": "address"
        },
        {
          "indexed": true,
          "internalType": "address",
          "name": "implementationAddress",
          "type": "address"
        }
      ],
      "name": "BeaconProxyCreated",
      "type": "event"
    },
    {
      "anonymous": false,
      "inputs": [
        {
          "indexed": true,
          "internalType": "bytes32",
          "name": "id",
          "type": "bytes32"
        },
        {
          "indexed": true,
          "internalType": "address",
          "name": "proxyAddress",
          "type": "address"
        },
        {
          "indexed": true,
          "internalType": "address",
          "name": "newImplementationAddress",
          "type": "address"
        },
        {
          "indexed": false,
          "internalType": "address",
          "name": "oldImplementationAddress",
          "type": "address"
        }
      ],
      "name": "BeaconProxyUpdated",
      "type": "event"
    },
    {
      "anonymous": false,
      "inputs": [
        {
          "indexed": false,
          "internalType": "bytes32",
          "name": "name",
          "type": "bytes32"
        },
        {
          "indexed": false,
          "internalType": "address",
          "name": "destination",
          "type": "address"
        }
      ],
      "name": "CacheUpdated",
      "type": "event"
    },
    {
      "anonymous": false,
      "inputs": [
        {
          "indexed": false,
          "internalType": "uint8",
          "name": "version",
          "type": "uint8"
        }
      ],
      "name": "Initialized",
      "type": "event"
    },
    {
      "anonymous": false,
      "inputs": [
        {
          "indexed": true,
          "internalType": "address",
          "name": "previousOwner",
          "type": "address"
        },
        {
          "indexed": true,
          "internalType": "address",
          "name": "newOwner",
          "type": "address"
        }
      ],
      "name": "OwnershipTransferred",
      "type": "event"
    },
    {
      "inputs": [],
      "name": "acceptedContracts",
      "outputs": [
        {
          "internalType": "bytes32[]",
          "name": "contracts",
          "type": "bytes32[]"
        }
      ],
      "stateMutability": "pure",
      "type": "function"
    },
    {
      "inputs": [],
      "name": "buildCache",
      "outputs": [],
      "stateMutability": "nonpayable",
      "type": "function"
    },
    {
      "inputs": [],
      "name": "deployFutureValueVault",
      "outputs": [
        {
          "internalType": "address",
          "name": "futureValue",
          "type": "address"
        }
      ],
      "stateMutability": "nonpayable",
      "type": "function"
    },
    {
      "inputs": [
        {
          "internalType": "bytes32",
          "name": "_ccy",
          "type": "bytes32"
        },
        {
          "internalType": "uint256",
          "name": "_maturity",
          "type": "uint256"
        },
        {
          "internalType": "uint256",
          "name": "_openingDate",
          "type": "uint256"
        }
      ],
      "name": "deployLendingMarket",
      "outputs": [
        {
          "internalType": "address",
          "name": "market",
          "type": "address"
        }
      ],
      "stateMutability": "nonpayable",
      "type": "function"
    },
    {
      "inputs": [
        {
          "internalType": "bytes32",
          "name": "beaconName",
          "type": "bytes32"
        }
      ],
      "name": "getBeaconProxyAddress",
      "outputs": [
        {
          "internalType": "address",
          "name": "beaconProxyAddress",
          "type": "address"
        }
      ],
      "stateMutability": "view",
      "type": "function"
    },
    {
      "inputs": [
        {
          "internalType": "address",
          "name": "_owner",
          "type": "address"
        },
        {
          "internalType": "address",
          "name": "_resolver",
          "type": "address"
        }
      ],
      "name": "initialize",
      "outputs": [],
      "stateMutability": "nonpayable",
      "type": "function"
    },
    {
      "inputs": [],
      "name": "isResolverCached",
      "outputs": [
        {
          "internalType": "bool",
          "name": "",
          "type": "bool"
        }
      ],
      "stateMutability": "view",
      "type": "function"
    },
    {
      "inputs": [],
      "name": "owner",
      "outputs": [
        {
          "internalType": "address",
          "name": "",
          "type": "address"
        }
      ],
      "stateMutability": "view",
      "type": "function"
    },
    {
      "inputs": [],
      "name": "renounceOwnership",
      "outputs": [],
      "stateMutability": "nonpayable",
      "type": "function"
    },
    {
      "inputs": [],
      "name": "requiredContracts",
      "outputs": [
        {
          "internalType": "bytes32[]",
          "name": "contracts",
          "type": "bytes32[]"
        }
      ],
      "stateMutability": "pure",
      "type": "function"
    },
    {
      "inputs": [],
      "name": "resolver",
      "outputs": [
        {
          "internalType": "contract IAddressResolver",
          "name": "",
          "type": "address"
        }
      ],
      "stateMutability": "view",
      "type": "function"
    },
    {
      "inputs": [
        {
          "internalType": "address",
          "name": "newImpl",
          "type": "address"
        }
      ],
      "name": "setFutureValueVaultImpl",
      "outputs": [],
      "stateMutability": "nonpayable",
      "type": "function"
    },
    {
      "inputs": [
        {
          "internalType": "address",
          "name": "newImpl",
          "type": "address"
        }
      ],
      "name": "setLendingMarketImpl",
      "outputs": [],
      "stateMutability": "nonpayable",
      "type": "function"
    },
    {
      "inputs": [
        {
          "internalType": "address",
          "name": "newOwner",
          "type": "address"
        }
      ],
      "name": "transferOwnership",
      "outputs": [],
      "stateMutability": "nonpayable",
      "type": "function"
    }
  ],
  "transactionHash": "0xdd957b7cc2a64861f849c8ed0a0bd44eb0c77e27e4778800e0f47f3cc281ee1b",
  "args": [],
  "numDeployments": 2,
  "solcInputHash": "3f85b78d4f02b33ea339ac5a99716c70",
  "bytecode": "0x608060405234801561001057600080fd5b50612688806100206000396000f3fe60806040523480156200001157600080fd5b5060043610620000fd5760003560e01c8063715018a61162000097578063a97c4b53116200006e578063a97c4b5314620001d9578063e099765914620001e3578063f2fde38b14620001eb578063f541c92a146200020257600080fd5b8063715018a614620001ae5780638077959214620001b85780638da5cb5b14620001cf57600080fd5b80632af64bd311620000d85780632af64bd3146200014c5780633d03b9da14620001675780634672758f1462000180578063485cc955146200019757600080fd5b806304707844146200010257806304f3bcec146200011b57806329985e5a1462000142575b600080fd5b620001196200011336600462001084565b62000219565b005b6200012562000276565b6040516001600160a01b0390911681526020015b60405180910390f35b6200011962000298565b6200015662000452565b604051901515815260200162000139565b62000171620005ca565b604051620001399190620010ab565b6200012562000191366004620010f1565b6200062c565b62000119620001a83660046200111e565b62000705565b620001196200089d565b62000125620001c93660046200115c565b620008df565b62000125620009dc565b6200012562000a05565b606062000171565b62000119620001fc36600462001084565b62000ac9565b620001196200021336600462001084565b62000b72565b3362000224620009dc565b6001600160a01b031614620002565760405162461bcd60e51b81526004016200024d9062001176565b60405180910390fd5b620002726c13195b991a5b99d3585c9ad95d609a1b8262000bc0565b5050565b6000600080516020620026138339815191525b546001600160a01b0316919050565b6000620002a4620005ca565b905060005b815181101562000272576000828281518110620002ca57620002ca620011ab565b602002602001015190506000620002ed6000805160206200261383398151915290565b54604080517f5265736f6c766572206d697373696e67207461726765743a200000000000000060208201526039808201869052825180830390910181526059820192839052636795dbcd60e01b9092526001600160a01b0390921691636795dbcd916200036091869190605d0162001211565b60206040518083038186803b1580156200037957600080fd5b505afa1580156200038e573d6000803e3d6000fd5b505050506040513d601f19601f82011682018060405250810190620003b4919062001234565b60008381527f4abde63c3e81aefa5764b017968bc473e83e093d7e1a10247d19e0a3e4124019602090815260409182902080546001600160a01b0319166001600160a01b03851690811790915582518681529182015281519293507f88a93678a3692f6789d9546fc621bf7234b101ddb7d4fe479455112831b8aa68929081900390910190a150508080620004499062001254565b915050620002a9565b6000806200045f620005ca565b905060005b8151811015620005c1576000828281518110620004855762000485620011ab565b60200260200101519050620004a66000805160206200261383398151915290565b600082815260019190910160205260409020546001600160a01b031660008051602062002613833981519152546040516321f8a72160e01b8152600481018490526001600160a01b03909116906321f8a7219060240160206040518083038186803b1580156200051557600080fd5b505afa1580156200052a573d6000803e3d6000fd5b505050506040513d601f19601f8201168201806040525081019062000550919062001234565b6001600160a01b03161415806200059b575060008181527f4abde63c3e81aefa5764b017968bc473e83e093d7e1a10247d19e0a3e412401960205260409020546001600160a01b0316155b15620005ab576000935050505090565b5080620005b88162001254565b91505062000464565b50600191505090565b60408051600180825281830190925260609160208083019080368337019050509050762632b73234b733a6b0b935b2ba21b7b73a3937b63632b960491b816000815181106200061d576200061d620011ab565b60200260200101818152505090565b60003362000654762632b73234b733a6b0b935b2ba21b7b73a3937b63632b960491b62000dc8565b6001600160a01b0316146200067d5760405162461bcd60e51b81526004016200024d906200127e565b60006200068962000276565b6040516001600160a01b03909116602482015260448101869052606481018590526084810184905260a40160408051601f198184030181529190526020810180516001600160e01b031663b7c1d52760e01b1790529050620006fc6c13195b991a5b99d3585c9ad95d609a1b8262000ddb565b95945050505050565b600054610100900460ff1615808015620007265750600054600160ff909116105b80620007425750303b15801562000742575060005460ff166001145b620007a75760405162461bcd60e51b815260206004820152602e60248201527f496e697469616c697a61626c653a20636f6e747261637420697320616c72656160448201526d191e481a5b9a5d1a585b1a5e995960921b60648201526084016200024d565b6000805460ff191660011790558015620007cb576000805461ff0019166101001790555b6000620007d762000e8b565b6001600160a01b031614156200083b5760405162461bcd60e51b815260206004820152602260248201527f4d7573742062652063616c6c65642066726f6d2070726f787920636f6e74726160448201526118dd60f21b60648201526084016200024d565b620008468362000eb4565b620008518262000f25565b801562000898576000805461ff0019169055604051600181527f7f26b83ff96e1f2b6a682f133852f6798a09c465da95921460cefb38474024989060200160405180910390a15b505050565b33620008a8620009dc565b6001600160a01b031614620008d15760405162461bcd60e51b81526004016200024d9062001176565b620008dd600062000eb4565b565b600060008051602062002633833981519152600083815260209182526040808220548151635c60da1b60e01b815291516001600160a01b03909116945084938492635c60da1b9260048083019392829003018186803b1580156200094257600080fd5b505afa15801562000957573d6000803e3d6000fd5b505050506040513d601f19601f820116820180604052508101906200097d919062001234565b6001600160a01b03161415620009d65760405162461bcd60e51b815260206004820152601e60248201527f426561636f6e2070726f78792061646472657373206e6f7420666f756e64000060448201526064016200024d565b50919050565b60007f9acda75aebd150dd434541a4747a6dc606f4f1a59662477e67daf1fc0bf9e0aa62000289565b60003362000a2d762632b73234b733a6b0b935b2ba21b7b73a3937b63632b960491b62000dc8565b6001600160a01b03161462000a565760405162461bcd60e51b81526004016200024d906200127e565b600062000a6262000276565b6040516001600160a01b03909116602482015260440160408051601f198184030181529190526020810180516001600160e01b031663189acdbd60e31b179052905062000ac36f119d5d1d5c9955985b1d5955985d5b1d60821b8262000ddb565b91505090565b3362000ad4620009dc565b6001600160a01b03161462000afd5760405162461bcd60e51b81526004016200024d9062001176565b6001600160a01b03811662000b645760405162461bcd60e51b815260206004820152602660248201527f4f776e61626c653a206e6577206f776e657220697320746865207a65726f206160448201526564647265737360d01b60648201526084016200024d565b62000b6f8162000eb4565b50565b3362000b7d620009dc565b6001600160a01b03161462000ba65760405162461bcd60e51b81526004016200024d9062001176565b620002726f119d5d1d5c9955985b1d5955985d5b1d60821b825b60008281526000805160206200263383398151915260205260408120546001600160a01b0316908162000c9e578260405162000bfc9062001052565b6001600160a01b039091168152602001604051809103906000f08015801562000c29573d6000803e3d6000fd5b50915081905080600080516020620026338339815191526000868152602091909152604080822080546001600160a01b0319166001600160a01b03948516179055518583169285169187917f78043d67bf0de36bf75931f0f0f0acb1716d44b7b6d13ed5acd8c71b231463489190a462000dc1565b8190506000816001600160a01b0316635c60da1b6040518163ffffffff1660e01b815260040160206040518083038186803b15801562000cdd57600080fd5b505afa15801562000cf2573d6000803e3d6000fd5b505050506040513d601f19601f8201168201806040525081019062000d18919062001234565b604051631b2ce7f360e11b81526001600160a01b03868116600483015291925090831690633659cfe690602401600060405180830381600087803b15801562000d6057600080fd5b505af115801562000d75573d6000803e3d6000fd5b50506040516001600160a01b03848116825280881693508616915087907fd1beadd7ba3c8b48046a052671c2a5c0ebb8063834cd8035aaf3da097d85111a9060200160405180910390a4505b5092915050565b600062000dd58262000fbe565b92915050565b60008281526000805160206200263383398151915260205260408120546001600160a01b03168062000e485760405162461bcd60e51b8152602060048201526015602482015274426561636f6e2070726f787920697320656d70747960581b60448201526064016200024d565b808360405162000e589062001060565b62000e65929190620012c7565b604051809103906000f08015801562000e82573d6000803e3d6000fd5b50949350505050565b60007f360894a13ba1a3210667c828492db98dca3e2076cc3735a920a3ca505d382bbc62000289565b7f9acda75aebd150dd434541a4747a6dc606f4f1a59662477e67daf1fc0bf9e0aa80546001600160a01b038381166001600160a01b0319831681179093556040519116919082907f8be0079c531659141344cd1fd0a4f28419497f9722a3daafe3b4186f6b6457e090600090a35050565b60008051602062002613833981519152546001600160a01b03161562000f8e5760405162461bcd60e51b815260206004820152601b60248201527f7265736f6c766572207265676973746572656420616c7265616479000000000060448201526064016200024d565b6000805160206200261383398151915280546001600160a01b0319166001600160a01b0392909216919091179055565b60008181527f4abde63c3e81aefa5764b017968bc473e83e093d7e1a10247d19e0a3e41240196020908152604080832054815170026b4b9b9b4b7339030b2323932b9b99d1607d1b9381019390935260318084018690528251808503909101815260519093019091526001600160a01b0316908162000dc15760405162461bcd60e51b81526004016200024d9190620012ed565b6104e4806200130383390190565b610e2c80620017e783390190565b6001600160a01b038116811462000b6f57600080fd5b6000602082840312156200109757600080fd5b8135620010a4816200106e565b9392505050565b6020808252825182820181905260009190848201906040850190845b81811015620010e557835183529284019291840191600101620010c7565b50909695505050505050565b6000806000606084860312156200110757600080fd5b505081359360208301359350604090920135919050565b600080604083850312156200113257600080fd5b82356200113f816200106e565b9150602083013562001151816200106e565b809150509250929050565b6000602082840312156200116f57600080fd5b5035919050565b6020808252818101527f4f776e61626c653a2063616c6c6572206973206e6f7420746865206f776e6572604082015260600190565b634e487b7160e01b600052603260045260246000fd5b6000815180845260005b81811015620011e957602081850181015186830182015201620011cb565b81811115620011fc576000602083870101525b50601f01601f19169290920160200192915050565b8281526040602082015260006200122c6040830184620011c1565b949350505050565b6000602082840312156200124757600080fd5b8151620010a4816200106e565b60006000198214156200127757634e487b7160e01b600052601160045260246000fd5b5060010190565b60208082526029908201527f43616c6c6572206973206e6f7420746865204c656e64696e674d61726b65744360408201526837b73a3937b63632b960b91b606082015260800190565b6001600160a01b03831681526040602082018190526000906200122c90830184620011c1565b602081526000620010a46020830184620011c156fe608060405234801561001057600080fd5b506040516104e43803806104e483398101604081905261002f91610151565b61003833610047565b61004181610097565b50610181565b600080546001600160a01b038381166001600160a01b0319831681178455604051919092169283917f8be0079c531659141344cd1fd0a4f28419497f9722a3daafe3b4186f6b6457e09190a35050565b6100aa8161014260201b6101a01760201c565b6101205760405162461bcd60e51b815260206004820152603360248201527f5570677261646561626c65426561636f6e3a20696d706c656d656e746174696f60448201527f6e206973206e6f74206120636f6e747261637400000000000000000000000000606482015260840160405180910390fd5b600180546001600160a01b0319166001600160a01b0392909216919091179055565b6001600160a01b03163b151590565b60006020828403121561016357600080fd5b81516001600160a01b038116811461017a57600080fd5b9392505050565b610354806101906000396000f3fe608060405234801561001057600080fd5b50600436106100575760003560e01c80633659cfe61461005c5780635c60da1b14610071578063715018a61461009a5780638da5cb5b146100a2578063f2fde38b146100b3575b600080fd5b61006f61006a3660046102ee565b6100c6565b005b6001546001600160a01b03165b6040516001600160a01b03909116815260200160405180910390f35b61006f61010e565b6000546001600160a01b031661007e565b61006f6100c13660046102ee565b610122565b6100ce6101af565b6100d781610209565b6040516001600160a01b038216907fbc7cd75a20ee27fd9adebab32041f755214dbc6bffa90cc0225b39da2e5c2d3b90600090a250565b6101166101af565b610120600061029e565b565b61012a6101af565b6001600160a01b0381166101945760405162461bcd60e51b815260206004820152602660248201527f4f776e61626c653a206e6577206f776e657220697320746865207a65726f206160448201526564647265737360d01b60648201526084015b60405180910390fd5b61019d8161029e565b50565b6001600160a01b03163b151590565b6000546001600160a01b031633146101205760405162461bcd60e51b815260206004820181905260248201527f4f776e61626c653a2063616c6c6572206973206e6f7420746865206f776e6572604482015260640161018b565b6001600160a01b0381163b61027c5760405162461bcd60e51b815260206004820152603360248201527f5570677261646561626c65426561636f6e3a20696d706c656d656e746174696f6044820152721b881a5cc81b9bdd08184818dbdb9d1c9858dd606a1b606482015260840161018b565b600180546001600160a01b0319166001600160a01b0392909216919091179055565b600080546001600160a01b038381166001600160a01b0319831681178455604051919092169283917f8be0079c531659141344cd1fd0a4f28419497f9722a3daafe3b4186f6b6457e09190a35050565b60006020828403121561030057600080fd5b81356001600160a01b038116811461031757600080fd5b939250505056fea2646970667358221220bd860f3c6256e61fa4d4dc310eb9766051e97afa33b7bf53183da7de49afe63a64736f6c63430008090033608060405260405162000e2c38038062000e2c8339810160408190526200002691620005de565b818162000036828260006200004c565b506200004490503362000131565b50506200071d565b62000057836200018c565b6040516001600160a01b038416907f1cf3b03a6cf19fa2baba4df148e9dcabedea7f8a5c07840e207e5c089be95d3e90600090a2600082511180620000995750805b156200012c576200012a836001600160a01b0316635c60da1b6040518163ffffffff1660e01b815260040160206040518083038186803b158015620000dd57600080fd5b505afa158015620000f2573d6000803e3d6000fd5b505050506040513d601f19601f82011682018060405250810190620001189190620006ac565b836200034e60201b6200016a1760201c565b505b505050565b7f7e644d79422f17c01e4894b5f4f588d331ebfa28653d42ae832dc59e38c9798f6200015c6200037d565b604080516001600160a01b03928316815291841660208301520160405180910390a16200018981620003b6565b50565b620001a2816200044660201b620001961760201c565b620002025760405162461bcd60e51b815260206004820152602560248201527f455243313936373a206e657720626561636f6e206973206e6f74206120636f6e6044820152641d1c9858dd60da1b60648201526084015b60405180910390fd5b6200028c816001600160a01b0316635c60da1b6040518163ffffffff1660e01b815260040160206040518083038186803b1580156200024057600080fd5b505afa15801562000255573d6000803e3d6000fd5b505050506040513d601f19601f820116820180604052508101906200027b9190620006ac565b6200044660201b620001961760201c565b620002f35760405162461bcd60e51b815260206004820152603060248201527f455243313936373a20626561636f6e20696d706c656d656e746174696f6e206960448201526f1cc81b9bdd08184818dbdb9d1c9858dd60821b6064820152608401620001f9565b806200032d7fa3f0ad74e5423aebfd80d3ef4346578335a9a72aeaee59ff6cb3582b35133d5060001b6200045560201b620001a51760201c565b80546001600160a01b0319166001600160a01b039290921691909117905550565b606062000376838360405180606001604052806027815260200162000e056027913962000458565b9392505050565b6000620003a760008051602062000de583398151915260001b6200045560201b620001a51760201c565b546001600160a01b0316919050565b6001600160a01b0381166200041d5760405162461bcd60e51b815260206004820152602660248201527f455243313936373a206e65772061646d696e20697320746865207a65726f206160448201526564647265737360d01b6064820152608401620001f9565b806200032d60008051602062000de583398151915260001b6200045560201b620001a51760201c565b6001600160a01b03163b151590565b90565b60606001600160a01b0384163b620004c25760405162461bcd60e51b815260206004820152602660248201527f416464726573733a2064656c65676174652063616c6c20746f206e6f6e2d636f6044820152651b9d1c9858dd60d21b6064820152608401620001f9565b600080856001600160a01b031685604051620004df9190620006ca565b600060405180830381855af49150503d80600081146200051c576040519150601f19603f3d011682016040523d82523d6000602084013e62000521565b606091505b509092509050620005348282866200053e565b9695505050505050565b606083156200054f57508162000376565b825115620005605782518084602001fd5b8160405162461bcd60e51b8152600401620001f99190620006e8565b80516001600160a01b03811681146200059457600080fd5b919050565b634e487b7160e01b600052604160045260246000fd5b60005b83811015620005cc578181015183820152602001620005b2565b838111156200012a5750506000910152565b60008060408385031215620005f257600080fd5b620005fd836200057c565b60208401519092506001600160401b03808211156200061b57600080fd5b818501915085601f8301126200063057600080fd5b81518181111562000645576200064562000599565b604051601f8201601f19908116603f0116810190838211818310171562000670576200067062000599565b816040528281528860208487010111156200068a57600080fd5b6200069d836020830160208801620005af565b80955050505050509250929050565b600060208284031215620006bf57600080fd5b62000376826200057c565b60008251620006de818460208701620005af565b9190910192915050565b602081526000825180602084015262000709816040850160208701620005af565b601f01601f19169190910160400192915050565b6106b8806200072d6000396000f3fe6080604052600436106100435760003560e01c80633659cfe61461005a5780635c60da1b1461007a5780638f283970146100ab578063f851a440146100cb57610052565b36610052576100506100e0565b005b6100506100e0565b34801561006657600080fd5b506100506100753660046105a2565b6100f2565b34801561008657600080fd5b5061008f610127565b6040516001600160a01b03909116815260200160405180910390f35b3480156100b757600080fd5b506100506100c63660046105a2565b610136565b3480156100d757600080fd5b5061008f610160565b6100f06100eb6101a8565b610222565b565b6100fa610246565b6001600160a01b0316336001600160a01b0316141561011f5761011c81610279565b50565b61011c6100e0565b60006101316101a8565b905090565b61013e610246565b6001600160a01b0316336001600160a01b0316141561011f5761011c816102b9565b6000610131610246565b606061018f838360405180606001604052806027815260200161065c6027913961030d565b9392505050565b6001600160a01b03163b151590565b90565b60006101b26103ef565b6001600160a01b0316635c60da1b6040518163ffffffff1660e01b815260040160206040518083038186803b1580156101ea57600080fd5b505afa1580156101fe573d6000803e3d6000fd5b505050506040513d601f19601f8201168201806040525081019061013191906105bf565b3660008037600080366000845af43d6000803e808015610241573d6000f35b3d6000fd5b60007fb53127684a568b3173ae13b9f8a6016e243e63b6e8ee1178d6a717850b5d61035b546001600160a01b0316919050565b61028281610417565b6040516001600160a01b038216907fbc7cd75a20ee27fd9adebab32041f755214dbc6bffa90cc0225b39da2e5c2d3b90600090a250565b7f7e644d79422f17c01e4894b5f4f588d331ebfa28653d42ae832dc59e38c9798f6102e2610246565b604080516001600160a01b03928316815291841660208301520160405180910390a161011c816104c8565b60606001600160a01b0384163b61037a5760405162461bcd60e51b815260206004820152602660248201527f416464726573733a2064656c65676174652063616c6c20746f206e6f6e2d636f6044820152651b9d1c9858dd60d21b60648201526084015b60405180910390fd5b600080856001600160a01b031685604051610395919061060c565b600060405180830381855af49150503d80600081146103d0576040519150601f19603f3d011682016040523d82523d6000602084013e6103d5565b606091505b50915091506103e5828286610554565b9695505050505050565b60007fa3f0ad74e5423aebfd80d3ef4346578335a9a72aeaee59ff6cb3582b35133d5061026a565b6001600160a01b0381163b6104845760405162461bcd60e51b815260206004820152602d60248201527f455243313936373a206e657720696d706c656d656e746174696f6e206973206e60448201526c1bdd08184818dbdb9d1c9858dd609a1b6064820152608401610371565b807f360894a13ba1a3210667c828492db98dca3e2076cc3735a920a3ca505d382bbc5b80546001600160a01b0319166001600160a01b039290921691909117905550565b6001600160a01b03811661052d5760405162461bcd60e51b815260206004820152602660248201527f455243313936373a206e65772061646d696e20697320746865207a65726f206160448201526564647265737360d01b6064820152608401610371565b807fb53127684a568b3173ae13b9f8a6016e243e63b6e8ee1178d6a717850b5d61036104a7565b6060831561056357508161018f565b8251156105735782518084602001fd5b8160405162461bcd60e51b81526004016103719190610628565b6001600160a01b038116811461011c57600080fd5b6000602082840312156105b457600080fd5b813561018f8161058d565b6000602082840312156105d157600080fd5b815161018f8161058d565b60005b838110156105f75781810151838201526020016105df565b83811115610606576000848401525b50505050565b6000825161061e8184602087016105dc565b9190910192915050565b60208152600082518060208401526106478160408501602087016105dc565b601f01601f1916919091016040019291505056fe416464726573733a206c6f772d6c6576656c2064656c65676174652063616c6c206661696c6564a2646970667358221220f6fee21bb8eb753a42dfc1c8f826e6d7277c4b10f8ce653b156cb600671172c864736f6c63430008090033b53127684a568b3173ae13b9f8a6016e243e63b6e8ee1178d6a717850b5d6103416464726573733a206c6f772d6c6576656c2064656c65676174652063616c6c206661696c65644abde63c3e81aefa5764b017968bc473e83e093d7e1a10247d19e0a3e4124018d25af282180dbd50d3ba79f291b857e1b411793b87e22e0b91e41df4deff13a9a2646970667358221220edfe62ccf7cdf0c6a5c39b9781265574dfc8b3f1872f455df979dc289f23329c64736f6c63430008090033",
  "implementation": "0xeE7CC84b7e6562Bd5f3BF8dBcC5050Bec85F4934",
  "devdoc": {
    "kind": "dev",
    "methods": {
      "acceptedContracts()": {
        "details": "The contact name listed in this method is also needed to be listed `requiredContracts` method."
      },
      "deployLendingMarket(bytes32,uint256,uint256)": {
        "params": {
          "_ccy": "Main currency for new lending market",
          "_maturity": "The initial maturity of the market",
          "_openingDate": "The timestamp when the market opens"
        },
        "returns": {
          "market": "The proxy contract address of created lending market"
        }
      },
      "getBeaconProxyAddress(bytes32)": {
        "params": {
          "beaconName": "The cache name of the beacon proxy"
        },
        "returns": {
          "beaconProxyAddress": "The beacon proxy address"
        }
      },
      "initialize(address,address)": {
        "details": "Function is invoked by the proxy contract when the contract is added to the ProxyController.",
        "params": {
          "_owner": "The address of the contract owner",
          "_resolver": "The address of the Address Resolver contract"
        }
      },
      "owner()": {
        "details": "Returns the address of the current owner."
      },
      "renounceOwnership()": {
        "details": "Leaves the contract without owner. It will not be possible to call `onlyOwner` functions anymore. Can only be called by the current owner. NOTE: Renouncing ownership will leave the contract without an owner, thereby removing any functionality that is only available to the owner."
      },
      "requiredContracts()": {
        "details": "The contract name list is in `./libraries/Contracts.sol`."
      },
      "setFutureValueVaultImpl(address)": {
        "params": {
          "newImpl": "The address of implementation contract"
        }
      },
      "setLendingMarketImpl(address)": {
        "params": {
          "newImpl": "The address of implementation contract"
        }
      },
      "transferOwnership(address)": {
        "details": "Transfers ownership of the contract to a new account (`newOwner`). Can only be called by the current owner."
      }
    },
    "version": 1
  },
  "userdoc": {
    "kind": "user",
    "methods": {
      "acceptedContracts()": {
        "notice": "Returns contract names that can call this contract."
      },
      "deployFutureValueVault()": {
        "notice": "Deploys new FutureValueVaultReverts on deployment market with existing currency and term"
      },
      "deployLendingMarket(bytes32,uint256,uint256)": {
        "notice": "Deploys new LendingMarket"
      },
      "getBeaconProxyAddress(bytes32)": {
        "notice": "Gets the beacon proxy address to the selected name."
      },
      "initialize(address,address)": {
        "notice": "Initializes the contract."
      },
      "requiredContracts()": {
        "notice": "Returns the contract names used in this contract."
      },
      "setFutureValueVaultImpl(address)": {
        "notice": "Sets the implementation contract of FutureValueVault"
      },
      "setLendingMarketImpl(address)": {
        "notice": "Sets the implementation contract of LendingMarket"
      }
    },
    "notice": "Implements the management of beacon proxy contracts. All beacon proxy contracts are deployed from this contract. This contract is also used to update the beacon proxy implementation.",
    "version": 1
  },
  "storageLayout": {
    "storage": [
      {
        "astId": 1183,
        "contract": "contracts/BeaconProxyController.sol:BeaconProxyController",
        "label": "_initialized",
        "offset": 0,
        "slot": "0",
        "type": "t_uint8"
      },
      {
        "astId": 1186,
        "contract": "contracts/BeaconProxyController.sol:BeaconProxyController",
        "label": "_initializing",
        "offset": 1,
        "slot": "0",
        "type": "t_bool"
      }
    ],
    "types": {
      "t_bool": {
        "encoding": "inplace",
        "label": "bool",
        "numberOfBytes": "1"
      },
      "t_uint8": {
        "encoding": "inplace",
        "label": "uint8",
        "numberOfBytes": "1"
      }
    }
  }
}