{
  "address": "0xD40BeE8D7Fc756Bf27f4177D78A9F3a11DF56e9D",
  "abi": [
    {
      "anonymous": false,
      "inputs": [
        {
          "indexed": true,
          "internalType": "bytes32",
          "name": "ccy",
          "type": "bytes32"
        },
        {
          "indexed": false,
          "internalType": "uint256",
          "name": "haircut",
          "type": "uint256"
        }
      ],
      "name": "CurrencyAdded",
      "type": "event"
    },
    {
      "anonymous": false,
      "inputs": [
        {
          "indexed": true,
          "internalType": "bytes32",
          "name": "ccy",
          "type": "bytes32"
        }
      ],
      "name": "CurrencyRemoved",
      "type": "event"
    },
    {
      "anonymous": false,
      "inputs": [
        {
          "indexed": true,
          "internalType": "bytes32",
          "name": "ccy",
          "type": "bytes32"
        },
        {
          "indexed": false,
          "internalType": "uint256",
          "name": "haircut",
          "type": "uint256"
        }
      ],
      "name": "HaircutUpdated",
      "type": "event"
    },
    {
      "anonymous": false,
      "inputs": [
        {
          "indexed": false,
          "internalType": "uint8",
          "name": "version",
          "type": "uint8"
        }
      ],
      "name": "Initialized",
      "type": "event"
    },
    {
      "anonymous": false,
      "inputs": [
        {
          "indexed": true,
          "internalType": "address",
          "name": "previousOwner",
          "type": "address"
        },
        {
          "indexed": true,
          "internalType": "address",
          "name": "newOwner",
          "type": "address"
        }
      ],
      "name": "OwnershipTransferred",
      "type": "event"
    },
    {
      "anonymous": false,
      "inputs": [
        {
          "indexed": false,
          "internalType": "bytes32",
          "name": "ccy",
          "type": "bytes32"
        },
        {
          "indexed": false,
          "internalType": "string",
          "name": "secondCcy",
          "type": "string"
        },
        {
          "indexed": true,
          "internalType": "address",
          "name": "priceFeed",
          "type": "address"
        }
      ],
      "name": "PriceFeedAdded",
      "type": "event"
    },
    {
      "anonymous": false,
      "inputs": [
        {
          "indexed": false,
          "internalType": "bytes32",
          "name": "ccy",
          "type": "bytes32"
        },
        {
          "indexed": false,
          "internalType": "string",
          "name": "secondCcy",
          "type": "string"
        },
        {
          "indexed": true,
          "internalType": "address",
          "name": "priceFeed",
          "type": "address"
        }
      ],
      "name": "PriceFeedRemoved",
      "type": "event"
    },
    {
      "inputs": [
        {
          "internalType": "bytes32",
          "name": "_ccy",
          "type": "bytes32"
        },
        {
          "internalType": "address",
          "name": "_ethPriceFeed",
          "type": "address"
        },
        {
          "internalType": "uint256",
          "name": "_haircut",
          "type": "uint256"
        }
      ],
      "name": "addCurrency",
      "outputs": [],
      "stateMutability": "nonpayable",
      "type": "function"
    },
    {
      "inputs": [
        {
          "internalType": "bytes32",
          "name": "_ccy",
          "type": "bytes32"
        },
        {
          "internalType": "uint256",
          "name": "_amountETH",
          "type": "uint256"
        }
      ],
      "name": "convertFromETH",
      "outputs": [
        {
          "internalType": "uint256",
          "name": "amount",
          "type": "uint256"
        }
      ],
      "stateMutability": "view",
      "type": "function"
    },
    {
      "inputs": [
        {
          "internalType": "bytes32",
          "name": "_ccy",
          "type": "bytes32"
        },
        {
          "internalType": "int256",
          "name": "_amount",
          "type": "int256"
        }
      ],
      "name": "convertToETH",
      "outputs": [
        {
          "internalType": "int256",
          "name": "amount",
          "type": "int256"
        }
      ],
      "stateMutability": "view",
      "type": "function"
    },
    {
      "inputs": [
        {
          "internalType": "bytes32",
          "name": "_ccy",
          "type": "bytes32"
        },
        {
          "internalType": "uint256",
          "name": "_amount",
          "type": "uint256"
        }
      ],
      "name": "convertToETH",
      "outputs": [
        {
          "internalType": "uint256",
          "name": "amount",
          "type": "uint256"
        }
      ],
      "stateMutability": "view",
      "type": "function"
    },
    {
      "inputs": [
        {
          "internalType": "bytes32",
          "name": "_ccy",
          "type": "bytes32"
        },
        {
          "internalType": "uint256[]",
          "name": "_amounts",
          "type": "uint256[]"
        }
      ],
      "name": "convertToETH",
      "outputs": [
        {
          "internalType": "uint256[]",
          "name": "amounts",
          "type": "uint256[]"
        }
      ],
      "stateMutability": "view",
      "type": "function"
    },
    {
      "inputs": [
        {
          "internalType": "bytes32",
          "name": "_ccy",
          "type": "bytes32"
        }
      ],
      "name": "currencyExists",
      "outputs": [
        {
          "internalType": "bool",
          "name": "",
          "type": "bool"
        }
      ],
      "stateMutability": "view",
      "type": "function"
    },
    {
      "inputs": [],
      "name": "getCurrencies",
      "outputs": [
        {
          "internalType": "bytes32[]",
          "name": "",
          "type": "bytes32[]"
        }
      ],
      "stateMutability": "view",
      "type": "function"
    },
    {
      "inputs": [
        {
          "internalType": "bytes32",
          "name": "_ccy",
          "type": "bytes32"
        }
      ],
      "name": "getEthDecimals",
      "outputs": [
        {
          "internalType": "uint8",
          "name": "",
          "type": "uint8"
        }
      ],
      "stateMutability": "view",
      "type": "function"
    },
    {
      "inputs": [
        {
          "internalType": "bytes32",
          "name": "_ccy",
          "type": "bytes32"
        }
      ],
      "name": "getHaircut",
      "outputs": [
        {
          "internalType": "uint256",
          "name": "",
          "type": "uint256"
        }
      ],
      "stateMutability": "view",
      "type": "function"
    },
    {
      "inputs": [
        {
          "internalType": "bytes32",
          "name": "_ccy",
          "type": "bytes32"
        },
        {
          "internalType": "uint80",
          "name": "_roundId",
          "type": "uint80"
        }
      ],
      "name": "getHistoricalETHPrice",
      "outputs": [
        {
          "internalType": "int256",
          "name": "",
          "type": "int256"
        }
      ],
      "stateMutability": "view",
      "type": "function"
    },
    {
      "inputs": [
        {
          "internalType": "bytes32",
          "name": "_ccy",
          "type": "bytes32"
        },
        {
          "internalType": "uint80",
          "name": "_roundId",
          "type": "uint80"
        }
      ],
      "name": "getHistoricalUSDPrice",
      "outputs": [
        {
          "internalType": "int256",
          "name": "",
          "type": "int256"
        }
      ],
      "stateMutability": "view",
      "type": "function"
    },
    {
      "inputs": [
        {
          "internalType": "bytes32",
          "name": "_ccy",
          "type": "bytes32"
        }
      ],
      "name": "getLastETHPrice",
      "outputs": [
        {
          "internalType": "int256",
          "name": "price",
          "type": "int256"
        }
      ],
      "stateMutability": "view",
      "type": "function"
    },
    {
      "inputs": [
        {
          "internalType": "bytes32",
          "name": "_ccy",
          "type": "bytes32"
        }
      ],
      "name": "getLastUSDPrice",
      "outputs": [
        {
          "internalType": "int256",
          "name": "price",
          "type": "int256"
        }
      ],
      "stateMutability": "view",
      "type": "function"
    },
    {
      "inputs": [
        {
          "internalType": "bytes32",
          "name": "_ccy",
          "type": "bytes32"
        }
      ],
      "name": "getUsdDecimals",
      "outputs": [
        {
          "internalType": "uint8",
          "name": "",
          "type": "uint8"
        }
      ],
      "stateMutability": "view",
      "type": "function"
    },
    {
      "inputs": [
        {
          "internalType": "address",
          "name": "_owner",
          "type": "address"
        }
      ],
      "name": "initialize",
      "outputs": [],
      "stateMutability": "nonpayable",
      "type": "function"
    },
    {
      "inputs": [
        {
          "internalType": "bytes32",
          "name": "_ccy",
          "type": "bytes32"
        },
        {
          "internalType": "address",
          "name": "_priceFeedAddr",
          "type": "address"
        },
        {
          "internalType": "bool",
          "name": "_isEthPriceFeed",
          "type": "bool"
        }
      ],
      "name": "linkPriceFeed",
      "outputs": [
        {
          "internalType": "bool",
          "name": "",
          "type": "bool"
        }
      ],
      "stateMutability": "nonpayable",
      "type": "function"
    },
    {
      "inputs": [],
      "name": "owner",
      "outputs": [
        {
          "internalType": "address",
          "name": "",
          "type": "address"
        }
      ],
      "stateMutability": "view",
      "type": "function"
    },
    {
      "inputs": [
        {
          "internalType": "bytes32",
          "name": "_ccy",
          "type": "bytes32"
        }
      ],
      "name": "removeCurrency",
      "outputs": [],
      "stateMutability": "nonpayable",
      "type": "function"
    },
    {
      "inputs": [
        {
          "internalType": "bytes32",
          "name": "_ccy",
          "type": "bytes32"
        },
        {
          "internalType": "bool",
          "name": "_isEthPriceFeed",
          "type": "bool"
        }
      ],
      "name": "removePriceFeed",
      "outputs": [],
      "stateMutability": "nonpayable",
      "type": "function"
    },
    {
      "inputs": [],
      "name": "renounceOwnership",
      "outputs": [],
      "stateMutability": "nonpayable",
      "type": "function"
    },
    {
      "inputs": [
        {
          "internalType": "address",
          "name": "newOwner",
          "type": "address"
        }
      ],
      "name": "transferOwnership",
      "outputs": [],
      "stateMutability": "nonpayable",
      "type": "function"
    },
    {
      "inputs": [
        {
          "internalType": "bytes32",
          "name": "_ccy",
          "type": "bytes32"
        },
        {
          "internalType": "uint256",
          "name": "_haircut",
          "type": "uint256"
        }
      ],
      "name": "updateHaircut",
      "outputs": [],
      "stateMutability": "nonpayable",
      "type": "function"
    }
  ],
  "transactionHash": "0x3cffcd0d28bd5453d086dba8449e505c5b23e2228ee0e414937089553d00da5c",
  "args": [],
  "numDeployments": 2,
  "solcInputHash": "3f85b78d4f02b33ea339ac5a99716c70",
  "bytecode": "0x608060405234801561001057600080fd5b50611fae806100206000396000f3fe608060405234801561001057600080fd5b50600436106101425760003560e01c806371bee4a1116100b8578063c4d66de81161007c578063c4d66de8146102b2578063c5babb1b146102c5578063cc8dd9f1146102d8578063efd4ad5a146102eb578063f2fde38b146102fe578063facae93f1461031157600080fd5b806371bee4a1146102465780637b7904e3146102595780638da5cb5b1461026c578063939fe6221461028c5780639abdb38a1461029f57600080fd5b806344a6ecdd1161010a57806344a6ecdd146101db57806350326d22146101ee57806360cd44781461020157806361c661de146102145780636d01544d14610229578063715018a61461023c57600080fd5b8063042613711461014757806306d062ad146101715780631743ffce146101925780631eae0893146101a55780633a0a22f0146101c8575b600080fd5b61015a610155366004611917565b610324565b60405160ff90911681526020015b60405180910390f35b61018461017f366004611930565b610345565b604051908152602001610168565b6101846101a0366004611917565b6103f7565b6101b86101b3366004611917565b61041f565b6040519015158152602001610168565b6101846101d6366004611930565b610433565b6101846101e9366004611930565b6104ab565b6101846101fc366004611917565b610517565b61018461020f36600461196a565b6105bd565b61021c6106e3565b604051610168919061199a565b61018461023736600461196a565b6106fa565b610244610756565b005b610244610254366004611930565b610791565b6102446102673660046119f3565b610905565b610274610b63565b6040516001600160a01b039091168152602001610168565b61021c61029a366004611a35565b610b96565b6101846102ad366004611917565b610cc1565b6102446102c0366004611b16565b610cdf565b6102446102d3366004611b31565b610e5e565b6101b86102e6366004611b66565b610f50565b6102446102f9366004611917565b61132d565b61024461030c366004611b16565b61139d565b61015a61031f366004611917565b61143d565b600061032e61145e565b600092835260050160205250604090205460ff1690565b60006208aa8960eb1b83141561035c5750806103f1565b61036d61036884611482565b6114e1565b61037561145e565b600085815260069190910160205260409020546103969060ff16600a611c9c565b6103a09084611cab565b6103aa9190611ce0565b9050806103f15760405162461bcd60e51b815260206004820152601060248201526f151bdbc81cdb585b1b08185b5bdd5b9d60821b60448201526064015b60405180910390fd5b92915050565b60006208aa8960eb1b8214156104165750670de0b6b3a7640000919050565b6103f182611482565b60006103f18261042d61145e565b90611537565b60006208aa8960eb1b83141561044a5750806103f1565b81610457575060006103f1565b6104a461048b61046561145e565b600086815260069190910160205260409020546104869060ff16600a611c9c565b61154f565b61049485611482565b61049e9085611cf4565b906115b9565b9392505050565b60006208aa8960eb1b8314156104c25750806103f1565b816104cf575060006103f1565b6104a46104da61145e565b600085815260069190910160205260409020546104fb9060ff16600a611c9c565b61050761036886611482565b6105119085611cab565b9061164c565b60008061052261145e565b6000848152600391909101602052604090819020548151633fabe5a360e21b815291516001600160a01b039091169250829163feaf968c9160048083019260a0929190829003018186803b15801561057957600080fd5b505afa15801561058d573d6000803e3d6000fd5b505050506040513d601f19601f820116820180604052508101906105b19190611d79565b50919695505050505050565b60006208aa8960eb1b8314156105dc5750670de0b6b3a76400006103f1565b60006105e661145e565b600085815260049182016020526040808220549051639a6fc8f560e01b815269ffffffffffffffffffff8716938101939093526001600160a01b031692509081908390639a6fc8f5906024015b60a06040518083038186803b15801561064b57600080fd5b505afa15801561065f573d6000803e3d6000fd5b505050506040513d601f19601f820116820180604052508101906106839190611d79565b50935050925050600081116106da5760405162461bcd60e51b815260206004820152601760248201527f526f756e64206e6f7420636f6d706c657465642079657400000000000000000060448201526064016103e8565b50949350505050565b60606106f56106f061145e565b6116bd565b905090565b60008061070561145e565b60008581526003919091016020526040808220549051639a6fc8f560e01b815269ffffffffffffffffffff861660048201526001600160a01b03909116925081908390639a6fc8f590602401610633565b3361075f610b63565b6001600160a01b0316146107855760405162461bcd60e51b81526004016103e890611dd1565b61078f60006116c8565b565b3361079a610b63565b6001600160a01b0316146107c05760405162461bcd60e51b81526004016103e890611dd1565b816107ca8161041f565b61080a5760405162461bcd60e51b8152602060048201526011602482015270155b9cdd5c1c1bdc9d195908185cdcd95d607a1b60448201526064016103e8565b6000821161085a5760405162461bcd60e51b815260206004820152601760248201527f496e636f7272656374206861697263757420726174696f00000000000000000060448201526064016103e8565b6127108211156108a55760405162461bcd60e51b81526020600482015260166024820152754861697263757420726174696f206f766572666c6f7760501b60448201526064016103e8565b816108ae61145e565b600201600085815260200190815260200160002081905550827f99d976082a5e53ffddd334dbf2aec9b617affac6394470feb508f5fb662e0a1a836040516108f891815260200190565b60405180910390a2505050565b3361090e610b63565b6001600160a01b0316146109345760405162461bcd60e51b81526004016103e890611dd1565b8161093e8161041f565b61097e5760405162461bcd60e51b8152602060048201526011602482015270155b9cdd5c1c1bdc9d195908185cdcd95d607a1b60448201526064016103e8565b60018215151415610a7d57600061099361145e565b600085815260049190910160205260409020546001600160a01b03169050806109ce5760405162461bcd60e51b81526004016103e890611e06565b6109d661145e565b60008581526004919091016020526040902080546001600160a01b03191690556109fe61145e565b6000858152600691909101602052604090819020805460ff19169055516001600160a01b038216907ea0d5a605fe34a5efa696fb7b7fc385f4efcc9d0ff516d7dc7a1cbfbe065ee790610a6f908781526040602082018190526003908201526208aa8960eb1b606082015260800190565b60405180910390a250505050565b6000610a8761145e565b600085815260039190910160205260409020546001600160a01b0316905080610ac25760405162461bcd60e51b81526004016103e890611e06565b610aca61145e565b60008581526003919091016020526040902080546001600160a01b0319169055610af261145e565b6000858152600591909101602052604090819020805460ff19169055516001600160a01b038216907ea0d5a605fe34a5efa696fb7b7fc385f4efcc9d0ff516d7dc7a1cbfbe065ee790610a6f90878152604060208201819052600390820152621554d160ea1b606082015260800190565b60007f9acda75aebd150dd434541a4747a6dc606f4f1a59662477e67daf1fc0bf9e0aa5b546001600160a01b0316919050565b60606208aa8960eb1b831415610bad5750806103f1565b815167ffffffffffffffff811115610bc757610bc7611a1f565b604051908082528060200260200182016040528015610bf0578160200160208202803683370190505b50905060005b8251811015610cba57828181518110610c1157610c11611e31565b602002602001015160001415610c2657610ca8565b610c2e61145e565b60008581526006919091016020526040902054610c4f9060ff16600a611c9c565b610c5b61036886611482565b848381518110610c6d57610c6d611e31565b6020026020010151610c7f9190611cab565b610c899190611ce0565b828281518110610c9b57610c9b611e31565b6020026020010181815250505b80610cb281611e47565b915050610bf6565b5092915050565b6000610ccb61145e565b600092835260020160205250604090205490565b600054610100900460ff1615808015610cff5750600054600160ff909116105b80610d195750303b158015610d19575060005460ff166001145b610d7c5760405162461bcd60e51b815260206004820152602e60248201527f496e697469616c697a61626c653a20636f6e747261637420697320616c72656160448201526d191e481a5b9a5d1a585b1a5e995960921b60648201526084016103e8565b6000805460ff191660011790558015610d9f576000805461ff0019166101001790555b6000610da9611739565b6001600160a01b03161415610e0b5760405162461bcd60e51b815260206004820152602260248201527f4d7573742062652063616c6c65642066726f6d2070726f787920636f6e74726160448201526118dd60f21b60648201526084016103e8565b610e14826116c8565b8015610e5a576000805461ff0019169055604051600181527f7f26b83ff96e1f2b6a682f133852f6798a09c465da95921460cefb38474024989060200160405180910390a15b5050565b33610e67610b63565b6001600160a01b031614610e8d5760405162461bcd60e51b81526004016103e890611dd1565b610e9f83610e9961145e565b90611761565b5080610ea961145e565b600085815260029190910160205260409020556208aa8960eb1b8314610ef657610ed583836001610f50565b610ef15760405162461bcd60e51b81526004016103e890611e06565b610f1e565b610f0283836000610f50565b610f1e5760405162461bcd60e51b81526004016103e890611e06565b827f79e8862930b44b699510a91d2ef96e28ebbdb9963c1a41053f16b6b09a02f63a826040516108f891815260200190565b600033610f5b610b63565b6001600160a01b031614610f815760405162461bcd60e51b81526004016103e890611dd1565b6001600160a01b038316610fd75760405162461bcd60e51b815260206004820152601960248201527f436f756c646e2774206c696e6b2030783020616464726573730000000000000060448201526064016103e8565b60008390506000816001600160a01b031663feaf968c6040518163ffffffff1660e01b815260040160a06040518083038186803b15801561101757600080fd5b505afa15801561102b573d6000803e3d6000fd5b505050506040513d601f19601f8201168201806040525081019061104f9190611d79565b50505091505060008112156110765760405162461bcd60e51b81526004016103e890611e06565b6000826001600160a01b031663313ce5676040518163ffffffff1660e01b815260040160206040518083038186803b1580156110b157600080fd5b505afa1580156110c5573d6000803e3d6000fd5b505050506040513d601f19601f820116820180604052508101906110e99190611e62565b905060128160ff1611156111325760405162461bcd60e51b815260206004820152601060248201526f496e76616c696420646563696d616c7360801b60448201526064016103e8565b8415611253576208aa8960eb1b8714156111825760405162461bcd60e51b8152602060048201526011602482015270086c2dc4ee840d8d2dcd640e8de408aa89607b1b60448201526064016103e8565b8261118b61145e565b60008981526004919091016020526040902080546001600160a01b0319166001600160a01b0392909216919091179055806111c461145e565b600601600089815260200190815260200160002060006101000a81548160ff021916908360ff160217905550856001600160a01b03167f6537ffaaeebdb294479a8b7fab1081c2b15de1a4bc9df657aad801547748fa4a886040516112469181526040602082018190526003908201526208aa8960eb1b606082015260800190565b60405180910390a2611320565b8261125c61145e565b60008981526003919091016020526040902080546001600160a01b0319166001600160a01b03929092169190911790558061129561145e565b600501600089815260200190815260200160002060006101000a81548160ff021916908360ff160217905550856001600160a01b03167f6537ffaaeebdb294479a8b7fab1081c2b15de1a4bc9df657aad801547748fa4a88604051611317918152604060208201819052600390820152621554d160ea1b606082015260800190565b60405180910390a25b5060019695505050505050565b33611336610b63565b6001600160a01b03161461135c5760405162461bcd60e51b81526004016103e890611dd1565b61136e8161136861145e565b9061176d565b5060405181907fa3c6a408fb053e3ef5e9bcd22e3574324a5ae99fad263cc4080da481842d3d4c90600090a250565b336113a6610b63565b6001600160a01b0316146113cc5760405162461bcd60e51b81526004016103e890611dd1565b6001600160a01b0381166114315760405162461bcd60e51b815260206004820152602660248201527f4f776e61626c653a206e6577206f776e657220697320746865207a65726f206160448201526564647265737360d01b60648201526084016103e8565b61143a816116c8565b50565b600061144761145e565b600092835260060160205250604090205460ff1690565b7fbf1f6da7b18d0b1bd723139ae003962c8fa874ed2f9ff2b1948edfe1e7915f5d90565b60008061148d61145e565b60008481526004918201602052604090819020548151633fabe5a360e21b815291516001600160a01b039091169350839263feaf968c928082019260a0929091829003018186803b15801561057957600080fd5b6000808212156115335760405162461bcd60e51b815260206004820181905260248201527f53616665436173743a2076616c7565206d75737420626520706f73697469766560448201526064016103e8565b5090565b600081815260018301602052604081205415156104a4565b60006001600160ff1b038211156115335760405162461bcd60e51b815260206004820152602860248201527f53616665436173743a2076616c756520646f65736e27742066697420696e2061604482015267371034b73a191a9b60c11b60648201526084016103e8565b6000816115c557600080fd5b60006115d18385611e85565b6115dc90600a611cf4565b836115e886600a611cf4565b6115f29190611e85565b6115fc9190611eb3565b905060058112611623576116108385611e85565b61161b906001611ef2565b9150506103f1565b60041981136116425760016116388486611e85565b61161b9190611eb3565b61161b8385611e85565b600080821161165a57600080fd5b60056116668385611ce0565b61167190600a611cab565b8361167d86600a611cab565b6116879190611ce0565b6116919190611f33565b10156116a8576116a18284611ce0565b90506103f1565b6116b28284611ce0565b6116a1906001611f4a565b60606103f182611779565b7f9acda75aebd150dd434541a4747a6dc606f4f1a59662477e67daf1fc0bf9e0aa80546001600160a01b038381166001600160a01b0319831681179093556040519116919082907f8be0079c531659141344cd1fd0a4f28419497f9722a3daafe3b4186f6b6457e090600090a35050565b60007f360894a13ba1a3210667c828492db98dca3e2076cc3735a920a3ca505d382bbc610b87565b60006104a483836117d5565b60006104a48383611824565b6060816000018054806020026020016040519081016040528092919081815260200182805480156117c957602002820191906000526020600020905b8154815260200190600101908083116117b5575b50505050509050919050565b600081815260018301602052604081205461181c575081546001818101845560008481526020808220909301849055845484825282860190935260409020919091556103f1565b5060006103f1565b6000818152600183016020526040812054801561190d576000611848600183611f33565b855490915060009061185c90600190611f33565b90508181146118c157600086600001828154811061187c5761187c611e31565b906000526020600020015490508087600001848154811061189f5761189f611e31565b6000918252602080832090910192909255918252600188019052604090208390555b85548690806118d2576118d2611f62565b6001900381819060005260206000200160009055905585600101600086815260200190815260200160002060009055600193505050506103f1565b60009150506103f1565b60006020828403121561192957600080fd5b5035919050565b6000806040838503121561194357600080fd5b50508035926020909101359150565b69ffffffffffffffffffff8116811461143a57600080fd5b6000806040838503121561197d57600080fd5b82359150602083013561198f81611952565b809150509250929050565b6020808252825182820181905260009190848201906040850190845b818110156119d2578351835292840192918401916001016119b6565b50909695505050505050565b803580151581146119ee57600080fd5b919050565b60008060408385031215611a0657600080fd5b82359150611a16602084016119de565b90509250929050565b634e487b7160e01b600052604160045260246000fd5b60008060408385031215611a4857600080fd5b8235915060208084013567ffffffffffffffff80821115611a6857600080fd5b818601915086601f830112611a7c57600080fd5b813581811115611a8e57611a8e611a1f565b8060051b604051601f19603f83011681018181108582111715611ab357611ab3611a1f565b604052918252848201925083810185019189831115611ad157600080fd5b938501935b82851015611aef57843584529385019392850192611ad6565b8096505050505050509250929050565b80356001600160a01b03811681146119ee57600080fd5b600060208284031215611b2857600080fd5b6104a482611aff565b600080600060608486031215611b4657600080fd5b83359250611b5660208501611aff565b9150604084013590509250925092565b600080600060608486031215611b7b57600080fd5b83359250611b8b60208501611aff565b9150611b99604085016119de565b90509250925092565b634e487b7160e01b600052601160045260246000fd5b600181815b80851115611bf3578160001904821115611bd957611bd9611ba2565b80851615611be657918102915b93841c9390800290611bbd565b509250929050565b600082611c0a575060016103f1565b81611c17575060006103f1565b8160018114611c2d5760028114611c3757611c53565b60019150506103f1565b60ff841115611c4857611c48611ba2565b50506001821b6103f1565b5060208310610133831016604e8410600b8410161715611c76575081810a6103f1565b611c808383611bb8565b8060001904821115611c9457611c94611ba2565b029392505050565b60006104a460ff841683611bfb565b6000816000190483118215151615611cc557611cc5611ba2565b500290565b634e487b7160e01b600052601260045260246000fd5b600082611cef57611cef611cca565b500490565b60006001600160ff1b0381841382841380821686840486111615611d1a57611d1a611ba2565b600160ff1b6000871282811687830589121615611d3957611d39611ba2565b60008712925087820587128484161615611d5557611d55611ba2565b87850587128184161615611d6b57611d6b611ba2565b505050929093029392505050565b600080600080600060a08688031215611d9157600080fd5b8551611d9c81611952565b809550506020860151935060408601519250606086015191506080860151611dc381611952565b809150509295509295909350565b6020808252818101527f4f776e61626c653a2063616c6c6572206973206e6f7420746865206f776e6572604082015260600190565b602080825260119082015270125b9d985b1a5908141c9a58d951995959607a1b604082015260600190565b634e487b7160e01b600052603260045260246000fd5b6000600019821415611e5b57611e5b611ba2565b5060010190565b600060208284031215611e7457600080fd5b815160ff811681146104a457600080fd5b600082611e9457611e94611cca565b600160ff1b821460001984141615611eae57611eae611ba2565b500590565b60008083128015600160ff1b850184121615611ed157611ed1611ba2565b6001600160ff1b0384018313811615611eec57611eec611ba2565b50500390565b600080821280156001600160ff1b0384900385131615611f1457611f14611ba2565b600160ff1b8390038412811615611f2d57611f2d611ba2565b50500190565b600082821015611f4557611f45611ba2565b500390565b60008219821115611f5d57611f5d611ba2565b500190565b634e487b7160e01b600052603160045260246000fdfea264697066735822122069589f60dac055b30e759c45d25ee519d80a490a405db671e3ca0e2802ed713c64736f6c63430008090033",
  "implementation": "0xdA01617aAa3D35F06C9AA82F14917c87bfb085BE",
  "devdoc": {
    "kind": "dev",
    "methods": {
      "addCurrency(bytes32,address,uint256)": {
        "params": {
          "_ccy": "Currency name in bytes32",
          "_ethPriceFeed": "Address for ETH price feed",
          "_haircut": "Remaining ratio after haircut"
        }
      },
      "convertFromETH(bytes32,uint256)": {
        "params": {
          "_amountETH": "Amount in ETH to be converted",
          "_ccy": "Currency that has to be converted from ETH"
        },
        "returns": {
          "amount": "The converted amount"
        }
      },
      "convertToETH(bytes32,int256)": {
        "params": {
          "_amount": "Amount to be converted",
          "_ccy": "Currency that has to be converted to ETH"
        },
        "returns": {
          "amount": "The converted amount"
        }
      },
      "convertToETH(bytes32,uint256)": {
        "params": {
          "_amount": "Amount to be converted",
          "_ccy": "Currency that has to be converted to ETH"
        },
        "returns": {
          "amount": "The converted amount"
        }
      },
      "convertToETH(bytes32,uint256[])": {
        "params": {
          "_amounts": "Amounts to be converted",
          "_ccy": "Currency that has to be converted to ETH"
        },
        "returns": {
          "amounts": "The converted amounts"
        }
      },
      "currencyExists(bytes32)": {
        "params": {
          "_ccy": "Currency name in bytes32"
        },
        "returns": {
          "_0": "The boolean if the selected currency is supported or not"
        }
      },
      "getCurrencies()": {
        "returns": {
          "_0": "The array of the currency"
        }
      },
      "getEthDecimals(bytes32)": {
        "params": {
          "_ccy": "Currency name in bytes32"
        }
      },
      "getHaircut(bytes32)": {
        "params": {
          "_ccy": "Currency name in bytes32"
        }
      },
      "getHistoricalETHPrice(bytes32,uint80)": {
        "params": {
          "_ccy": "Currency name in bytes32",
          "_roundId": "RoundId"
        },
        "returns": {
          "_0": "The historical price in ETH"
        }
      },
      "getHistoricalUSDPrice(bytes32,uint80)": {
        "params": {
          "_ccy": "Currency name in bytes32",
          "_roundId": "RoundId"
        },
        "returns": {
          "_0": "The historical price in USD"
        }
      },
      "getLastETHPrice(bytes32)": {
        "params": {
          "_ccy": "Currency name in bytes32"
        },
        "returns": {
          "price": "The last price in ETH"
        }
      },
      "getLastUSDPrice(bytes32)": {
        "params": {
          "_ccy": "Currency name in bytes32"
        },
        "returns": {
          "price": "The last price in USD"
        }
      },
      "getUsdDecimals(bytes32)": {
        "params": {
          "_ccy": "Currency name in bytes32"
        }
      },
      "initialize(address)": {
        "details": "Function is invoked by the proxy contract when the contract is added to the ProxyController.",
        "params": {
          "_owner": "The address of the contract owner"
        }
      },
      "linkPriceFeed(bytes32,address,bool)": {
        "details": "This method can use only Chainlink.",
        "params": {
          "_ccy": "Currency name in bytes32",
          "_isEthPriceFeed": "Boolean if the price feed is in ETH or not",
          "_priceFeedAddr": "The contract address of Chainlink price feed"
        },
        "returns": {
          "_0": "True if the execution of the operation succeeds"
        }
      },
      "owner()": {
        "details": "Returns the address of the current owner."
      },
      "removeCurrency(bytes32)": {
        "params": {
          "_ccy": "Currency name in bytes32"
        }
      },
      "removePriceFeed(bytes32,bool)": {
        "params": {
          "_ccy": "Currency name in bytes32",
          "_isEthPriceFeed": "Boolean if the price feed is in ETH or not"
        }
      },
      "renounceOwnership()": {
        "details": "Leaves the contract without owner. It will not be possible to call `onlyOwner` functions anymore. Can only be called by the current owner. NOTE: Renouncing ownership will leave the contract without an owner, thereby removing any functionality that is only available to the owner."
      },
      "transferOwnership(address)": {
        "details": "Transfers ownership of the contract to a new account (`newOwner`). Can only be called by the current owner."
      },
      "updateHaircut(bytes32,uint256)": {
        "params": {
          "_ccy": "Currency name in bytes32",
          "_haircut": "Remaining ratio after haircut"
        }
      }
    },
    "version": 1
  },
  "userdoc": {
    "kind": "user",
    "methods": {
      "addCurrency(bytes32,address,uint256)": {
        "notice": "Adds new currency into the protocol and links with existing ETH price feed of Chainlink."
      },
      "convertFromETH(bytes32,uint256)": {
        "notice": "Gets the converted amount to the selected currency from ETH."
      },
      "convertToETH(bytes32,int256)": {
        "notice": "Gets the converted amount of currency in ETH."
      },
      "convertToETH(bytes32,uint256)": {
        "notice": "Gets the converted amount of currency in ETH."
      },
      "convertToETH(bytes32,uint256[])": {
        "notice": "Gets the converted amount of currency in ETH."
      },
      "currencyExists(bytes32)": {
        "notice": "Gets if the selected currency is supported."
      },
      "getCurrencies()": {
        "notice": "Gets all currencies."
      },
      "getEthDecimals(bytes32)": {
        "notice": "Get ETH decimal for the selected currency."
      },
      "getHaircut(bytes32)": {
        "notice": "Gets haircut ratio for the selected currency. Haircut is used in bilateral netting cross-calculation."
      },
      "getHistoricalETHPrice(bytes32,uint80)": {
        "notice": "Gets the historical price in ETH for the selected currency."
      },
      "getHistoricalUSDPrice(bytes32,uint80)": {
        "notice": "Gets the historical price in USD for the selected currency."
      },
      "getLastETHPrice(bytes32)": {
        "notice": "Gets the last price in ETH for the selected currency."
      },
      "getLastUSDPrice(bytes32)": {
        "notice": "Gets the last price in USD for the selected currency."
      },
      "getUsdDecimals(bytes32)": {
        "notice": "Gets USD decimal for the selected currency."
      },
      "initialize(address)": {
        "notice": "Initializes the contract."
      },
      "linkPriceFeed(bytes32,address,bool)": {
        "notice": "Links the contract to existing Chainlink price feed."
      },
      "removeCurrency(bytes32)": {
        "notice": "Updates the flag indicating if the currency is supported in the protocol."
      },
      "removePriceFeed(bytes32,bool)": {
        "notice": "Removes existing Chainlink price feed."
      },
      "updateHaircut(bytes32,uint256)": {
        "notice": "Updates the haircut ratio for supported currency"
      }
    },
    "notice": "Implements managing of the supported currencies in the protocol. This contract links new currencies to ETH Chainlink price feeds, without an existing price feed contract owner is not able to add a new currency into the protocol",
    "version": 1
  },
  "storageLayout": {
    "storage": [
      {
        "astId": 1183,
        "contract": "contracts/CurrencyController.sol:CurrencyController",
        "label": "_initialized",
        "offset": 0,
        "slot": "0",
        "type": "t_uint8"
      },
      {
        "astId": 1186,
        "contract": "contracts/CurrencyController.sol:CurrencyController",
        "label": "_initializing",
        "offset": 1,
        "slot": "0",
        "type": "t_bool"
      }
    ],
    "types": {
      "t_bool": {
        "encoding": "inplace",
        "label": "bool",
        "numberOfBytes": "1"
      },
      "t_uint8": {
        "encoding": "inplace",
        "label": "uint8",
        "numberOfBytes": "1"
      }
    }
  }
}