{
  "address": "0xc43B86487A4F061fd9ABdecF5d40725fbD39188e",
  "abi": [
    {
      "inputs": [
        {
          "internalType": "address",
          "name": "_user",
          "type": "address"
        },
        {
          "internalType": "bytes32",
          "name": "_unsettledOrderCcy",
          "type": "bytes32"
        },
        {
          "internalType": "uint256",
          "name": "_unsettledOrderAmount",
          "type": "uint256"
        },
        {
          "internalType": "bool",
          "name": "_isUnsettledBorrowOrder",
          "type": "bool"
        }
      ],
      "name": "getCollateralAmount",
      "outputs": [
        {
          "internalType": "uint256",
          "name": "totalCollateral",
          "type": "uint256"
        },
        {
          "internalType": "uint256",
          "name": "totalUsedCollateral",
          "type": "uint256"
        },
        {
          "internalType": "uint256",
          "name": "totalActualCollateral",
          "type": "uint256"
        }
      ],
      "stateMutability": "view",
      "type": "function"
    },
    {
      "inputs": [
        {
          "internalType": "address",
          "name": "_user",
          "type": "address"
        }
      ],
      "name": "getCollateralAmount",
      "outputs": [
        {
          "internalType": "uint256",
          "name": "totalCollateral",
          "type": "uint256"
        },
        {
          "internalType": "uint256",
          "name": "totalUsedCollateral",
          "type": "uint256"
        },
        {
          "internalType": "uint256",
          "name": "totalActualCollateral",
          "type": "uint256"
        }
      ],
      "stateMutability": "view",
      "type": "function"
    },
    {
      "inputs": [
        {
          "internalType": "address",
          "name": "_user",
          "type": "address"
        },
        {
          "internalType": "bytes32",
          "name": "_ccy",
          "type": "bytes32"
        }
      ],
      "name": "getDepositAmount",
      "outputs": [
        {
          "internalType": "uint256",
          "name": "",
          "type": "uint256"
        }
      ],
      "stateMutability": "view",
      "type": "function"
    },
    {
      "inputs": [
        {
          "internalType": "address",
          "name": "_user",
          "type": "address"
        }
      ],
      "name": "getUsedCurrencies",
      "outputs": [
        {
          "internalType": "bytes32[]",
          "name": "",
          "type": "bytes32[]"
        }
      ],
      "stateMutability": "view",
      "type": "function"
    },
    {
      "inputs": [
        {
          "internalType": "address",
          "name": "_user",
          "type": "address"
        }
      ],
      "name": "getWithdrawableCollateral",
      "outputs": [
        {
          "internalType": "uint256",
          "name": "",
          "type": "uint256"
        }
      ],
      "stateMutability": "view",
      "type": "function"
    },
    {
      "inputs": [
        {
          "internalType": "address",
          "name": "_user",
          "type": "address"
        },
        {
          "internalType": "bytes32",
          "name": "_unsettledOrderCcy",
          "type": "bytes32"
        },
        {
          "internalType": "uint256",
          "name": "_unsettledOrderAmount",
          "type": "uint256"
        },
        {
          "internalType": "bool",
          "name": "_isUnsettledBorrowOrder",
          "type": "bool"
        }
      ],
      "name": "isCovered",
      "outputs": [
        {
          "internalType": "bool",
          "name": "",
          "type": "bool"
        }
      ],
      "stateMutability": "view",
      "type": "function"
    }
  ],
  "transactionHash": "0xe529f3d5d60c5f8b569649551b9043c75fdb682b4ecb74b0f177dc9438a43b2e",
  "args": [],
  "numDeployments": 1,
  "solcInputHash": "3f85b78d4f02b33ea339ac5a99716c70",
  "bytecode": "0x611c3861003a600b82828239805160001a60731461002d57634e487b7160e01b600052600060045260246000fd5b30600052607381538281f3fe73000000000000000000000000000000000000000030146080604052600436106100a85760003560e01c8063948060dd11610070578063948060dd14610156578063ab2a077714610169578063fb7bd3b4146101a9578063fc700810146101c9578063fd2117fb146101e957600080fd5b80630253cd7e146100ad5780632917173a146100d357806346b1cb2c146100f35780634ba0c9b514610121578063654c629514610143575b600080fd5b6100c06100bb3660046117d3565b61020c565b6040519081526020015b60405180910390f35b8180156100df57600080fd5b506100c06100ee3660046117fd565b610303565b610106610101366004611841565b61042a565b604080519384526020840192909252908201526060016100ca565b81801561012d57600080fd5b5061014161013c3660046117fd565b6107cb565b005b610106610151366004611889565b610852565b6100c0610164366004611889565b610872565b81801561017557600080fd5b506101896101843660046118a4565b61095c565b6040805194855260208501939093529183015260608201526080016100ca565b8180156101b557600080fd5b506101416101c43660046117fd565b610e0d565b6101dc6101d7366004611889565b610ece565b6040516100ca919061191a565b6101fc6101f7366004611841565b610f9d565b60405190151581526020016100ca565b60008060008061021a611003565b604051635c34776560e01b8152600481018790526001600160a01b0388811660248301529190911690635c3477659060440160e06040518083038186803b15801561026457600080fd5b505afa158015610278573d6000803e3d6000fd5b505050506040513d601f19601f8201168201806040525081019061029c919061195e565b965050509450505092508282826102b1611033565b6001600160a01b038a166000908152600591909101602090815260408083208b84529091529020546102e391906119c8565b6102ed91906119e0565b6102f791906119e0565b93505050505b92915050565b60008061030e611033565b6001600160a01b038616600090815260059190910160209081526040808320878452909152902054905061034a84610344611033565b90611057565b1561041357600061035a86610872565b90506000610366611072565b6040516306d062ad60e01b815260048101889052602481018490526001600160a01b0391909116906306d062ad9060440160206040518083038186803b1580156103af57600080fd5b505afa1580156103c3573d6000803e3d6000fd5b505050506040513d601f19601f820116820180604052508101906103e791906119f7565b90508085116103f657846103f8565b805b935083831015610408578261040a565b835b93505050610417565b8091505b610422858584610e0d565b509392505050565b60008060006104716040518060e001604052806000815260200160008152602001600081526020016000815260200160008152602001600081526020016000151581525090565b600061047b611033565b6001600160a01b038a166000908152600591909101602090815260408083208b845290915281205491508715610623578615610541576104b9611072565b6040516344a6ecdd60e01b8152600481018b9052602481018a90526001600160a01b0391909116906344a6ecdd9060440160206040518083038186803b15801561050257600080fd5b505afa158015610516573d6000803e3d6000fd5b505050506040513d601f19601f8201168201806040525081019061053a91906119f7565b9050610623565b8782101561056a5760405162461bcd60e51b815260040161056190611a10565b60405180910390fd5b61057488836119e0565b915061058289610344611033565b156106235761058f611072565b6040516344a6ecdd60e01b8152600481018b9052602481018a90526001600160a01b0391909116906344a6ecdd9060440160206040518083038186803b1580156105d857600080fd5b505afa1580156105ec573d6000803e3d6000fd5b505050506040513d601f19601f8201168201806040525081019061061091906119f7565b8351849061061f9083906119c8565b9052505b61062b611003565b604051626256a560e31b81526001600160a01b038c81166004830152602482018c9052604482018590529190911690630312b528906064016101006040518083038186803b15801561067c57600080fd5b505afa158015610690573d6000803e3d6000fd5b505050506040513d601f19601f820116820180604052508101906106b49190611a5e565b151560c08b0181905260a08b019190915260808a019190915260608901919091526040880191909152602087019190915291855250806106f15750865b806106fa575087155b6107165760405162461bcd60e51b815260040161056190611a10565b60006107218b611092565b905060008460a001518261073591906119c8565b905060008560400151866000015161074d91906119c8565b9050600086602001518361076191906119c8565b90508181101561077257600061077c565b61077c82826119e0565b9950848760800151886060015161079391906119c8565b61079d91906119c8565b9850818310156107ae5760006107b8565b6107b882846119e0565b9750505050505050509450945094915050565b806107d4611033565b6001600160a01b0385166000908152600591909101602090815260408083208684529091528120805490919061080b9084906119c8565b9091555081905061081a611033565b6004016000848152602001908152602001600020600082825461083d91906119c8565b9091555061084d905083836111ce565b505050565b600080600061086584600080600061042a565b9250925092509193909250565b60008060008061088185610852565b925092509250816000141561089857949350505050565b7f1aaabb4945989eb9ee8150fddc35fcfc125664a7b898aa2de5931bb12484d052546108c49083611ac8565b6108d061271085611ac8565b11156109495760006127106109037f1aaabb4945989eb9ee8150fddc35fcfc125664a7b898aa2de5931bb12484d0525490565b61090d9085611ac8565b61091961271087611ac8565b61092391906119e0565b61092d9190611ae7565b90508181101561093d578061093f565b815b9695505050505050565b506000949350505050565b505050919050565b60008060008061098d6040518060800160405280600081526020016000815260200160008152602001600081525090565b6000610997611262565b90506109a1611033565b6001600160a01b038d166000908152600591909101602090815260408083208e8452825290912054808452908301526109d8611262565b6001600160a01b031663b187bd266040518163ffffffff1660e01b815260040160206040518083038186803b158015610a1057600080fd5b505afa158015610a24573d6000803e3d6000fd5b505050506040513d601f19601f82011682018060405250810190610a489190611b09565b610a9057610a54611033565b6001600160a01b0382166000908152600591909101602090815260408083208e84528252909120549083018051610a8c9083906119c8565b9052505b6000826020015111610af75760405162461bcd60e51b815260206004820152602a60248201527f4e6f206465706f73697420616d6f756e7420696e207468652073656c65637465604482015269642063757272656e637960b01b6064820152608401610561565b7f1aaabb4945989eb9ee8150fddc35fcfc125664a7b898aa2de5931bb12484d053547f1aaabb4945989eb9ee8150fddc35fcfc125664a7b898aa2de5931bb12484d05454610b47906127106119e0565b610b5191906119e0565b610b5d6127108b611ac8565b610b679190611ae7565b60408301527f1aaabb4945989eb9ee8150fddc35fcfc125664a7b898aa2de5931bb12484d056546001600160a01b031663f7729d43610ba4611033565b60008e815260029190910160205260409020546001600160a01b0316610bc8611033565b60008e8152600291909101602090815260408083205491880151905160e086901b6001600160e01b03191681526001600160a01b03948516600482015293909116602484015262ffffff8d1660448401526064830152608482015260a401602060405180830381600087803b158015610c4057600080fd5b505af1158015610c54573d6000803e3d6000fd5b505050506040513d601f19601f82011682018060405250810190610c7891906119f7565b6060830181905260408301511115610c9557606082015160408301525b610caa8b8b846040015185602001518c61127b565b9450612710610cd77f1aaabb4945989eb9ee8150fddc35fcfc125664a7b898aa2de5931bb12484d0545490565b8360400151610ce69190611ac8565b610cf09190611ae7565b9350816060015182604001511415610d7557612710610d2d7f1aaabb4945989eb9ee8150fddc35fcfc125664a7b898aa2de5931bb12484d0535490565b8360400151610d3c9190611ac8565b610d469190611ae7565b92508683858460400151610d5a91906119e0565b610d6491906119e0565b610d6e91906119e0565b9550610d9f565b83898360400151610d8691906119e0565b610d9091906119e0565b9250610d9c878a6119e0565b95505b8151851115610dd157610db78c8c8460000151610e0d565b610dcc818c8460000151886101c491906119e0565b610ddc565b610ddc8c8c87610e0d565b610de78c8b886107cb565b610df28d8b866107cb565b610dfd818b856107cb565b5050975097509750979350505050565b80610e16611033565b6001600160a01b0385166000908152600591909101602090815260408083208684529091529020541015610e5c5760405162461bcd60e51b815260040161056190611a10565b80610e65611033565b6001600160a01b03851660009081526005919091016020908152604080832086845290915281208054909190610e9c9084906119e0565b90915550819050610eab611033565b6004016000848152602001908152602001600020600082825461083d91906119e0565b60606000610eda611033565b6001600160a01b0384166000908152600391909101602052604081209150610f018261146a565b905060008167ffffffffffffffff811115610f1e57610f1e611b26565b604051908082528060200260200182016040528015610f47578160200160208202803683370190505b50905060005b82811015610f94576000610f618583611474565b905080838381518110610f7657610f76611b3c565b60209081029190910101525080610f8c81611b52565b915050610f4d565b50949350505050565b6000806000610fae8787878761042a565b50915091508060001480610ff857507f1aaabb4945989eb9ee8150fddc35fcfc125664a7b898aa2de5931bb12484d05254610fe99082611ac8565b610ff561271084611ac8565b10155b979650505050505050565b600061102e7f4c656e64696e674d61726b6574436f6e74726f6c6c6572000000000000000000611480565b905090565b7f53832330c92cb5d80f0e1ff6fdb9886f7fad39132543bafb7497316eae2a831790565b600081815260018301602052604081205415155b9392505050565b600061102e7121bab93932b731bca1b7b73a3937b63632b960711b611480565b60008061109d611033565b6001600160a01b03841660009081526003919091016020526040812091506110c48261146a565b905060005b818110156109545760006110dd8483611474565b90506110eb81610344611033565b156111bb5760006110fa611033565b6001600160a01b038816600090815260059190910160209081526040808320858452909152902054905061112c611072565b6040516344a6ecdd60e01b815260048101849052602481018390526001600160a01b0391909116906344a6ecdd9060440160206040518083038186803b15801561117557600080fd5b505afa158015611189573d6000803e3d6000fd5b505050506040513d601f19601f820116820180604052508101906111ad91906119f7565b6111b790876119c8565b9550505b50806111c681611b52565b9150506110c9565b60006111d8611033565b6001600160a01b03841660009081526005919091016020908152604080832085845290915290205411156112345761084d81611212611033565b6001600160a01b03851660009081526003919091016020526040902090611518565b61084d81611240611033565b6001600160a01b03851660009081526003919091016020526040902090611524565b600061102e6a14995cd95c9d99519d5b9960aa1b611480565b60006112db611288611033565b600088815260029190910160205260409020546001600160a01b03166112d57f1aaabb4945989eb9ee8150fddc35fcfc125664a7b898aa2de5931bb12484d055546001600160a01b031690565b85611530565b60006040518061010001604052806112f1611033565b60008a815260029190910160209081526040909120546001600160a01b031682520161131b611033565b600089815260029190910160209081526040808320546001600160a01b0316845262ffffff88169184019190915230908301524260608301526080820188905260a0820187905260c090910152905061139b7f1aaabb4945989eb9ee8150fddc35fcfc125664a7b898aa2de5931bb12484d055546001600160a01b031690565b60408051631b67c43360e31b815283516001600160a01b0390811660048301526020850151811660248301529184015162ffffff1660448201526060840151821660648201526080840151608482015260a084015160a482015260c084015160c482015260e0840151821660e482015291169063db3e21989061010401602060405180830381600087803b15801561143257600080fd5b505af1158015611446573d6000803e3d6000fd5b505050506040513d601f19601f82011682018060405250810190610ff891906119f7565b60006102fd825490565b600061106b838361164b565b60008181527f4abde63c3e81aefa5764b017968bc473e83e093d7e1a10247d19e0a3e41240196020908152604080832054815170026b4b9b9b4b7339030b2323932b9b99d1607d1b9381019390935260318084018690528251808503909101815260519093019091526001600160a01b031690816115115760405162461bcd60e51b81526004016105619190611b9d565b5092915050565b600061106b8383611675565b600061106b83836116c4565b604080516001600160a01b038481166024830152604480830185905283518084039091018152606490920183526020820180516001600160e01b031663095ea7b360e01b179052915160009283929087169161158c9190611bd0565b6000604051808303816000865af19150503d80600081146115c9576040519150601f19603f3d011682016040523d82523d6000602084013e6115ce565b606091505b50915091508180156115f85750805115806115f85750808060200190518101906115f89190611b09565b6116445760405162461bcd60e51b815260206004820152601e60248201527f5472616e7366657248656c7065723a20415050524f56455f4641494c454400006044820152606401610561565b5050505050565b600082600001828154811061166257611662611b3c565b9060005260206000200154905092915050565b60008181526001830160205260408120546116bc575081546001818101845560008481526020808220909301849055845484825282860190935260409020919091556102fd565b5060006102fd565b600081815260018301602052604081205480156117ad5760006116e86001836119e0565b85549091506000906116fc906001906119e0565b905081811461176157600086600001828154811061171c5761171c611b3c565b906000526020600020015490508087600001848154811061173f5761173f611b3c565b6000918252602080832090910192909255918252600188019052604090208390555b855486908061177257611772611bec565b6001900381819060005260206000200160009055905585600101600086815260200190815260200160002060009055600193505050506102fd565b60009150506102fd565b80356001600160a01b03811681146117ce57600080fd5b919050565b600080604083850312156117e657600080fd5b6117ef836117b7565b946020939093013593505050565b60008060006060848603121561181257600080fd5b61181b846117b7565b95602085013595506040909401359392505050565b801515811461183e57600080fd5b50565b6000806000806080858703121561185757600080fd5b611860856117b7565b93506020850135925060408501359150606085013561187e81611830565b939692955090935050565b60006020828403121561189b57600080fd5b61106b826117b7565b600080600080600080600060e0888a0312156118bf57600080fd5b6118c8886117b7565b96506118d6602089016117b7565b955060408801359450606088013593506080880135925060a088013562ffffff8116811461190357600080fd5b8092505060c0880135905092959891949750929550565b6020808252825182820181905260009190848201906040850190845b8181101561195257835183529284019291840191600101611936565b50909695505050505050565b600080600080600080600060e0888a03121561197957600080fd5b5050855160208701516040880151606089015160808a015160a08b015160c0909b0151949c939b50919990985090965094509092509050565b634e487b7160e01b600052601160045260246000fd5b600082198211156119db576119db6119b2565b500190565b6000828210156119f2576119f26119b2565b500390565b600060208284031215611a0957600080fd5b5051919050565b6020808252602e908201527f4e6f7420656e6f75676820636f6c6c61746572616c20696e207468652073656c60408201526d65637465642063757272656e637960901b606082015260800190565b600080600080600080600080610100898b031215611a7b57600080fd5b885197506020890151965060408901519550606089015194506080890151935060a0890151925060c0890151915060e0890151611ab781611830565b809150509295985092959890939650565b6000816000190483118215151615611ae257611ae26119b2565b500290565b600082611b0457634e487b7160e01b600052601260045260246000fd5b500490565b600060208284031215611b1b57600080fd5b815161106b81611830565b634e487b7160e01b600052604160045260246000fd5b634e487b7160e01b600052603260045260246000fd5b6000600019821415611b6657611b666119b2565b5060010190565b60005b83811015611b88578181015183820152602001611b70565b83811115611b97576000848401525b50505050565b6020815260008251806020840152611bbc816040850160208701611b6d565b601f01601f19169190910160400192915050565b60008251611be2818460208701611b6d565b9190910192915050565b634e487b7160e01b600052603160045260246000fdfea26469706673582212206807d736f74b12e0b1fdb5f36897ab833e8c2e24b55c43a47b84f04bb009906e64736f6c63430008090033",
  "devdoc": {
    "kind": "dev",
    "methods": {
      "getWithdrawableCollateral(address)": {
        "params": {
          "_user": "User's address"
        },
        "returns": {
          "_0": "Maximum amount of ETH that can be withdrawn"
        }
      },
      "withdraw(address,bytes32,uint256)": {
        "params": {
          "_amount": "Amount of funds to withdraw.",
          "_ccy": "Currency name in bytes32"
        }
      }
    },
    "version": 1
  },
  "userdoc": {
    "kind": "user",
    "methods": {
      "getWithdrawableCollateral(address)": {
        "notice": "Calculates maximum amount of ETH that can be withdrawn."
      },
      "withdraw(address,bytes32,uint256)": {
        "notice": "Withdraws funds by the caller from unused collateral."
      }
    },
    "version": 1
  },
  "storageLayout": {
    "storage": [],
    "types": null
  }
}