{
  "address": "0x7B502aa51fE8255c2723502586202Bb96C740C80",
  "abi": [
    {
      "anonymous": false,
      "inputs": [
        {
          "indexed": true,
          "internalType": "address",
          "name": "taker",
          "type": "address"
        },
        {
          "indexed": true,
          "internalType": "bytes32",
          "name": "ccy",
          "type": "bytes32"
        },
        {
          "indexed": false,
          "internalType": "enum ProtocolTypes.Side",
          "name": "side",
          "type": "uint8"
        },
        {
          "indexed": true,
          "internalType": "uint256",
          "name": "maturity",
          "type": "uint256"
        },
        {
          "indexed": false,
          "internalType": "uint256",
          "name": "amount",
          "type": "uint256"
        },
        {
          "indexed": false,
          "internalType": "uint256",
          "name": "futureValue",
          "type": "uint256"
        }
      ],
      "name": "OrderFilled",
      "type": "event"
    },
    {
      "anonymous": false,
      "inputs": [
        {
          "indexed": true,
          "internalType": "address",
          "name": "taker",
          "type": "address"
        },
        {
          "indexed": true,
          "internalType": "bytes32",
          "name": "ccy",
          "type": "bytes32"
        },
        {
          "indexed": false,
          "internalType": "enum ProtocolTypes.Side",
          "name": "side",
          "type": "uint8"
        },
        {
          "indexed": true,
          "internalType": "uint256",
          "name": "maturity",
          "type": "uint256"
        },
        {
          "indexed": false,
          "internalType": "uint256",
          "name": "amount",
          "type": "uint256"
        },
        {
          "indexed": false,
          "internalType": "uint256",
          "name": "futureValue",
          "type": "uint256"
        }
      ],
      "name": "OrdersFilledInAsync",
      "type": "event"
    },
    {
      "inputs": [
        {
          "internalType": "bytes32",
          "name": "_ccy",
          "type": "bytes32"
        },
        {
          "internalType": "uint256",
          "name": "_maturity",
          "type": "uint256"
        },
        {
          "internalType": "address",
          "name": "_user",
          "type": "address"
        }
      ],
      "name": "calculateActualFunds",
      "outputs": [
        {
          "components": [
            {
              "internalType": "int256",
              "name": "presentValue",
              "type": "int256"
            },
            {
              "internalType": "int256",
              "name": "futureValue",
              "type": "int256"
            },
            {
              "internalType": "uint256",
              "name": "workingLendingOrdersAmount",
              "type": "uint256"
            },
            {
              "internalType": "uint256",
              "name": "lentAmount",
              "type": "uint256"
            },
            {
              "internalType": "uint256",
              "name": "workingBorrowingOrdersAmount",
              "type": "uint256"
            },
            {
              "internalType": "uint256",
              "name": "borrowedAmount",
              "type": "uint256"
            },
            {
              "internalType": "int256",
              "name": "genesisValue",
              "type": "int256"
            }
          ],
          "internalType": "struct FundManagementLogic.ActualFunds",
          "name": "actualFunds",
          "type": "tuple"
        }
      ],
      "stateMutability": "view",
      "type": "function"
    },
    {
      "inputs": [
        {
          "internalType": "bytes32",
          "name": "_ccy",
          "type": "bytes32"
        },
        {
          "internalType": "address",
          "name": "_user",
          "type": "address"
        }
      ],
      "name": "calculateFunds",
      "outputs": [
        {
          "internalType": "uint256",
          "name": "workingLendOrdersAmount",
          "type": "uint256"
        },
        {
          "internalType": "uint256",
          "name": "claimableAmount",
          "type": "uint256"
        },
        {
          "internalType": "uint256",
          "name": "collateralAmount",
          "type": "uint256"
        },
        {
          "internalType": "uint256",
          "name": "lentAmount",
          "type": "uint256"
        },
        {
          "internalType": "uint256",
          "name": "workingBorrowOrdersAmount",
          "type": "uint256"
        },
        {
          "internalType": "uint256",
          "name": "debtAmount",
          "type": "uint256"
        },
        {
          "internalType": "uint256",
          "name": "borrowedAmount",
          "type": "uint256"
        }
      ],
      "stateMutability": "view",
      "type": "function"
    },
    {
      "inputs": [
        {
          "internalType": "address",
          "name": "_user",
          "type": "address"
        },
        {
          "internalType": "bytes32",
          "name": "_depositCcy",
          "type": "bytes32"
        },
        {
          "internalType": "uint256",
          "name": "_depositAmount",
          "type": "uint256"
        }
      ],
      "name": "calculateTotalFundsInETH",
      "outputs": [
        {
          "internalType": "uint256",
          "name": "totalWorkingLendOrdersAmount",
          "type": "uint256"
        },
        {
          "internalType": "uint256",
          "name": "totalClaimableAmount",
          "type": "uint256"
        },
        {
          "internalType": "uint256",
          "name": "totalCollateralAmount",
          "type": "uint256"
        },
        {
          "internalType": "uint256",
          "name": "totalLentAmount",
          "type": "uint256"
        },
        {
          "internalType": "uint256",
          "name": "totalWorkingBorrowOrdersAmount",
          "type": "uint256"
        },
        {
          "internalType": "uint256",
          "name": "totalDebtAmount",
          "type": "uint256"
        },
        {
          "internalType": "uint256",
          "name": "totalBorrowedAmount",
          "type": "uint256"
        },
        {
          "internalType": "bool",
          "name": "isEnoughDeposit",
          "type": "bool"
        }
      ],
      "stateMutability": "view",
      "type": "function"
    },
    {
      "inputs": [
        {
          "internalType": "bytes32",
          "name": "_ccy",
          "type": "bytes32"
        },
        {
          "internalType": "address",
          "name": "_user",
          "type": "address"
        }
      ],
      "name": "getUsedMaturities",
      "outputs": [
        {
          "internalType": "uint256[]",
          "name": "maturities",
          "type": "uint256[]"
        }
      ],
      "stateMutability": "view",
      "type": "function"
    }
  ],
  "transactionHash": "0x1f4964a6d0e59a709f58e61591def1bd1562ba2c7a77833b7e84b5ab66279629",
  "args": [],
  "numDeployments": 1,
  "solcInputHash": "3f85b78d4f02b33ea339ac5a99716c70",
  "bytecode": "0x613da161003a600b82828239805160001a60731461002d57634e487b7160e01b600052600060045260246000fd5b30600052607381538281f3fe73000000000000000000000000000000000000000030146080604052600436106100925760003560e01c80635c347765116100655780635c347765146101a55780639519832b146101ed5780639c599f8b1461020d578063b61ef55a1461024257600080fd5b80630312b528146100975780630b7915e6146100ec578063300074c91461010e5780634ad238801461013c575b600080fd5b6100aa6100a536600461351c565b610262565b604080519889526020890197909752958701949094526060860192909252608085015260a084015260c0830152151560e0820152610100015b60405180910390f35b8180156100f857600080fd5b5061010c61010736600461354f565b610771565b005b81801561011a57600080fd5b5061012e6101293660046135b6565b610b5b565b6040519081526020016100e3565b61014f61014a3660046135b6565b610d54565b6040516100e39190600060e082019050825182526020830151602083015260408301516040830152606083015160608301526080830151608083015260a083015160a083015260c083015160c083015292915050565b6101b86101b33660046135eb565b6114ef565b604080519788526020880196909652948601939093526060850191909152608084015260a083015260c082015260e0016100e3565b8180156101f957600080fd5b5061012e6102083660046135eb565b611614565b81801561021957600080fd5b5061022d610228366004613617565b611980565b604080519283526020830191909152016100e3565b6102556102503660046135eb565b612162565b6040516100e39190613682565b6000806000806000806000806000610278612238565b60050160008d6001600160a01b03166001600160a01b0316815260200190815260200160002090506102dc6040518060c001604052806060815260200160008019168152602001606081526020016060815260200160008152602001600081525090565b6102e461225c565b6001600160a01b0316633f90a08e6102fb84612279565b6040518263ffffffff1660e01b81526004016103179190613682565b60006040518083038186803b15801561032f57600080fd5b505afa158015610343573d6000803e3d6000fd5b505050506040513d6000823e601f3d908101601f1916820160405261036b9190810190613741565b8152608081018b905260005b61038083612284565b81101561075357610391838261228e565b6020830152604080516007808252610100820190925290816020016020820280368337505050604083015260208201516103cb908f6114ef565b88604001516000815181106103e2576103e26137de565b602002602001018960400151600181518110610400576104006137de565b602002602001018a6040015160028151811061041e5761041e6137de565b602002602001018b6040015160038151811061043c5761043c6137de565b602002602001018c6040015160048151811061045a5761045a6137de565b602002602001018d60400151600581518110610478576104786137de565b602002602001018e60400151600681518110610496576104966137de565b6020908102919091018101979097529690965295909452949093529390529290529190528201518d14156105555781604001516006815181106104db576104db6137de565b6020026020010151826080018181516104f4919061380a565b90525060408201518051600390811061050f5761050f6137de565b6020026020010151826040015160008151811061052e5761052e6137de565b6020026020010151610540919061380a565b8260a001818151610551919061380a565b9052505b61055d61229a565b6001600160a01b031663939fe622836020015184604001516040518363ffffffff1660e01b8152600401610592929190613822565b60006040518083038186803b1580156105aa57600080fd5b505afa1580156105be573d6000803e3d6000fd5b505050506040513d6000823e601f3d908101601f191682016040526105e69190810190613863565b6060830181905280516001908110610600576106006137de565b60200260200101518a610613919061380a565b9950816060015160028151811061062c5761062c6137de565b60200260200101518961063f919061380a565b98508160600151600481518110610658576106586137de565b60200260200101518761066b919061380a565b96508160600151600581518110610684576106846137de565b602002602001015186610697919061380a565b9550816000015181815181106106af576106af6137de565b6020026020010151156107415781606001516000815181106106d3576106d36137de565b60200260200101518b6106e6919061380a565b9a5081606001516003815181106106ff576106ff6137de565b602002602001015188610712919061380a565b9750816060015160068151811061072b5761072b6137de565b60200260200101518561073e919061380a565b94505b8061074b816138e9565b915050610377565b508060a0015181608001511015925050509397509397509397509397565b600061077b612238565b60008981526002919091016020526040812090610796612238565b60008b8152600391909101602090815260408083208c84528252808320546001600160a01b03908116855291840194909452919092019091205416905060018560018111156107e7576107e7613904565b14156108ec576107f561225c565b6001600160a01b0316634ba0c9b5878a866040518463ffffffff1660e01b81526004016108249392919061391a565b600060405180830381600087803b15801561083e57600080fd5b505af1158015610852573d6000803e3d6000fd5b50505050806001600160a01b0316635b0b2930878487610872919061380a565b8a60016040518563ffffffff1660e01b8152600401610894949392919061393b565b602060405180830381600087803b1580156108ae57600080fd5b505af11580156108c2573d6000803e3d6000fd5b505050506040513d601f19601f820116820180604052508101906108e69190613963565b506109e7565b6108f461225c565b6001600160a01b031663fb7bd3b4878a866040518463ffffffff1660e01b81526004016109239392919061391a565b600060405180830381600087803b15801561093d57600080fd5b505af1158015610951573d6000803e3d6000fd5b50505050806001600160a01b0316639e8d3d55878487610971919061397e565b8a60016040518563ffffffff1660e01b8152600401610993949392919061393b565b602060405180830381600087803b1580156109ad57600080fd5b505af11580156109c1573d6000803e3d6000fd5b505050506040513d601f19601f820116820180604052508101906109e59190613963565b505b8115610b0a5760006109f76122ba565b90506001600160a01b038216639e8d3d5582858b60008b6001811115610a1f57610a1f613904565b146040518563ffffffff1660e01b8152600401610a3f949392919061393b565b602060405180830381600087803b158015610a5957600080fd5b505af1158015610a6d573d6000803e3d6000fd5b505050506040513d601f19601f82011682018060405250810190610a919190613963565b50610aca88610a9e612238565b60008c8152600691909101602090815260408083206001600160a01b03871684529091529020906122d3565b610b0857610b0688610ada612238565b60008c8152600691909101602090815260408083206001600160a01b03871684529091529020906122eb565b505b505b8688876001600160a01b03167ff80dd09632f046e05472e1c239271a3b2ad3de73c27a1b03d0bb0329ba6716df888789604051610b49939291906139b7565b60405180910390a45050505050505050565b600080610b66612238565b60008681526002919091016020526040812090610b81612238565b6000888152600391909101602090815260408083208984528252808320546001600160a01b03908116855291840194909452918301812054925163ae100e6d60e01b815286831660048201526024810188905292909116925090819081908190859063ae100e6d90604401608060405180830381600087803b158015610c0657600080fd5b505af1158015610c1a573d6000803e3d6000fd5b505050506040513d601f19601f82011682018060405250810190610c3e91906139d6565b935093509350935083600014610d47578015610ccc57610c5c6122f7565b60405163312c474560e01b8152600481018b90526001600160a01b03898116602483015260448201859052919091169063312c474590606401600060405180830381600087803b158015610caf57600080fd5b505af1158015610cc3573d6000803e3d6000fd5b50505050610d47565b610cd46122f7565b6040516360e3f72960e11b8152600481018b90526001600160a01b0389811660248301526044820185905260648201879052919091169063c1c7ee5290608401600060405180830381600087803b158015610d2e57600080fd5b505af1158015610d42573d6000803e3d6000fd5b505050505b5090979650505050505050565b610d946040518060e00160405280600081526020016000815260200160008152602001600081526020016000815260200160008152602001600081525090565b604080516080810182526000808252602082018190529181019190915260608082015283610e145760018152610dc8612238565b6001016000868152602001908152602001600020600081548110610dee57610dee6137de565b600091825260209182902001546001600160a01b03169082015260016040820152610e9e565b60008152610e20612238565b6000868152600391909101602090815260408083208784528252909120546001600160a01b031690820152610e53612238565b6001016000868152602001908152602001600020600081548110610e7957610e796137de565b60009182526020918290200154908201516001600160a01b0390811691161460408201525b610ea66122f7565b60405163386320d360e11b8152600481018790526001600160a01b03858116602483015291909116906370c641a69060440160206040518083038186803b158015610ef057600080fd5b505afa158015610f04573d6000803e3d6000fd5b505050506040513d601f19601f82011682018060405250810190610f289190613a15565b60c0830152610f378584612162565b606082015260005b816060015151811015611350576000610f56612238565b6003016000888152602001908152602001600020600084606001518481518110610f8257610f826137de565b6020026020010151815260200190815260200160002060009054906101000a90046001600160a01b031690506000816001600160a01b031663e16695b56040518163ffffffff1660e01b815260040160206040518083038186803b158015610fe957600080fd5b505afa158015610ffd573d6000803e3d6000fd5b505050506040513d601f19601f820116820180604052508101906110219190613a15565b9050600061102d612238565b60010160008a8152602001908152602001600020600081548110611053576110536137de565b60009182526020909120015460408601516001600160a01b03858116921691909114915080611097575084602001516001600160a01b0316836001600160a01b0316145b1561133a5760006110ac8a8988868887612316565b905080600001518760c0018181516110c49190613a2e565b9052506020810151875188906110db908390613a2e565b90525060408101516020880180516110f4908390613a2e565b90525060006111078b8a89878988612506565b905080606001518860800181815161111f919061380a565b905250608081015160a08901805161113890839061380a565b905250805160c08901805161114e908390613a6f565b905250602081015188518990611165908390613a6f565b905250604081015160208901805161117e908390613a6f565b90525060006111918c8b8a888a89612694565b90508060600151896040018181516111a9919061380a565b905250608081015160608a0180516111c290839061380a565b905250805160c08a0180516111d8908390613a2e565b905250602081015189518a906111ef908390613a2e565b905250604081015160208a018051611208908390613a2e565b90525060c0890151600013156113365760006112226122f7565b6001600160a01b031663aee1311e8e8c60c001518c606001518c8151811061124c5761124c6137de565b602002602001015160018e6060015151611266919061397e565b8d146112995760608e015161127c8e600161380a565b8151811061128c5761128c6137de565b602002602001015161129c565b60005b6040516001600160e01b031960e087901b168152600481019490945260248401929092526044830152606482015260840160206040518083038186803b1580156112e557600080fd5b505afa1580156112f9573d6000803e3d6000fd5b505050506040513d601f19601f8201168201806040525081019061131d9190613a15565b9050808a60c0018181516113319190613a2e565b905250505b5050505b5050508080611348906138e9565b915050610f3f565b5080604001518015611365575060c082015115155b156114e75760006113746122f7565b60c0840151604051637636e94160e01b8152600481018990526000602482015260448101919091526001600160a01b039190911690637636e9419060640160206040518083038186803b1580156113ca57600080fd5b505afa1580156113de573d6000803e3d6000fd5b505050506040513d601f19601f820116820180604052508101906114029190613a15565b90506114bc81611410612238565b6001016000898152602001908152602001600020600081548110611436576114366137de565b60009182526020918290200154604080516371613c2d60e01b815290516001600160a01b03909216926371613c2d92600480840193829003018186803b15801561147f57600080fd5b505afa158015611493573d6000803e3d6000fd5b505050506040513d601f19601f820116820180604052508101906114b79190613a15565b612824565b835184906114cb908390613a2e565b9052506020830180518291906114e2908390613a2e565b905250505b509392505050565b6000806000806000806000806115078a60008b610d54565b90508060400151975080606001519450806080015193508060a0015191506000816000015113156115e657805161153d9061284d565b9650600061154961229a565b6001600160a01b0316639abdb38a8c6040518263ffffffff1660e01b815260040161157691815260200190565b60206040518083038186803b15801561158e57600080fd5b505afa1580156115a2573d6000803e3d6000fd5b505050506040513d601f19601f820116820180604052508101906115c69190613a15565b90506115de6127106115d8838b613aae565b906128a3565b965050611607565b805160001315611607578051611604906115ff90613acd565b61284d565b92505b5092959891949750929550565b600080806116228585612162565b905060005b81518110156118a357600061163a612238565b60030160008881526020019081526020016000206000848481518110611662576116626137de565b6020026020010151815260200190815260200160002060009054906101000a90046001600160a01b031690506000816001600160a01b031663e16695b56040518163ffffffff1660e01b815260040160206040518083038186803b1580156116c957600080fd5b505afa1580156116dd573d6000803e3d6000fd5b505050506040513d601f19601f820116820180604052508101906117019190613a15565b9050600061171089838a610b5b565b90506000806117208b858c612914565b909250905061172f828a61380a565b98508015611745576117428b858c610b5b565b92505b821561175057600197505b8215801561175c575081155b156117cd576117cb878781518110611776576117766137de565b6020026020010151611786612238565b60060160008e815260200190815260200160002060008d6001600160a01b03166001600160a01b03168152602001908152602001600020612cfe90919063ffffffff16565b505b6117d56122f7565b6001600160a01b031663eeac29d88c8c60018b516117f3919061397e565b8a14611822578a6118058b600161380a565b81518110611815576118156137de565b6020026020010151611825565b60005b6040516001600160e01b031960e086901b16815260048101939093526001600160a01b0390911660248301526044820152606401600060405180830381600087803b15801561187357600080fd5b505af1158015611887573d6000803e3d6000fd5b505050505050505050808061189b906138e9565b915050611627565b50821580156118b0575081155b801561194357506118bf6122f7565b60405163386320d360e11b8152600481018790526001600160a01b03868116602483015291909116906370c641a69060440160206040518083038186803b15801561190957600080fd5b505afa15801561191d573d6000803e3d6000fd5b505050506040513d601f19601f820116820180604052508101906119419190613a15565b155b156119785761197685611954612238565b6001600160a01b03871660009081526005919091016020526040902090612cfe565b505b505092915050565b6000806119db60405180610120016040528060006001600160a01b0316815260200160008152602001600081526020016000815260200160008152602001600081526020016000815260200160008152602001600081525090565b6119e361225c565b60405163afe8efcf60e01b81526001600160a01b038a81166004830152919091169063afe8efcf9060240160206040518083038186803b158015611a2657600080fd5b505afa158015611a3a573d6000803e3d6000fd5b505050506040513d601f19601f82011682018060405250810190611a5e9190613a15565b60a08201819052611ab65760405162461bcd60e51b815260206004820152601a60248201527f557365722068617320656e6f75676820636f6c6c61746572616c00000000000060448201526064015b60405180910390fd5b611ac186868a610d54565b6020015160608201819052600013611b1b5760405162461bcd60e51b815260206004820181905260248201527f4e6f206465627420696e207468652073656c6563746564206d617475726974796044820152606401611aad565b611b23612238565b6000878152600391909101602090815260408083208884529091529020546001600160a01b031681526060810151611b5e906115ff90613acd565b8160200181815250506000611b8187878460600151611b7c90613acd565b612d0a565b509050611b8d8161284d565b6040830152611c2e8787611b9f61229a565b6001600160a01b03166306d062ad8b8760a001516040518363ffffffff1660e01b8152600401611bd9929190918252602082015260400190565b60206040518083038186803b158015611bf157600080fd5b505afa158015611c05573d6000803e3d6000fd5b505050506040513d601f19601f82011682018060405250810190611c299190613a15565b612f37565b60c0830181905260208301511015611c4b57602082015160c08301525b611c536122ba565b6001600160a01b031663b187bd266040518163ffffffff1660e01b815260040160206040518083038186803b158015611c8b57600080fd5b505afa158015611c9f573d6000803e3d6000fd5b505050506040513d601f19601f82011682018060405250810190611cc39190613963565b611fc1576000611cd1612238565b6001016000898152602001908152602001600020600081548110611cf757611cf76137de565b6000918252602090912001546001600160a01b0316611d14612238565b60008a8152600391909101602090815260408083208b84529091529020546001600160a01b03161490508015611f5657611d4c6122f7565b6001600160a01b03166388c0520e8989611d646122ba565b8e611d6d6122f7565b6001600160a01b03166318612e328f8f611d8a8d60c00151612ff0565b6040516001600160e01b031960e086901b16815260048101939093526024830191909152604482015260640160206040518083038186803b158015611dce57600080fd5b505afa158015611de2573d6000803e3d6000fd5b505050506040513d601f19601f82011682018060405250810190611e069190613a15565b6040516001600160e01b031960e088901b168152600481019590955260248501939093526001600160a01b039182166044850152166064830152608482015260a401602060405180830381600087803b158015611e6257600080fd5b505af1158015611e76573d6000803e3d6000fd5b505050506040513d601f19601f82011682018060405250810190611e9a9190613a15565b60e0840181905260001215611f56576000611f468989611eb86122f7565b60e0880151604051637636e94160e01b8152600481018f9052602481018e905260448101919091526001600160a01b039190911690637636e9419060640160206040518083038186803b158015611f0e57600080fd5b505afa158015611f22573d6000803e3d6000fd5b505050506040513d601f19601f82011682018060405250810190611b7c9190613a15565b509050611f528161284d565b9450505b611f838888611f636122ba565b8d611f6f8d8d8b612f37565b8860c00151611f7e919061397e565b61305a565b610100840181905215611fbf576000611fa58989611b7c876101000151612ff0565b509050611fb18161284d565b611fbb908661380a565b9450505b505b611fc9612238565b6000888152600391909101602090815260408083208984529091528120546001600160a01b031690631e007d1d906120028a8a88612f37565b8560c00151612011919061397e565b6040518363ffffffff1660e01b815260040161202e929190613aea565b60206040518083038186803b15801561204657600080fd5b505afa15801561205a573d6000803e3d6000fd5b505050506040513d601f19601f8201168201806040525081019061207e9190613a15565b608083015261208b61225c565b6001600160a01b031663ab2a07778b8b8b8b8888608001516120ad919061380a565b6040516001600160e01b031960e088901b1681526001600160a01b03958616600482015294909316602485015260448401919091526064830152608482015262ffffff881660a482015260c4810186905260e401602060405180830381600087803b15801561211b57600080fd5b505af115801561212f573d6000803e3d6000fd5b505050506040513d601f19601f820116820180604052508101906121539190613a15565b93505050965096945050505050565b606061219a61216f612238565b6000858152600691909101602090815260408083206001600160a01b0387168452909152902061314f565b80519091501561223257604051634f64581360e11b815273243db0aBb1fEaEf28DDf151688aEa5cc0834EB5F90639ec8b026906121db908490600401613682565b60006040518083038186803b1580156121f357600080fd5b505af4158015612207573d6000803e3d6000fd5b505050506040513d6000823e601f3d908101601f1916820160405261222f9190810190613863565b90505b92915050565b7f8041b8421ebd495cc61f38c788c9eb100daccf9bd36aa0bb920b7a15b2e0496590565b600061227469151bdad95b95985d5b1d60b21b613163565b905090565b6060612232826131fb565b6000612232825490565b600061222f8383613257565b60006122747121bab93932b731bca1b7b73a3937b63632b960711b613163565b60006122746a14995cd95c9d99519d5b9960aa1b613163565b6000818152600183016020526040812054151561222f565b600061222f8383613281565b60006122747011d95b995cda5cd5985b1d5955985d5b1d607a1b613163565b61233a60405180606001604052806000815260200160008152602001600081525090565b600080612345612238565b60008a8152600291909101602090815260408083206001600160a01b03898116855292529182902054915163070da1af60e11b81528a82166004820152911690630e1b435e90602401604080518083038186803b1580156123a557600080fd5b505afa1580156123b9573d6000803e3d6000fd5b505050506040513d601f19601f820116820180604052508101906123dd9190613b05565b91509150816000146124fa578086146124935786604001511561248e576124026122f7565b604051630c30971960e11b8152600481018b905260248101839052604481018490526001600160a01b0391909116906318612e32906064015b60206040518083038186803b15801561245357600080fd5b505afa158015612467573d6000803e3d6000fd5b505050506040513d601f19601f8201168201806040525081019061248b9190613a15565b83525b6124fa565b808614156124fa57865180156124a7575083155b156124c6576124b7898284612d0a565b604085015260208401526124fa565b8651806124d557508660400151155b806124dd5750835b156124fa57604083018290526124f48982846132d0565b60208401525b50509695505050505050565b6125386040518060a0016040528060008152602001600081526020016000815260200160008152602001600081525090565b604051631c7b209b60e31b81526001600160a01b038781166004830152600091829186169063e3d904d89060240160806040518083038186803b15801561257e57600080fd5b505afa158015612592573d6000803e3d6000fd5b505050506040513d601f19601f820116820180604052508101906125b69190613b29565b60808701929092526060860192909252909250905081156124fa578086146126345786604001511561248e576125ea6122f7565b6001600160a01b03166318612e328a8361260386612ff0565b6040516001600160e01b031960e086901b16815260048101939093526024830191909152604482015260640161243b565b808614156124fa5786518015612648575083155b1561265b576124b78982611b7c85612ff0565b86518061266a57508660400151155b806126725750835b156124fa5761268082612ff0565b604084018190526124f4908a9083906132d0565b6126c66040518060a0016040528060008152602001600081526020016000815260200160008152602001600081525090565b6040516339f7dda360e21b81526001600160a01b038781166004830152600091829186169063e7df768c9060240160806040518083038186803b15801561270c57600080fd5b505afa158015612720573d6000803e3d6000fd5b505050506040513d601f19601f820116820180604052508101906127449190613b29565b60808701929092526060860192909252909250905081156124fa578086146126345786604001511561248e576127786122f7565b6001600160a01b03166318612e328a8361279186612ff0565b6040516001600160e01b031960e086901b16815260048101939093526024830191909152604482015260640160206040518083038186803b1580156127d557600080fd5b505afa1580156127e9573d6000803e3d6000fd5b505050506040513d601f19601f8201168201806040525081019061280d9190613a15565b8351849061281c908390613a2e565b9052506124fa565b600061222f612834612710612ff0565b61283d84612ff0565b6128479086613b5f565b9061337a565b60008082121561289f5760405162461bcd60e51b815260206004820181905260248201527f53616665436173743a2076616c7565206d75737420626520706f7369746976656044820152606401611aad565b5090565b60008082116128b157600080fd5b60056128bd8385613bfa565b6128c890600a613aae565b836128d486600a613aae565b6128de9190613bfa565b6128e8919061397e565b10156128ff576128f88284613bfa565b9050612232565b6129098284613bfa565b6128f890600161380a565b6000806000612921612238565b6000878152600291909101602052604081209061293c612238565b6000898152600391909101602090815260408083208a84528252808320546001600160a01b0390811685529184019490945291909201822054169150808080808080612986612238565b60008e8152600391909101602090815260408083208f845290915290819020549051633d4eccdf60e01b81526001600160a01b038d8116600483015290911690633d4eccdf9060240160e060405180830381600087803b1580156129e957600080fd5b505af11580156129fd573d6000803e3d6000fd5b505050506040513d601f19601f82011682018060405250810190612a219190613c0e565b965096509650965096509650965081831115612aae57612a3f61225c565b6001600160a01b031663fb7bd3b48c8f612a59868861397e565b6040518463ffffffff1660e01b8152600401612a779392919061391a565b600060405180830381600087803b158015612a9157600080fd5b505af1158015612aa5573d6000803e3d6000fd5b50505050612b29565b81831015612b2957612abe61225c565b6001600160a01b0316634ba0c9b58c8f612ad8878761397e565b6040518463ffffffff1660e01b8152600401612af69392919061391a565b600060405180830381600087803b158015612b1057600080fd5b505af1158015612b24573d6000803e3d6000fd5b505050505b8415612bfe57604051639e8d3d5560e01b81526001600160a01b03891690639e8d3d5590612b62908e908990869060009060040161393b565b602060405180830381600087803b158015612b7c57600080fd5b505af1158015612b90573d6000803e3d6000fd5b505050506040513d601f19601f82011682018060405250810190612bb49190613963565b50808d8c6001600160a01b03167fba00994778888e87ce0908fd360c4b0417bfe7e274cce4cb72ed8a60b38b3e386000878a604051612bf5939291906139b7565b60405180910390a45b8315612cd3576040516305b0b29360e41b81526001600160a01b03891690635b0b293090612c37908e908890869060009060040161393b565b602060405180830381600087803b158015612c5157600080fd5b505af1158015612c65573d6000803e3d6000fd5b505050506040513d601f19601f82011682018060405250810190612c899190613963565b50808d8c6001600160a01b03167fba00994778888e87ce0908fd360c4b0417bfe7e274cce4cb72ed8a60b38b3e3860018689604051612cca939291906139b7565b60405180910390a45b6000612cdf858761380a565b119850612cec868861380a565b99505050505050505050935093915050565b600061222f838361340d565b6000806000612d17612238565b6001016000878152602001908152602001600020600081548110612d3d57612d3d6137de565b6000918252602080832090910154604080516371613c2d60e01b815290516001600160a01b03909216945084926371613c2d92600480840193829003018186803b158015612d8a57600080fd5b505afa158015612d9e573d6000803e3d6000fd5b505050506040513d601f19601f82011682018060405250810190612dc29190613a15565b9050612dcc6122f7565b60405163474611f160e01b815260048101899052602481018890526001600160a01b03919091169063474611f19060440160a06040518083038186803b158015612e1557600080fd5b505afa158015612e29573d6000803e3d6000fd5b505050506040513d601f19601f82011682018060405250810190612e4d9190613c62565b51612e8757612e5d8787876132d0565b9350612e80612e6b82612ff0565b612e76612710612ff0565b6128479087613b5f565b9250612f2d565b612e8f6122f7565b604051631b736f6760e31b8152600481018990526024810188905260006044820152606481018790526001600160a01b03919091169063db9b7b389060840160206040518083038186803b158015612ee657600080fd5b505afa158015612efa573d6000803e3d6000fd5b505050506040513d601f19601f82011682018060405250810190612f1e9190613a15565b9250612f2a8382612824565b93505b5050935093915050565b600080612f42612238565b6000868152600391909101602090815260408083208784528252918290205482516371613c2d60e01b815292516001600160a01b03909116926371613c2d926004808301939192829003018186803b158015612f9d57600080fd5b505afa158015612fb1573d6000803e3d6000fd5b505050506040513d601f19601f82011682018060405250810190612fd59190613a15565b9050612fe7816115d861271086613aae565b95945050505050565b60006001600160ff1b0382111561289f5760405162461bcd60e51b815260206004820152602860248201527f53616665436173743a2076616c756520646f65736e27742066697420696e2061604482015267371034b73a191a9b60c11b6064820152608401611aad565b600080613065612238565b6000888152600391909101602090815260408083208984529091528120546001600160a01b03169150613096612238565b6000898152600291909101602090815260408083206001600160a01b038681168552925291829020549151632900b99560e01b81528882166004820152878216602482015260448101879052911691508190632900b99590606401602060405180830381600087803b15801561310b57600080fd5b505af115801561311f573d6000803e3d6000fd5b505050506040513d601f19601f820116820180604052508101906131439190613a15565b98975050505050505050565b6060600061315c836131fb565b9392505050565b60008181527f4abde63c3e81aefa5764b017968bc473e83e093d7e1a10247d19e0a3e41240196020908152604080832054815170026b4b9b9b4b7339030b2323932b9b99d1607d1b9381019390935260318084018690528251808503909101815260519093019091526001600160a01b031690816131f45760405162461bcd60e51b8152600401611aad9190613cd2565b5092915050565b60608160000180548060200260200160405190810160405280929190818152602001828054801561324b57602002820191906000526020600020905b815481526020019060010190808311613237575b50505050509050919050565b600082600001828154811061326e5761326e6137de565b9060005260206000200154905092915050565b60008181526001830160205260408120546132c857508154600181810184556000848152602080822090930184905584548482528286019093526040902091909155612232565b506000612232565b6000806132db612238565b6000868152600391909101602090815260408083208784528252918290205482516371613c2d60e01b815292516001600160a01b03909116926371613c2d926004808301939192829003018186803b15801561333657600080fd5b505afa15801561334a573d6000803e3d6000fd5b505050506040513d601f19601f8201168201806040525081019061336e9190613a15565b9050612fe78382612824565b60008161338657600080fd5b60006133928385613d27565b61339d90600a613b5f565b836133a986600a613b5f565b6133b39190613d27565b6133bd9190613a6f565b9050600581126133e4576133d18385613d27565b6133dc906001613a2e565b915050612232565b60041981136134035760016133f98486613d27565b6133dc9190613a6f565b6133dc8385613d27565b600081815260018301602052604081205480156134f657600061343160018361397e565b85549091506000906134459060019061397e565b90508181146134aa576000866000018281548110613465576134656137de565b9060005260206000200154905080876000018481548110613488576134886137de565b6000918252602080832090910192909255918252600188019052604090208390555b85548690806134bb576134bb613d55565b600190038181906000526020600020016000905590558560010160008681526020019081526020016000206000905560019350505050612232565b6000915050612232565b80356001600160a01b038116811461351757600080fd5b919050565b60008060006060848603121561353157600080fd5b61353a84613500565b95602085013595506040909401359392505050565b600080600080600080600060e0888a03121561356a57600080fd5b873596506020880135955061358160408901613500565b945060608801356002811061359557600080fd5b9699959850939660808101359560a0820135955060c0909101359350915050565b6000806000606084860312156135cb57600080fd5b83359250602084013591506135e260408501613500565b90509250925092565b600080604083850312156135fe57600080fd5b8235915061360e60208401613500565b90509250929050565b60008060008060008060c0878903121561363057600080fd5b61363987613500565b955061364760208801613500565b945060408701359350606087013592506080870135915060a087013562ffffff8116811461367457600080fd5b809150509295509295509295565b6020808252825182820181905260009190848201906040850190845b818110156136ba5783518352928401929184019160010161369e565b50909695505050505050565b634e487b7160e01b600052604160045260246000fd5b604051601f8201601f1916810167ffffffffffffffff81118282101715613705576137056136c6565b604052919050565b600067ffffffffffffffff821115613727576137276136c6565b5060051b60200190565b8051801515811461351757600080fd5b6000602080838503121561375457600080fd5b825167ffffffffffffffff81111561376b57600080fd5b8301601f8101851361377c57600080fd5b805161378f61378a8261370d565b6136dc565b81815260059190911b820183019083810190878311156137ae57600080fd5b928401925b828410156137d3576137c484613731565b825292840192908401906137b3565b979650505050505050565b634e487b7160e01b600052603260045260246000fd5b634e487b7160e01b600052601160045260246000fd5b6000821982111561381d5761381d6137f4565b500190565b6000604082018483526020604081850152818551808452606086019150828701935060005b81811015610d4757845183529383019391830191600101613847565b6000602080838503121561387657600080fd5b825167ffffffffffffffff81111561388d57600080fd5b8301601f8101851361389e57600080fd5b80516138ac61378a8261370d565b81815260059190911b820183019083810190878311156138cb57600080fd5b928401925b828410156137d3578351825292840192908401906138d0565b60006000198214156138fd576138fd6137f4565b5060010190565b634e487b7160e01b600052602160045260246000fd5b6001600160a01b039390931683526020830191909152604082015260600190565b6001600160a01b03949094168452602084019290925260408301521515606082015260800190565b60006020828403121561397557600080fd5b61222f82613731565b600082821015613990576139906137f4565b500390565b600281106139b357634e487b7160e01b600052602160045260246000fd5b9052565b606081016139c58286613995565b602082019390935260400152919050565b600080600080608085870312156139ec57600080fd5b845193506020850151925060408501519150613a0a60608601613731565b905092959194509250565b600060208284031215613a2757600080fd5b5051919050565b600080821280156001600160ff1b0384900385131615613a5057613a506137f4565b600160ff1b8390038412811615613a6957613a696137f4565b50500190565b60008083128015600160ff1b850184121615613a8d57613a8d6137f4565b6001600160ff1b0384018313811615613aa857613aa86137f4565b50500390565b6000816000190483118215151615613ac857613ac86137f4565b500290565b6000600160ff1b821415613ae357613ae36137f4565b5060000390565b60408101613af88285613995565b8260208301529392505050565b60008060408385031215613b1857600080fd5b505080516020909101519092909150565b60008060008060808587031215613b3f57600080fd5b505082516020840151604085015160609095015191969095509092509050565b60006001600160ff1b0381841382841380821686840486111615613b8557613b856137f4565b600160ff1b6000871282811687830589121615613ba457613ba46137f4565b60008712925087820587128484161615613bc057613bc06137f4565b87850587128184161615613bd657613bd66137f4565b505050929093029392505050565b634e487b7160e01b600052601260045260246000fd5b600082613c0957613c09613be4565b500490565b600080600080600080600060e0888a031215613c2957600080fd5b5050855160208701516040880151606089015160808a015160a08b015160c0909b0151949c939b50919990985090965094509092509050565b600060a08284031215613c7457600080fd5b60405160a0810181811067ffffffffffffffff82111715613c9757613c976136c6565b806040525082518152602083015160208201526040830151604082015260608301516060820152608083015160808201528091505092915050565b600060208083528351808285015260005b81811015613cff57858101830151858201604001528201613ce3565b81811115613d11576000604083870101525b50601f01601f1916929092016040019392505050565b600082613d3657613d36613be4565b600160ff1b821460001984141615613d5057613d506137f4565b500590565b634e487b7160e01b600052603160045260246000fdfea26469706673582212206638ffabd9e50b8188b76d206265476d66a3088a0efacbf174efb5f7bccc7f4664736f6c63430008090033",
  "deployedBytecode": "0x73000000000000000000000000000000000000000030146080604052600436106100925760003560e01c80635c347765116100655780635c347765146101a55780639519832b146101ed5780639c599f8b1461020d578063b61ef55a1461024257600080fd5b80630312b528146100975780630b7915e6146100ec578063300074c91461010e5780634ad238801461013c575b600080fd5b6100aa6100a536600461351c565b610262565b604080519889526020890197909752958701949094526060860192909252608085015260a084015260c0830152151560e0820152610100015b60405180910390f35b8180156100f857600080fd5b5061010c61010736600461354f565b610771565b005b81801561011a57600080fd5b5061012e6101293660046135b6565b610b5b565b6040519081526020016100e3565b61014f61014a3660046135b6565b610d54565b6040516100e39190600060e082019050825182526020830151602083015260408301516040830152606083015160608301526080830151608083015260a083015160a083015260c083015160c083015292915050565b6101b86101b33660046135eb565b6114ef565b604080519788526020880196909652948601939093526060850191909152608084015260a083015260c082015260e0016100e3565b8180156101f957600080fd5b5061012e6102083660046135eb565b611614565b81801561021957600080fd5b5061022d610228366004613617565b611980565b604080519283526020830191909152016100e3565b6102556102503660046135eb565b612162565b6040516100e39190613682565b6000806000806000806000806000610278612238565b60050160008d6001600160a01b03166001600160a01b0316815260200190815260200160002090506102dc6040518060c001604052806060815260200160008019168152602001606081526020016060815260200160008152602001600081525090565b6102e461225c565b6001600160a01b0316633f90a08e6102fb84612279565b6040518263ffffffff1660e01b81526004016103179190613682565b60006040518083038186803b15801561032f57600080fd5b505afa158015610343573d6000803e3d6000fd5b505050506040513d6000823e601f3d908101601f1916820160405261036b9190810190613741565b8152608081018b905260005b61038083612284565b81101561075357610391838261228e565b6020830152604080516007808252610100820190925290816020016020820280368337505050604083015260208201516103cb908f6114ef565b88604001516000815181106103e2576103e26137de565b602002602001018960400151600181518110610400576104006137de565b602002602001018a6040015160028151811061041e5761041e6137de565b602002602001018b6040015160038151811061043c5761043c6137de565b602002602001018c6040015160048151811061045a5761045a6137de565b602002602001018d60400151600581518110610478576104786137de565b602002602001018e60400151600681518110610496576104966137de565b6020908102919091018101979097529690965295909452949093529390529290529190528201518d14156105555781604001516006815181106104db576104db6137de565b6020026020010151826080018181516104f4919061380a565b90525060408201518051600390811061050f5761050f6137de565b6020026020010151826040015160008151811061052e5761052e6137de565b6020026020010151610540919061380a565b8260a001818151610551919061380a565b9052505b61055d61229a565b6001600160a01b031663939fe622836020015184604001516040518363ffffffff1660e01b8152600401610592929190613822565b60006040518083038186803b1580156105aa57600080fd5b505afa1580156105be573d6000803e3d6000fd5b505050506040513d6000823e601f3d908101601f191682016040526105e69190810190613863565b6060830181905280516001908110610600576106006137de565b60200260200101518a610613919061380a565b9950816060015160028151811061062c5761062c6137de565b60200260200101518961063f919061380a565b98508160600151600481518110610658576106586137de565b60200260200101518761066b919061380a565b96508160600151600581518110610684576106846137de565b602002602001015186610697919061380a565b9550816000015181815181106106af576106af6137de565b6020026020010151156107415781606001516000815181106106d3576106d36137de565b60200260200101518b6106e6919061380a565b9a5081606001516003815181106106ff576106ff6137de565b602002602001015188610712919061380a565b9750816060015160068151811061072b5761072b6137de565b60200260200101518561073e919061380a565b94505b8061074b816138e9565b915050610377565b508060a0015181608001511015925050509397509397509397509397565b600061077b612238565b60008981526002919091016020526040812090610796612238565b60008b8152600391909101602090815260408083208c84528252808320546001600160a01b03908116855291840194909452919092019091205416905060018560018111156107e7576107e7613904565b14156108ec576107f561225c565b6001600160a01b0316634ba0c9b5878a866040518463ffffffff1660e01b81526004016108249392919061391a565b600060405180830381600087803b15801561083e57600080fd5b505af1158015610852573d6000803e3d6000fd5b50505050806001600160a01b0316635b0b2930878487610872919061380a565b8a60016040518563ffffffff1660e01b8152600401610894949392919061393b565b602060405180830381600087803b1580156108ae57600080fd5b505af11580156108c2573d6000803e3d6000fd5b505050506040513d601f19601f820116820180604052508101906108e69190613963565b506109e7565b6108f461225c565b6001600160a01b031663fb7bd3b4878a866040518463ffffffff1660e01b81526004016109239392919061391a565b600060405180830381600087803b15801561093d57600080fd5b505af1158015610951573d6000803e3d6000fd5b50505050806001600160a01b0316639e8d3d55878487610971919061397e565b8a60016040518563ffffffff1660e01b8152600401610993949392919061393b565b602060405180830381600087803b1580156109ad57600080fd5b505af11580156109c1573d6000803e3d6000fd5b505050506040513d601f19601f820116820180604052508101906109e59190613963565b505b8115610b0a5760006109f76122ba565b90506001600160a01b038216639e8d3d5582858b60008b6001811115610a1f57610a1f613904565b146040518563ffffffff1660e01b8152600401610a3f949392919061393b565b602060405180830381600087803b158015610a5957600080fd5b505af1158015610a6d573d6000803e3d6000fd5b505050506040513d601f19601f82011682018060405250810190610a919190613963565b50610aca88610a9e612238565b60008c8152600691909101602090815260408083206001600160a01b03871684529091529020906122d3565b610b0857610b0688610ada612238565b60008c8152600691909101602090815260408083206001600160a01b03871684529091529020906122eb565b505b505b8688876001600160a01b03167ff80dd09632f046e05472e1c239271a3b2ad3de73c27a1b03d0bb0329ba6716df888789604051610b49939291906139b7565b60405180910390a45050505050505050565b600080610b66612238565b60008681526002919091016020526040812090610b81612238565b6000888152600391909101602090815260408083208984528252808320546001600160a01b03908116855291840194909452918301812054925163ae100e6d60e01b815286831660048201526024810188905292909116925090819081908190859063ae100e6d90604401608060405180830381600087803b158015610c0657600080fd5b505af1158015610c1a573d6000803e3d6000fd5b505050506040513d601f19601f82011682018060405250810190610c3e91906139d6565b935093509350935083600014610d47578015610ccc57610c5c6122f7565b60405163312c474560e01b8152600481018b90526001600160a01b03898116602483015260448201859052919091169063312c474590606401600060405180830381600087803b158015610caf57600080fd5b505af1158015610cc3573d6000803e3d6000fd5b50505050610d47565b610cd46122f7565b6040516360e3f72960e11b8152600481018b90526001600160a01b0389811660248301526044820185905260648201879052919091169063c1c7ee5290608401600060405180830381600087803b158015610d2e57600080fd5b505af1158015610d42573d6000803e3d6000fd5b505050505b5090979650505050505050565b610d946040518060e00160405280600081526020016000815260200160008152602001600081526020016000815260200160008152602001600081525090565b604080516080810182526000808252602082018190529181019190915260608082015283610e145760018152610dc8612238565b6001016000868152602001908152602001600020600081548110610dee57610dee6137de565b600091825260209182902001546001600160a01b03169082015260016040820152610e9e565b60008152610e20612238565b6000868152600391909101602090815260408083208784528252909120546001600160a01b031690820152610e53612238565b6001016000868152602001908152602001600020600081548110610e7957610e796137de565b60009182526020918290200154908201516001600160a01b0390811691161460408201525b610ea66122f7565b60405163386320d360e11b8152600481018790526001600160a01b03858116602483015291909116906370c641a69060440160206040518083038186803b158015610ef057600080fd5b505afa158015610f04573d6000803e3d6000fd5b505050506040513d601f19601f82011682018060405250810190610f289190613a15565b60c0830152610f378584612162565b606082015260005b816060015151811015611350576000610f56612238565b6003016000888152602001908152602001600020600084606001518481518110610f8257610f826137de565b6020026020010151815260200190815260200160002060009054906101000a90046001600160a01b031690506000816001600160a01b031663e16695b56040518163ffffffff1660e01b815260040160206040518083038186803b158015610fe957600080fd5b505afa158015610ffd573d6000803e3d6000fd5b505050506040513d601f19601f820116820180604052508101906110219190613a15565b9050600061102d612238565b60010160008a8152602001908152602001600020600081548110611053576110536137de565b60009182526020909120015460408601516001600160a01b03858116921691909114915080611097575084602001516001600160a01b0316836001600160a01b0316145b1561133a5760006110ac8a8988868887612316565b905080600001518760c0018181516110c49190613a2e565b9052506020810151875188906110db908390613a2e565b90525060408101516020880180516110f4908390613a2e565b90525060006111078b8a89878988612506565b905080606001518860800181815161111f919061380a565b905250608081015160a08901805161113890839061380a565b905250805160c08901805161114e908390613a6f565b905250602081015188518990611165908390613a6f565b905250604081015160208901805161117e908390613a6f565b90525060006111918c8b8a888a89612694565b90508060600151896040018181516111a9919061380a565b905250608081015160608a0180516111c290839061380a565b905250805160c08a0180516111d8908390613a2e565b905250602081015189518a906111ef908390613a2e565b905250604081015160208a018051611208908390613a2e565b90525060c0890151600013156113365760006112226122f7565b6001600160a01b031663aee1311e8e8c60c001518c606001518c8151811061124c5761124c6137de565b602002602001015160018e6060015151611266919061397e565b8d146112995760608e015161127c8e600161380a565b8151811061128c5761128c6137de565b602002602001015161129c565b60005b6040516001600160e01b031960e087901b168152600481019490945260248401929092526044830152606482015260840160206040518083038186803b1580156112e557600080fd5b505afa1580156112f9573d6000803e3d6000fd5b505050506040513d601f19601f8201168201806040525081019061131d9190613a15565b9050808a60c0018181516113319190613a2e565b905250505b5050505b5050508080611348906138e9565b915050610f3f565b5080604001518015611365575060c082015115155b156114e75760006113746122f7565b60c0840151604051637636e94160e01b8152600481018990526000602482015260448101919091526001600160a01b039190911690637636e9419060640160206040518083038186803b1580156113ca57600080fd5b505afa1580156113de573d6000803e3d6000fd5b505050506040513d601f19601f820116820180604052508101906114029190613a15565b90506114bc81611410612238565b6001016000898152602001908152602001600020600081548110611436576114366137de565b60009182526020918290200154604080516371613c2d60e01b815290516001600160a01b03909216926371613c2d92600480840193829003018186803b15801561147f57600080fd5b505afa158015611493573d6000803e3d6000fd5b505050506040513d601f19601f820116820180604052508101906114b79190613a15565b612824565b835184906114cb908390613a2e565b9052506020830180518291906114e2908390613a2e565b905250505b509392505050565b6000806000806000806000806115078a60008b610d54565b90508060400151975080606001519450806080015193508060a0015191506000816000015113156115e657805161153d9061284d565b9650600061154961229a565b6001600160a01b0316639abdb38a8c6040518263ffffffff1660e01b815260040161157691815260200190565b60206040518083038186803b15801561158e57600080fd5b505afa1580156115a2573d6000803e3d6000fd5b505050506040513d601f19601f820116820180604052508101906115c69190613a15565b90506115de6127106115d8838b613aae565b906128a3565b965050611607565b805160001315611607578051611604906115ff90613acd565b61284d565b92505b5092959891949750929550565b600080806116228585612162565b905060005b81518110156118a357600061163a612238565b60030160008881526020019081526020016000206000848481518110611662576116626137de565b6020026020010151815260200190815260200160002060009054906101000a90046001600160a01b031690506000816001600160a01b031663e16695b56040518163ffffffff1660e01b815260040160206040518083038186803b1580156116c957600080fd5b505afa1580156116dd573d6000803e3d6000fd5b505050506040513d601f19601f820116820180604052508101906117019190613a15565b9050600061171089838a610b5b565b90506000806117208b858c612914565b909250905061172f828a61380a565b98508015611745576117428b858c610b5b565b92505b821561175057600197505b8215801561175c575081155b156117cd576117cb878781518110611776576117766137de565b6020026020010151611786612238565b60060160008e815260200190815260200160002060008d6001600160a01b03166001600160a01b03168152602001908152602001600020612cfe90919063ffffffff16565b505b6117d56122f7565b6001600160a01b031663eeac29d88c8c60018b516117f3919061397e565b8a14611822578a6118058b600161380a565b81518110611815576118156137de565b6020026020010151611825565b60005b6040516001600160e01b031960e086901b16815260048101939093526001600160a01b0390911660248301526044820152606401600060405180830381600087803b15801561187357600080fd5b505af1158015611887573d6000803e3d6000fd5b505050505050505050808061189b906138e9565b915050611627565b50821580156118b0575081155b801561194357506118bf6122f7565b60405163386320d360e11b8152600481018790526001600160a01b03868116602483015291909116906370c641a69060440160206040518083038186803b15801561190957600080fd5b505afa15801561191d573d6000803e3d6000fd5b505050506040513d601f19601f820116820180604052508101906119419190613a15565b155b156119785761197685611954612238565b6001600160a01b03871660009081526005919091016020526040902090612cfe565b505b505092915050565b6000806119db60405180610120016040528060006001600160a01b0316815260200160008152602001600081526020016000815260200160008152602001600081526020016000815260200160008152602001600081525090565b6119e361225c565b60405163afe8efcf60e01b81526001600160a01b038a81166004830152919091169063afe8efcf9060240160206040518083038186803b158015611a2657600080fd5b505afa158015611a3a573d6000803e3d6000fd5b505050506040513d601f19601f82011682018060405250810190611a5e9190613a15565b60a08201819052611ab65760405162461bcd60e51b815260206004820152601a60248201527f557365722068617320656e6f75676820636f6c6c61746572616c00000000000060448201526064015b60405180910390fd5b611ac186868a610d54565b6020015160608201819052600013611b1b5760405162461bcd60e51b815260206004820181905260248201527f4e6f206465627420696e207468652073656c6563746564206d617475726974796044820152606401611aad565b611b23612238565b6000878152600391909101602090815260408083208884529091529020546001600160a01b031681526060810151611b5e906115ff90613acd565b8160200181815250506000611b8187878460600151611b7c90613acd565b612d0a565b509050611b8d8161284d565b6040830152611c2e8787611b9f61229a565b6001600160a01b03166306d062ad8b8760a001516040518363ffffffff1660e01b8152600401611bd9929190918252602082015260400190565b60206040518083038186803b158015611bf157600080fd5b505afa158015611c05573d6000803e3d6000fd5b505050506040513d601f19601f82011682018060405250810190611c299190613a15565b612f37565b60c0830181905260208301511015611c4b57602082015160c08301525b611c536122ba565b6001600160a01b031663b187bd266040518163ffffffff1660e01b815260040160206040518083038186803b158015611c8b57600080fd5b505afa158015611c9f573d6000803e3d6000fd5b505050506040513d601f19601f82011682018060405250810190611cc39190613963565b611fc1576000611cd1612238565b6001016000898152602001908152602001600020600081548110611cf757611cf76137de565b6000918252602090912001546001600160a01b0316611d14612238565b60008a8152600391909101602090815260408083208b84529091529020546001600160a01b03161490508015611f5657611d4c6122f7565b6001600160a01b03166388c0520e8989611d646122ba565b8e611d6d6122f7565b6001600160a01b03166318612e328f8f611d8a8d60c00151612ff0565b6040516001600160e01b031960e086901b16815260048101939093526024830191909152604482015260640160206040518083038186803b158015611dce57600080fd5b505afa158015611de2573d6000803e3d6000fd5b505050506040513d601f19601f82011682018060405250810190611e069190613a15565b6040516001600160e01b031960e088901b168152600481019590955260248501939093526001600160a01b039182166044850152166064830152608482015260a401602060405180830381600087803b158015611e6257600080fd5b505af1158015611e76573d6000803e3d6000fd5b505050506040513d601f19601f82011682018060405250810190611e9a9190613a15565b60e0840181905260001215611f56576000611f468989611eb86122f7565b60e0880151604051637636e94160e01b8152600481018f9052602481018e905260448101919091526001600160a01b039190911690637636e9419060640160206040518083038186803b158015611f0e57600080fd5b505afa158015611f22573d6000803e3d6000fd5b505050506040513d601f19601f82011682018060405250810190611b7c9190613a15565b509050611f528161284d565b9450505b611f838888611f636122ba565b8d611f6f8d8d8b612f37565b8860c00151611f7e919061397e565b61305a565b610100840181905215611fbf576000611fa58989611b7c876101000151612ff0565b509050611fb18161284d565b611fbb908661380a565b9450505b505b611fc9612238565b6000888152600391909101602090815260408083208984529091528120546001600160a01b031690631e007d1d906120028a8a88612f37565b8560c00151612011919061397e565b6040518363ffffffff1660e01b815260040161202e929190613aea565b60206040518083038186803b15801561204657600080fd5b505afa15801561205a573d6000803e3d6000fd5b505050506040513d601f19601f8201168201806040525081019061207e9190613a15565b608083015261208b61225c565b6001600160a01b031663ab2a07778b8b8b8b8888608001516120ad919061380a565b6040516001600160e01b031960e088901b1681526001600160a01b03958616600482015294909316602485015260448401919091526064830152608482015262ffffff881660a482015260c4810186905260e401602060405180830381600087803b15801561211b57600080fd5b505af115801561212f573d6000803e3d6000fd5b505050506040513d601f19601f820116820180604052508101906121539190613a15565b93505050965096945050505050565b606061219a61216f612238565b6000858152600691909101602090815260408083206001600160a01b0387168452909152902061314f565b80519091501561223257604051634f64581360e11b815273__$69df8f3ef0941d5dac5ad52c193381be4b$__90639ec8b026906121db908490600401613682565b60006040518083038186803b1580156121f357600080fd5b505af4158015612207573d6000803e3d6000fd5b505050506040513d6000823e601f3d908101601f1916820160405261222f9190810190613863565b90505b92915050565b7f8041b8421ebd495cc61f38c788c9eb100daccf9bd36aa0bb920b7a15b2e0496590565b600061227469151bdad95b95985d5b1d60b21b613163565b905090565b6060612232826131fb565b6000612232825490565b600061222f8383613257565b60006122747121bab93932b731bca1b7b73a3937b63632b960711b613163565b60006122746a14995cd95c9d99519d5b9960aa1b613163565b6000818152600183016020526040812054151561222f565b600061222f8383613281565b60006122747011d95b995cda5cd5985b1d5955985d5b1d607a1b613163565b61233a60405180606001604052806000815260200160008152602001600081525090565b600080612345612238565b60008a8152600291909101602090815260408083206001600160a01b03898116855292529182902054915163070da1af60e11b81528a82166004820152911690630e1b435e90602401604080518083038186803b1580156123a557600080fd5b505afa1580156123b9573d6000803e3d6000fd5b505050506040513d601f19601f820116820180604052508101906123dd9190613b05565b91509150816000146124fa578086146124935786604001511561248e576124026122f7565b604051630c30971960e11b8152600481018b905260248101839052604481018490526001600160a01b0391909116906318612e32906064015b60206040518083038186803b15801561245357600080fd5b505afa158015612467573d6000803e3d6000fd5b505050506040513d601f19601f8201168201806040525081019061248b9190613a15565b83525b6124fa565b808614156124fa57865180156124a7575083155b156124c6576124b7898284612d0a565b604085015260208401526124fa565b8651806124d557508660400151155b806124dd5750835b156124fa57604083018290526124f48982846132d0565b60208401525b50509695505050505050565b6125386040518060a0016040528060008152602001600081526020016000815260200160008152602001600081525090565b604051631c7b209b60e31b81526001600160a01b038781166004830152600091829186169063e3d904d89060240160806040518083038186803b15801561257e57600080fd5b505afa158015612592573d6000803e3d6000fd5b505050506040513d601f19601f820116820180604052508101906125b69190613b29565b60808701929092526060860192909252909250905081156124fa578086146126345786604001511561248e576125ea6122f7565b6001600160a01b03166318612e328a8361260386612ff0565b6040516001600160e01b031960e086901b16815260048101939093526024830191909152604482015260640161243b565b808614156124fa5786518015612648575083155b1561265b576124b78982611b7c85612ff0565b86518061266a57508660400151155b806126725750835b156124fa5761268082612ff0565b604084018190526124f4908a9083906132d0565b6126c66040518060a0016040528060008152602001600081526020016000815260200160008152602001600081525090565b6040516339f7dda360e21b81526001600160a01b038781166004830152600091829186169063e7df768c9060240160806040518083038186803b15801561270c57600080fd5b505afa158015612720573d6000803e3d6000fd5b505050506040513d601f19601f820116820180604052508101906127449190613b29565b60808701929092526060860192909252909250905081156124fa578086146126345786604001511561248e576127786122f7565b6001600160a01b03166318612e328a8361279186612ff0565b6040516001600160e01b031960e086901b16815260048101939093526024830191909152604482015260640160206040518083038186803b1580156127d557600080fd5b505afa1580156127e9573d6000803e3d6000fd5b505050506040513d601f19601f8201168201806040525081019061280d9190613a15565b8351849061281c908390613a2e565b9052506124fa565b600061222f612834612710612ff0565b61283d84612ff0565b6128479086613b5f565b9061337a565b60008082121561289f5760405162461bcd60e51b815260206004820181905260248201527f53616665436173743a2076616c7565206d75737420626520706f7369746976656044820152606401611aad565b5090565b60008082116128b157600080fd5b60056128bd8385613bfa565b6128c890600a613aae565b836128d486600a613aae565b6128de9190613bfa565b6128e8919061397e565b10156128ff576128f88284613bfa565b9050612232565b6129098284613bfa565b6128f890600161380a565b6000806000612921612238565b6000878152600291909101602052604081209061293c612238565b6000898152600391909101602090815260408083208a84528252808320546001600160a01b0390811685529184019490945291909201822054169150808080808080612986612238565b60008e8152600391909101602090815260408083208f845290915290819020549051633d4eccdf60e01b81526001600160a01b038d8116600483015290911690633d4eccdf9060240160e060405180830381600087803b1580156129e957600080fd5b505af11580156129fd573d6000803e3d6000fd5b505050506040513d601f19601f82011682018060405250810190612a219190613c0e565b965096509650965096509650965081831115612aae57612a3f61225c565b6001600160a01b031663fb7bd3b48c8f612a59868861397e565b6040518463ffffffff1660e01b8152600401612a779392919061391a565b600060405180830381600087803b158015612a9157600080fd5b505af1158015612aa5573d6000803e3d6000fd5b50505050612b29565b81831015612b2957612abe61225c565b6001600160a01b0316634ba0c9b58c8f612ad8878761397e565b6040518463ffffffff1660e01b8152600401612af69392919061391a565b600060405180830381600087803b158015612b1057600080fd5b505af1158015612b24573d6000803e3d6000fd5b505050505b8415612bfe57604051639e8d3d5560e01b81526001600160a01b03891690639e8d3d5590612b62908e908990869060009060040161393b565b602060405180830381600087803b158015612b7c57600080fd5b505af1158015612b90573d6000803e3d6000fd5b505050506040513d601f19601f82011682018060405250810190612bb49190613963565b50808d8c6001600160a01b03167fba00994778888e87ce0908fd360c4b0417bfe7e274cce4cb72ed8a60b38b3e386000878a604051612bf5939291906139b7565b60405180910390a45b8315612cd3576040516305b0b29360e41b81526001600160a01b03891690635b0b293090612c37908e908890869060009060040161393b565b602060405180830381600087803b158015612c5157600080fd5b505af1158015612c65573d6000803e3d6000fd5b505050506040513d601f19601f82011682018060405250810190612c899190613963565b50808d8c6001600160a01b03167fba00994778888e87ce0908fd360c4b0417bfe7e274cce4cb72ed8a60b38b3e3860018689604051612cca939291906139b7565b60405180910390a45b6000612cdf858761380a565b119850612cec868861380a565b99505050505050505050935093915050565b600061222f838361340d565b6000806000612d17612238565b6001016000878152602001908152602001600020600081548110612d3d57612d3d6137de565b6000918252602080832090910154604080516371613c2d60e01b815290516001600160a01b03909216945084926371613c2d92600480840193829003018186803b158015612d8a57600080fd5b505afa158015612d9e573d6000803e3d6000fd5b505050506040513d601f19601f82011682018060405250810190612dc29190613a15565b9050612dcc6122f7565b60405163474611f160e01b815260048101899052602481018890526001600160a01b03919091169063474611f19060440160a06040518083038186803b158015612e1557600080fd5b505afa158015612e29573d6000803e3d6000fd5b505050506040513d601f19601f82011682018060405250810190612e4d9190613c62565b51612e8757612e5d8787876132d0565b9350612e80612e6b82612ff0565b612e76612710612ff0565b6128479087613b5f565b9250612f2d565b612e8f6122f7565b604051631b736f6760e31b8152600481018990526024810188905260006044820152606481018790526001600160a01b03919091169063db9b7b389060840160206040518083038186803b158015612ee657600080fd5b505afa158015612efa573d6000803e3d6000fd5b505050506040513d601f19601f82011682018060405250810190612f1e9190613a15565b9250612f2a8382612824565b93505b5050935093915050565b600080612f42612238565b6000868152600391909101602090815260408083208784528252918290205482516371613c2d60e01b815292516001600160a01b03909116926371613c2d926004808301939192829003018186803b158015612f9d57600080fd5b505afa158015612fb1573d6000803e3d6000fd5b505050506040513d601f19601f82011682018060405250810190612fd59190613a15565b9050612fe7816115d861271086613aae565b95945050505050565b60006001600160ff1b0382111561289f5760405162461bcd60e51b815260206004820152602860248201527f53616665436173743a2076616c756520646f65736e27742066697420696e2061604482015267371034b73a191a9b60c11b6064820152608401611aad565b600080613065612238565b6000888152600391909101602090815260408083208984529091528120546001600160a01b03169150613096612238565b6000898152600291909101602090815260408083206001600160a01b038681168552925291829020549151632900b99560e01b81528882166004820152878216602482015260448101879052911691508190632900b99590606401602060405180830381600087803b15801561310b57600080fd5b505af115801561311f573d6000803e3d6000fd5b505050506040513d601f19601f820116820180604052508101906131439190613a15565b98975050505050505050565b6060600061315c836131fb565b9392505050565b60008181527f4abde63c3e81aefa5764b017968bc473e83e093d7e1a10247d19e0a3e41240196020908152604080832054815170026b4b9b9b4b7339030b2323932b9b99d1607d1b9381019390935260318084018690528251808503909101815260519093019091526001600160a01b031690816131f45760405162461bcd60e51b8152600401611aad9190613cd2565b5092915050565b60608160000180548060200260200160405190810160405280929190818152602001828054801561324b57602002820191906000526020600020905b815481526020019060010190808311613237575b50505050509050919050565b600082600001828154811061326e5761326e6137de565b9060005260206000200154905092915050565b60008181526001830160205260408120546132c857508154600181810184556000848152602080822090930184905584548482528286019093526040902091909155612232565b506000612232565b6000806132db612238565b6000868152600391909101602090815260408083208784528252918290205482516371613c2d60e01b815292516001600160a01b03909116926371613c2d926004808301939192829003018186803b15801561333657600080fd5b505afa15801561334a573d6000803e3d6000fd5b505050506040513d601f19601f8201168201806040525081019061336e9190613a15565b9050612fe78382612824565b60008161338657600080fd5b60006133928385613d27565b61339d90600a613b5f565b836133a986600a613b5f565b6133b39190613d27565b6133bd9190613a6f565b9050600581126133e4576133d18385613d27565b6133dc906001613a2e565b915050612232565b60041981136134035760016133f98486613d27565b6133dc9190613a6f565b6133dc8385613d27565b600081815260018301602052604081205480156134f657600061343160018361397e565b85549091506000906134459060019061397e565b90508181146134aa576000866000018281548110613465576134656137de565b9060005260206000200154905080876000018481548110613488576134886137de565b6000918252602080832090910192909255918252600188019052604090208390555b85548690806134bb576134bb613d55565b600190038181906000526020600020016000905590558560010160008681526020019081526020016000206000905560019350505050612232565b6000915050612232565b80356001600160a01b038116811461351757600080fd5b919050565b60008060006060848603121561353157600080fd5b61353a84613500565b95602085013595506040909401359392505050565b600080600080600080600060e0888a03121561356a57600080fd5b873596506020880135955061358160408901613500565b945060608801356002811061359557600080fd5b9699959850939660808101359560a0820135955060c0909101359350915050565b6000806000606084860312156135cb57600080fd5b83359250602084013591506135e260408501613500565b90509250925092565b600080604083850312156135fe57600080fd5b8235915061360e60208401613500565b90509250929050565b60008060008060008060c0878903121561363057600080fd5b61363987613500565b955061364760208801613500565b945060408701359350606087013592506080870135915060a087013562ffffff8116811461367457600080fd5b809150509295509295509295565b6020808252825182820181905260009190848201906040850190845b818110156136ba5783518352928401929184019160010161369e565b50909695505050505050565b634e487b7160e01b600052604160045260246000fd5b604051601f8201601f1916810167ffffffffffffffff81118282101715613705576137056136c6565b604052919050565b600067ffffffffffffffff821115613727576137276136c6565b5060051b60200190565b8051801515811461351757600080fd5b6000602080838503121561375457600080fd5b825167ffffffffffffffff81111561376b57600080fd5b8301601f8101851361377c57600080fd5b805161378f61378a8261370d565b6136dc565b81815260059190911b820183019083810190878311156137ae57600080fd5b928401925b828410156137d3576137c484613731565b825292840192908401906137b3565b979650505050505050565b634e487b7160e01b600052603260045260246000fd5b634e487b7160e01b600052601160045260246000fd5b6000821982111561381d5761381d6137f4565b500190565b6000604082018483526020604081850152818551808452606086019150828701935060005b81811015610d4757845183529383019391830191600101613847565b6000602080838503121561387657600080fd5b825167ffffffffffffffff81111561388d57600080fd5b8301601f8101851361389e57600080fd5b80516138ac61378a8261370d565b81815260059190911b820183019083810190878311156138cb57600080fd5b928401925b828410156137d3578351825292840192908401906138d0565b60006000198214156138fd576138fd6137f4565b5060010190565b634e487b7160e01b600052602160045260246000fd5b6001600160a01b039390931683526020830191909152604082015260600190565b6001600160a01b03949094168452602084019290925260408301521515606082015260800190565b60006020828403121561397557600080fd5b61222f82613731565b600082821015613990576139906137f4565b500390565b600281106139b357634e487b7160e01b600052602160045260246000fd5b9052565b606081016139c58286613995565b602082019390935260400152919050565b600080600080608085870312156139ec57600080fd5b845193506020850151925060408501519150613a0a60608601613731565b905092959194509250565b600060208284031215613a2757600080fd5b5051919050565b600080821280156001600160ff1b0384900385131615613a5057613a506137f4565b600160ff1b8390038412811615613a6957613a696137f4565b50500190565b60008083128015600160ff1b850184121615613a8d57613a8d6137f4565b6001600160ff1b0384018313811615613aa857613aa86137f4565b50500390565b6000816000190483118215151615613ac857613ac86137f4565b500290565b6000600160ff1b821415613ae357613ae36137f4565b5060000390565b60408101613af88285613995565b8260208301529392505050565b60008060408385031215613b1857600080fd5b505080516020909101519092909150565b60008060008060808587031215613b3f57600080fd5b505082516020840151604085015160609095015191969095509092509050565b60006001600160ff1b0381841382841380821686840486111615613b8557613b856137f4565b600160ff1b6000871282811687830589121615613ba457613ba46137f4565b60008712925087820587128484161615613bc057613bc06137f4565b87850587128184161615613bd657613bd66137f4565b505050929093029392505050565b634e487b7160e01b600052601260045260246000fd5b600082613c0957613c09613be4565b500490565b600080600080600080600060e0888a031215613c2957600080fd5b5050855160208701516040880151606089015160808a015160a08b015160c0909b0151949c939b50919990985090965094509092509050565b600060a08284031215613c7457600080fd5b60405160a0810181811067ffffffffffffffff82111715613c9757613c976136c6565b806040525082518152602083015160208201526040830151604082015260608301516060820152608083015160808201528091505092915050565b600060208083528351808285015260005b81811015613cff57858101830151858201604001528201613ce3565b81811115613d11576000604083870101525b50601f01601f1916929092016040019392505050565b600082613d3657613d36613be4565b600160ff1b821460001984141615613d5057613d506137f4565b500590565b634e487b7160e01b600052603160045260246000fdfea26469706673582212206638ffabd9e50b8188b76d206265476d66a3088a0efacbf174efb5f7bccc7f4664736f6c63430008090033",
  "libraries": {
    "QuickSort": "0x243db0aBb1fEaEf28DDf151688aEa5cc0834EB5F"
  },
  "devdoc": {
    "kind": "dev",
    "methods": {
      "convertFutureValueToGenesisValue(bytes32,uint256,address)": {
        "params": {
          "_ccy": "Currency for pausing all lending markets",
          "_user": "User's address"
        },
        "returns": {
          "_0": "Current future value amount after update"
        }
      }
    },
    "version": 1
  },
  "userdoc": {
    "kind": "user",
    "methods": {
      "convertFutureValueToGenesisValue(bytes32,uint256,address)": {
        "notice": "Converts the future value to the genesis value if there is balance in the past maturity."
      }
    },
    "version": 1
  },
  "storageLayout": {
    "storage": [],
    "types": null
  }
}