{
  "address": "0x3FD65e194Fa35dC2e05Dd3c50c55c61de48F5bcd",
  "abi": [
    {
      "anonymous": false,
      "inputs": [
        {
          "indexed": false,
          "internalType": "bytes32",
          "name": "name",
          "type": "bytes32"
        },
        {
          "indexed": false,
          "internalType": "address",
          "name": "destination",
          "type": "address"
        }
      ],
      "name": "CacheUpdated",
      "type": "event"
    },
    {
      "anonymous": false,
      "inputs": [
        {
          "indexed": false,
          "internalType": "uint8",
          "name": "version",
          "type": "uint8"
        }
      ],
      "name": "Initialized",
      "type": "event"
    },
    {
      "anonymous": false,
      "inputs": [
        {
          "indexed": true,
          "internalType": "address",
          "name": "from",
          "type": "address"
        },
        {
          "indexed": true,
          "internalType": "address",
          "name": "to",
          "type": "address"
        },
        {
          "indexed": false,
          "internalType": "int256",
          "name": "value",
          "type": "int256"
        }
      ],
      "name": "Transfer",
      "type": "event"
    },
    {
      "inputs": [],
      "name": "acceptedContracts",
      "outputs": [
        {
          "internalType": "bytes32[]",
          "name": "contracts",
          "type": "bytes32[]"
        }
      ],
      "stateMutability": "pure",
      "type": "function"
    },
    {
      "inputs": [
        {
          "internalType": "address",
          "name": "_user",
          "type": "address"
        },
        {
          "internalType": "uint256",
          "name": "_amount",
          "type": "uint256"
        },
        {
          "internalType": "uint256",
          "name": "_maturity",
          "type": "uint256"
        },
        {
          "internalType": "bool",
          "name": "_isTaker",
          "type": "bool"
        }
      ],
      "name": "addBorrowFutureValue",
      "outputs": [
        {
          "internalType": "bool",
          "name": "",
          "type": "bool"
        }
      ],
      "stateMutability": "nonpayable",
      "type": "function"
    },
    {
      "inputs": [
        {
          "internalType": "address",
          "name": "_user",
          "type": "address"
        },
        {
          "internalType": "uint256",
          "name": "_amount",
          "type": "uint256"
        },
        {
          "internalType": "uint256",
          "name": "_maturity",
          "type": "uint256"
        },
        {
          "internalType": "bool",
          "name": "_isTaker",
          "type": "bool"
        }
      ],
      "name": "addLendFutureValue",
      "outputs": [
        {
          "internalType": "bool",
          "name": "",
          "type": "bool"
        }
      ],
      "stateMutability": "nonpayable",
      "type": "function"
    },
    {
      "inputs": [],
      "name": "buildCache",
      "outputs": [],
      "stateMutability": "nonpayable",
      "type": "function"
    },
    {
      "inputs": [
        {
          "internalType": "address",
          "name": "_user",
          "type": "address"
        }
      ],
      "name": "getFutureValue",
      "outputs": [
        {
          "internalType": "int256",
          "name": "futureValue",
          "type": "int256"
        },
        {
          "internalType": "uint256",
          "name": "maturity",
          "type": "uint256"
        }
      ],
      "stateMutability": "view",
      "type": "function"
    },
    {
      "inputs": [
        {
          "internalType": "uint256",
          "name": "_maturity",
          "type": "uint256"
        }
      ],
      "name": "getTotalSupply",
      "outputs": [
        {
          "internalType": "uint256",
          "name": "",
          "type": "uint256"
        }
      ],
      "stateMutability": "view",
      "type": "function"
    },
    {
      "inputs": [
        {
          "internalType": "address",
          "name": "_user",
          "type": "address"
        },
        {
          "internalType": "uint256",
          "name": "_maturity",
          "type": "uint256"
        }
      ],
      "name": "hasFutureValueInPastMaturity",
      "outputs": [
        {
          "internalType": "bool",
          "name": "",
          "type": "bool"
        }
      ],
      "stateMutability": "view",
      "type": "function"
    },
    {
      "inputs": [
        {
          "internalType": "address",
          "name": "_resolver",
          "type": "address"
        }
      ],
      "name": "initialize",
      "outputs": [],
      "stateMutability": "nonpayable",
      "type": "function"
    },
    {
      "inputs": [],
      "name": "isResolverCached",
      "outputs": [
        {
          "internalType": "bool",
          "name": "",
          "type": "bool"
        }
      ],
      "stateMutability": "view",
      "type": "function"
    },
    {
      "inputs": [
        {
          "internalType": "address",
          "name": "_lender",
          "type": "address"
        },
        {
          "internalType": "address",
          "name": "_borrower",
          "type": "address"
        },
        {
          "internalType": "uint256",
          "name": "_maximumFVAmount",
          "type": "uint256"
        }
      ],
      "name": "offsetFutureValue",
      "outputs": [
        {
          "internalType": "uint256",
          "name": "offsetAmount",
          "type": "uint256"
        }
      ],
      "stateMutability": "nonpayable",
      "type": "function"
    },
    {
      "inputs": [
        {
          "internalType": "address",
          "name": "_user",
          "type": "address"
        },
        {
          "internalType": "uint256",
          "name": "_activeMaturity",
          "type": "uint256"
        }
      ],
      "name": "removeFutureValue",
      "outputs": [
        {
          "internalType": "int256",
          "name": "removedAmount",
          "type": "int256"
        },
        {
          "internalType": "int256",
          "name": "currentAmount",
          "type": "int256"
        },
        {
          "internalType": "uint256",
          "name": "maturity",
          "type": "uint256"
        },
        {
          "internalType": "bool",
          "name": "isAllRemoved",
          "type": "bool"
        }
      ],
      "stateMutability": "nonpayable",
      "type": "function"
    },
    {
      "inputs": [],
      "name": "requiredContracts",
      "outputs": [
        {
          "internalType": "bytes32[]",
          "name": "contracts",
          "type": "bytes32[]"
        }
      ],
      "stateMutability": "pure",
      "type": "function"
    },
    {
      "inputs": [],
      "name": "resolver",
      "outputs": [
        {
          "internalType": "contract IAddressResolver",
          "name": "",
          "type": "address"
        }
      ],
      "stateMutability": "view",
      "type": "function"
    }
  ],
  "transactionHash": "0xf881d332fbf477de36f35ec5355068a76e72ee6b75000501633efec89686d290",
  "args": [],
  "numDeployments": 1,
  "solcInputHash": "3f85b78d4f02b33ea339ac5a99716c70",
  "bytecode": "0x608060405234801561001057600080fd5b50611652806100206000396000f3fe608060405234801561001057600080fd5b50600436106100cf5760003560e01c80635b0b29301161008c578063ae100e6d11610066578063ae100e6d146101b2578063c4d66de8146101e7578063e099765914610164578063e224e8c0146101fa57600080fd5b80635b0b29301461017957806392ab723e1461018c5780639e8d3d551461019f57600080fd5b806304f3bcec146100d45780630e1b435e146100f95780632900b9951461012157806329985e5a146101425780632af64bd31461014c5780633d03b9da14610164575b600080fd5b6100dc61020d565b6040516001600160a01b0390911681526020015b60405180910390f35b61010c6101073660046112de565b61022e565b604080519283526020830191909152016100f0565b61013461012f3660046112fb565b610284565b6040519081526020016100f0565b61014a61039f565b005b61015461054c565b60405190151581526020016100f0565b61016c6106b2565b6040516100f0919061133c565b610154610187366004611380565b610717565b61013461019a3660046113cf565b610940565b6101546101ad366004611380565b61095e565b6101c56101c03660046113e8565b610b21565b60408051948552602085019390935291830152151560608201526080016100f0565b61014a6101f53660046112de565b610d46565b6101546102083660046113e8565b610ecd565b60006000805160206115fd8339815191525b546001600160a01b0316919050565b600080610239610f33565b6001600160a01b0384166000908152600191909101602052604090205461025e610f33565b6001600160a01b0390941660009081526002949094016020526040909320549293915050565b600061028f33610f57565b6102b45760405162461bcd60e51b81526004016102ab90611414565b60405180910390fd5b6000806102c08661022e565b915091506000806102d08761022e565b915091506000841315806102e5575060008212155b156102f7576000945050505050610398565b808314156103935761030884610fd1565b94508361031483611461565b121561032e5761032b61032683611461565b610fd1565b94505b851580159061033c57508585115b15610345578594505b6103528886856000610717565b50610360878685600061095e565b508461036a610f33565b6003016000858152602001908152602001600020600082825461038d919061147e565b90915550505b505050505b9392505050565b60006103a96106b2565b905060005b81518110156105485760008282815181106103cb576103cb611495565b6020026020010151905060006103ec6000805160206115fd83398151915290565b54604080517f5265736f6c766572206d697373696e67207461726765743a200000000000000060208201526039808201869052825180830390910181526059820192839052636795dbcd60e01b9092526001600160a01b0390921691636795dbcd9161045d91869190605d016114f8565b60206040518083038186803b15801561047557600080fd5b505afa158015610489573d6000803e3d6000fd5b505050506040513d601f19601f820116820180604052508101906104ad9190611519565b60008381527f4abde63c3e81aefa5764b017968bc473e83e093d7e1a10247d19e0a3e4124019602090815260409182902080546001600160a01b0319166001600160a01b03851690811790915582518681529182015281519293507f88a93678a3692f6789d9546fc621bf7234b101ddb7d4fe479455112831b8aa68929081900390910190a15050808061054090611536565b9150506103ae565b5050565b6000806105576106b2565b905060005b81518110156106a957600082828151811061057957610579611495565b602002602001015190506105986000805160206115fd83398151915290565b600082815260019190910160205260409020546001600160a01b03166000805160206115fd833981519152546040516321f8a72160e01b8152600481018490526001600160a01b03909116906321f8a7219060240160206040518083038186803b15801561060557600080fd5b505afa158015610619573d6000803e3d6000fd5b505050506040513d601f19601f8201168201806040525081019061063d9190611519565b6001600160a01b0316141580610687575060008181527f4abde63c3e81aefa5764b017968bc473e83e093d7e1a10247d19e0a3e412401960205260409020546001600160a01b0316155b15610696576000935050505090565b50806106a181611536565b91505061055c565b50600191505090565b604080516001808252818301909252606091602080830190803683370190505090507f4c656e64696e674d61726b6574436f6e74726f6c6c65720000000000000000008160008151811061070857610708611495565b60200260200101818152505090565b600061072233610f57565b61073e5760405162461bcd60e51b81526004016102ab90611414565b6001600160a01b0385166107a05760405162461bcd60e51b815260206004820152602360248201527f61646420746f20746865207a65726f2061646472657373206f6620626f72726f6044820152623bb2b960e91b60648201526084016102ab565b6107aa8584610ecd565b1561080e5760405162461bcd60e51b815260206004820152602e60248201527f626f72726f7765722068617320746865206675747572652076616c756520696e60448201526d2070617374206d6174757269747960901b60648201526084016102ab565b6000610818610f33565b6001600160a01b03871660009081526001919091016020526040902054905083610840610f33565b6001600160a01b0388166000908152600291909101602052604090205561086685611027565b61086e610f33565b6001016000886001600160a01b03166001600160a01b0316815260200190815260200160002060008282546108a39190611551565b90915550506001600160a01b03861660007f8b0c34a52f9e28d78caaa7066cd047b398dae74941a208b77777420f492bd7e16108de88611027565b6108e790611461565b60405190815260200160405180910390a38215610934576000610908610f33565b6001600160a01b038816600090815260019190910160205260409020549050610932858383611091565b505b50600195945050505050565b600061094a610f33565b600092835260030160205250604090205490565b600061096933610f57565b6109855760405162461bcd60e51b81526004016102ab90611414565b6001600160a01b0385166109e55760405162461bcd60e51b815260206004820152602160248201527f61646420746f20746865207a65726f2061646472657373206f66206c656e64656044820152603960f91b60648201526084016102ab565b6109ef8584610ecd565b15610a515760405162461bcd60e51b815260206004820152602c60248201527f6c656e6465722068617320746865206675747572652076616c756520696e207060448201526b617374206d6174757269747960a01b60648201526084016102ab565b6000610a5b610f33565b6001600160a01b03871660009081526001919091016020526040902054905083610a83610f33565b6001600160a01b03881660009081526002919091016020526040902055610aa985611027565b610ab1610f33565b6001016000886001600160a01b03166001600160a01b031681526020019081526020016000206000828254610ae69190611590565b90915550506001600160a01b03861660007f8b0c34a52f9e28d78caaa7066cd047b398dae74941a208b77777420f492bd7e16108e788611027565b600080600080610b3033610f57565b610b4c5760405162461bcd60e51b81526004016102ab90611414565b610b54610f33565b6001600160a01b03871660009081526001919091016020526040902054925084610b7c610f33565b6001600160a01b0388166000908152600291909101602052604090205414801590610ba657508215155b15610cc557829350610bb6610f33565b6001600160a01b0387166000908152600291909101602052604081205492509050808412610c1d57610be784610fd1565b610bef610f33565b60040160008481526020019081526020016000206000828254610c1291906115d1565b90915550610c5a9050565b610c2961032685611461565b610c31610f33565b60050160008481526020019081526020016000206000828254610c5491906115d1565b90915550505b6000610c64610f33565b6001600160a01b038816600081815260019290920160205260408083209390935591519094508491907f8b0c34a52f9e28d78caaa7066cd047b398dae74941a208b77777420f492bd7e190610cbc9088815260200190565b60405180910390a35b610ccd610f33565b60008381526003919091016020526040902054610ce8610f33565b60008481526004919091016020526040902054148015610d3b5750610d0b610f33565b60008381526003919091016020526040902054610d26610f33565b60008481526005919091016020526040902054145b905092959194509250565b600054610100900460ff1615808015610d665750600054600160ff909116105b80610d805750303b158015610d80575060005460ff166001145b610de35760405162461bcd60e51b815260206004820152602e60248201527f496e697469616c697a61626c653a20636f6e747261637420697320616c72656160448201526d191e481a5b9a5d1a585b1a5e995960921b60648201526084016102ab565b6000805460ff191660011790558015610e06576000805461ff0019166101001790555b6000610e10611167565b6001600160a01b03161415610e735760405162461bcd60e51b815260206004820152602360248201527f4d7573742062652063616c6c65642066726f6d20626561636f6e20636f6e74726044820152621858dd60ea1b60648201526084016102ab565b610e7c8261118f565b610e8461039f565b8015610548576000805461ff0019169055604051600181527f7f26b83ff96e1f2b6a682f133852f6798a09c465da95921460cefb38474024989060200160405180910390a15050565b600081610ed8610f33565b6001600160a01b038516600090815260029190910160205260409020541415610f0357506000610f2d565b610f0b610f33565b6001600160a01b03841660009081526001919091016020526040902054151590505b92915050565b7fd1b4fbfb8f78bdad30892554423aedac9635765ae463e7c2b7953fa50219190e90565b600080610f626106b2565b905060005b8151811015610fc757610f92828281518110610f8557610f85611495565b6020026020010151611224565b6001600160a01b0316846001600160a01b03161415610fb5575060019392505050565b80610fbf81611536565b915050610f67565b5060009392505050565b6000808212156110235760405162461bcd60e51b815260206004820181905260248201527f53616665436173743a2076616c7565206d75737420626520706f73697469766560448201526064016102ab565b5090565b60006001600160ff1b038211156110235760405162461bcd60e51b815260206004820152602860248201527f53616665436173743a2076616c756520646f65736e27742066697420696e2061604482015267371034b73a191a9b60c11b60648201526084016102ab565b6000808312156110ac576110a761032684611461565b6110b5565b6110b583610fd1565b90506000808312156110d2576110cd61032684611461565b6110db565b6110db83610fd1565b905080821115611125576110ef818361147e565b6110f7610f33565b6003016000878152602001908152602001600020600082825461111a919061147e565b909155506111609050565b61112f828261147e565b611137610f33565b6003016000878152602001908152602001600020600082825461115a91906115d1565b90915550505b5050505050565b60007fa3f0ad74e5423aebfd80d3ef4346578335a9a72aeaee59ff6cb3582b35133d5061021f565b6000805160206115fd833981519152546001600160a01b0316156111f55760405162461bcd60e51b815260206004820152601b60248201527f7265736f6c766572207265676973746572656420616c7265616479000000000060448201526064016102ab565b6000805160206115fd83398151915280546001600160a01b0319166001600160a01b0392909216919091179055565b60008181527f4abde63c3e81aefa5764b017968bc473e83e093d7e1a10247d19e0a3e41240196020908152604080832054815170026b4b9b9b4b7339030b2323932b9b99d1607d1b938101939093526031808401869052825180850390910181526051909301909152610f2d91849184916001600160a01b0390911690816112bf5760405162461bcd60e51b81526004016102ab91906115e9565b5092915050565b6001600160a01b03811681146112db57600080fd5b50565b6000602082840312156112f057600080fd5b8135610398816112c6565b60008060006060848603121561131057600080fd5b833561131b816112c6565b9250602084013561132b816112c6565b929592945050506040919091013590565b6020808252825182820181905260009190848201906040850190845b8181101561137457835183529284019291840191600101611358565b50909695505050505050565b6000806000806080858703121561139657600080fd5b84356113a1816112c6565b93506020850135925060408501359150606085013580151581146113c457600080fd5b939692955090935050565b6000602082840312156113e157600080fd5b5035919050565b600080604083850312156113fb57600080fd5b8235611406816112c6565b946020939093013593505050565b60208082526017908201527f4f6e6c7920416363657074656420436f6e747261637473000000000000000000604082015260600190565b634e487b7160e01b600052601160045260246000fd5b6000600160ff1b8214156114775761147761144b565b5060000390565b6000828210156114905761149061144b565b500390565b634e487b7160e01b600052603260045260246000fd5b6000815180845260005b818110156114d1576020818501810151868301820152016114b5565b818111156114e3576000602083870101525b50601f01601f19169290920160200192915050565b82815260406020820152600061151160408301846114ab565b949350505050565b60006020828403121561152b57600080fd5b8151610398816112c6565b600060001982141561154a5761154a61144b565b5060010190565b60008083128015600160ff1b85018412161561156f5761156f61144b565b6001600160ff1b038401831381161561158a5761158a61144b565b50500390565b600080821280156001600160ff1b03849003851316156115b2576115b261144b565b600160ff1b83900384128116156115cb576115cb61144b565b50500190565b600082198211156115e4576115e461144b565b500190565b60208152600061039860208301846114ab56fe4abde63c3e81aefa5764b017968bc473e83e093d7e1a10247d19e0a3e4124018a26469706673582212201592d35c4e712660e3332d0b2a603d60975f30d302e74391bf004129ddec0b8864736f6c63430008090033",
  "devdoc": {
    "kind": "dev",
    "methods": {
      "acceptedContracts()": {
        "details": "The contact name listed in this method is also needed to be listed `requiredContracts` method."
      },
      "addBorrowFutureValue(address,uint256,uint256,bool)": {
        "details": "Since the total supply can be determined by totaling only the amounts on one side of the order when the order is fulfilled, the total supply is incremented only when the executor of the original order is the taker.",
        "params": {
          "_amount": "The amount to add",
          "_isTaker": "The boolean if the original order is created by a taker",
          "_maturity": "The maturity of the market",
          "_user": "User's address"
        }
      },
      "addLendFutureValue(address,uint256,uint256,bool)": {
        "details": "Since the total supply can be determined by totaling only the amounts on one side of the order when the order is fulfilled, the total supply is incremented only when the executor of the original order is the taker.",
        "params": {
          "_amount": "The amount to add",
          "_isTaker": "The boolean if the original order is created by a taker",
          "_maturity": "The maturity of the market",
          "_user": "User's address"
        }
      },
      "getFutureValue(address)": {
        "params": {
          "_user": "User's address"
        },
        "returns": {
          "futureValue": "The future value",
          "maturity": "The maturity of the market that the future value was added"
        }
      },
      "getTotalSupply(uint256)": {
        "params": {
          "_maturity": "The maturity of the market"
        }
      },
      "hasFutureValueInPastMaturity(address,uint256)": {
        "params": {
          "_maturity": "The maturity of the market",
          "_user": "User's address"
        },
        "returns": {
          "_0": "The boolean if the lending market is initialized or not"
        }
      },
      "initialize(address)": {
        "details": "Function is invoked by the proxy contract when the contract is added to the ProxyController.",
        "params": {
          "_resolver": "The address of the Address Resolver contract"
        }
      },
      "removeFutureValue(address,uint256)": {
        "params": {
          "_user": "User's address"
        },
        "returns": {
          "currentAmount": "Current future value amount after update",
          "isAllRemoved": "The boolean if the all future value amount in the selected maturity is removed",
          "maturity": "Maturity of future value",
          "removedAmount": "Removed future value amount"
        }
      },
      "requiredContracts()": {
        "details": "The contract name list is in `./libraries/Contracts.sol`."
      }
    },
    "version": 1
  },
  "userdoc": {
    "kind": "user",
    "methods": {
      "acceptedContracts()": {
        "notice": "Returns contract names that can call this contract."
      },
      "addBorrowFutureValue(address,uint256,uint256,bool)": {
        "notice": "Adds the future value amount for borrowing deals."
      },
      "addLendFutureValue(address,uint256,uint256,bool)": {
        "notice": "Adds the future value amount for lending deals."
      },
      "getFutureValue(address)": {
        "notice": "Gets the future value of the account."
      },
      "getTotalSupply(uint256)": {
        "notice": "Gets the total supply."
      },
      "hasFutureValueInPastMaturity(address,uint256)": {
        "notice": "Gets if the account has the future value amount in the selected maturity."
      },
      "initialize(address)": {
        "notice": "Initializes the contract."
      },
      "removeFutureValue(address,uint256)": {
        "notice": "Remove all future values if there is an amount in the past maturity."
      },
      "requiredContracts()": {
        "notice": "Returns the contract names used in this contract."
      }
    },
    "notice": "Implements the management of the future value as an amount for Lending deals in each currency.",
    "version": 1
  },
  "storageLayout": {
    "storage": [
      {
        "astId": 1183,
        "contract": "contracts/FutureValueVault.sol:FutureValueVault",
        "label": "_initialized",
        "offset": 0,
        "slot": "0",
        "type": "t_uint8"
      },
      {
        "astId": 1186,
        "contract": "contracts/FutureValueVault.sol:FutureValueVault",
        "label": "_initializing",
        "offset": 1,
        "slot": "0",
        "type": "t_bool"
      }
    ],
    "types": {
      "t_bool": {
        "encoding": "inplace",
        "label": "bool",
        "numberOfBytes": "1"
      },
      "t_uint8": {
        "encoding": "inplace",
        "label": "uint8",
        "numberOfBytes": "1"
      }
    }
  }
}