{
  "address": "0x1E5495b0a925435eb1F031F26420384Abd19a0Ac",
  "abi": [
    {
      "anonymous": false,
      "inputs": [
        {
          "indexed": true,
          "internalType": "bytes32",
          "name": "ccy",
          "type": "bytes32"
        },
        {
          "indexed": false,
          "internalType": "uint256",
          "name": "lendingCompoundFactor",
          "type": "uint256"
        },
        {
          "indexed": false,
          "internalType": "uint256",
          "name": "borrowingCompoundFactor",
          "type": "uint256"
        },
        {
          "indexed": false,
          "internalType": "uint256",
          "name": "unitPrice",
          "type": "uint256"
        },
        {
          "indexed": false,
          "internalType": "uint256",
          "name": "currentMaturity",
          "type": "uint256"
        },
        {
          "indexed": false,
          "internalType": "uint256",
          "name": "previousMaturity",
          "type": "uint256"
        }
      ],
      "name": "AutoRollExecuted",
      "type": "event"
    },
    {
      "anonymous": false,
      "inputs": [
        {
          "indexed": false,
          "internalType": "bytes32",
          "name": "name",
          "type": "bytes32"
        },
        {
          "indexed": false,
          "internalType": "address",
          "name": "destination",
          "type": "address"
        }
      ],
      "name": "CacheUpdated",
      "type": "event"
    },
    {
      "anonymous": false,
      "inputs": [
        {
          "indexed": false,
          "internalType": "uint8",
          "name": "version",
          "type": "uint8"
        }
      ],
      "name": "Initialized",
      "type": "event"
    },
    {
      "anonymous": false,
      "inputs": [
        {
          "indexed": true,
          "internalType": "bytes32",
          "name": "ccy",
          "type": "bytes32"
        },
        {
          "indexed": true,
          "internalType": "address",
          "name": "from",
          "type": "address"
        },
        {
          "indexed": true,
          "internalType": "address",
          "name": "to",
          "type": "address"
        },
        {
          "indexed": false,
          "internalType": "int256",
          "name": "value",
          "type": "int256"
        }
      ],
      "name": "Transfer",
      "type": "event"
    },
    {
      "inputs": [],
      "name": "acceptedContracts",
      "outputs": [
        {
          "internalType": "bytes32[]",
          "name": "contracts",
          "type": "bytes32[]"
        }
      ],
      "stateMutability": "pure",
      "type": "function"
    },
    {
      "inputs": [],
      "name": "buildCache",
      "outputs": [],
      "stateMutability": "nonpayable",
      "type": "function"
    },
    {
      "inputs": [
        {
          "internalType": "bytes32",
          "name": "_ccy",
          "type": "bytes32"
        },
        {
          "internalType": "int256",
          "name": "_balance",
          "type": "int256"
        },
        {
          "internalType": "uint256",
          "name": "_fromMaturity",
          "type": "uint256"
        },
        {
          "internalType": "uint256",
          "name": "_toMaturity",
          "type": "uint256"
        }
      ],
      "name": "calculateBalanceFluctuationByAutoRolls",
      "outputs": [
        {
          "internalType": "int256",
          "name": "fluctuation",
          "type": "int256"
        }
      ],
      "stateMutability": "view",
      "type": "function"
    },
    {
      "inputs": [
        {
          "internalType": "bytes32",
          "name": "_ccy",
          "type": "bytes32"
        },
        {
          "internalType": "uint256",
          "name": "_basisMaturity",
          "type": "uint256"
        },
        {
          "internalType": "uint256",
          "name": "_destinationMaturity",
          "type": "uint256"
        },
        {
          "internalType": "int256",
          "name": "_futureValue",
          "type": "int256"
        }
      ],
      "name": "calculateFVFromFV",
      "outputs": [
        {
          "internalType": "int256",
          "name": "",
          "type": "int256"
        }
      ],
      "stateMutability": "view",
      "type": "function"
    },
    {
      "inputs": [
        {
          "internalType": "bytes32",
          "name": "_ccy",
          "type": "bytes32"
        },
        {
          "internalType": "uint256",
          "name": "_basisMaturity",
          "type": "uint256"
        },
        {
          "internalType": "int256",
          "name": "_genesisValue",
          "type": "int256"
        }
      ],
      "name": "calculateFVFromGV",
      "outputs": [
        {
          "internalType": "int256",
          "name": "",
          "type": "int256"
        }
      ],
      "stateMutability": "view",
      "type": "function"
    },
    {
      "inputs": [
        {
          "internalType": "bytes32",
          "name": "_ccy",
          "type": "bytes32"
        },
        {
          "internalType": "uint256",
          "name": "_basisMaturity",
          "type": "uint256"
        },
        {
          "internalType": "int256",
          "name": "_futureValue",
          "type": "int256"
        }
      ],
      "name": "calculateGVFromFV",
      "outputs": [
        {
          "internalType": "int256",
          "name": "",
          "type": "int256"
        }
      ],
      "stateMutability": "view",
      "type": "function"
    },
    {
      "inputs": [
        {
          "internalType": "bytes32",
          "name": "_ccy",
          "type": "bytes32"
        },
        {
          "internalType": "address",
          "name": "_user",
          "type": "address"
        },
        {
          "internalType": "uint256",
          "name": "_maturity",
          "type": "uint256"
        }
      ],
      "name": "cleanUpGenesisValue",
      "outputs": [],
      "stateMutability": "nonpayable",
      "type": "function"
    },
    {
      "inputs": [
        {
          "internalType": "bytes32",
          "name": "_ccy",
          "type": "bytes32"
        }
      ],
      "name": "decimals",
      "outputs": [
        {
          "internalType": "uint8",
          "name": "",
          "type": "uint8"
        }
      ],
      "stateMutability": "view",
      "type": "function"
    },
    {
      "inputs": [
        {
          "internalType": "bytes32",
          "name": "_ccy",
          "type": "bytes32"
        },
        {
          "internalType": "uint256",
          "name": "_maturity",
          "type": "uint256"
        },
        {
          "internalType": "uint256",
          "name": "_nextMaturity",
          "type": "uint256"
        },
        {
          "internalType": "uint256",
          "name": "_unitPrice",
          "type": "uint256"
        },
        {
          "internalType": "uint256",
          "name": "_feeRate",
          "type": "uint256"
        },
        {
          "internalType": "uint256",
          "name": "_totalFVAmount",
          "type": "uint256"
        }
      ],
      "name": "executeAutoRoll",
      "outputs": [],
      "stateMutability": "nonpayable",
      "type": "function"
    },
    {
      "inputs": [
        {
          "internalType": "bytes32",
          "name": "_ccy",
          "type": "bytes32"
        },
        {
          "internalType": "uint256",
          "name": "_maturity",
          "type": "uint256"
        }
      ],
      "name": "getAutoRollLog",
      "outputs": [
        {
          "components": [
            {
              "internalType": "uint256",
              "name": "unitPrice",
              "type": "uint256"
            },
            {
              "internalType": "uint256",
              "name": "lendingCompoundFactor",
              "type": "uint256"
            },
            {
              "internalType": "uint256",
              "name": "borrowingCompoundFactor",
              "type": "uint256"
            },
            {
              "internalType": "uint256",
              "name": "next",
              "type": "uint256"
            },
            {
              "internalType": "uint256",
              "name": "prev",
              "type": "uint256"
            }
          ],
          "internalType": "struct AutoRollLog",
          "name": "",
          "type": "tuple"
        }
      ],
      "stateMutability": "view",
      "type": "function"
    },
    {
      "inputs": [
        {
          "internalType": "bytes32",
          "name": "_ccy",
          "type": "bytes32"
        },
        {
          "internalType": "address",
          "name": "_user",
          "type": "address"
        },
        {
          "internalType": "uint256",
          "name": "_maturity",
          "type": "uint256"
        }
      ],
      "name": "getBalanceFluctuationByAutoRolls",
      "outputs": [
        {
          "internalType": "int256",
          "name": "fluctuation",
          "type": "int256"
        }
      ],
      "stateMutability": "view",
      "type": "function"
    },
    {
      "inputs": [
        {
          "internalType": "bytes32",
          "name": "_ccy",
          "type": "bytes32"
        }
      ],
      "name": "getBorrowingCompoundFactor",
      "outputs": [
        {
          "internalType": "uint256",
          "name": "",
          "type": "uint256"
        }
      ],
      "stateMutability": "view",
      "type": "function"
    },
    {
      "inputs": [
        {
          "internalType": "bytes32",
          "name": "_ccy",
          "type": "bytes32"
        }
      ],
      "name": "getCurrentMaturity",
      "outputs": [
        {
          "internalType": "uint256",
          "name": "",
          "type": "uint256"
        }
      ],
      "stateMutability": "view",
      "type": "function"
    },
    {
      "inputs": [
        {
          "internalType": "bytes32",
          "name": "_ccy",
          "type": "bytes32"
        },
        {
          "internalType": "address",
          "name": "_user",
          "type": "address"
        }
      ],
      "name": "getGenesisValue",
      "outputs": [
        {
          "internalType": "int256",
          "name": "",
          "type": "int256"
        }
      ],
      "stateMutability": "view",
      "type": "function"
    },
    {
      "inputs": [
        {
          "internalType": "bytes32",
          "name": "_ccy",
          "type": "bytes32"
        },
        {
          "internalType": "address",
          "name": "_user",
          "type": "address"
        }
      ],
      "name": "getGenesisValueInFutureValue",
      "outputs": [
        {
          "internalType": "int256",
          "name": "",
          "type": "int256"
        }
      ],
      "stateMutability": "view",
      "type": "function"
    },
    {
      "inputs": [
        {
          "internalType": "bytes32",
          "name": "_ccy",
          "type": "bytes32"
        }
      ],
      "name": "getLatestAutoRollLog",
      "outputs": [
        {
          "components": [
            {
              "internalType": "uint256",
              "name": "unitPrice",
              "type": "uint256"
            },
            {
              "internalType": "uint256",
              "name": "lendingCompoundFactor",
              "type": "uint256"
            },
            {
              "internalType": "uint256",
              "name": "borrowingCompoundFactor",
              "type": "uint256"
            },
            {
              "internalType": "uint256",
              "name": "next",
              "type": "uint256"
            },
            {
              "internalType": "uint256",
              "name": "prev",
              "type": "uint256"
            }
          ],
          "internalType": "struct AutoRollLog",
          "name": "",
          "type": "tuple"
        }
      ],
      "stateMutability": "view",
      "type": "function"
    },
    {
      "inputs": [
        {
          "internalType": "bytes32",
          "name": "_ccy",
          "type": "bytes32"
        }
      ],
      "name": "getLendingCompoundFactor",
      "outputs": [
        {
          "internalType": "uint256",
          "name": "",
          "type": "uint256"
        }
      ],
      "stateMutability": "view",
      "type": "function"
    },
    {
      "inputs": [
        {
          "internalType": "bytes32",
          "name": "_ccy",
          "type": "bytes32"
        },
        {
          "internalType": "uint256",
          "name": "_maturity",
          "type": "uint256"
        }
      ],
      "name": "getMaturityGenesisValue",
      "outputs": [
        {
          "internalType": "int256",
          "name": "",
          "type": "int256"
        }
      ],
      "stateMutability": "view",
      "type": "function"
    },
    {
      "inputs": [
        {
          "internalType": "bytes32",
          "name": "_ccy",
          "type": "bytes32"
        }
      ],
      "name": "getTotalBorrowingSupply",
      "outputs": [
        {
          "internalType": "uint256",
          "name": "",
          "type": "uint256"
        }
      ],
      "stateMutability": "view",
      "type": "function"
    },
    {
      "inputs": [
        {
          "internalType": "bytes32",
          "name": "_ccy",
          "type": "bytes32"
        }
      ],
      "name": "getTotalLendingSupply",
      "outputs": [
        {
          "internalType": "uint256",
          "name": "",
          "type": "uint256"
        }
      ],
      "stateMutability": "view",
      "type": "function"
    },
    {
      "inputs": [
        {
          "internalType": "address",
          "name": "_resolver",
          "type": "address"
        }
      ],
      "name": "initialize",
      "outputs": [],
      "stateMutability": "nonpayable",
      "type": "function"
    },
    {
      "inputs": [
        {
          "internalType": "bytes32",
          "name": "_ccy",
          "type": "bytes32"
        },
        {
          "internalType": "uint8",
          "name": "_decimals",
          "type": "uint8"
        },
        {
          "internalType": "uint256",
          "name": "_compoundFactor",
          "type": "uint256"
        },
        {
          "internalType": "uint256",
          "name": "_maturity",
          "type": "uint256"
        }
      ],
      "name": "initializeCurrencySetting",
      "outputs": [],
      "stateMutability": "nonpayable",
      "type": "function"
    },
    {
      "inputs": [
        {
          "internalType": "bytes32",
          "name": "_ccy",
          "type": "bytes32"
        }
      ],
      "name": "isInitialized",
      "outputs": [
        {
          "internalType": "bool",
          "name": "",
          "type": "bool"
        }
      ],
      "stateMutability": "view",
      "type": "function"
    },
    {
      "inputs": [],
      "name": "isResolverCached",
      "outputs": [
        {
          "internalType": "bool",
          "name": "",
          "type": "bool"
        }
      ],
      "stateMutability": "view",
      "type": "function"
    },
    {
      "inputs": [
        {
          "internalType": "bytes32",
          "name": "_ccy",
          "type": "bytes32"
        },
        {
          "internalType": "uint256",
          "name": "_maturity",
          "type": "uint256"
        },
        {
          "internalType": "address",
          "name": "_lender",
          "type": "address"
        },
        {
          "internalType": "address",
          "name": "_borrower",
          "type": "address"
        },
        {
          "internalType": "int256",
          "name": "_maximumGVAmount",
          "type": "int256"
        }
      ],
      "name": "offsetGenesisValue",
      "outputs": [
        {
          "internalType": "int256",
          "name": "offsetAmount",
          "type": "int256"
        }
      ],
      "stateMutability": "nonpayable",
      "type": "function"
    },
    {
      "inputs": [],
      "name": "requiredContracts",
      "outputs": [
        {
          "internalType": "bytes32[]",
          "name": "contracts",
          "type": "bytes32[]"
        }
      ],
      "stateMutability": "pure",
      "type": "function"
    },
    {
      "inputs": [],
      "name": "resolver",
      "outputs": [
        {
          "internalType": "contract IAddressResolver",
          "name": "",
          "type": "address"
        }
      ],
      "stateMutability": "view",
      "type": "function"
    },
    {
      "inputs": [
        {
          "internalType": "bytes32",
          "name": "_ccy",
          "type": "bytes32"
        },
        {
          "internalType": "address",
          "name": "_user",
          "type": "address"
        },
        {
          "internalType": "uint256",
          "name": "_basisMaturity",
          "type": "uint256"
        },
        {
          "internalType": "int256",
          "name": "_fvAmount",
          "type": "int256"
        }
      ],
      "name": "updateGenesisValueWithFutureValue",
      "outputs": [],
      "stateMutability": "nonpayable",
      "type": "function"
    },
    {
      "inputs": [
        {
          "internalType": "bytes32",
          "name": "_ccy",
          "type": "bytes32"
        },
        {
          "internalType": "address",
          "name": "_user",
          "type": "address"
        },
        {
          "internalType": "uint256",
          "name": "_basisMaturity",
          "type": "uint256"
        }
      ],
      "name": "updateGenesisValueWithResidualAmount",
      "outputs": [],
      "stateMutability": "nonpayable",
      "type": "function"
    },
    {
      "inputs": [
        {
          "internalType": "bytes32",
          "name": "_ccy",
          "type": "bytes32"
        },
        {
          "internalType": "uint256",
          "name": "_unitPrice",
          "type": "uint256"
        }
      ],
      "name": "updateInitialCompoundFactor",
      "outputs": [],
      "stateMutability": "nonpayable",
      "type": "function"
    }
  ],
  "transactionHash": "0x0c6b9e726d6a9c5ec841235a76c3ee82b0e4023ab8c93b81df5906ddf5776999",
  "args": [],
  "numDeployments": 2,
  "solcInputHash": "3f85b78d4f02b33ea339ac5a99716c70",
  "bytecode": "0x608060405234801561001057600080fd5b50612f8d806100206000396000f3fe608060405234801561001057600080fd5b50600436106101da5760003560e01c80639af50c0011610104578063c4d66de8116100a2578063e099765911610071578063e09976591461043f578063eeac29d814610447578063f7b637bb1461045a578063ff6dfc451461046d57600080fd5b8063c4d66de8146103f3578063d637c15f14610406578063db9b7b3814610419578063dc6a8ce41461042c57600080fd5b8063aee1311e116100de578063aee1311e146103a7578063c1c7ee52146103ba578063c2188b64146103cd578063c3e7a7ad146103e057600080fd5b80639af50c001461036e578063a2d7d02d14610381578063a969285f1461039457600080fd5b8063352a38a31161017c5780635f18aa0c1161014b5780635f18aa0c1461031057806370c641a6146103355780637636e9411461034857806388c0520e1461035b57600080fd5b8063352a38a3146102805780633d03b9da14610293578063474611f1146102a857806349a1d218146102fd57600080fd5b806329985e5a116101b857806329985e5a146102385780632af64bd314610242578063312c47451461025a578063348183cf1461026d57600080fd5b806304f3bcec146101df5780630d3946671461020457806318612e3214610225575b600080fd5b6101e7610480565b6040516001600160a01b0390911681526020015b60405180910390f35b6102176102123660046128ee565b6104a1565b6040519081526020016101fb565b610217610233366004612910565b6104d2565b610240610607565b005b61024a6107b4565b60405190151581526020016101fb565b610240610268366004612954565b61091a565b61024061027b36600461298c565b6109ef565b61021761028e366004612954565b610ac1565b61029b610aef565b6040516101fb91906129cf565b6102bb6102b63660046128ee565b610b7a565b6040516101fb9190600060a082019050825182526020830151602083015260408301516040830152606083015160608301526080830151608083015292915050565b61021761030b366004612a13565b610c0b565b61032361031e366004612a13565b610c29565b60405160ff90911681526020016101fb565b610217610343366004612a2c565b610c4a565b610217610356366004612910565b610c71565b610217610369366004612a5c565b610d63565b61021761037c366004612a13565b610e23565b61024061038f366004612aae565b610e41565b6102406103a23660046128ee565b611053565b6102176103b5366004612af1565b6111da565b6102406103c8366004612b23565b61120a565b6102176103db366004612a13565b611251565b6102176103ee366004612a2c565b61126f565b610240610401366004612b4b565b6112b6565b6102bb610414366004612a13565b611434565b610217610427366004612af1565b6114f0565b61021761043a366004612a13565b611534565b61029b611552565b610240610455366004612954565b6115a2565b61024a610468366004612a13565b611791565b61021761047b366004612a13565b6117af565b6000600080516020612f388339815191525b546001600160a01b0316919050565b60006104ab6117cd565b60008481526009919091016020908152604080832085845290915290205490505b92915050565b6000806104dd6117cd565b600086815260049190910160205260409020548414610524576104fe6117cd565b6000868152600a919091016020908152604080832087845290915290206001015461052d565b61052d856117af565b9050600081116105845760405162461bcd60e51b815260206004820181905260248201527f436f6d706f756e6420666163746f72206973206e6f742066697865642079657460448201526064015b60405180910390fd5b6000808413906105a6826105a05761059b86612b7e565b6117f0565b856117f0565b905060006105d2846105b78a610c29565b6105c290600a612c7f565b6105cc9085612c8e565b90611846565b9050826105f0576105e2816118b7565b6105eb90612b7e565b6105f9565b6105f9816118b7565b9450505050505b9392505050565b6000610611610aef565b905060005b81518110156107b057600082828151811061063357610633612cad565b602002602001015190506000610654600080516020612f3883398151915290565b54604080517f5265736f6c766572206d697373696e67207461726765743a200000000000000060208201526039808201869052825180830390910181526059820192839052636795dbcd60e01b9092526001600160a01b0390921691636795dbcd916106c591869190605d01612d10565b60206040518083038186803b1580156106dd57600080fd5b505afa1580156106f1573d6000803e3d6000fd5b505050506040513d601f19601f820116820180604052508101906107159190612d29565b60008381527f4abde63c3e81aefa5764b017968bc473e83e093d7e1a10247d19e0a3e4124019602090815260409182902080546001600160a01b0319166001600160a01b03851690811790915582518681529182015281519293507f88a93678a3692f6789d9546fc621bf7234b101ddb7d4fe479455112831b8aa68929081900390910190a1505080806107a890612d46565b915050610616565b5050565b6000806107bf610aef565b905060005b81518110156109115760008282815181106107e1576107e1612cad565b60200260200101519050610800600080516020612f3883398151915290565b600082815260019190910160205260409020546001600160a01b0316600080516020612f38833981519152546040516321f8a72160e01b8152600481018490526001600160a01b03909116906321f8a7219060240160206040518083038186803b15801561086d57600080fd5b505afa158015610881573d6000803e3d6000fd5b505050506040513d601f19601f820116820180604052508101906108a59190612d29565b6001600160a01b03161415806108ef575060008181527f4abde63c3e81aefa5764b017968bc473e83e093d7e1a10247d19e0a3e412401960205260409020546001600160a01b0316155b156108fe576000935050505090565b508061090981612d46565b9150506107c4565b50600191505090565b61092333611921565b61093f5760405162461bcd60e51b815260040161057b90612d61565b60006109496117cd565b600085815260099190910160209081526040808320858452909152902054905061097d84848461097885612b7e565b61199b565b6109856117cd565b600085815260099190910160209081526040808320858452909152902054156109e95760405162461bcd60e51b8152602060048201526016602482015275526573696475616c20616d6f756e742065786973747360501b604482015260640161057b565b50505050565b6109f833611921565b610a145760405162461bcd60e51b815260040161057b90612d61565b610a1f868484611bb8565b610a2b86868686611cee565b610a36868683612041565b857f90675b73d2aa47e7572569090cae87a7c67eff7a715ee461bae1b0256bde7160610a606117cd565b60008981526002919091016020526040902054610a7b6117cd565b60008a81526003919091016020908152604091829020548251938452908301528101869052606081018790526080810188905260a00160405180910390a2505050505050565b6000808215610ad05782610ad9565b610ad985610c0b565b9050610ae68585836120fb565b95945050505050565b6040805160028082526060808301845292602083019080368337019050509050762632b73234b733a6b0b935b2ba21b7b73a3937b63632b960491b81600081518110610b3d57610b3d612cad565b6020026020010181815250506a14995cd95c9d99519d5b9960aa1b81600181518110610b6b57610b6b612cad565b60200260200101818152505090565b610bac6040518060a0016040528060008152602001600081526020016000815260200160008152602001600081525090565b610bb46117cd565b6000938452600a016020908152604080852093855292815292829020825160a08101845281548152600182015494810194909452600281015492840192909252506003810154606083015260040154608082015290565b6000610c156117cd565b600092835260040160205250604090205490565b6000610c336117cd565b600092835260050160205250604090205460ff1690565b6000806000610c628585610c5d88610c0b565b61216c565b9092509050610ae68183612d98565b600080831580610c9a5750610c846117cd565b6000868152600491909101602052604090205484145b610ccc57610ca66117cd565b6000868152600a9190910160209081526040808320878452909152902060010154610cd5565b610cd5856117af565b905060008111610d275760405162461bcd60e51b815260206004820181905260248201527f436f6d706f756e6420666163746f72206973206e6f7420666978656420796574604482015260640161057b565b600080841390610d3e826105a05761059b86612b7e565b905060006105d2610d4e89610c29565b610d5990600a612c7f565b6105cc8685612c8e565b6000610d6e33611921565b610d8a5760405162461bcd60e51b815260040161057b90612d61565b6000610d968786610c4a565b90506000610da48886610c4a565b9050600082131580610db7575060008112155b15610dc757600092505050610ae6565b81925081610dd482612b7e565b1215610de657610de381612b7e565b92505b8315801590610df457508383135b15610dfd578392505b610e0c88878961097887612b7e565b610e188886898661199b565b505095945050505050565b6000610e2d6117cd565b600092835260080160205250604090205490565b610e4a33611921565b610e665760405162461bcd60e51b815260040161057b90612d61565b81610eb35760405162461bcd60e51b815260206004820152601760248201527f436f6d706f756e6420666163746f72206973207a65726f000000000000000000604482015260640161057b565b610ebc84611791565b15610f095760405162461bcd60e51b815260206004820152601c60248201527f416c726561647920696e697469616c697a65642063757272656e637900000000604482015260640161057b565b6001610f136117cd565b600086815260209190915260409020805460ff191691151591909117905582610f3a6117cd565b600086815260059190910160205260409020805460ff191660ff9290921691909117905581610f676117cd565b6000868152600191909101602052604090205581610f836117cd565b6000868152600291909101602052604090205581610f9f6117cd565b6000868152600391909101602052604090205580610fbb6117cd565b6004016000868152602001908152602001600020819055506040518060a0016040528061271081526020018381526020018381526020016000815260200160008152506110066117cd565b6000958652600a0160209081526040808720938752928152948290208151815594810151600186015590810151600285015560608101516003850155608001516004909301929092555050565b61105c33611921565b6110785760405162461bcd60e51b815260040161057b90612d61565b60006110826117cd565b60008481526004919091016020526040902054905061109f6117cd565b6000848152600a9190910160209081526040808320848452909152902060040154156111195760405162461bcd60e51b815260206004820152602360248201527f4669727374206175746f526f6c6c4c6f6720616c72656164792066696e616c696044820152621e995960ea1b606482015260840161057b565b61112583836000611bb8565b6040518060a0016040528083815260200161113e6117cd565b60020160008681526020019081526020016000205481526020016111606117cd565b600301600086815260200190815260200160002054815260200160008152602001600081525061118e6117cd565b6000948552600a01602090815260408086209386529281529382902081518155938101516001850155908101516002840155606081015160038401556080015160049092019190915550565b60008082156111e957826111f2565b6111f286610c0b565b9050611200868686846121b2565b9695505050505050565b61121333611921565b61122f5760405162461bcd60e51b815260040161057b90612d61565b600061123c8584846104d2565b905061124a8585858461199b565b5050505050565b600061125b6117cd565b600092835260070160205250604090205490565b600061060061129061128085610c29565b61128b90600a612c7f565b6118b7565b61129c61128b866117af565b6112a68686610c4a565b6112b09190612dd9565b90612355565b600054610100900460ff16158080156112d65750600054600160ff909116105b806112f05750303b1580156112f0575060005460ff166001145b6113535760405162461bcd60e51b815260206004820152602e60248201527f496e697469616c697a61626c653a20636f6e747261637420697320616c72656160448201526d191e481a5b9a5d1a585b1a5e995960921b606482015260840161057b565b6000805460ff191660011790558015611376576000805461ff0019166101001790555b60006113806123e8565b6001600160a01b031614156113e25760405162461bcd60e51b815260206004820152602260248201527f4d7573742062652063616c6c65642066726f6d2070726f787920636f6e74726160448201526118dd60f21b606482015260840161057b565b6113eb82612410565b80156107b0576000805461ff0019169055604051600181527f7f26b83ff96e1f2b6a682f133852f6798a09c465da95921460cefb38474024989060200160405180910390a15050565b6114666040518060a0016040528060008152602001600081526020016000815260200160008152602001600081525090565b61146e6117cd565b6000838152600a9190910160205260408120906114896117cd565b60040160008581526020019081526020016000205481526020019081526020016000206040518060a0016040529081600082015481526020016001820154815260200160028201548152602001600382015481526020016004820154815250509050919050565b6000816114ff5750600061152c565b8284141561150e57508061152c565b600061151b8686856104d2565b9050611528868583610c71565b9150505b949350505050565b600061153e6117cd565b600092835260030160205250604090205490565b60408051600180825281830190925260609160208083019080368337019050509050762632b73234b733a6b0b935b2ba21b7b73a3937b63632b960491b81600081518110610b6b57610b6b612cad565b6115ab33611921565b6115c75760405162461bcd60e51b815260040161057b90612d61565b600081156115d557816115de565b6115de84610c0b565b905060006115ed8585846120fb565b9050600081121561124a5760006116026124a5565b905061163d86836116116117cd565b60008a8152600691909101602090815260408083206001600160a01b038c1684529091529020546124b4565b61167e8661164a84612b7e565b6116526117cd565b60008a8152600691909101602090815260408083206001600160a01b03881684529091529020546124b4565b826116876117cd565b6000888152600b91909101602090815260408083206001600160a01b038a168452909152902055816116b76117cd565b6000888152600691909101602090815260408083206001600160a01b038a168452909152812080549091906116ed908490612d98565b909155506116fc905082612b7e565b6117046117cd565b6000888152600691909101602090815260408083206001600160a01b03861684529091528120805490919061173a908490612d98565b90915550506001600160a01b03808216908616877f224d4ee1e2931416deb62bbde4f281397249c4a54319c43ee455efc348c13f4f61177886612b7e565b60405190815260200160405180910390a4505050505050565b600061179b6117cd565b600092835260205250604090205460ff1690565b60006117b96117cd565b600092835260020160205250604090205490565b7eeb125d2cd445fcbd619aab5c9493ddf1b2fb2fb0a82715c79a670dddbf7d6590565b6000808212156118425760405162461bcd60e51b815260206004820181905260248201527f53616665436173743a2076616c7565206d75737420626520706f736974697665604482015260640161057b565b5090565b600080821161185457600080fd5b60056118608385612e74565b61186b90600a612c8e565b8361187786600a612c8e565b6118819190612e74565b61188b9190612e88565b10156118a25761189b8284612e74565b90506104cc565b6118ac8284612e74565b61189b906001612e9f565b60006001600160ff1b038211156118425760405162461bcd60e51b815260206004820152602860248201527f53616665436173743a2076616c756520646f65736e27742066697420696e2061604482015267371034b73a191a9b60c11b606482015260840161057b565b60008061192c611552565b905060005b81518110156119915761195c82828151811061194f5761194f612cad565b60200260200101516126c9565b6001600160a01b0316846001600160a01b0316141561197f575060019392505050565b8061198981612d46565b915050611931565b5060009392505050565b6000806119a986868661216c565b9092509050826000821215611ab1576119c28282612d98565b905060006119ce6124a5565b90506119d983612b7e565b6119e16117cd565b60008a8152600691909101602090815260408083206001600160a01b038616845290915281208054909190611a17908490612d98565b90915550611a5e905088611a2a85612b7e565b611a326117cd565b60008c8152600691909101602090815260408083206001600160a01b03881684529091529020546124b4565b806001600160a01b0316876001600160a01b0316897f224d4ee1e2931416deb62bbde4f281397249c4a54319c43ee455efc348c13f4f86611a9e90612b7e565b60405190815260200160405180910390a4505b611abc8782856124b4565b84611ac56117cd565b6000898152600b91909101602090815260408083206001600160a01b038b16845290915290205580611af56117cd565b6000898152600691909101602090815260408083206001600160a01b038b16845290915281208054909190611b2b908490612d98565b90915550849050611b3a6117cd565b60008981526009919091016020908152604080832089845290915281208054909190611b67908490612d98565b90915550506040518481526001600160a01b0387169060009089907f224d4ee1e2931416deb62bbde4f281397249c4a54319c43ee455efc348c13f4f9060200160405180910390a450505050505050565b612710811115611bfd5760405162461bcd60e51b815260206004820152601060248201526f496e76616c696420666565207261746560801b604482015260640161057b565b611c0982612710612c8e565b611c138383612c8e565b611c1f61271080612c8e565b611c299190612e88565b611c316117cd565b60008681526002919091016020526040902054611c4e9190612c8e565b611c589190612e74565b611c606117cd565b60008581526002919091016020526040902055611c7f82612710612c8e565b611c898383612c8e565b611c9561271080612c8e565b611c9f9190612e9f565b611ca76117cd565b60008681526003919091016020526040902054611cc49190612c8e565b611cce9190612e74565b611cd66117cd565b60009485526003016020526040909320929092555050565b80611d2f5760405162461bcd60e51b8152602060048201526011602482015270756e69745072696365206973207a65726f60781b604482015260640161057b565b611d376117cd565b6000858152600a919091016020908152604080832086845290915290206003015415611da55760405162461bcd60e51b815260206004820152601860248201527f416c72656164792075706461746564206d617475726974790000000000000000604482015260640161057b565b828211611de75760405162461bcd60e51b815260206004820152601060248201526f496e76616c6964206d6174757269747960801b604482015260640161057b565b611def6117cd565b6000858152600a919091016020908152604080832085845290915290206001015415611e505760405162461bcd60e51b815260206004820152601060248201526f45786973746564206d6174757269747960801b604482015260640161057b565b611e586117cd565b6000858152600a9190910160209081526040808320868452909152902060010154611ec55760405162461bcd60e51b815260206004820152601f60248201527f496e76616c6964206c656e64696e6720636f6d706f756e6420666163746f7200604482015260640161057b565b611ecd6117cd565b6000858152600a9190910160209081526040808320868452909152902060020154611f445760405162461bcd60e51b815260206004820152602160248201527f496e76616c696420626f72726f77696e6720636f6d706f756e6420666163746f6044820152603960f91b606482015260840161057b565b81611f4d6117cd565b6000868152600491909101602052604090205581611f696117cd565b6000868152600a919091016020908152604080832087845282529182902060030192909255805160a08101909152828152908101611fa56117cd565b6002016000878152602001908152602001600020548152602001611fc76117cd565b60030160008781526020019081526020016000205481526020016000815260200184815250611ff46117cd565b6000958652600a0160209081526040808720948752938152948390208151815594810151600186015591820151600285015550606081015160038401556080015160049092019190915550565b6120496117cd565b6000848152600c9190910160209081526040808320858452909152902054156120a95760405162461bcd60e51b8152602060048201526012602482015271105b1c9958591e481c9959da5cdd195c995960721b604482015260640161057b565b6120d36120b5846117af565b6120be85610c29565b6120c990600a612c7f565b6105cc9084612c8e565b6120db6117cd565b6000948552600c0160209081526040808620948652939052919092205550565b6000806121066117cd565b6000868152600691909101602090815260408083206001600160a01b038816845290915281205491506121376117cd565b6000878152600b91909101602090815260408083206001600160a01b03891684529091529020549050611200868383876121b2565b60008061217a8585856120fb565b90506121846117cd565b6000958652600601602090815260408087206001600160a01b03909616875294905292909320549391925050565b600080841215806121c35750828211155b806121cc575082155b156121d95750600061152c565b60006121e36117cd565b6000878152600a91909101602090815260408083208784528252808320815160a08101835281548152600182015493810193909352600281015491830191909152600381015460608301526004015460808201529150808061224489610c0b565b90508086111561225b57600094505050505061152c565b808614156122a25761226b6117cd565b60008a8152600391909101602052604090205492506122886117cd565b60008a815260029190910160205260409020549150612309565b60006122ac6117cd565b60008b8152600a91909101602090815260408083208a8452825291829020825160a0810184528154815260018201549281018390526002820154938101849052600382015460608201526004909101546080909101529094509250505b8761233561128b61232a61231f61059b85612b7e565b8789604001516126d4565b8760200151866126d4565b61233e90612b7e565b6123489190612eb7565b9998505050505050505050565b60008161236157600080fd5b600061236d8385612ef6565b61237890600a612dd9565b8361238486600a612dd9565b61238e9190612ef6565b6123989190612eb7565b9050600581126123bf576123ac8385612ef6565b6123b7906001612d98565b9150506104cc565b60041981136123de5760016123d48486612ef6565b6123b79190612eb7565b6123b78385612ef6565b60007f360894a13ba1a3210667c828492db98dca3e2076cc3735a920a3ca505d382bbc610492565b600080516020612f38833981519152546001600160a01b0316156124765760405162461bcd60e51b815260206004820152601b60248201527f7265736f6c766572207265676973746572656420616c72656164790000000000604482015260640161057b565b600080516020612f3883398151915280546001600160a01b0319166001600160a01b0392909216919091179055565b60006124af612841565b905090565b600082126125d25760006124c7836117f0565b90506000821261250857806124da6117cd565b600701600086815260200190815260200160002060008282546124fd9190612e9f565b909155506109e99050565b60006125148385612d98565b90506000811261259a57612527816117f0565b61252f6117cd565b600701600087815260200190815260200160002060008282546125529190612e9f565b90915550612564905061059b84612b7e565b61256c6117cd565b6008016000878152602001908152602001600020600082825461258f9190612e88565b9091555061124a9050565b816125a36117cd565b600801600087815260200190815260200160002060008282546125c69190612e88565b90915550505050505050565b60006125e061059b84612b7e565b90506000821361261657806125f36117cd565b600801600086815260200190815260200160002060008282546124fd9190612e9f565b60006126228385612d98565b90506000811361269d5761263861059b82612b7e565b6126406117cd565b600801600087815260200190815260200160002060008282546126639190612e9f565b909155506126729050836117f0565b61267a6117cd565b6007016000878152602001908152602001600020600082825461258f9190612e88565b816126a66117cd565b600701600087815260200190815260200160002060008282546125c69190612e88565b60006104cc82612856565b60008080600019858709858702925082811083820303915050806000141561270e576000841161270357600080fd5b508290049050610600565b80841161271a57600080fd5b600084868809808403938111909203919050600061273a86196001612e9f565b861695869004959384900493600081900304600101905061275b8184612c8e565b90931792600061276c876003612c8e565b600218905061277b8188612c8e565b612786906002612e88565b6127909082612c8e565b905061279c8188612c8e565b6127a7906002612e88565b6127b19082612c8e565b90506127bd8188612c8e565b6127c8906002612e88565b6127d29082612c8e565b90506127de8188612c8e565b6127e9906002612e88565b6127f39082612c8e565b90506127ff8188612c8e565b61280a906002612e88565b6128149082612c8e565b90506128208188612c8e565b61282b906002612e88565b6128359082612c8e565b90506123488186612c8e565b60006124af6a14995cd95c9d99519d5b9960aa1b5b60008181527f4abde63c3e81aefa5764b017968bc473e83e093d7e1a10247d19e0a3e41240196020908152604080832054815170026b4b9b9b4b7339030b2323932b9b99d1607d1b9381019390935260318084018690528251808503909101815260519093019091526001600160a01b031690816128e75760405162461bcd60e51b815260040161057b9190612f24565b5092915050565b6000806040838503121561290157600080fd5b50508035926020909101359150565b60008060006060848603121561292557600080fd5b505081359360208301359350604090920135919050565b6001600160a01b038116811461295157600080fd5b50565b60008060006060848603121561296957600080fd5b83359250602084013561297b8161293c565b929592945050506040919091013590565b60008060008060008060c087890312156129a557600080fd5b505084359660208601359650604086013595606081013595506080810135945060a0013592509050565b6020808252825182820181905260009190848201906040850190845b81811015612a07578351835292840192918401916001016129eb565b50909695505050505050565b600060208284031215612a2557600080fd5b5035919050565b60008060408385031215612a3f57600080fd5b823591506020830135612a518161293c565b809150509250929050565b600080600080600060a08688031215612a7457600080fd5b85359450602086013593506040860135612a8d8161293c565b92506060860135612a9d8161293c565b949793965091946080013592915050565b60008060008060808587031215612ac457600080fd5b84359350602085013560ff81168114612adc57600080fd5b93969395505050506040820135916060013590565b60008060008060808587031215612b0757600080fd5b5050823594602084013594506040840135936060013592509050565b60008060008060808587031215612b3957600080fd5b843593506020850135612adc8161293c565b600060208284031215612b5d57600080fd5b81356106008161293c565b634e487b7160e01b600052601160045260246000fd5b6000600160ff1b821415612b9457612b94612b68565b5060000390565b600181815b80851115612bd6578160001904821115612bbc57612bbc612b68565b80851615612bc957918102915b93841c9390800290612ba0565b509250929050565b600082612bed575060016104cc565b81612bfa575060006104cc565b8160018114612c105760028114612c1a57612c36565b60019150506104cc565b60ff841115612c2b57612c2b612b68565b50506001821b6104cc565b5060208310610133831016604e8410600b8410161715612c59575081810a6104cc565b612c638383612b9b565b8060001904821115612c7757612c77612b68565b029392505050565b600061060060ff841683612bde565b6000816000190483118215151615612ca857612ca8612b68565b500290565b634e487b7160e01b600052603260045260246000fd5b6000815180845260005b81811015612ce957602081850181015186830182015201612ccd565b81811115612cfb576000602083870101525b50601f01601f19169290920160200192915050565b82815260406020820152600061152c6040830184612cc3565b600060208284031215612d3b57600080fd5b81516106008161293c565b6000600019821415612d5a57612d5a612b68565b5060010190565b60208082526017908201527f4f6e6c7920416363657074656420436f6e747261637473000000000000000000604082015260600190565b600080821280156001600160ff1b0384900385131615612dba57612dba612b68565b600160ff1b8390038412811615612dd357612dd3612b68565b50500190565b60006001600160ff1b0381841382841380821686840486111615612dff57612dff612b68565b600160ff1b6000871282811687830589121615612e1e57612e1e612b68565b60008712925087820587128484161615612e3a57612e3a612b68565b87850587128184161615612e5057612e50612b68565b505050929093029392505050565b634e487b7160e01b600052601260045260246000fd5b600082612e8357612e83612e5e565b500490565b600082821015612e9a57612e9a612b68565b500390565b60008219821115612eb257612eb2612b68565b500190565b60008083128015600160ff1b850184121615612ed557612ed5612b68565b6001600160ff1b0384018313811615612ef057612ef0612b68565b50500390565b600082612f0557612f05612e5e565b600160ff1b821460001984141615612f1f57612f1f612b68565b500590565b6020815260006106006020830184612cc356fe4abde63c3e81aefa5764b017968bc473e83e093d7e1a10247d19e0a3e4124018a2646970667358221220b667da29bac66af1907909732d6bdd7375d499a11940d178ff7ee12434f9f85a64736f6c63430008090033",
  "implementation": "0xe3658624A3Aafa064357741Df90d0df52368983F",
  "devdoc": {
    "kind": "dev",
    "methods": {
      "acceptedContracts()": {
        "details": "The contact name listed in this method is also needed to be listed `requiredContracts` method."
      },
      "initialize(address)": {
        "details": "Function is invoked by the proxy contract when the contract is added to the ProxyController.",
        "params": {
          "_resolver": "The address of the Address Resolver contract"
        }
      },
      "requiredContracts()": {
        "details": "The contract name list is in `./libraries/Contracts.sol`."
      }
    },
    "version": 1
  },
  "userdoc": {
    "kind": "user",
    "methods": {
      "acceptedContracts()": {
        "notice": "Returns contract names that can call this contract."
      },
      "initialize(address)": {
        "notice": "Initializes the contract."
      },
      "requiredContracts()": {
        "notice": "Returns the contract names used in this contract."
      }
    },
    "notice": "Implements the management of the genesis value as an amount for Lending deals.",
    "version": 1
  },
  "storageLayout": {
    "storage": [
      {
        "astId": 1183,
        "contract": "contracts/GenesisValueVault.sol:GenesisValueVault",
        "label": "_initialized",
        "offset": 0,
        "slot": "0",
        "type": "t_uint8"
      },
      {
        "astId": 1186,
        "contract": "contracts/GenesisValueVault.sol:GenesisValueVault",
        "label": "_initializing",
        "offset": 1,
        "slot": "0",
        "type": "t_bool"
      }
    ],
    "types": {
      "t_bool": {
        "encoding": "inplace",
        "label": "bool",
        "numberOfBytes": "1"
      },
      "t_uint8": {
        "encoding": "inplace",
        "label": "uint8",
        "numberOfBytes": "1"
      }
    }
  }
}