{
  "address": "0xAF8Eb8C1fF7c8667F13b074ded789ac09Ee4252F",
  "abi": [
    {
      "anonymous": false,
      "inputs": [
        {
          "indexed": false,
          "internalType": "bytes32",
          "name": "name",
          "type": "bytes32"
        },
        {
          "indexed": false,
          "internalType": "address",
          "name": "destination",
          "type": "address"
        }
      ],
      "name": "CacheUpdated",
      "type": "event"
    },
    {
      "anonymous": false,
      "inputs": [
        {
          "indexed": false,
          "internalType": "uint8",
          "name": "version",
          "type": "uint8"
        }
      ],
      "name": "Initialized",
      "type": "event"
    },
    {
      "anonymous": false,
      "inputs": [
        {
          "indexed": false,
          "internalType": "bytes32",
          "name": "ccy",
          "type": "bytes32"
        },
        {
          "indexed": false,
          "internalType": "uint256",
          "name": "maturity",
          "type": "uint256"
        },
        {
          "indexed": false,
          "internalType": "uint256",
          "name": "openingPrice",
          "type": "uint256"
        }
      ],
      "name": "ItayoseExecuted",
      "type": "event"
    },
    {
      "anonymous": false,
      "inputs": [
        {
          "indexed": false,
          "internalType": "uint256",
          "name": "maturity",
          "type": "uint256"
        },
        {
          "indexed": false,
          "internalType": "uint256",
          "name": "prevMaturity",
          "type": "uint256"
        }
      ],
      "name": "MarketOpened",
      "type": "event"
    },
    {
      "anonymous": false,
      "inputs": [
        {
          "indexed": false,
          "internalType": "uint48",
          "name": "orderId",
          "type": "uint48"
        },
        {
          "indexed": true,
          "internalType": "address",
          "name": "maker",
          "type": "address"
        },
        {
          "indexed": false,
          "internalType": "enum ProtocolTypes.Side",
          "name": "side",
          "type": "uint8"
        },
        {
          "indexed": false,
          "internalType": "bytes32",
          "name": "ccy",
          "type": "bytes32"
        },
        {
          "indexed": false,
          "internalType": "uint256",
          "name": "maturity",
          "type": "uint256"
        },
        {
          "indexed": false,
          "internalType": "uint256",
          "name": "amount",
          "type": "uint256"
        },
        {
          "indexed": false,
          "internalType": "uint256",
          "name": "unitPrice",
          "type": "uint256"
        }
      ],
      "name": "OrderCanceled",
      "type": "event"
    },
    {
      "anonymous": false,
      "inputs": [
        {
          "indexed": false,
          "internalType": "uint48",
          "name": "orderId",
          "type": "uint48"
        },
        {
          "indexed": false,
          "internalType": "uint48",
          "name": "originalOrderId",
          "type": "uint48"
        },
        {
          "indexed": true,
          "internalType": "address",
          "name": "maker",
          "type": "address"
        },
        {
          "indexed": false,
          "internalType": "enum ProtocolTypes.Side",
          "name": "side",
          "type": "uint8"
        },
        {
          "indexed": false,
          "internalType": "bytes32",
          "name": "ccy",
          "type": "bytes32"
        },
        {
          "indexed": false,
          "internalType": "uint256",
          "name": "maturity",
          "type": "uint256"
        },
        {
          "indexed": false,
          "internalType": "uint256",
          "name": "amount",
          "type": "uint256"
        },
        {
          "indexed": false,
          "internalType": "uint256",
          "name": "unitPrice",
          "type": "uint256"
        }
      ],
      "name": "OrderMade",
      "type": "event"
    },
    {
      "anonymous": false,
      "inputs": [
        {
          "indexed": false,
          "internalType": "uint48",
          "name": "orderId",
          "type": "uint48"
        },
        {
          "indexed": true,
          "internalType": "address",
          "name": "maker",
          "type": "address"
        },
        {
          "indexed": false,
          "internalType": "enum ProtocolTypes.Side",
          "name": "side",
          "type": "uint8"
        },
        {
          "indexed": true,
          "internalType": "bytes32",
          "name": "ccy",
          "type": "bytes32"
        },
        {
          "indexed": false,
          "internalType": "uint256",
          "name": "maturity",
          "type": "uint256"
        },
        {
          "indexed": false,
          "internalType": "uint256",
          "name": "filledAmount",
          "type": "uint256"
        },
        {
          "indexed": false,
          "internalType": "uint256",
          "name": "filledFutureValue",
          "type": "uint256"
        }
      ],
      "name": "OrderPartiallyTaken",
      "type": "event"
    },
    {
      "anonymous": false,
      "inputs": [
        {
          "indexed": false,
          "internalType": "uint48[]",
          "name": "orderIds",
          "type": "uint48[]"
        },
        {
          "indexed": true,
          "internalType": "address",
          "name": "maker",
          "type": "address"
        },
        {
          "indexed": false,
          "internalType": "enum ProtocolTypes.Side",
          "name": "side",
          "type": "uint8"
        },
        {
          "indexed": true,
          "internalType": "bytes32",
          "name": "ccy",
          "type": "bytes32"
        },
        {
          "indexed": false,
          "internalType": "uint256",
          "name": "maturity",
          "type": "uint256"
        }
      ],
      "name": "OrdersCleaned",
      "type": "event"
    },
    {
      "anonymous": false,
      "inputs": [
        {
          "indexed": true,
          "internalType": "address",
          "name": "taker",
          "type": "address"
        },
        {
          "indexed": false,
          "internalType": "enum ProtocolTypes.Side",
          "name": "side",
          "type": "uint8"
        },
        {
          "indexed": false,
          "internalType": "bytes32",
          "name": "ccy",
          "type": "bytes32"
        },
        {
          "indexed": false,
          "internalType": "uint256",
          "name": "maturity",
          "type": "uint256"
        },
        {
          "indexed": false,
          "internalType": "uint256",
          "name": "filledAmount",
          "type": "uint256"
        },
        {
          "indexed": false,
          "internalType": "uint256",
          "name": "unitPrice",
          "type": "uint256"
        },
        {
          "indexed": false,
          "internalType": "uint256",
          "name": "filledFutureValue",
          "type": "uint256"
        }
      ],
      "name": "OrdersTaken",
      "type": "event"
    },
    {
      "anonymous": false,
      "inputs": [
        {
          "indexed": false,
          "internalType": "address",
          "name": "account",
          "type": "address"
        }
      ],
      "name": "Paused",
      "type": "event"
    },
    {
      "anonymous": false,
      "inputs": [
        {
          "indexed": false,
          "internalType": "address",
          "name": "account",
          "type": "address"
        }
      ],
      "name": "Unpaused",
      "type": "event"
    },
    {
      "inputs": [],
      "name": "acceptedContracts",
      "outputs": [
        {
          "internalType": "bytes32[]",
          "name": "contracts",
          "type": "bytes32[]"
        }
      ],
      "stateMutability": "pure",
      "type": "function"
    },
    {
      "inputs": [],
      "name": "buildCache",
      "outputs": [],
      "stateMutability": "nonpayable",
      "type": "function"
    },
    {
      "inputs": [
        {
          "internalType": "address",
          "name": "_user",
          "type": "address"
        },
        {
          "internalType": "uint48",
          "name": "_orderId",
          "type": "uint48"
        }
      ],
      "name": "cancelOrder",
      "outputs": [
        {
          "internalType": "enum ProtocolTypes.Side",
          "name": "side",
          "type": "uint8"
        },
        {
          "internalType": "uint256",
          "name": "removedAmount",
          "type": "uint256"
        },
        {
          "internalType": "uint256",
          "name": "unitPrice",
          "type": "uint256"
        }
      ],
      "stateMutability": "nonpayable",
      "type": "function"
    },
    {
      "inputs": [
        {
          "internalType": "address",
          "name": "_user",
          "type": "address"
        }
      ],
      "name": "cleanUpOrders",
      "outputs": [
        {
          "internalType": "uint256",
          "name": "activeLendOrderCount",
          "type": "uint256"
        },
        {
          "internalType": "uint256",
          "name": "activeBorrowOrderCount",
          "type": "uint256"
        },
        {
          "internalType": "uint256",
          "name": "removedLendOrderFutureValue",
          "type": "uint256"
        },
        {
          "internalType": "uint256",
          "name": "removedBorrowOrderFutureValue",
          "type": "uint256"
        },
        {
          "internalType": "uint256",
          "name": "removedLendOrderAmount",
          "type": "uint256"
        },
        {
          "internalType": "uint256",
          "name": "removedBorrowOrderAmount",
          "type": "uint256"
        },
        {
          "internalType": "uint256",
          "name": "maturity",
          "type": "uint256"
        }
      ],
      "stateMutability": "nonpayable",
      "type": "function"
    },
    {
      "inputs": [
        {
          "internalType": "enum ProtocolTypes.Side",
          "name": "_side",
          "type": "uint8"
        },
        {
          "internalType": "address",
          "name": "_user",
          "type": "address"
        },
        {
          "internalType": "uint256",
          "name": "_amount",
          "type": "uint256"
        },
        {
          "internalType": "uint256",
          "name": "_unitPrice",
          "type": "uint256"
        },
        {
          "internalType": "bool",
          "name": "_ignoreRemainingAmount",
          "type": "bool"
        }
      ],
      "name": "createOrder",
      "outputs": [
        {
          "internalType": "uint256",
          "name": "filledUnitPrice",
          "type": "uint256"
        },
        {
          "internalType": "uint256",
          "name": "filledFutureValue",
          "type": "uint256"
        },
        {
          "components": [
            {
              "internalType": "address",
              "name": "maker",
              "type": "address"
            },
            {
              "internalType": "uint256",
              "name": "amount",
              "type": "uint256"
            },
            {
              "internalType": "uint256",
              "name": "futureValue",
              "type": "uint256"
            }
          ],
          "internalType": "struct ILendingMarket.PartiallyFilledOrder",
          "name": "partiallyFilledOrder",
          "type": "tuple"
        },
        {
          "internalType": "uint256",
          "name": "remainingAmount",
          "type": "uint256"
        }
      ],
      "stateMutability": "nonpayable",
      "type": "function"
    },
    {
      "inputs": [
        {
          "internalType": "enum ProtocolTypes.Side",
          "name": "_side",
          "type": "uint8"
        },
        {
          "internalType": "address",
          "name": "_user",
          "type": "address"
        },
        {
          "internalType": "uint256",
          "name": "_amount",
          "type": "uint256"
        },
        {
          "internalType": "uint256",
          "name": "_unitPrice",
          "type": "uint256"
        }
      ],
      "name": "createPreOrder",
      "outputs": [],
      "stateMutability": "nonpayable",
      "type": "function"
    },
    {
      "inputs": [
        {
          "internalType": "enum ProtocolTypes.Side",
          "name": "_side",
          "type": "uint8"
        },
        {
          "internalType": "uint256",
          "name": "_futureValue",
          "type": "uint256"
        }
      ],
      "name": "estimateFilledAmount",
      "outputs": [
        {
          "internalType": "uint256",
          "name": "amount",
          "type": "uint256"
        }
      ],
      "stateMutability": "view",
      "type": "function"
    },
    {
      "inputs": [],
      "name": "executeItayoseCall",
      "outputs": [
        {
          "internalType": "uint256",
          "name": "openingUnitPrice",
          "type": "uint256"
        },
        {
          "internalType": "uint256",
          "name": "openingDate",
          "type": "uint256"
        },
        {
          "components": [
            {
              "internalType": "address",
              "name": "maker",
              "type": "address"
            },
            {
              "internalType": "uint256",
              "name": "amount",
              "type": "uint256"
            },
            {
              "internalType": "uint256",
              "name": "futureValue",
              "type": "uint256"
            }
          ],
          "internalType": "struct ILendingMarket.PartiallyFilledOrder",
          "name": "partiallyFilledLendingOrder",
          "type": "tuple"
        },
        {
          "components": [
            {
              "internalType": "address",
              "name": "maker",
              "type": "address"
            },
            {
              "internalType": "uint256",
              "name": "amount",
              "type": "uint256"
            },
            {
              "internalType": "uint256",
              "name": "futureValue",
              "type": "uint256"
            }
          ],
          "internalType": "struct ILendingMarket.PartiallyFilledOrder",
          "name": "partiallyFilledBorrowingOrder",
          "type": "tuple"
        }
      ],
      "stateMutability": "nonpayable",
      "type": "function"
    },
    {
      "inputs": [
        {
          "internalType": "uint256",
          "name": "_limit",
          "type": "uint256"
        }
      ],
      "name": "getBorrowOrderBook",
      "outputs": [
        {
          "internalType": "uint256[]",
          "name": "unitPrices",
          "type": "uint256[]"
        },
        {
          "internalType": "uint256[]",
          "name": "amounts",
          "type": "uint256[]"
        },
        {
          "internalType": "uint256[]",
          "name": "quantities",
          "type": "uint256[]"
        }
      ],
      "stateMutability": "view",
      "type": "function"
    },
    {
      "inputs": [
        {
          "internalType": "address",
          "name": "_user",
          "type": "address"
        }
      ],
      "name": "getBorrowOrderIds",
      "outputs": [
        {
          "internalType": "uint48[]",
          "name": "activeOrderIds",
          "type": "uint48[]"
        },
        {
          "internalType": "uint48[]",
          "name": "inActiveOrderIds",
          "type": "uint48[]"
        }
      ],
      "stateMutability": "view",
      "type": "function"
    },
    {
      "inputs": [],
      "name": "getBorrowUnitPrice",
      "outputs": [
        {
          "internalType": "uint256",
          "name": "",
          "type": "uint256"
        }
      ],
      "stateMutability": "view",
      "type": "function"
    },
    {
      "inputs": [],
      "name": "getCurrency",
      "outputs": [
        {
          "internalType": "bytes32",
          "name": "currency",
          "type": "bytes32"
        }
      ],
      "stateMutability": "view",
      "type": "function"
    },
    {
      "inputs": [
        {
          "internalType": "uint256",
          "name": "_limit",
          "type": "uint256"
        }
      ],
      "name": "getLendOrderBook",
      "outputs": [
        {
          "internalType": "uint256[]",
          "name": "unitPrices",
          "type": "uint256[]"
        },
        {
          "internalType": "uint256[]",
          "name": "amounts",
          "type": "uint256[]"
        },
        {
          "internalType": "uint256[]",
          "name": "quantities",
          "type": "uint256[]"
        }
      ],
      "stateMutability": "view",
      "type": "function"
    },
    {
      "inputs": [
        {
          "internalType": "address",
          "name": "_user",
          "type": "address"
        }
      ],
      "name": "getLendOrderIds",
      "outputs": [
        {
          "internalType": "uint48[]",
          "name": "activeOrderIds",
          "type": "uint48[]"
        },
        {
          "internalType": "uint48[]",
          "name": "inActiveOrderIds",
          "type": "uint48[]"
        }
      ],
      "stateMutability": "view",
      "type": "function"
    },
    {
      "inputs": [],
      "name": "getLendUnitPrice",
      "outputs": [
        {
          "internalType": "uint256",
          "name": "",
          "type": "uint256"
        }
      ],
      "stateMutability": "view",
      "type": "function"
    },
    {
      "inputs": [],
      "name": "getMarket",
      "outputs": [
        {
          "components": [
            {
              "internalType": "bytes32",
              "name": "ccy",
              "type": "bytes32"
            },
            {
              "internalType": "uint256",
              "name": "maturity",
              "type": "uint256"
            },
            {
              "internalType": "uint256",
              "name": "openingDate",
              "type": "uint256"
            },
            {
              "internalType": "uint256",
              "name": "borrowUnitPrice",
              "type": "uint256"
            },
            {
              "internalType": "uint256",
              "name": "lendUnitPrice",
              "type": "uint256"
            },
            {
              "internalType": "uint256",
              "name": "midUnitPrice",
              "type": "uint256"
            },
            {
              "internalType": "bool",
              "name": "isReady",
              "type": "bool"
            }
          ],
          "internalType": "struct ILendingMarket.Market",
          "name": "market",
          "type": "tuple"
        }
      ],
      "stateMutability": "view",
      "type": "function"
    },
    {
      "inputs": [],
      "name": "getMaturity",
      "outputs": [
        {
          "internalType": "uint256",
          "name": "maturity",
          "type": "uint256"
        }
      ],
      "stateMutability": "view",
      "type": "function"
    },
    {
      "inputs": [],
      "name": "getMidUnitPrice",
      "outputs": [
        {
          "internalType": "uint256",
          "name": "",
          "type": "uint256"
        }
      ],
      "stateMutability": "view",
      "type": "function"
    },
    {
      "inputs": [],
      "name": "getOpeningDate",
      "outputs": [
        {
          "internalType": "uint256",
          "name": "openingDate",
          "type": "uint256"
        }
      ],
      "stateMutability": "view",
      "type": "function"
    },
    {
      "inputs": [],
      "name": "getOpeningUnitPrice",
      "outputs": [
        {
          "internalType": "uint256",
          "name": "openingUnitPrices",
          "type": "uint256"
        }
      ],
      "stateMutability": "view",
      "type": "function"
    },
    {
      "inputs": [
        {
          "internalType": "uint48",
          "name": "_orderId",
          "type": "uint48"
        }
      ],
      "name": "getOrder",
      "outputs": [
        {
          "internalType": "enum ProtocolTypes.Side",
          "name": "side",
          "type": "uint8"
        },
        {
          "internalType": "uint256",
          "name": "unitPrice",
          "type": "uint256"
        },
        {
          "internalType": "uint256",
          "name": "maturity",
          "type": "uint256"
        },
        {
          "internalType": "address",
          "name": "maker",
          "type": "address"
        },
        {
          "internalType": "uint256",
          "name": "amount",
          "type": "uint256"
        },
        {
          "internalType": "uint256",
          "name": "timestamp",
          "type": "uint256"
        }
      ],
      "stateMutability": "view",
      "type": "function"
    },
    {
      "inputs": [
        {
          "internalType": "address",
          "name": "_user",
          "type": "address"
        }
      ],
      "name": "getTotalAmountFromBorrowOrders",
      "outputs": [
        {
          "internalType": "uint256",
          "name": "activeAmount",
          "type": "uint256"
        },
        {
          "internalType": "uint256",
          "name": "inactiveAmount",
          "type": "uint256"
        },
        {
          "internalType": "uint256",
          "name": "inactiveFutureValue",
          "type": "uint256"
        },
        {
          "internalType": "uint256",
          "name": "maturity",
          "type": "uint256"
        }
      ],
      "stateMutability": "view",
      "type": "function"
    },
    {
      "inputs": [
        {
          "internalType": "address",
          "name": "_user",
          "type": "address"
        }
      ],
      "name": "getTotalAmountFromLendOrders",
      "outputs": [
        {
          "internalType": "uint256",
          "name": "activeAmount",
          "type": "uint256"
        },
        {
          "internalType": "uint256",
          "name": "inactiveAmount",
          "type": "uint256"
        },
        {
          "internalType": "uint256",
          "name": "inactiveFutureValue",
          "type": "uint256"
        },
        {
          "internalType": "uint256",
          "name": "maturity",
          "type": "uint256"
        }
      ],
      "stateMutability": "view",
      "type": "function"
    },
    {
      "inputs": [
        {
          "internalType": "address",
          "name": "_resolver",
          "type": "address"
        },
        {
          "internalType": "bytes32",
          "name": "_ccy",
          "type": "bytes32"
        },
        {
          "internalType": "uint256",
          "name": "_maturity",
          "type": "uint256"
        },
        {
          "internalType": "uint256",
          "name": "_openingDate",
          "type": "uint256"
        }
      ],
      "name": "initialize",
      "outputs": [],
      "stateMutability": "nonpayable",
      "type": "function"
    },
    {
      "inputs": [],
      "name": "isItayosePeriod",
      "outputs": [
        {
          "internalType": "bool",
          "name": "",
          "type": "bool"
        }
      ],
      "stateMutability": "view",
      "type": "function"
    },
    {
      "inputs": [],
      "name": "isMatured",
      "outputs": [
        {
          "internalType": "bool",
          "name": "",
          "type": "bool"
        }
      ],
      "stateMutability": "view",
      "type": "function"
    },
    {
      "inputs": [],
      "name": "isOpened",
      "outputs": [
        {
          "internalType": "bool",
          "name": "",
          "type": "bool"
        }
      ],
      "stateMutability": "view",
      "type": "function"
    },
    {
      "inputs": [],
      "name": "isPreOrderPeriod",
      "outputs": [
        {
          "internalType": "bool",
          "name": "",
          "type": "bool"
        }
      ],
      "stateMutability": "view",
      "type": "function"
    },
    {
      "inputs": [],
      "name": "isReady",
      "outputs": [
        {
          "internalType": "bool",
          "name": "",
          "type": "bool"
        }
      ],
      "stateMutability": "view",
      "type": "function"
    },
    {
      "inputs": [],
      "name": "isResolverCached",
      "outputs": [
        {
          "internalType": "bool",
          "name": "",
          "type": "bool"
        }
      ],
      "stateMutability": "view",
      "type": "function"
    },
    {
      "inputs": [
        {
          "internalType": "uint256",
          "name": "_maturity",
          "type": "uint256"
        },
        {
          "internalType": "uint256",
          "name": "_openingDate",
          "type": "uint256"
        }
      ],
      "name": "openMarket",
      "outputs": [
        {
          "internalType": "uint256",
          "name": "prevMaturity",
          "type": "uint256"
        }
      ],
      "stateMutability": "nonpayable",
      "type": "function"
    },
    {
      "inputs": [],
      "name": "pauseMarket",
      "outputs": [],
      "stateMutability": "nonpayable",
      "type": "function"
    },
    {
      "inputs": [],
      "name": "paused",
      "outputs": [
        {
          "internalType": "bool",
          "name": "",
          "type": "bool"
        }
      ],
      "stateMutability": "view",
      "type": "function"
    },
    {
      "inputs": [],
      "name": "requiredContracts",
      "outputs": [
        {
          "internalType": "bytes32[]",
          "name": "contracts",
          "type": "bytes32[]"
        }
      ],
      "stateMutability": "pure",
      "type": "function"
    },
    {
      "inputs": [],
      "name": "resolver",
      "outputs": [
        {
          "internalType": "contract IAddressResolver",
          "name": "",
          "type": "address"
        }
      ],
      "stateMutability": "view",
      "type": "function"
    },
    {
      "inputs": [],
      "name": "unpauseMarket",
      "outputs": [],
      "stateMutability": "nonpayable",
      "type": "function"
    },
    {
      "inputs": [
        {
          "internalType": "enum ProtocolTypes.Side",
          "name": "_side",
          "type": "uint8"
        },
        {
          "internalType": "address",
          "name": "_user",
          "type": "address"
        },
        {
          "internalType": "uint256",
          "name": "_futureValue",
          "type": "uint256"
        }
      ],
      "name": "unwindOrder",
      "outputs": [
        {
          "internalType": "uint256",
          "name": "filledUnitPrice",
          "type": "uint256"
        },
        {
          "internalType": "uint256",
          "name": "filledAmount",
          "type": "uint256"
        },
        {
          "internalType": "uint256",
          "name": "filledFutureValue",
          "type": "uint256"
        },
        {
          "components": [
            {
              "internalType": "address",
              "name": "maker",
              "type": "address"
            },
            {
              "internalType": "uint256",
              "name": "amount",
              "type": "uint256"
            },
            {
              "internalType": "uint256",
              "name": "futureValue",
              "type": "uint256"
            }
          ],
          "internalType": "struct ILendingMarket.PartiallyFilledOrder",
          "name": "partiallyFilledOrder",
          "type": "tuple"
        }
      ],
      "stateMutability": "nonpayable",
      "type": "function"
    }
  ],
  "transactionHash": "0x4979de125c5d6329d9754f0cd288757ca31cdb70b0e8fe5e057892bb2e70f89d",
  "args": [],
  "numDeployments": 1,
  "solcInputHash": "3f85b78d4f02b33ea339ac5a99716c70",
  "bytecode": "0x608060405234801561001057600080fd5b506000805460ff191690556137a18061002a6000396000f3fe608060405234801561001057600080fd5b50600436106102275760003560e01c80637c6cd94d11610130578063b7c1d527116100b8578063e0dbc76e1161007c578063e0dbc76e146104a3578063e16695b5146104ab578063e3d904d8146104b3578063e7df768c146104e6578063f1be1679146104f957600080fd5b8063b7c1d52714610447578063bcc012ad1461045a578063cd4a1c141461046d578063d866d35514610490578063e0997659146102b757600080fd5b80638152b173116100ff5780638152b173146103fb57806386e613a01461041c5780639d6529071461042f578063a03738dc14610437578063a094a0311461043f57600080fd5b80637c6cd94d146103ae5780637ce219aa146103b65780637e706938146103db5780637f2b6a0d146103f357600080fd5b80634bf62d16116101b35780635e0b54da116101825780635e0b54da14610386578063692aa97e1461038e5780636945c1fd146103965780636a2c42741461039e57806371613c2d146103a657600080fd5b80634bf62d16146103145780634c2afa2e14610336578063504b89bd146103595780635c975abb1461037b57600080fd5b806328378aab116101fa57806328378aab1461028457806329985e5a146102975780632af64bd31461029f5780633d03b9da146102b75780633d4eccdf146102cc57600080fd5b806304f3bcec1461022c5780631610c7ce146102515780631b3508b71461025b5780631e007d1d14610271575b600080fd5b610234610559565b6040516001600160a01b0390911681526020015b60405180910390f35b61025961057a565b005b6102636105b2565b604051908152602001610248565b61026361027f366004612b45565b610635565b610259610292366004612b86565b6106ca565b6102596107ee565b6102a761099b565b6040519015158152602001610248565b6102bf610b01565b6040516102489190612bcc565b6102df6102da366004612c10565b610b66565b604080519788526020880196909652948601939093526060850191909152608084015260a083015260c082015260e001610248565b610327610322366004612c34565b610da7565b60405161024893929190612c88565b610349610344366004612ccb565b610e46565b6040516102489493929190612d2e565b61036c610367366004612d6d565b610f45565b60405161024893929190612dde565b60005460ff166102a7565b610263611137565b6102a761117d565b6102636111d8565b6102636111e8565b610263611217565b6102a7611334565b6103c96103c4366004612dfd565b61137a565b60405161024896959493929190612e1a565b6103e3611425565b6040516102489493929190612e59565b6102a76117d9565b61040e610409366004612c10565b6117ef565b604051610248929190612eba565b61026361042a366004612edf565b61188e565b6102a7611968565b6102596119c0565b6102a76119ed565b610259610455366004612f01565b611a21565b61040e610468366004612c10565b611c2d565b61048061047b366004612f3c565b611c72565b6040516102489493929190612fa0565b61032761049e366004612c34565b611eb7565b610263611ef5565b610263611f08565b6104c66104c1366004612c10565b611f1b565b604080519485526020850193909352918301526060820152608001610248565b6104c66104f4366004612c10565b611fbf565b610501612008565b6040516102489190600060e082019050825182526020830151602083015260408301516040830152606083015160608301526080830151608083015260a083015160a083015260c0830151151560c083015292915050565b600060008051602061374c8339815191525b546001600160a01b0316919050565b610583336121a8565b6105a85760405162461bcd60e51b815260040161059f90612fca565b60405180910390fd5b6105b0612222565b565b6000735C9142886C74b255F5C5Fb573034248C0160C47C63e2afb0416040518163ffffffff1660e01b815260040160206040518083038186803b1580156105f857600080fd5b505af415801561060c573d6000803e3d6000fd5b505050506040513d601f19601f820116820180604052508101906106309190613001565b905090565b604051637d3093d560e11b8152600090735C9142886C74b255F5C5Fb573034248C0160C47C9063fa6127aa90610671908690869060040161301a565b60206040518083038186803b15801561068957600080fd5b505af415801561069d573d6000803e3d6000fd5b505050506040513d601f19601f820116820180604052508101906106c19190613001565b90505b92915050565b6106d2612274565b6106db336121a8565b6106f75760405162461bcd60e51b815260040161059f90612fca565b6106ff611334565b61074b5760405162461bcd60e51b815260206004820152601b60248201527f4e6f7420696e20746865207072652d6f7264657220706572696f640000000000604482015260640161059f565b600082116107965760405162461bcd60e51b815260206004820152601860248201527710d85b89dd081c1b1858d948195b5c1d1e48185b5bdd5b9d60421b604482015260640161059f565b61079f836122ba565b60006107b0858585856000806123f5565b905060016107bc6124f3565b65ffffffffffff929092166000908152600a9092016020526040909120805460ff191691151591909117905550505050565b60006107f8610b01565b905060005b815181101561099757600082828151811061081a5761081a613035565b60200260200101519050600061083b60008051602061374c83398151915290565b54604080517f5265736f6c766572206d697373696e67207461726765743a200000000000000060208201526039808201869052825180830390910181526059820192839052636795dbcd60e01b9092526001600160a01b0390921691636795dbcd916108ac91869190605d01613098565b60206040518083038186803b1580156108c457600080fd5b505afa1580156108d8573d6000803e3d6000fd5b505050506040513d601f19601f820116820180604052508101906108fc91906130b9565b60008381527f4abde63c3e81aefa5764b017968bc473e83e093d7e1a10247d19e0a3e4124019602090815260409182902080546001600160a01b0319166001600160a01b03851690811790915582518681529182015281519293507f88a93678a3692f6789d9546fc621bf7234b101ddb7d4fe479455112831b8aa68929081900390910190a15050808061098f906130ec565b9150506107fd565b5050565b6000806109a6610b01565b905060005b8151811015610af85760008282815181106109c8576109c8613035565b602002602001015190506109e760008051602061374c83398151915290565b600082815260019190910160205260409020546001600160a01b031660008051602061374c833981519152546040516321f8a72160e01b8152600481018490526001600160a01b03909116906321f8a7219060240160206040518083038186803b158015610a5457600080fd5b505afa158015610a68573d6000803e3d6000fd5b505050506040513d601f19601f82011682018060405250810190610a8c91906130b9565b6001600160a01b0316141580610ad6575060008181527f4abde63c3e81aefa5764b017968bc473e83e093d7e1a10247d19e0a3e412401960205260409020546001600160a01b0316155b15610ae5576000935050505090565b5080610af0816130ec565b9150506109ab565b50600191505090565b604080516001808252818301909252606091602080830190803683370190505090507f4c656e64696e674d61726b6574436f6e74726f6c6c657200000000000000000081600081518110610b5757610b57613035565b60200260200101818152505090565b6000806000806000806000610b796124f3565b6001600160a01b038916600081815260089290920160205260409182902054915163914551f160e01b81526004810191909152602481018290529091506060908190735C9142886C74b255F5C5Fb573034248C0160C47C9063914551f19060440160006040518083038186803b158015610bf257600080fd5b505af4158015610c06573d6000803e3d6000fd5b505050506040513d6000823e601f3d908101601f19168201604052610c2e91908101906131e6565b604051634a53967b60e01b81526001600160a01b038f16600482015260248101889052929c509099509650909250735C9142886C74b255F5C5Fb573034248C0160C47C90634a53967b9060440160006040518083038186803b158015610c9357600080fd5b505af4158015610ca7573d6000803e3d6000fd5b505050506040513d6000823e601f3d908101601f19168201604052610ccf91908101906131e6565b919a509750945090508415610d3957610ce66124f3565b546001600160a01b038b167ffba0ebcbd5c3adaf135b8956666cd643ded961350fd5a61526d7fb0c637f709c846000610d1d6124f3565b60030154604051610d309392919061323e565b60405180910390a35b8315610d9a57610d476124f3565b546001600160a01b038b167ffba0ebcbd5c3adaf135b8956666cd643ded961350fd5a61526d7fb0c637f709c836001610d7e6124f3565b60030154604051610d919392919061323e565b60405180910390a35b5050919395979092949650565b6060806060735C9142886C74b255F5C5Fb573034248C0160C47C634bf62d16856040518263ffffffff1660e01b8152600401610de591815260200190565b60006040518083038186803b158015610dfd57600080fd5b505af4158015610e11573d6000803e3d6000fd5b505050506040513d6000823e601f3d908101601f19168201604052610e3991908101906132c9565b9250925092509193909250565b6000806000610e53612b0b565b610e5b612274565b610e64336121a8565b610e805760405162461bcd60e51b815260040161059f90612fca565b610e8861117d565b610ecb5760405162461bcd60e51b815260206004820152601460248201527313585c9ad95d081a5cc81b9bdd081bdc195b995960621b604482015260640161059f565b60008511610f295760405162461bcd60e51b815260206004820152602560248201527f43616e277420706c61636520656d707479206675747572652076616c756520616044820152641b5bdd5b9d60da1b606482015260840161059f565b610f34878787612517565b935093509350935093509350935093565b600080600084846000610f578261137a565b509094505050506001600160a01b03821615159050610faa5760405162461bcd60e51b815260206004820152600f60248201526e13dc99195c881b9bdd08199bdd5b99608a1b604482015260640161059f565b806001600160a01b0316836001600160a01b03161461100b5760405162461bcd60e51b815260206004820152601760248201527f43616c6c6572206973206e6f7420746865206d616b6572000000000000000000604482015260640161059f565b611013612274565b61101c336121a8565b6110385760405162461bcd60e51b815260040161059f90612fca565b604051636c5db84360e01b81526001600160a01b038916600482015265ffffffffffff88166024820152735C9142886C74b255F5C5Fb573034248C0160C47C90636c5db8439060440160606040518083038186803b15801561109957600080fd5b505af41580156110ad573d6000803e3d6000fd5b505050506040513d601f19601f820116820180604052508101906110d19190613351565b91975095509350337f8a73e656799f8fbd4ea08e9420225176f98f85ef9a2a11a5a011580b65c8f14588886111046124f3565b5461110d6124f3565b600301548a8a60405161112596959493929190613388565b60405180910390a25050509250925092565b6000735C9142886C74b255F5C5Fb573034248C0160C47C63614152b96040518163ffffffff1660e01b815260040160206040518083038186803b1580156105f857600080fd5b60006111876124f3565b60050160006111946124f3565b60030154815260208101919091526040016000205460ff1680156111bd57506111bb6117d9565b155b801561063057506111cc6124f3565b60020154421015905090565b60006111e26124f3565b54919050565b60006111f26124f3565b60040160006111ff6124f3565b60030154815260200190815260200160002054905090565b600080735C9142886C74b255F5C5Fb573034248C0160C47C63614152b96040518163ffffffff1660e01b815260040160206040518083038186803b15801561125e57600080fd5b505af4158015611272573d6000803e3d6000fd5b505050506040513d601f19601f820116820180604052508101906112969190613001565b90506000735C9142886C74b255F5C5Fb573034248C0160C47C63e2afb0416040518163ffffffff1660e01b815260040160206040518083038186803b1580156112de57600080fd5b505af41580156112f2573d6000803e3d6000fd5b505050506040513d601f19601f820116820180604052508101906113169190613001565b905061132d600261132783856133c7565b906126c5565b9250505090565b60006202a3006113426124f3565b6002015461135091906133df565b42101580156106305750610e106113656124f3565b6002015461137391906133df565b4210905090565b604051633e710cd560e11b815265ffffffffffff8216600482015260009081908190819081908190735C9142886C74b255F5C5Fb573034248C0160C47C90637ce219aa9060240160c06040518083038186803b1580156113d957600080fd5b505af41580156113ed573d6000803e3d6000fd5b505050506040513d601f19601f8201168201806040525081019061141191906133f6565b949c939b5091995097509550909350915050565b600080611430612b0b565b611438612b0b565b611440612274565b611449336121a8565b6114655760405162461bcd60e51b815260040161059f90612fca565b61146d611968565b6114b95760405162461bcd60e51b815260206004820152601960248201527f4e6f7420696e2074686520497461796f736520706572696f6400000000000000604482015260640161059f565b6000735C9142886C74b255F5C5Fb573034248C0160C47C636a2c42746040518163ffffffff1660e01b8152600401604080518083038186803b1580156114fe57600080fd5b505af4158015611512573d6000803e3d6000fd5b505050506040513d601f19601f820116820180604052508101906115369190613456565b9095509050801561175f57604080518082019091526000808252600160208301525b6002811015611707576000806000806000735C9142886C74b255F5C5Fb573034248C0160C47C6363978ac888886002811061159557611595613035565b60200201518a60006040518463ffffffff1660e01b81526004016115bb93929190612dde565b60e06040518083038186803b1580156115d357600080fd5b505af41580156115e7573d6000803e3d6000fd5b505050506040513d601f19601f8201168201806040525081019061160b919061347a565b509550955095509550505060008111156116ef57600087876002811061163357611633613035565b6020020151600181111561164957611649612da6565b1415611672576001600160a01b0383168952602089018290526040890181905260019450611691565b6001600160a01b0383168a5260208a0182905260408a01819052600094505b6116996124f3565b546001600160a01b0384167f8bcbbabac98864c9065ec271b0b9bcd1cbcb0df90dc0bacb3dfd7542df8eb1d486886116cf6124f3565b6003015487876040516116e69594939291906134e4565b60405180910390a35b505050505080806116ff906130ec565b915050611558565b507fdb070045d659ddca1851a8cf1181cfd454167280ce233e2411721eda429248ff6117316124f3565b5461173a6124f3565b60030154604080519283526020830191909152810188905260600160405180910390a1505b60016117696124f3565b60050160006117766124f3565b6003015481526020810191909152604001600020805460ff1916911515919091179055846117a26124f3565b60040160006117af6124f3565b6003015481526020810191909152604001600020556117cc6124f3565b6002015493505090919293565b60006117e36124f3565b60030154421015905090565b604051638152b17360e01b81526001600160a01b03821660048201526060908190735C9142886C74b255F5C5Fb573034248C0160C47C90638152b173906024015b60006040518083038186803b15801561184857600080fd5b505af415801561185c573d6000803e3d6000fd5b505050506040513d6000823e601f3d908101601f19168201604052611884919081019061351c565b9094909350915050565b60006118986117d9565b6118dc5760405162461bcd60e51b815260206004820152601560248201527413585c9ad95d081a5cc81b9bdd081b585d1d5c9959605a1b604482015260640161059f565b6118e5336121a8565b6119015760405162461bcd60e51b815260040161059f90612fca565b6119096124f3565b600301549050826119186124f3565b60030155816119256124f3565b6002015560408051848152602081018390527ffa1e4c93514398092ad307a4842a760bacdd4ff71b27d486bcdc636d9249db34910160405180910390a192915050565b6000610e106119756124f3565b6002015461198391906133df565b421015801561063057506119956124f3565b60050160006119a26124f3565b60030154815260208101919091526040016000205460ff1615905090565b6119c9336121a8565b6119e55760405162461bcd60e51b815260040161059f90612fca565b6105b0612736565b60006119f76124f3565b6005016000611a046124f3565b60030154815260208101919091526040016000205460ff16919050565b60005462010000900460ff1615808015611a465750600054600161010090910460ff16105b80611a665750303b158015611a66575060005460ff610100909104166001145b611ac95760405162461bcd60e51b815260206004820152602e60248201527f496e697469616c697a61626c653a20636f6e747261637420697320616c72656160448201526d191e481a5b9a5d1a585b1a5e995960921b606482015260840161059f565b6000805461ff0019166101001790558015611af0576000805462ff00001916620100001790555b6000611afa612773565b6001600160a01b03161415611b5d5760405162461bcd60e51b815260206004820152602360248201527f4d7573742062652063616c6c65642066726f6d20626561636f6e20636f6e74726044820152621858dd60ea1b606482015260840161059f565b611b668561279b565b83611b6f6124f3565b5582611b796124f3565b6003015581611b866124f3565b60020155611b96610e10836133df565b4210611bd7576001611ba66124f3565b6005016000611bb36124f3565b6003015481526020810191909152604001600020805460ff19169115159190911790555b611bdf6107ee565b8015611c26576000805462ff000019169055604051600181527f7f26b83ff96e1f2b6a682f133852f6798a09c465da95921460cefb38474024989060200160405180910390a15b5050505050565b60405163bcc012ad60e01b81526001600160a01b03821660048201526060908190735C9142886C74b255F5C5Fb573034248C0160C47C9063bcc012ad90602401611830565b600080611c7d612b0b565b6000611c87612274565b611c90336121a8565b611cac5760405162461bcd60e51b815260040161059f90612fca565b611cb461117d565b611cf75760405162461bcd60e51b815260206004820152601460248201527313585c9ad95d081a5cc81b9bdd081bdc195b995960621b604482015260640161059f565b60008711611d425760405162461bcd60e51b815260206004820152601860248201527710d85b89dd081c1b1858d948195b5c1d1e48185b5bdd5b9d60421b604482015260640161059f565b611d4b886122ba565b6000861580611e72575060008a6001811115611d6957611d69612da6565b14611df25786735C9142886C74b255F5C5Fb573034248C0160C47C63e2afb0416040518163ffffffff1660e01b815260040160206040518083038186803b158015611db357600080fd5b505af4158015611dc7573d6000803e3d6000fd5b505050506040513d601f19601f82011682018060405250810190611deb9190613001565b1015611e72565b86735C9142886C74b255F5C5Fb573034248C0160C47C63614152b96040518163ffffffff1660e01b815260040160206040518083038186803b158015611e3757600080fd5b505af4158015611e4b573d6000803e3d6000fd5b505050506040513d601f19601f82011682018060405250810190611e6f9190613001565b11155b90508015611e9657611e878a8a8a8a8a612830565b92975090955093509150611eaa565b611ea58a8a8a8a6000806123f5565b508791505b5095509550955095915050565b6060806060735C9142886C74b255F5C5Fb573034248C0160C47C63d866d355856040518263ffffffff1660e01b8152600401610de591815260200190565b6000611eff6124f3565b60020154905090565b6000611f126124f3565b60030154905090565b604051631c7b209b60e31b81526001600160a01b0382166004820152600090819081908190735C9142886C74b255F5C5Fb573034248C0160C47C9063e3d904d8906024015b60806040518083038186803b158015611f7857600080fd5b505af4158015611f8c573d6000803e3d6000fd5b505050506040513d601f19601f82011682018060405250810190611fb09190613580565b93509350935093509193509193565b6040516339f7dda360e21b81526001600160a01b0382166004820152600090819081908190735C9142886C74b255F5C5Fb573034248C0160C47C9063e7df768c90602401611f60565b61204d6040518060e001604052806000801916815260200160008152602001600081526020016000815260200160008152602001600081526020016000151581525090565b6040518060e001604052806120606124f3565b54815260200161206e6124f3565b60030154815260200161207f6124f3565b600201548152602001735C9142886C74b255F5C5Fb573034248C0160C47C63614152b96040518163ffffffff1660e01b815260040160206040518083038186803b1580156120cc57600080fd5b505af41580156120e0573d6000803e3d6000fd5b505050506040513d601f19601f820116820180604052508101906121049190613001565b8152602001735C9142886C74b255F5C5Fb573034248C0160C47C63e2afb0416040518163ffffffff1660e01b815260040160206040518083038186803b15801561214d57600080fd5b505af4158015612161573d6000803e3d6000fd5b505050506040513d601f19601f820116820180604052508101906121859190613001565b8152602001612192611217565b815260200161219f6119ed565b15159052919050565b6000806121b3610b01565b905060005b8151811015612218576121e38282815181106121d6576121d6613035565b6020026020010151612a1f565b6001600160a01b0316846001600160a01b03161415612206575060019392505050565b80612210816130ec565b9150506121b8565b5060009392505050565b61222a612a2a565b6000805460ff191690557f5db9ee0a495bf2e6ff9c91a7834c1ba4fdd244a5e8aa4e537bd38aeae4b073aa335b6040516001600160a01b03909116815260200160405180910390a1565b60005460ff16156105b05760405162461bcd60e51b815260206004820152601060248201526f14185d5cd8589b194e881c185d5cd95960821b604482015260640161059f565b60006122c46124f3565b6001600160a01b0383166000908152600891909101602052604090205490506122eb6124f3565b6003015481148061236257506122ff6124f3565b60030154811415801561233457506123156124f3565b6001600160a01b03831660009081526006919091016020526040902054155b801561236257506123436124f3565b6001600160a01b03831660009081526007919091016020526040902054155b6123ae5760405162461bcd60e51b815260206004820152601d60248201527f4f7264657220666f756e6420696e2070617374206d617475726974792e000000604482015260640161059f565b6123b66124f3565b600301548114610997576123c86124f3565b600301546123d46124f3565b6001600160a01b038416600090815260089190910160205260409020555050565b604051631b4269f560e11b8152600090735C9142886C74b255F5C5Fb573034248C0160C47C90633684d3ea90612437908a908a908a908a908a906004016135b6565b60206040518083038186803b15801561244f57600080fd5b505af4158015612463573d6000803e3d6000fd5b505050506040513d601f19601f8201168201806040525081019061248791906135f2565b9050856001600160a01b03167f0e334d2db0839cda8370e6b1f20682e64bbd2be77e8a2f8a3c55f99b868142ba82848a6124bf6124f3565b546124c86124f3565b600301548b8b6040516124e1979695949392919061360f565b60405180910390a29695505050505050565b7ffc2836757f9146445fc75bc3c897a210ec004e4ee60fc8627ef5cbf2842b3d0a90565b6000806000612524612b0b565b604051634e50b4a960e11b8152600090735C9142886C74b255F5C5Fb573034248C0160C47C90639ca1695290612560908b908a9060040161301a565b60e06040518083038186803b15801561257857600080fd5b505af415801561258c573d6000803e3d6000fd5b505050506040513d601f19601f820116820180604052508101906125b09190613657565b604089015260208801526001600160a01b0390811687529398509196509450915087167fc04a2a96be20651da4fad0b7590bfd81e9bff0ad9c86556c936423baaf1e3e80896125fd6124f3565b546126066124f3565b6003015488600089604051612620969594939291906136c1565b60405180910390a26040820151156126bb5761263a6124f3565b5482516001600160a01b03167f8bcbbabac98864c9065ec271b0b9bcd1cbcb0df90dc0bacb3dfd7542df8eb1d48360008c600181111561267c5761267c612da6565b1461268857600061268b565b60015b6126936124f3565b60030154876020015188604001516040516126b29594939291906134e4565b60405180910390a35b5093509350935093565b60008082116126d357600080fd5b60056126df83856136f7565b6126ea90600a613719565b836126f686600a613719565b61270091906136f7565b61270a91906133df565b10156127215761271a82846136f7565b90506106c4565b61272b82846136f7565b61271a9060016133c7565b61273e612274565b6000805460ff191660011790557f62e78cea01bee320cd4e420270b5ea74000d11b0c9f74754ebdbfc544b05a2586122573390565b60007fa3f0ad74e5423aebfd80d3ef4346578335a9a72aeaee59ff6cb3582b35133d5061056b565b60008051602061374c833981519152546001600160a01b0316156128015760405162461bcd60e51b815260206004820152601b60248201527f7265736f6c766572207265676973746572656420616c72656164790000000000604482015260640161059f565b60008051602061374c83398151915280546001600160a01b0319166001600160a01b0392909216919091179055565b60008061283b612b0b565b600080735C9142886C74b255F5C5Fb573034248C0160C47C6363978ac88b8a8a6040518463ffffffff1660e01b815260040161287993929190612dde565b60e06040518083038186803b15801561289157600080fd5b505af41580156128a5573d6000803e3d6000fd5b505050506040513d601f19601f820116820180604052508101906128c9919061347a565b60408a019190915260208901919091526001600160a01b03918216885293985091965091935090915089167fc04a2a96be20651da4fad0b7590bfd81e9bff0ad9c86556c936423baaf1e3e808b61291e6124f3565b546129276124f3565b60030154612935878e6133df565b8c8a604051612949969594939291906136c1565b60405180910390a26040830151156129e4576129636124f3565b5483516001600160a01b03167f8bcbbabac98864c9065ec271b0b9bcd1cbcb0df90dc0bacb3dfd7542df8eb1d48360008e60018111156129a5576129a5612da6565b146129b15760006129b4565b60015b6129bc6124f3565b60030154886020015189604001516040516129db9594939291906134e4565b60405180910390a35b6000821180156129f357508615155b80156129fd575085155b15611eaa57612a118a8a848a6000806123f5565b505095509550955095915050565b60006106c482612a73565b60005460ff166105b05760405162461bcd60e51b815260206004820152601460248201527314185d5cd8589b194e881b9bdd081c185d5cd95960621b604482015260640161059f565b60008181527f4abde63c3e81aefa5764b017968bc473e83e093d7e1a10247d19e0a3e41240196020908152604080832054815170026b4b9b9b4b7339030b2323932b9b99d1607d1b9381019390935260318084018690528251808503909101815260519093019091526001600160a01b03169081612b045760405162461bcd60e51b815260040161059f9190613738565b5092915050565b604051806060016040528060006001600160a01b0316815260200160008152602001600081525090565b60028110612b4257600080fd5b50565b60008060408385031215612b5857600080fd5b8235612b6381612b35565b946020939093013593505050565b6001600160a01b0381168114612b4257600080fd5b60008060008060808587031215612b9c57600080fd5b8435612ba781612b35565b93506020850135612bb781612b71565b93969395505050506040820135916060013590565b6020808252825182820181905260009190848201906040850190845b81811015612c0457835183529284019291840191600101612be8565b50909695505050505050565b600060208284031215612c2257600080fd5b8135612c2d81612b71565b9392505050565b600060208284031215612c4657600080fd5b5035919050565b600081518084526020808501945080840160005b83811015612c7d57815187529582019590820190600101612c61565b509495945050505050565b606081526000612c9b6060830186612c4d565b8281036020840152612cad8186612c4d565b90508281036040840152612cc18185612c4d565b9695505050505050565b600080600060608486031215612ce057600080fd5b8335612ceb81612b35565b92506020840135612cfb81612b71565b929592945050506040919091013590565b80516001600160a01b0316825260208082015190830152604090810151910152565b848152602081018490526040810183905260c08101612d506060830184612d0c565b95945050505050565b65ffffffffffff81168114612b4257600080fd5b60008060408385031215612d8057600080fd5b8235612d8b81612b71565b91506020830135612d9b81612d59565b809150509250929050565b634e487b7160e01b600052602160045260246000fd5b60028110612dda57634e487b7160e01b600052602160045260246000fd5b9052565b60608101612dec8286612dbc565b602082019390935260400152919050565b600060208284031215612e0f57600080fd5b8135612c2d81612d59565b60c08101612e288289612dbc565b602082019690965260408101949094526001600160a01b03929092166060840152608083015260a090910152919050565b848152602081018490526101008101612e756040830185612d0c565b612d5060a0830184612d0c565b600081518084526020808501945080840160005b83811015612c7d57815165ffffffffffff1687529582019590820190600101612e96565b604081526000612ecd6040830185612e82565b8281036020840152612d508185612e82565b60008060408385031215612ef257600080fd5b50508035926020909101359150565b60008060008060808587031215612f1757600080fd5b8435612f2281612b71565b966020860135965060408601359560600135945092505050565b600080600080600060a08688031215612f5457600080fd5b8535612f5f81612b35565b94506020860135612f6f81612b71565b9350604086013592506060860135915060808601358015158114612f9257600080fd5b809150509295509295909350565b8481526020810184905260c08101612fbb6040830185612d0c565b8260a083015295945050505050565b60208082526017908201527f4f6e6c7920416363657074656420436f6e747261637473000000000000000000604082015260600190565b60006020828403121561301357600080fd5b5051919050565b604081016130288285612dbc565b8260208301529392505050565b634e487b7160e01b600052603260045260246000fd5b6000815180845260005b8181101561307157602081850181015186830182015201613055565b81811115613083576000602083870101525b50601f01601f19169290920160200192915050565b8281526040602082015260006130b1604083018461304b565b949350505050565b6000602082840312156130cb57600080fd5b8151612c2d81612b71565b634e487b7160e01b600052601160045260246000fd5b6000600019821415613100576131006130d6565b5060010190565b634e487b7160e01b600052604160045260246000fd5b604051601f8201601f1916810167ffffffffffffffff8111828210171561314657613146613107565b604052919050565b600067ffffffffffffffff82111561316857613168613107565b5060051b60200190565b600082601f83011261318357600080fd5b815160206131986131938361314e565b61311d565b82815260059290921b840181019181810190868411156131b757600080fd5b8286015b848110156131db5780516131ce81612d59565b83529183019183016131bb565b509695505050505050565b600080600080608085870312156131fc57600080fd5b845167ffffffffffffffff81111561321357600080fd5b61321f87828801613172565b6020870151604088015160609098015191999098509095509350505050565b6060815260006132516060830186612e82565b90506132606020830185612dbc565b826040830152949350505050565b600082601f83011261327f57600080fd5b8151602061328f6131938361314e565b82815260059290921b840181019181810190868411156132ae57600080fd5b8286015b848110156131db57805183529183019183016132b2565b6000806000606084860312156132de57600080fd5b835167ffffffffffffffff808211156132f657600080fd5b6133028783880161326e565b9450602086015191508082111561331857600080fd5b6133248783880161326e565b9350604086015191508082111561333a57600080fd5b506133478682870161326e565b9150509250925092565b60008060006060848603121561336657600080fd5b835161337181612b35565b602085015160409095015190969495509392505050565b65ffffffffffff8716815260c081016133a46020830188612dbc565b8560408301528460608301528360808301528260a0830152979650505050505050565b600082198211156133da576133da6130d6565b500190565b6000828210156133f1576133f16130d6565b500390565b60008060008060008060c0878903121561340f57600080fd5b865161341a81612b35565b809650506020870151945060408701519350606087015161343a81612b71565b809350506080870151915060a087015190509295509295509295565b6000806040838503121561346957600080fd5b505080516020909101519092909150565b600080600080600080600060e0888a03121561349557600080fd5b875196506020880151955060408801516134ae81612d59565b60608901519095506134bf81612b71565b809450506080880151925060a0880151915060c0880151905092959891949750929550565b65ffffffffffff8616815260a081016135006020830187612dbc565b8460408301528360608301528260808301529695505050505050565b6000806040838503121561352f57600080fd5b825167ffffffffffffffff8082111561354757600080fd5b61355386838701613172565b9350602085015191508082111561356957600080fd5b5061357685828601613172565b9150509250929050565b6000806000806080858703121561359657600080fd5b505082516020840151604085015160609095015191969095509092509050565b60a081016135c48288612dbc565b6001600160a01b03959095166020820152604081019390935260608301919091521515608090910152919050565b60006020828403121561360457600080fd5b8151612c2d81612d59565b65ffffffffffff88811682528716602082015260e081016136336040830188612dbc565b8560608301528460808301528360a08301528260c083015298975050505050505050565b600080600080600080600060e0888a03121561367257600080fd5b875196506020880151955060408801519450606088015161369281612d59565b60808901519094506136a381612b71565b8093505060a0880151915060c0880151905092959891949750929550565b60c081016136cf8289612dbc565b602082019690965260408101949094526060840192909252608083015260a090910152919050565b60008261371457634e487b7160e01b600052601260045260246000fd5b500490565b6000816000190483118215151615613733576137336130d6565b500290565b6020815260006106c1602083018461304b56fe4abde63c3e81aefa5764b017968bc473e83e093d7e1a10247d19e0a3e4124018a2646970667358221220846b860530ab9bdc3afc66bb3b0e2eaa86c61429db616f084b103572a8b35a6f64736f6c63430008090033",
  "deployedBytecode": "0x608060405234801561001057600080fd5b50600436106102275760003560e01c80637c6cd94d11610130578063b7c1d527116100b8578063e0dbc76e1161007c578063e0dbc76e146104a3578063e16695b5146104ab578063e3d904d8146104b3578063e7df768c146104e6578063f1be1679146104f957600080fd5b8063b7c1d52714610447578063bcc012ad1461045a578063cd4a1c141461046d578063d866d35514610490578063e0997659146102b757600080fd5b80638152b173116100ff5780638152b173146103fb57806386e613a01461041c5780639d6529071461042f578063a03738dc14610437578063a094a0311461043f57600080fd5b80637c6cd94d146103ae5780637ce219aa146103b65780637e706938146103db5780637f2b6a0d146103f357600080fd5b80634bf62d16116101b35780635e0b54da116101825780635e0b54da14610386578063692aa97e1461038e5780636945c1fd146103965780636a2c42741461039e57806371613c2d146103a657600080fd5b80634bf62d16146103145780634c2afa2e14610336578063504b89bd146103595780635c975abb1461037b57600080fd5b806328378aab116101fa57806328378aab1461028457806329985e5a146102975780632af64bd31461029f5780633d03b9da146102b75780633d4eccdf146102cc57600080fd5b806304f3bcec1461022c5780631610c7ce146102515780631b3508b71461025b5780631e007d1d14610271575b600080fd5b610234610559565b6040516001600160a01b0390911681526020015b60405180910390f35b61025961057a565b005b6102636105b2565b604051908152602001610248565b61026361027f366004612b45565b610635565b610259610292366004612b86565b6106ca565b6102596107ee565b6102a761099b565b6040519015158152602001610248565b6102bf610b01565b6040516102489190612bcc565b6102df6102da366004612c10565b610b66565b604080519788526020880196909652948601939093526060850191909152608084015260a083015260c082015260e001610248565b610327610322366004612c34565b610da7565b60405161024893929190612c88565b610349610344366004612ccb565b610e46565b6040516102489493929190612d2e565b61036c610367366004612d6d565b610f45565b60405161024893929190612dde565b60005460ff166102a7565b610263611137565b6102a761117d565b6102636111d8565b6102636111e8565b610263611217565b6102a7611334565b6103c96103c4366004612dfd565b61137a565b60405161024896959493929190612e1a565b6103e3611425565b6040516102489493929190612e59565b6102a76117d9565b61040e610409366004612c10565b6117ef565b604051610248929190612eba565b61026361042a366004612edf565b61188e565b6102a7611968565b6102596119c0565b6102a76119ed565b610259610455366004612f01565b611a21565b61040e610468366004612c10565b611c2d565b61048061047b366004612f3c565b611c72565b6040516102489493929190612fa0565b61032761049e366004612c34565b611eb7565b610263611ef5565b610263611f08565b6104c66104c1366004612c10565b611f1b565b604080519485526020850193909352918301526060820152608001610248565b6104c66104f4366004612c10565b611fbf565b610501612008565b6040516102489190600060e082019050825182526020830151602083015260408301516040830152606083015160608301526080830151608083015260a083015160a083015260c0830151151560c083015292915050565b600060008051602061374c8339815191525b546001600160a01b0316919050565b610583336121a8565b6105a85760405162461bcd60e51b815260040161059f90612fca565b60405180910390fd5b6105b0612222565b565b600073__$a34264682c70740163cb4ccc2812b693c5$__63e2afb0416040518163ffffffff1660e01b815260040160206040518083038186803b1580156105f857600080fd5b505af415801561060c573d6000803e3d6000fd5b505050506040513d601f19601f820116820180604052508101906106309190613001565b905090565b604051637d3093d560e11b815260009073__$a34264682c70740163cb4ccc2812b693c5$__9063fa6127aa90610671908690869060040161301a565b60206040518083038186803b15801561068957600080fd5b505af415801561069d573d6000803e3d6000fd5b505050506040513d601f19601f820116820180604052508101906106c19190613001565b90505b92915050565b6106d2612274565b6106db336121a8565b6106f75760405162461bcd60e51b815260040161059f90612fca565b6106ff611334565b61074b5760405162461bcd60e51b815260206004820152601b60248201527f4e6f7420696e20746865207072652d6f7264657220706572696f640000000000604482015260640161059f565b600082116107965760405162461bcd60e51b815260206004820152601860248201527710d85b89dd081c1b1858d948195b5c1d1e48185b5bdd5b9d60421b604482015260640161059f565b61079f836122ba565b60006107b0858585856000806123f5565b905060016107bc6124f3565b65ffffffffffff929092166000908152600a9092016020526040909120805460ff191691151591909117905550505050565b60006107f8610b01565b905060005b815181101561099757600082828151811061081a5761081a613035565b60200260200101519050600061083b60008051602061374c83398151915290565b54604080517f5265736f6c766572206d697373696e67207461726765743a200000000000000060208201526039808201869052825180830390910181526059820192839052636795dbcd60e01b9092526001600160a01b0390921691636795dbcd916108ac91869190605d01613098565b60206040518083038186803b1580156108c457600080fd5b505afa1580156108d8573d6000803e3d6000fd5b505050506040513d601f19601f820116820180604052508101906108fc91906130b9565b60008381527f4abde63c3e81aefa5764b017968bc473e83e093d7e1a10247d19e0a3e4124019602090815260409182902080546001600160a01b0319166001600160a01b03851690811790915582518681529182015281519293507f88a93678a3692f6789d9546fc621bf7234b101ddb7d4fe479455112831b8aa68929081900390910190a15050808061098f906130ec565b9150506107fd565b5050565b6000806109a6610b01565b905060005b8151811015610af85760008282815181106109c8576109c8613035565b602002602001015190506109e760008051602061374c83398151915290565b600082815260019190910160205260409020546001600160a01b031660008051602061374c833981519152546040516321f8a72160e01b8152600481018490526001600160a01b03909116906321f8a7219060240160206040518083038186803b158015610a5457600080fd5b505afa158015610a68573d6000803e3d6000fd5b505050506040513d601f19601f82011682018060405250810190610a8c91906130b9565b6001600160a01b0316141580610ad6575060008181527f4abde63c3e81aefa5764b017968bc473e83e093d7e1a10247d19e0a3e412401960205260409020546001600160a01b0316155b15610ae5576000935050505090565b5080610af0816130ec565b9150506109ab565b50600191505090565b604080516001808252818301909252606091602080830190803683370190505090507f4c656e64696e674d61726b6574436f6e74726f6c6c657200000000000000000081600081518110610b5757610b57613035565b60200260200101818152505090565b6000806000806000806000610b796124f3565b6001600160a01b038916600081815260089290920160205260409182902054915163914551f160e01b8152600481019190915260248101829052909150606090819073__$a34264682c70740163cb4ccc2812b693c5$__9063914551f19060440160006040518083038186803b158015610bf257600080fd5b505af4158015610c06573d6000803e3d6000fd5b505050506040513d6000823e601f3d908101601f19168201604052610c2e91908101906131e6565b604051634a53967b60e01b81526001600160a01b038f16600482015260248101889052929c50909950965090925073__$a34264682c70740163cb4ccc2812b693c5$__90634a53967b9060440160006040518083038186803b158015610c9357600080fd5b505af4158015610ca7573d6000803e3d6000fd5b505050506040513d6000823e601f3d908101601f19168201604052610ccf91908101906131e6565b919a509750945090508415610d3957610ce66124f3565b546001600160a01b038b167ffba0ebcbd5c3adaf135b8956666cd643ded961350fd5a61526d7fb0c637f709c846000610d1d6124f3565b60030154604051610d309392919061323e565b60405180910390a35b8315610d9a57610d476124f3565b546001600160a01b038b167ffba0ebcbd5c3adaf135b8956666cd643ded961350fd5a61526d7fb0c637f709c836001610d7e6124f3565b60030154604051610d919392919061323e565b60405180910390a35b5050919395979092949650565b606080606073__$a34264682c70740163cb4ccc2812b693c5$__634bf62d16856040518263ffffffff1660e01b8152600401610de591815260200190565b60006040518083038186803b158015610dfd57600080fd5b505af4158015610e11573d6000803e3d6000fd5b505050506040513d6000823e601f3d908101601f19168201604052610e3991908101906132c9565b9250925092509193909250565b6000806000610e53612b0b565b610e5b612274565b610e64336121a8565b610e805760405162461bcd60e51b815260040161059f90612fca565b610e8861117d565b610ecb5760405162461bcd60e51b815260206004820152601460248201527313585c9ad95d081a5cc81b9bdd081bdc195b995960621b604482015260640161059f565b60008511610f295760405162461bcd60e51b815260206004820152602560248201527f43616e277420706c61636520656d707479206675747572652076616c756520616044820152641b5bdd5b9d60da1b606482015260840161059f565b610f34878787612517565b935093509350935093509350935093565b600080600084846000610f578261137a565b509094505050506001600160a01b03821615159050610faa5760405162461bcd60e51b815260206004820152600f60248201526e13dc99195c881b9bdd08199bdd5b99608a1b604482015260640161059f565b806001600160a01b0316836001600160a01b03161461100b5760405162461bcd60e51b815260206004820152601760248201527f43616c6c6572206973206e6f7420746865206d616b6572000000000000000000604482015260640161059f565b611013612274565b61101c336121a8565b6110385760405162461bcd60e51b815260040161059f90612fca565b604051636c5db84360e01b81526001600160a01b038916600482015265ffffffffffff8816602482015273__$a34264682c70740163cb4ccc2812b693c5$__90636c5db8439060440160606040518083038186803b15801561109957600080fd5b505af41580156110ad573d6000803e3d6000fd5b505050506040513d601f19601f820116820180604052508101906110d19190613351565b91975095509350337f8a73e656799f8fbd4ea08e9420225176f98f85ef9a2a11a5a011580b65c8f14588886111046124f3565b5461110d6124f3565b600301548a8a60405161112596959493929190613388565b60405180910390a25050509250925092565b600073__$a34264682c70740163cb4ccc2812b693c5$__63614152b96040518163ffffffff1660e01b815260040160206040518083038186803b1580156105f857600080fd5b60006111876124f3565b60050160006111946124f3565b60030154815260208101919091526040016000205460ff1680156111bd57506111bb6117d9565b155b801561063057506111cc6124f3565b60020154421015905090565b60006111e26124f3565b54919050565b60006111f26124f3565b60040160006111ff6124f3565b60030154815260200190815260200160002054905090565b60008073__$a34264682c70740163cb4ccc2812b693c5$__63614152b96040518163ffffffff1660e01b815260040160206040518083038186803b15801561125e57600080fd5b505af4158015611272573d6000803e3d6000fd5b505050506040513d601f19601f820116820180604052508101906112969190613001565b9050600073__$a34264682c70740163cb4ccc2812b693c5$__63e2afb0416040518163ffffffff1660e01b815260040160206040518083038186803b1580156112de57600080fd5b505af41580156112f2573d6000803e3d6000fd5b505050506040513d601f19601f820116820180604052508101906113169190613001565b905061132d600261132783856133c7565b906126c5565b9250505090565b60006202a3006113426124f3565b6002015461135091906133df565b42101580156106305750610e106113656124f3565b6002015461137391906133df565b4210905090565b604051633e710cd560e11b815265ffffffffffff821660048201526000908190819081908190819073__$a34264682c70740163cb4ccc2812b693c5$__90637ce219aa9060240160c06040518083038186803b1580156113d957600080fd5b505af41580156113ed573d6000803e3d6000fd5b505050506040513d601f19601f8201168201806040525081019061141191906133f6565b949c939b5091995097509550909350915050565b600080611430612b0b565b611438612b0b565b611440612274565b611449336121a8565b6114655760405162461bcd60e51b815260040161059f90612fca565b61146d611968565b6114b95760405162461bcd60e51b815260206004820152601960248201527f4e6f7420696e2074686520497461796f736520706572696f6400000000000000604482015260640161059f565b600073__$a34264682c70740163cb4ccc2812b693c5$__636a2c42746040518163ffffffff1660e01b8152600401604080518083038186803b1580156114fe57600080fd5b505af4158015611512573d6000803e3d6000fd5b505050506040513d601f19601f820116820180604052508101906115369190613456565b9095509050801561175f57604080518082019091526000808252600160208301525b600281101561170757600080600080600073__$a34264682c70740163cb4ccc2812b693c5$__6363978ac888886002811061159557611595613035565b60200201518a60006040518463ffffffff1660e01b81526004016115bb93929190612dde565b60e06040518083038186803b1580156115d357600080fd5b505af41580156115e7573d6000803e3d6000fd5b505050506040513d601f19601f8201168201806040525081019061160b919061347a565b509550955095509550505060008111156116ef57600087876002811061163357611633613035565b6020020151600181111561164957611649612da6565b1415611672576001600160a01b0383168952602089018290526040890181905260019450611691565b6001600160a01b0383168a5260208a0182905260408a01819052600094505b6116996124f3565b546001600160a01b0384167f8bcbbabac98864c9065ec271b0b9bcd1cbcb0df90dc0bacb3dfd7542df8eb1d486886116cf6124f3565b6003015487876040516116e69594939291906134e4565b60405180910390a35b505050505080806116ff906130ec565b915050611558565b507fdb070045d659ddca1851a8cf1181cfd454167280ce233e2411721eda429248ff6117316124f3565b5461173a6124f3565b60030154604080519283526020830191909152810188905260600160405180910390a1505b60016117696124f3565b60050160006117766124f3565b6003015481526020810191909152604001600020805460ff1916911515919091179055846117a26124f3565b60040160006117af6124f3565b6003015481526020810191909152604001600020556117cc6124f3565b6002015493505090919293565b60006117e36124f3565b60030154421015905090565b604051638152b17360e01b81526001600160a01b0382166004820152606090819073__$a34264682c70740163cb4ccc2812b693c5$__90638152b173906024015b60006040518083038186803b15801561184857600080fd5b505af415801561185c573d6000803e3d6000fd5b505050506040513d6000823e601f3d908101601f19168201604052611884919081019061351c565b9094909350915050565b60006118986117d9565b6118dc5760405162461bcd60e51b815260206004820152601560248201527413585c9ad95d081a5cc81b9bdd081b585d1d5c9959605a1b604482015260640161059f565b6118e5336121a8565b6119015760405162461bcd60e51b815260040161059f90612fca565b6119096124f3565b600301549050826119186124f3565b60030155816119256124f3565b6002015560408051848152602081018390527ffa1e4c93514398092ad307a4842a760bacdd4ff71b27d486bcdc636d9249db34910160405180910390a192915050565b6000610e106119756124f3565b6002015461198391906133df565b421015801561063057506119956124f3565b60050160006119a26124f3565b60030154815260208101919091526040016000205460ff1615905090565b6119c9336121a8565b6119e55760405162461bcd60e51b815260040161059f90612fca565b6105b0612736565b60006119f76124f3565b6005016000611a046124f3565b60030154815260208101919091526040016000205460ff16919050565b60005462010000900460ff1615808015611a465750600054600161010090910460ff16105b80611a665750303b158015611a66575060005460ff610100909104166001145b611ac95760405162461bcd60e51b815260206004820152602e60248201527f496e697469616c697a61626c653a20636f6e747261637420697320616c72656160448201526d191e481a5b9a5d1a585b1a5e995960921b606482015260840161059f565b6000805461ff0019166101001790558015611af0576000805462ff00001916620100001790555b6000611afa612773565b6001600160a01b03161415611b5d5760405162461bcd60e51b815260206004820152602360248201527f4d7573742062652063616c6c65642066726f6d20626561636f6e20636f6e74726044820152621858dd60ea1b606482015260840161059f565b611b668561279b565b83611b6f6124f3565b5582611b796124f3565b6003015581611b866124f3565b60020155611b96610e10836133df565b4210611bd7576001611ba66124f3565b6005016000611bb36124f3565b6003015481526020810191909152604001600020805460ff19169115159190911790555b611bdf6107ee565b8015611c26576000805462ff000019169055604051600181527f7f26b83ff96e1f2b6a682f133852f6798a09c465da95921460cefb38474024989060200160405180910390a15b5050505050565b60405163bcc012ad60e01b81526001600160a01b0382166004820152606090819073__$a34264682c70740163cb4ccc2812b693c5$__9063bcc012ad90602401611830565b600080611c7d612b0b565b6000611c87612274565b611c90336121a8565b611cac5760405162461bcd60e51b815260040161059f90612fca565b611cb461117d565b611cf75760405162461bcd60e51b815260206004820152601460248201527313585c9ad95d081a5cc81b9bdd081bdc195b995960621b604482015260640161059f565b60008711611d425760405162461bcd60e51b815260206004820152601860248201527710d85b89dd081c1b1858d948195b5c1d1e48185b5bdd5b9d60421b604482015260640161059f565b611d4b886122ba565b6000861580611e72575060008a6001811115611d6957611d69612da6565b14611df2578673__$a34264682c70740163cb4ccc2812b693c5$__63e2afb0416040518163ffffffff1660e01b815260040160206040518083038186803b158015611db357600080fd5b505af4158015611dc7573d6000803e3d6000fd5b505050506040513d601f19601f82011682018060405250810190611deb9190613001565b1015611e72565b8673__$a34264682c70740163cb4ccc2812b693c5$__63614152b96040518163ffffffff1660e01b815260040160206040518083038186803b158015611e3757600080fd5b505af4158015611e4b573d6000803e3d6000fd5b505050506040513d601f19601f82011682018060405250810190611e6f9190613001565b11155b90508015611e9657611e878a8a8a8a8a612830565b92975090955093509150611eaa565b611ea58a8a8a8a6000806123f5565b508791505b5095509550955095915050565b606080606073__$a34264682c70740163cb4ccc2812b693c5$__63d866d355856040518263ffffffff1660e01b8152600401610de591815260200190565b6000611eff6124f3565b60020154905090565b6000611f126124f3565b60030154905090565b604051631c7b209b60e31b81526001600160a01b038216600482015260009081908190819073__$a34264682c70740163cb4ccc2812b693c5$__9063e3d904d8906024015b60806040518083038186803b158015611f7857600080fd5b505af4158015611f8c573d6000803e3d6000fd5b505050506040513d601f19601f82011682018060405250810190611fb09190613580565b93509350935093509193509193565b6040516339f7dda360e21b81526001600160a01b038216600482015260009081908190819073__$a34264682c70740163cb4ccc2812b693c5$__9063e7df768c90602401611f60565b61204d6040518060e001604052806000801916815260200160008152602001600081526020016000815260200160008152602001600081526020016000151581525090565b6040518060e001604052806120606124f3565b54815260200161206e6124f3565b60030154815260200161207f6124f3565b60020154815260200173__$a34264682c70740163cb4ccc2812b693c5$__63614152b96040518163ffffffff1660e01b815260040160206040518083038186803b1580156120cc57600080fd5b505af41580156120e0573d6000803e3d6000fd5b505050506040513d601f19601f820116820180604052508101906121049190613001565b815260200173__$a34264682c70740163cb4ccc2812b693c5$__63e2afb0416040518163ffffffff1660e01b815260040160206040518083038186803b15801561214d57600080fd5b505af4158015612161573d6000803e3d6000fd5b505050506040513d601f19601f820116820180604052508101906121859190613001565b8152602001612192611217565b815260200161219f6119ed565b15159052919050565b6000806121b3610b01565b905060005b8151811015612218576121e38282815181106121d6576121d6613035565b6020026020010151612a1f565b6001600160a01b0316846001600160a01b03161415612206575060019392505050565b80612210816130ec565b9150506121b8565b5060009392505050565b61222a612a2a565b6000805460ff191690557f5db9ee0a495bf2e6ff9c91a7834c1ba4fdd244a5e8aa4e537bd38aeae4b073aa335b6040516001600160a01b03909116815260200160405180910390a1565b60005460ff16156105b05760405162461bcd60e51b815260206004820152601060248201526f14185d5cd8589b194e881c185d5cd95960821b604482015260640161059f565b60006122c46124f3565b6001600160a01b0383166000908152600891909101602052604090205490506122eb6124f3565b6003015481148061236257506122ff6124f3565b60030154811415801561233457506123156124f3565b6001600160a01b03831660009081526006919091016020526040902054155b801561236257506123436124f3565b6001600160a01b03831660009081526007919091016020526040902054155b6123ae5760405162461bcd60e51b815260206004820152601d60248201527f4f7264657220666f756e6420696e2070617374206d617475726974792e000000604482015260640161059f565b6123b66124f3565b600301548114610997576123c86124f3565b600301546123d46124f3565b6001600160a01b038416600090815260089190910160205260409020555050565b604051631b4269f560e11b815260009073__$a34264682c70740163cb4ccc2812b693c5$__90633684d3ea90612437908a908a908a908a908a906004016135b6565b60206040518083038186803b15801561244f57600080fd5b505af4158015612463573d6000803e3d6000fd5b505050506040513d601f19601f8201168201806040525081019061248791906135f2565b9050856001600160a01b03167f0e334d2db0839cda8370e6b1f20682e64bbd2be77e8a2f8a3c55f99b868142ba82848a6124bf6124f3565b546124c86124f3565b600301548b8b6040516124e1979695949392919061360f565b60405180910390a29695505050505050565b7ffc2836757f9146445fc75bc3c897a210ec004e4ee60fc8627ef5cbf2842b3d0a90565b6000806000612524612b0b565b604051634e50b4a960e11b815260009073__$a34264682c70740163cb4ccc2812b693c5$__90639ca1695290612560908b908a9060040161301a565b60e06040518083038186803b15801561257857600080fd5b505af415801561258c573d6000803e3d6000fd5b505050506040513d601f19601f820116820180604052508101906125b09190613657565b604089015260208801526001600160a01b0390811687529398509196509450915087167fc04a2a96be20651da4fad0b7590bfd81e9bff0ad9c86556c936423baaf1e3e80896125fd6124f3565b546126066124f3565b6003015488600089604051612620969594939291906136c1565b60405180910390a26040820151156126bb5761263a6124f3565b5482516001600160a01b03167f8bcbbabac98864c9065ec271b0b9bcd1cbcb0df90dc0bacb3dfd7542df8eb1d48360008c600181111561267c5761267c612da6565b1461268857600061268b565b60015b6126936124f3565b60030154876020015188604001516040516126b29594939291906134e4565b60405180910390a35b5093509350935093565b60008082116126d357600080fd5b60056126df83856136f7565b6126ea90600a613719565b836126f686600a613719565b61270091906136f7565b61270a91906133df565b10156127215761271a82846136f7565b90506106c4565b61272b82846136f7565b61271a9060016133c7565b61273e612274565b6000805460ff191660011790557f62e78cea01bee320cd4e420270b5ea74000d11b0c9f74754ebdbfc544b05a2586122573390565b60007fa3f0ad74e5423aebfd80d3ef4346578335a9a72aeaee59ff6cb3582b35133d5061056b565b60008051602061374c833981519152546001600160a01b0316156128015760405162461bcd60e51b815260206004820152601b60248201527f7265736f6c766572207265676973746572656420616c72656164790000000000604482015260640161059f565b60008051602061374c83398151915280546001600160a01b0319166001600160a01b0392909216919091179055565b60008061283b612b0b565b60008073__$a34264682c70740163cb4ccc2812b693c5$__6363978ac88b8a8a6040518463ffffffff1660e01b815260040161287993929190612dde565b60e06040518083038186803b15801561289157600080fd5b505af41580156128a5573d6000803e3d6000fd5b505050506040513d601f19601f820116820180604052508101906128c9919061347a565b60408a019190915260208901919091526001600160a01b03918216885293985091965091935090915089167fc04a2a96be20651da4fad0b7590bfd81e9bff0ad9c86556c936423baaf1e3e808b61291e6124f3565b546129276124f3565b60030154612935878e6133df565b8c8a604051612949969594939291906136c1565b60405180910390a26040830151156129e4576129636124f3565b5483516001600160a01b03167f8bcbbabac98864c9065ec271b0b9bcd1cbcb0df90dc0bacb3dfd7542df8eb1d48360008e60018111156129a5576129a5612da6565b146129b15760006129b4565b60015b6129bc6124f3565b60030154886020015189604001516040516129db9594939291906134e4565b60405180910390a35b6000821180156129f357508615155b80156129fd575085155b15611eaa57612a118a8a848a6000806123f5565b505095509550955095915050565b60006106c482612a73565b60005460ff166105b05760405162461bcd60e51b815260206004820152601460248201527314185d5cd8589b194e881b9bdd081c185d5cd95960621b604482015260640161059f565b60008181527f4abde63c3e81aefa5764b017968bc473e83e093d7e1a10247d19e0a3e41240196020908152604080832054815170026b4b9b9b4b7339030b2323932b9b99d1607d1b9381019390935260318084018690528251808503909101815260519093019091526001600160a01b03169081612b045760405162461bcd60e51b815260040161059f9190613738565b5092915050565b604051806060016040528060006001600160a01b0316815260200160008152602001600081525090565b60028110612b4257600080fd5b50565b60008060408385031215612b5857600080fd5b8235612b6381612b35565b946020939093013593505050565b6001600160a01b0381168114612b4257600080fd5b60008060008060808587031215612b9c57600080fd5b8435612ba781612b35565b93506020850135612bb781612b71565b93969395505050506040820135916060013590565b6020808252825182820181905260009190848201906040850190845b81811015612c0457835183529284019291840191600101612be8565b50909695505050505050565b600060208284031215612c2257600080fd5b8135612c2d81612b71565b9392505050565b600060208284031215612c4657600080fd5b5035919050565b600081518084526020808501945080840160005b83811015612c7d57815187529582019590820190600101612c61565b509495945050505050565b606081526000612c9b6060830186612c4d565b8281036020840152612cad8186612c4d565b90508281036040840152612cc18185612c4d565b9695505050505050565b600080600060608486031215612ce057600080fd5b8335612ceb81612b35565b92506020840135612cfb81612b71565b929592945050506040919091013590565b80516001600160a01b0316825260208082015190830152604090810151910152565b848152602081018490526040810183905260c08101612d506060830184612d0c565b95945050505050565b65ffffffffffff81168114612b4257600080fd5b60008060408385031215612d8057600080fd5b8235612d8b81612b71565b91506020830135612d9b81612d59565b809150509250929050565b634e487b7160e01b600052602160045260246000fd5b60028110612dda57634e487b7160e01b600052602160045260246000fd5b9052565b60608101612dec8286612dbc565b602082019390935260400152919050565b600060208284031215612e0f57600080fd5b8135612c2d81612d59565b60c08101612e288289612dbc565b602082019690965260408101949094526001600160a01b03929092166060840152608083015260a090910152919050565b848152602081018490526101008101612e756040830185612d0c565b612d5060a0830184612d0c565b600081518084526020808501945080840160005b83811015612c7d57815165ffffffffffff1687529582019590820190600101612e96565b604081526000612ecd6040830185612e82565b8281036020840152612d508185612e82565b60008060408385031215612ef257600080fd5b50508035926020909101359150565b60008060008060808587031215612f1757600080fd5b8435612f2281612b71565b966020860135965060408601359560600135945092505050565b600080600080600060a08688031215612f5457600080fd5b8535612f5f81612b35565b94506020860135612f6f81612b71565b9350604086013592506060860135915060808601358015158114612f9257600080fd5b809150509295509295909350565b8481526020810184905260c08101612fbb6040830185612d0c565b8260a083015295945050505050565b60208082526017908201527f4f6e6c7920416363657074656420436f6e747261637473000000000000000000604082015260600190565b60006020828403121561301357600080fd5b5051919050565b604081016130288285612dbc565b8260208301529392505050565b634e487b7160e01b600052603260045260246000fd5b6000815180845260005b8181101561307157602081850181015186830182015201613055565b81811115613083576000602083870101525b50601f01601f19169290920160200192915050565b8281526040602082015260006130b1604083018461304b565b949350505050565b6000602082840312156130cb57600080fd5b8151612c2d81612b71565b634e487b7160e01b600052601160045260246000fd5b6000600019821415613100576131006130d6565b5060010190565b634e487b7160e01b600052604160045260246000fd5b604051601f8201601f1916810167ffffffffffffffff8111828210171561314657613146613107565b604052919050565b600067ffffffffffffffff82111561316857613168613107565b5060051b60200190565b600082601f83011261318357600080fd5b815160206131986131938361314e565b61311d565b82815260059290921b840181019181810190868411156131b757600080fd5b8286015b848110156131db5780516131ce81612d59565b83529183019183016131bb565b509695505050505050565b600080600080608085870312156131fc57600080fd5b845167ffffffffffffffff81111561321357600080fd5b61321f87828801613172565b6020870151604088015160609098015191999098509095509350505050565b6060815260006132516060830186612e82565b90506132606020830185612dbc565b826040830152949350505050565b600082601f83011261327f57600080fd5b8151602061328f6131938361314e565b82815260059290921b840181019181810190868411156132ae57600080fd5b8286015b848110156131db57805183529183019183016132b2565b6000806000606084860312156132de57600080fd5b835167ffffffffffffffff808211156132f657600080fd5b6133028783880161326e565b9450602086015191508082111561331857600080fd5b6133248783880161326e565b9350604086015191508082111561333a57600080fd5b506133478682870161326e565b9150509250925092565b60008060006060848603121561336657600080fd5b835161337181612b35565b602085015160409095015190969495509392505050565b65ffffffffffff8716815260c081016133a46020830188612dbc565b8560408301528460608301528360808301528260a0830152979650505050505050565b600082198211156133da576133da6130d6565b500190565b6000828210156133f1576133f16130d6565b500390565b60008060008060008060c0878903121561340f57600080fd5b865161341a81612b35565b809650506020870151945060408701519350606087015161343a81612b71565b809350506080870151915060a087015190509295509295509295565b6000806040838503121561346957600080fd5b505080516020909101519092909150565b600080600080600080600060e0888a03121561349557600080fd5b875196506020880151955060408801516134ae81612d59565b60608901519095506134bf81612b71565b809450506080880151925060a0880151915060c0880151905092959891949750929550565b65ffffffffffff8616815260a081016135006020830187612dbc565b8460408301528360608301528260808301529695505050505050565b6000806040838503121561352f57600080fd5b825167ffffffffffffffff8082111561354757600080fd5b61355386838701613172565b9350602085015191508082111561356957600080fd5b5061357685828601613172565b9150509250929050565b6000806000806080858703121561359657600080fd5b505082516020840151604085015160609095015191969095509092509050565b60a081016135c48288612dbc565b6001600160a01b03959095166020820152604081019390935260608301919091521515608090910152919050565b60006020828403121561360457600080fd5b8151612c2d81612d59565b65ffffffffffff88811682528716602082015260e081016136336040830188612dbc565b8560608301528460808301528360a08301528260c083015298975050505050505050565b600080600080600080600060e0888a03121561367257600080fd5b875196506020880151955060408801519450606088015161369281612d59565b60808901519094506136a381612b71565b8093505060a0880151915060c0880151905092959891949750929550565b60c081016136cf8289612dbc565b602082019690965260408101949094526060840192909252608083015260a090910152919050565b60008261371457634e487b7160e01b600052601260045260246000fd5b500490565b6000816000190483118215151615613733576137336130d6565b500290565b6020815260006106c1602083018461304b56fe4abde63c3e81aefa5764b017968bc473e83e093d7e1a10247d19e0a3e4124018a2646970667358221220846b860530ab9bdc3afc66bb3b0e2eaa86c61429db616f084b103572a8b35a6f64736f6c63430008090033",
  "libraries": {
    "OrderBookLogic": "0x5C9142886C74b255F5C5Fb573034248C0160C47C"
  },
  "devdoc": {
    "details": "The market orders is stored in structured red-black trees and doubly linked lists in each node.",
    "kind": "dev",
    "methods": {
      "acceptedContracts()": {
        "details": "The contact name listed in this method is also needed to be listed `requiredContracts` method."
      },
      "cancelOrder(address,uint48)": {
        "params": {
          "_orderId": "Market order id",
          "_user": "User address"
        },
        "returns": {
          "removedAmount": "The removed order amount from the order book by canceling",
          "side": "The canceled order position type",
          "unitPrice": "The canceled order unit price"
        }
      },
      "cleanUpOrders(address)": {
        "details": "The order list per user is not updated in real-time when an order is filled. This function removes the filled order from that order list per user to reduce gas costs for lazy evaluation if the collateral is enough or not.",
        "params": {
          "_user": "User address"
        },
        "returns": {
          "activeBorrowOrderCount": "The total amount of active borrow order on the order book",
          "activeLendOrderCount": "The total amount of active lend order on the order book",
          "maturity": "The maturity of the removed orders",
          "removedBorrowOrderAmount": "The total PV amount of the removed borrow order amount from the order book",
          "removedBorrowOrderFutureValue": "The total FV amount of the removed borrow order amount from the order book",
          "removedLendOrderAmount": "The total PV amount of the removed lend order amount from the order book",
          "removedLendOrderFutureValue": "The total FV amount of the removed lend order amount from the order book"
        }
      },
      "createOrder(uint8,address,uint256,uint256,bool)": {
        "params": {
          "_amount": "Amount of funds the maker wants to borrow/lend",
          "_ignoreRemainingAmount": "Boolean for whether to ignore the remaining amount after taking orders",
          "_side": "Order position type, Borrow or Lend",
          "_unitPrice": "Amount of unit price taker wish to borrow/lend",
          "_user": "User's address"
        },
        "returns": {
          "filledFutureValue": "The total FV amount of the filled order on the order book",
          "filledUnitPrice": "Last unit price of the filled order",
          "partiallyFilledOrder": "Partially filled order on the order book",
          "remainingAmount": "The remaining amount that is not filled in the order book"
        }
      },
      "createPreOrder(uint8,address,uint256,uint256)": {
        "params": {
          "_amount": "Amount of funds the maker wants to borrow/lend",
          "_side": "Order position type, Borrow or Lend",
          "_unitPrice": "Amount of unit price taker wish to borrow/lend"
        }
      },
      "estimateFilledAmount(uint8,uint256)": {
        "params": {
          "_futureValue": "Future value amount",
          "_side": "Order position type, Borrow or Lend"
        },
        "returns": {
          "amount": "The estimated amount in the present value that is filled on the order book"
        }
      },
      "executeItayoseCall()": {
        "details": "If the opening date had already passed when this contract was created, this Itayose need not be executed.",
        "returns": {
          "openingDate": "The timestamp when the market opens",
          "openingUnitPrice": "The opening price when Itayose is executed",
          "partiallyFilledBorrowingOrder": "Partially filled borrowing order on the order book",
          "partiallyFilledLendingOrder": "Partially filled lending order on the order book"
        }
      },
      "getBorrowOrderBook(uint256)": {
        "params": {
          "_limit": "Max limit to get unit prices"
        },
        "returns": {
          "unitPrices": "The array of borrow unit prices"
        }
      },
      "getBorrowOrderIds(address)": {
        "params": {
          "_user": "User's address"
        }
      },
      "getBorrowUnitPrice()": {
        "returns": {
          "_0": "The highest borrow price per future value"
        }
      },
      "getCurrency()": {
        "returns": {
          "currency": "The market currency"
        }
      },
      "getLendOrderBook(uint256)": {
        "params": {
          "_limit": "Max limit to get unit prices"
        },
        "returns": {
          "unitPrices": "The array of lending unit prices"
        }
      },
      "getLendOrderIds(address)": {
        "params": {
          "_user": "User's address"
        }
      },
      "getLendUnitPrice()": {
        "returns": {
          "_0": "The lowest lend price per future value"
        }
      },
      "getMarket()": {
        "returns": {
          "market": "The market data"
        }
      },
      "getMaturity()": {
        "returns": {
          "maturity": "The market maturity"
        }
      },
      "getMidUnitPrice()": {
        "returns": {
          "_0": "The mid price per future value"
        }
      },
      "getOpeningDate()": {
        "returns": {
          "openingDate": "The market opening date"
        }
      },
      "getOpeningUnitPrice()": {
        "returns": {
          "openingUnitPrices": "The market opening unit price"
        }
      },
      "getOrder(uint48)": {
        "params": {
          "_orderId": "The market order id"
        },
        "returns": {
          "amount": "Order amount",
          "maker": "The order maker",
          "maturity": "The maturity of the selected order",
          "side": "Order position type, Borrow or Lend",
          "timestamp": "Timestamp when the order was created",
          "unitPrice": "Amount of interest unit price"
        }
      },
      "getTotalAmountFromBorrowOrders(address)": {
        "params": {
          "_user": "User's address"
        },
        "returns": {
          "activeAmount": "The total amount of active order on the order book",
          "inactiveAmount": "The total amount of inactive orders filled on the order book",
          "inactiveFutureValue": "The total future value amount of inactive orders filled on the order book",
          "maturity": "The maturity of market that orders were placed."
        }
      },
      "getTotalAmountFromLendOrders(address)": {
        "params": {
          "_user": "User's address"
        },
        "returns": {
          "activeAmount": "The total amount of active order on the order book",
          "inactiveAmount": "The total amount of inactive orders filled on the order book",
          "inactiveFutureValue": "The total future value amount of inactive orders filled on the order book",
          "maturity": "The maturity of market that orders were placed."
        }
      },
      "initialize(address,bytes32,uint256,uint256)": {
        "details": "Function is invoked by the proxy contract when the contract is added to the ProxyController.",
        "params": {
          "_ccy": "The main currency for the order book",
          "_maturity": "The initial maturity of the market",
          "_openingDate": "The timestamp when the market opens",
          "_resolver": "The address of the Address Resolver contract"
        }
      },
      "isItayosePeriod()": {
        "returns": {
          "_0": "The boolean if the market is under the Itayose period."
        }
      },
      "isMatured()": {
        "returns": {
          "_0": "The boolean if the market is matured or not"
        }
      },
      "isOpened()": {
        "returns": {
          "_0": "The boolean if the market is opened or not"
        }
      },
      "isPreOrderPeriod()": {
        "returns": {
          "_0": "The boolean if the market is under the pre-order period."
        }
      },
      "isReady()": {
        "returns": {
          "_0": "The boolean if the market is ready or not"
        }
      },
      "openMarket(uint256,uint256)": {
        "params": {
          "_maturity": "The new maturity",
          "_openingDate": "The timestamp when the market opens"
        },
        "returns": {
          "prevMaturity": "The previous maturity updated"
        }
      },
      "paused()": {
        "details": "Returns true if the contract is paused, and false otherwise."
      },
      "requiredContracts()": {
        "details": "The contract name list is in `./libraries/Contracts.sol`."
      },
      "unwindOrder(uint8,address,uint256)": {
        "params": {
          "_futureValue": "Amount of future value unwound",
          "_side": "Order position type, Borrow or Lend",
          "_user": "User's address"
        },
        "returns": {
          "filledAmount": "The total amount of the filled order on the order book",
          "filledFutureValue": "The total FV amount of the filled order on the order book",
          "filledUnitPrice": "Last unit price of the filled order",
          "partiallyFilledOrder": "Partially filled order"
        }
      }
    },
    "version": 1
  },
  "userdoc": {
    "kind": "user",
    "methods": {
      "acceptedContracts()": {
        "notice": "Returns contract names that can call this contract."
      },
      "cancelOrder(address,uint48)": {
        "notice": "Cancels the order."
      },
      "cleanUpOrders(address)": {
        "notice": "Cleans up own orders to remove order ids that are already filled on the order book."
      },
      "createOrder(uint8,address,uint256,uint256,bool)": {
        "notice": "Creates the order. Takes the order if the order is matched, and places new order if not match it."
      },
      "createPreOrder(uint8,address,uint256,uint256)": {
        "notice": "Creates a pre-order. A pre-order will only be accepted from 48 hours to 1 hour before the market opens (Pre-order period). At the end of this period, Itayose will be executed."
      },
      "estimateFilledAmount(uint8,uint256)": {
        "notice": "Estimates the filled amount at the time of order creation on the order book using the future value amount."
      },
      "executeItayoseCall()": {
        "notice": "Executes Itayose to aggregate pre-orders and determine the opening unit price. After this action, the market opens."
      },
      "getBorrowOrderBook(uint256)": {
        "notice": "Gets the order book of borrow."
      },
      "getBorrowOrderIds(address)": {
        "notice": "Gets active and inactive order IDs in the borrowing order book"
      },
      "getBorrowUnitPrice()": {
        "notice": "Gets the highest borrow price per future value."
      },
      "getCurrency()": {
        "notice": "Gets the market currency."
      },
      "getLendOrderBook(uint256)": {
        "notice": "Gets the order book of lend."
      },
      "getLendOrderIds(address)": {
        "notice": "Gets active and inactive order IDs in the lending order book"
      },
      "getLendUnitPrice()": {
        "notice": "Gets the lowest lend price per future value."
      },
      "getMarket()": {
        "notice": "Gets the market data."
      },
      "getMaturity()": {
        "notice": "Gets the current market maturity."
      },
      "getMidUnitPrice()": {
        "notice": "Gets the mid price per future value."
      },
      "getOpeningDate()": {
        "notice": "Gets the market opening date."
      },
      "getOpeningUnitPrice()": {
        "notice": "Gets the market opening unit price."
      },
      "getOrder(uint48)": {
        "notice": "Gets the market order from the order book."
      },
      "getTotalAmountFromBorrowOrders(address)": {
        "notice": "Calculates and gets the active and inactive amounts from the user orders of borrowing deals."
      },
      "getTotalAmountFromLendOrders(address)": {
        "notice": "Calculates and gets the active and inactive amounts from the user orders of lending deals."
      },
      "initialize(address,bytes32,uint256,uint256)": {
        "notice": "Initializes the contract."
      },
      "isItayosePeriod()": {
        "notice": "Gets if the market is under the Itayose period."
      },
      "isMatured()": {
        "notice": "Gets if the market is matured."
      },
      "isOpened()": {
        "notice": "Gets if the market is opened."
      },
      "isPreOrderPeriod()": {
        "notice": "Gets if the market is under the pre-order period."
      },
      "isReady()": {
        "notice": "Gets if the market is ready."
      },
      "openMarket(uint256,uint256)": {
        "notice": "Opens market"
      },
      "pauseMarket()": {
        "notice": "Pauses the lending market."
      },
      "requiredContracts()": {
        "notice": "Returns the contract names used in this contract."
      },
      "unpauseMarket()": {
        "notice": "Unpauses the lending market."
      },
      "unwindOrder(uint8,address,uint256)": {
        "notice": "Unwind orders using future value amount."
      }
    },
    "notice": "Implements the module that allows lending market participants to create/cancel market orders, and also provides a future value calculation module. For updates, this contract is basically called from `LendingMarketController.sol`instead of being called \\ directly by the user.",
    "version": 1
  },
  "storageLayout": {
    "storage": [
      {
        "astId": 1345,
        "contract": "contracts/LendingMarket.sol:LendingMarket",
        "label": "_paused",
        "offset": 0,
        "slot": "0",
        "type": "t_bool"
      },
      {
        "astId": 1183,
        "contract": "contracts/LendingMarket.sol:LendingMarket",
        "label": "_initialized",
        "offset": 1,
        "slot": "0",
        "type": "t_uint8"
      },
      {
        "astId": 1186,
        "contract": "contracts/LendingMarket.sol:LendingMarket",
        "label": "_initializing",
        "offset": 2,
        "slot": "0",
        "type": "t_bool"
      }
    ],
    "types": {
      "t_bool": {
        "encoding": "inplace",
        "label": "bool",
        "numberOfBytes": "1"
      },
      "t_uint8": {
        "encoding": "inplace",
        "label": "uint8",
        "numberOfBytes": "1"
      }
    }
  }
}