{
  "address": "0x09963afB7A6fa5592F52472d28BB396833670aE6",
  "abi": [
    {
      "anonymous": false,
      "inputs": [
        {
          "indexed": false,
          "internalType": "uint256",
          "name": "previousRate",
          "type": "uint256"
        },
        {
          "indexed": false,
          "internalType": "uint256",
          "name": "rate",
          "type": "uint256"
        }
      ],
      "name": "AutoRollFeeRateUpdated",
      "type": "event"
    },
    {
      "anonymous": false,
      "inputs": [
        {
          "indexed": false,
          "internalType": "bytes32",
          "name": "name",
          "type": "bytes32"
        },
        {
          "indexed": false,
          "internalType": "address",
          "name": "destination",
          "type": "address"
        }
      ],
      "name": "CacheUpdated",
      "type": "event"
    },
    {
      "anonymous": false,
      "inputs": [
        {
          "indexed": false,
          "internalType": "uint8",
          "name": "version",
          "type": "uint8"
        }
      ],
      "name": "Initialized",
      "type": "event"
    },
    {
      "anonymous": false,
      "inputs": [
        {
          "indexed": true,
          "internalType": "bytes32",
          "name": "ccy",
          "type": "bytes32"
        },
        {
          "indexed": true,
          "internalType": "address",
          "name": "marketAddr",
          "type": "address"
        },
        {
          "indexed": false,
          "internalType": "address",
          "name": "futureValueVault",
          "type": "address"
        },
        {
          "indexed": false,
          "internalType": "uint256",
          "name": "index",
          "type": "uint256"
        },
        {
          "indexed": false,
          "internalType": "uint256",
          "name": "openingDate",
          "type": "uint256"
        },
        {
          "indexed": false,
          "internalType": "uint256",
          "name": "maturity",
          "type": "uint256"
        }
      ],
      "name": "LendingMarketCreated",
      "type": "event"
    },
    {
      "anonymous": false,
      "inputs": [
        {
          "indexed": false,
          "internalType": "bytes32",
          "name": "ccy",
          "type": "bytes32"
        },
        {
          "indexed": false,
          "internalType": "uint256",
          "name": "oldMaturity",
          "type": "uint256"
        },
        {
          "indexed": false,
          "internalType": "uint256",
          "name": "newMaturity",
          "type": "uint256"
        }
      ],
      "name": "LendingMarketsRotated",
      "type": "event"
    },
    {
      "anonymous": false,
      "inputs": [
        {
          "indexed": true,
          "internalType": "address",
          "name": "user",
          "type": "address"
        },
        {
          "indexed": false,
          "internalType": "bytes32",
          "name": "collateralCcy",
          "type": "bytes32"
        },
        {
          "indexed": true,
          "internalType": "bytes32",
          "name": "debtCcy",
          "type": "bytes32"
        },
        {
          "indexed": true,
          "internalType": "uint256",
          "name": "debtMaturity",
          "type": "uint256"
        },
        {
          "indexed": false,
          "internalType": "uint256",
          "name": "amount",
          "type": "uint256"
        }
      ],
      "name": "LiquidationExecuted",
      "type": "event"
    },
    {
      "anonymous": false,
      "inputs": [
        {
          "indexed": false,
          "internalType": "uint256",
          "name": "previousPeriod",
          "type": "uint256"
        },
        {
          "indexed": false,
          "internalType": "uint256",
          "name": "period",
          "type": "uint256"
        }
      ],
      "name": "ObservationPeriodUpdated",
      "type": "event"
    },
    {
      "anonymous": false,
      "inputs": [
        {
          "indexed": false,
          "internalType": "uint256",
          "name": "previousRate",
          "type": "uint256"
        },
        {
          "indexed": false,
          "internalType": "uint256",
          "name": "rate",
          "type": "uint256"
        }
      ],
      "name": "OrderFeeRateUpdated",
      "type": "event"
    },
    {
      "anonymous": false,
      "inputs": [
        {
          "indexed": true,
          "internalType": "address",
          "name": "previousOwner",
          "type": "address"
        },
        {
          "indexed": true,
          "internalType": "address",
          "name": "newOwner",
          "type": "address"
        }
      ],
      "name": "OwnershipTransferred",
      "type": "event"
    },
    {
      "inputs": [],
      "name": "acceptedContracts",
      "outputs": [
        {
          "internalType": "bytes32[]",
          "name": "contracts",
          "type": "bytes32[]"
        }
      ],
      "stateMutability": "pure",
      "type": "function"
    },
    {
      "inputs": [],
      "name": "buildCache",
      "outputs": [],
      "stateMutability": "nonpayable",
      "type": "function"
    },
    {
      "inputs": [
        {
          "internalType": "bytes32",
          "name": "_ccy",
          "type": "bytes32"
        },
        {
          "internalType": "address",
          "name": "_user",
          "type": "address"
        }
      ],
      "name": "calculateFunds",
      "outputs": [
        {
          "internalType": "uint256",
          "name": "workingLendOrdersAmount",
          "type": "uint256"
        },
        {
          "internalType": "uint256",
          "name": "claimableAmount",
          "type": "uint256"
        },
        {
          "internalType": "uint256",
          "name": "collateralAmount",
          "type": "uint256"
        },
        {
          "internalType": "uint256",
          "name": "lentAmount",
          "type": "uint256"
        },
        {
          "internalType": "uint256",
          "name": "workingBorrowOrdersAmount",
          "type": "uint256"
        },
        {
          "internalType": "uint256",
          "name": "debtAmount",
          "type": "uint256"
        },
        {
          "internalType": "uint256",
          "name": "borrowedAmount",
          "type": "uint256"
        }
      ],
      "stateMutability": "view",
      "type": "function"
    },
    {
      "inputs": [
        {
          "internalType": "address",
          "name": "_user",
          "type": "address"
        },
        {
          "internalType": "bytes32",
          "name": "_depositCcy",
          "type": "bytes32"
        },
        {
          "internalType": "uint256",
          "name": "_depositAmount",
          "type": "uint256"
        }
      ],
      "name": "calculateTotalFundsInETH",
      "outputs": [
        {
          "internalType": "uint256",
          "name": "totalWorkingLendOrdersAmount",
          "type": "uint256"
        },
        {
          "internalType": "uint256",
          "name": "totalClaimableAmount",
          "type": "uint256"
        },
        {
          "internalType": "uint256",
          "name": "totalCollateralAmount",
          "type": "uint256"
        },
        {
          "internalType": "uint256",
          "name": "totalLentAmount",
          "type": "uint256"
        },
        {
          "internalType": "uint256",
          "name": "totalWorkingBorrowOrdersAmount",
          "type": "uint256"
        },
        {
          "internalType": "uint256",
          "name": "totalDebtAmount",
          "type": "uint256"
        },
        {
          "internalType": "uint256",
          "name": "totalBorrowedAmount",
          "type": "uint256"
        },
        {
          "internalType": "bool",
          "name": "isEnoughDeposit",
          "type": "bool"
        }
      ],
      "stateMutability": "view",
      "type": "function"
    },
    {
      "inputs": [
        {
          "internalType": "bytes32",
          "name": "_ccy",
          "type": "bytes32"
        },
        {
          "internalType": "uint256",
          "name": "_maturity",
          "type": "uint256"
        },
        {
          "internalType": "uint48",
          "name": "_orderId",
          "type": "uint48"
        }
      ],
      "name": "cancelOrder",
      "outputs": [
        {
          "internalType": "bool",
          "name": "",
          "type": "bool"
        }
      ],
      "stateMutability": "nonpayable",
      "type": "function"
    },
    {
      "inputs": [
        {
          "internalType": "address",
          "name": "_user",
          "type": "address"
        }
      ],
      "name": "cleanUpAllFunds",
      "outputs": [],
      "stateMutability": "nonpayable",
      "type": "function"
    },
    {
      "inputs": [
        {
          "internalType": "bytes32",
          "name": "_ccy",
          "type": "bytes32"
        },
        {
          "internalType": "address",
          "name": "_user",
          "type": "address"
        }
      ],
      "name": "cleanUpFunds",
      "outputs": [
        {
          "internalType": "uint256",
          "name": "totalActiveOrderCount",
          "type": "uint256"
        }
      ],
      "stateMutability": "nonpayable",
      "type": "function"
    },
    {
      "inputs": [
        {
          "internalType": "bytes32",
          "name": "_ccy",
          "type": "bytes32"
        },
        {
          "internalType": "uint256",
          "name": "_openingDate",
          "type": "uint256"
        }
      ],
      "name": "createLendingMarket",
      "outputs": [],
      "stateMutability": "nonpayable",
      "type": "function"
    },
    {
      "inputs": [
        {
          "internalType": "bytes32",
          "name": "_ccy",
          "type": "bytes32"
        },
        {
          "internalType": "uint256",
          "name": "_maturity",
          "type": "uint256"
        },
        {
          "internalType": "enum ProtocolTypes.Side",
          "name": "_side",
          "type": "uint8"
        },
        {
          "internalType": "uint256",
          "name": "_amount",
          "type": "uint256"
        },
        {
          "internalType": "uint256",
          "name": "_unitPrice",
          "type": "uint256"
        }
      ],
      "name": "createOrder",
      "outputs": [
        {
          "internalType": "bool",
          "name": "",
          "type": "bool"
        }
      ],
      "stateMutability": "nonpayable",
      "type": "function"
    },
    {
      "inputs": [
        {
          "internalType": "bytes32",
          "name": "_ccy",
          "type": "bytes32"
        },
        {
          "internalType": "uint256",
          "name": "_maturity",
          "type": "uint256"
        },
        {
          "internalType": "enum ProtocolTypes.Side",
          "name": "_side",
          "type": "uint8"
        },
        {
          "internalType": "uint256",
          "name": "_amount",
          "type": "uint256"
        },
        {
          "internalType": "uint256",
          "name": "_unitPrice",
          "type": "uint256"
        }
      ],
      "name": "createPreOrder",
      "outputs": [
        {
          "internalType": "bool",
          "name": "",
          "type": "bool"
        }
      ],
      "stateMutability": "nonpayable",
      "type": "function"
    },
    {
      "inputs": [
        {
          "internalType": "bytes32",
          "name": "_ccy",
          "type": "bytes32"
        },
        {
          "internalType": "uint256",
          "name": "_maturity",
          "type": "uint256"
        },
        {
          "internalType": "enum ProtocolTypes.Side",
          "name": "_side",
          "type": "uint8"
        },
        {
          "internalType": "uint256",
          "name": "_amount",
          "type": "uint256"
        },
        {
          "internalType": "uint256",
          "name": "_unitPrice",
          "type": "uint256"
        }
      ],
      "name": "depositAndCreateOrder",
      "outputs": [
        {
          "internalType": "bool",
          "name": "",
          "type": "bool"
        }
      ],
      "stateMutability": "payable",
      "type": "function"
    },
    {
      "inputs": [
        {
          "internalType": "bytes32",
          "name": "_ccy",
          "type": "bytes32"
        },
        {
          "internalType": "uint256",
          "name": "_maturity",
          "type": "uint256"
        },
        {
          "internalType": "enum ProtocolTypes.Side",
          "name": "_side",
          "type": "uint8"
        },
        {
          "internalType": "uint256",
          "name": "_amount",
          "type": "uint256"
        },
        {
          "internalType": "uint256",
          "name": "_unitPrice",
          "type": "uint256"
        }
      ],
      "name": "depositAndCreatePreOrder",
      "outputs": [
        {
          "internalType": "bool",
          "name": "",
          "type": "bool"
        }
      ],
      "stateMutability": "payable",
      "type": "function"
    },
    {
      "inputs": [
        {
          "internalType": "bytes32[]",
          "name": "_currencies",
          "type": "bytes32[]"
        },
        {
          "internalType": "uint256",
          "name": "_maturity",
          "type": "uint256"
        }
      ],
      "name": "executeItayoseCalls",
      "outputs": [
        {
          "internalType": "bool",
          "name": "",
          "type": "bool"
        }
      ],
      "stateMutability": "nonpayable",
      "type": "function"
    },
    {
      "inputs": [
        {
          "internalType": "bytes32",
          "name": "_collateralCcy",
          "type": "bytes32"
        },
        {
          "internalType": "bytes32",
          "name": "_debtCcy",
          "type": "bytes32"
        },
        {
          "internalType": "uint256",
          "name": "_debtMaturity",
          "type": "uint256"
        },
        {
          "internalType": "address",
          "name": "_user",
          "type": "address"
        },
        {
          "internalType": "uint24",
          "name": "_poolFee",
          "type": "uint24"
        }
      ],
      "name": "executeLiquidationCall",
      "outputs": [
        {
          "internalType": "bool",
          "name": "",
          "type": "bool"
        }
      ],
      "stateMutability": "nonpayable",
      "type": "function"
    },
    {
      "inputs": [
        {
          "internalType": "bytes32",
          "name": "_ccy",
          "type": "bytes32"
        }
      ],
      "name": "getAutoRollFeeRate",
      "outputs": [
        {
          "internalType": "uint256",
          "name": "",
          "type": "uint256"
        }
      ],
      "stateMutability": "view",
      "type": "function"
    },
    {
      "inputs": [
        {
          "internalType": "bytes32",
          "name": "_ccy",
          "type": "bytes32"
        },
        {
          "internalType": "uint256",
          "name": "_maturity",
          "type": "uint256"
        },
        {
          "internalType": "uint256",
          "name": "_limit",
          "type": "uint256"
        }
      ],
      "name": "getBorrowOrderBook",
      "outputs": [
        {
          "internalType": "uint256[]",
          "name": "unitPrices",
          "type": "uint256[]"
        },
        {
          "internalType": "uint256[]",
          "name": "amounts",
          "type": "uint256[]"
        },
        {
          "internalType": "uint256[]",
          "name": "quantities",
          "type": "uint256[]"
        }
      ],
      "stateMutability": "view",
      "type": "function"
    },
    {
      "inputs": [
        {
          "internalType": "bytes32",
          "name": "_ccy",
          "type": "bytes32"
        }
      ],
      "name": "getBorrowUnitPrices",
      "outputs": [
        {
          "internalType": "uint256[]",
          "name": "",
          "type": "uint256[]"
        }
      ],
      "stateMutability": "view",
      "type": "function"
    },
    {
      "inputs": [
        {
          "internalType": "bytes32",
          "name": "_ccy",
          "type": "bytes32"
        },
        {
          "internalType": "uint256",
          "name": "_maturity",
          "type": "uint256"
        },
        {
          "internalType": "address",
          "name": "_user",
          "type": "address"
        }
      ],
      "name": "getFutureValue",
      "outputs": [
        {
          "internalType": "int256",
          "name": "futureValue",
          "type": "int256"
        }
      ],
      "stateMutability": "view",
      "type": "function"
    },
    {
      "inputs": [
        {
          "internalType": "bytes32",
          "name": "_ccy",
          "type": "bytes32"
        },
        {
          "internalType": "uint256",
          "name": "_maturity",
          "type": "uint256"
        }
      ],
      "name": "getFutureValueVault",
      "outputs": [
        {
          "internalType": "address",
          "name": "",
          "type": "address"
        }
      ],
      "stateMutability": "view",
      "type": "function"
    },
    {
      "inputs": [
        {
          "internalType": "bytes32",
          "name": "_ccy",
          "type": "bytes32"
        }
      ],
      "name": "getGenesisDate",
      "outputs": [
        {
          "internalType": "uint256",
          "name": "",
          "type": "uint256"
        }
      ],
      "stateMutability": "view",
      "type": "function"
    },
    {
      "inputs": [
        {
          "internalType": "bytes32",
          "name": "_ccy",
          "type": "bytes32"
        },
        {
          "internalType": "address",
          "name": "_user",
          "type": "address"
        }
      ],
      "name": "getGenesisValue",
      "outputs": [
        {
          "internalType": "int256",
          "name": "genesisValue",
          "type": "int256"
        }
      ],
      "stateMutability": "view",
      "type": "function"
    },
    {
      "inputs": [
        {
          "internalType": "bytes32",
          "name": "_ccy",
          "type": "bytes32"
        },
        {
          "internalType": "uint256",
          "name": "_maturity",
          "type": "uint256"
        },
        {
          "internalType": "uint256",
          "name": "_limit",
          "type": "uint256"
        }
      ],
      "name": "getLendOrderBook",
      "outputs": [
        {
          "internalType": "uint256[]",
          "name": "unitPrices",
          "type": "uint256[]"
        },
        {
          "internalType": "uint256[]",
          "name": "amounts",
          "type": "uint256[]"
        },
        {
          "internalType": "uint256[]",
          "name": "quantities",
          "type": "uint256[]"
        }
      ],
      "stateMutability": "view",
      "type": "function"
    },
    {
      "inputs": [
        {
          "internalType": "bytes32",
          "name": "_ccy",
          "type": "bytes32"
        }
      ],
      "name": "getLendUnitPrices",
      "outputs": [
        {
          "internalType": "uint256[]",
          "name": "",
          "type": "uint256[]"
        }
      ],
      "stateMutability": "view",
      "type": "function"
    },
    {
      "inputs": [
        {
          "internalType": "bytes32",
          "name": "_ccy",
          "type": "bytes32"
        },
        {
          "internalType": "uint256",
          "name": "_maturity",
          "type": "uint256"
        }
      ],
      "name": "getLendingMarket",
      "outputs": [
        {
          "internalType": "address",
          "name": "",
          "type": "address"
        }
      ],
      "stateMutability": "view",
      "type": "function"
    },
    {
      "inputs": [
        {
          "internalType": "bytes32",
          "name": "_ccy",
          "type": "bytes32"
        }
      ],
      "name": "getLendingMarkets",
      "outputs": [
        {
          "internalType": "address[]",
          "name": "",
          "type": "address[]"
        }
      ],
      "stateMutability": "view",
      "type": "function"
    },
    {
      "inputs": [
        {
          "internalType": "bytes32",
          "name": "_ccy",
          "type": "bytes32"
        }
      ],
      "name": "getMaturities",
      "outputs": [
        {
          "internalType": "uint256[]",
          "name": "",
          "type": "uint256[]"
        }
      ],
      "stateMutability": "view",
      "type": "function"
    },
    {
      "inputs": [
        {
          "internalType": "bytes32",
          "name": "_ccy",
          "type": "bytes32"
        }
      ],
      "name": "getMidUnitPrices",
      "outputs": [
        {
          "internalType": "uint256[]",
          "name": "",
          "type": "uint256[]"
        }
      ],
      "stateMutability": "view",
      "type": "function"
    },
    {
      "inputs": [],
      "name": "getObservationPeriod",
      "outputs": [
        {
          "internalType": "uint256",
          "name": "",
          "type": "uint256"
        }
      ],
      "stateMutability": "view",
      "type": "function"
    },
    {
      "inputs": [
        {
          "internalType": "bytes32",
          "name": "_ccy",
          "type": "bytes32"
        }
      ],
      "name": "getOrderFeeRate",
      "outputs": [
        {
          "internalType": "uint256",
          "name": "",
          "type": "uint256"
        }
      ],
      "stateMutability": "view",
      "type": "function"
    },
    {
      "inputs": [
        {
          "internalType": "bytes32",
          "name": "_ccy",
          "type": "bytes32"
        },
        {
          "internalType": "uint256",
          "name": "_maturity",
          "type": "uint256"
        },
        {
          "internalType": "address",
          "name": "_user",
          "type": "address"
        }
      ],
      "name": "getPresentValue",
      "outputs": [
        {
          "internalType": "int256",
          "name": "presentValue",
          "type": "int256"
        }
      ],
      "stateMutability": "view",
      "type": "function"
    },
    {
      "inputs": [
        {
          "internalType": "bytes32",
          "name": "_ccy",
          "type": "bytes32"
        },
        {
          "internalType": "address",
          "name": "_user",
          "type": "address"
        }
      ],
      "name": "getTotalPresentValue",
      "outputs": [
        {
          "internalType": "int256",
          "name": "totalPresentValue",
          "type": "int256"
        }
      ],
      "stateMutability": "view",
      "type": "function"
    },
    {
      "inputs": [
        {
          "internalType": "address",
          "name": "_user",
          "type": "address"
        }
      ],
      "name": "getTotalPresentValueInETH",
      "outputs": [
        {
          "internalType": "int256",
          "name": "totalPresentValue",
          "type": "int256"
        }
      ],
      "stateMutability": "view",
      "type": "function"
    },
    {
      "inputs": [
        {
          "internalType": "address",
          "name": "_user",
          "type": "address"
        }
      ],
      "name": "getUsedCurrencies",
      "outputs": [
        {
          "internalType": "bytes32[]",
          "name": "",
          "type": "bytes32[]"
        }
      ],
      "stateMutability": "view",
      "type": "function"
    },
    {
      "inputs": [
        {
          "internalType": "address",
          "name": "_owner",
          "type": "address"
        },
        {
          "internalType": "address",
          "name": "_resolver",
          "type": "address"
        },
        {
          "internalType": "uint256",
          "name": "_marketBasePeriod",
          "type": "uint256"
        },
        {
          "internalType": "uint256",
          "name": "_observationPeriod",
          "type": "uint256"
        }
      ],
      "name": "initialize",
      "outputs": [],
      "stateMutability": "nonpayable",
      "type": "function"
    },
    {
      "inputs": [
        {
          "internalType": "bytes32",
          "name": "_ccy",
          "type": "bytes32"
        },
        {
          "internalType": "uint256",
          "name": "_genesisDate",
          "type": "uint256"
        },
        {
          "internalType": "uint256",
          "name": "_compoundFactor",
          "type": "uint256"
        },
        {
          "internalType": "uint256",
          "name": "_orderFeeRate",
          "type": "uint256"
        },
        {
          "internalType": "uint256",
          "name": "_autoRollFeeRate",
          "type": "uint256"
        }
      ],
      "name": "initializeLendingMarket",
      "outputs": [],
      "stateMutability": "nonpayable",
      "type": "function"
    },
    {
      "inputs": [
        {
          "internalType": "bytes32",
          "name": "_ccy",
          "type": "bytes32"
        }
      ],
      "name": "isInitializedLendingMarket",
      "outputs": [
        {
          "internalType": "bool",
          "name": "",
          "type": "bool"
        }
      ],
      "stateMutability": "view",
      "type": "function"
    },
    {
      "inputs": [
        {
          "internalType": "address",
          "name": "_user",
          "type": "address"
        }
      ],
      "name": "isLiquidator",
      "outputs": [
        {
          "internalType": "bool",
          "name": "",
          "type": "bool"
        }
      ],
      "stateMutability": "view",
      "type": "function"
    },
    {
      "inputs": [],
      "name": "isResolverCached",
      "outputs": [
        {
          "internalType": "bool",
          "name": "",
          "type": "bool"
        }
      ],
      "stateMutability": "view",
      "type": "function"
    },
    {
      "inputs": [],
      "name": "owner",
      "outputs": [
        {
          "internalType": "address",
          "name": "",
          "type": "address"
        }
      ],
      "stateMutability": "view",
      "type": "function"
    },
    {
      "inputs": [
        {
          "internalType": "bytes32",
          "name": "_ccy",
          "type": "bytes32"
        }
      ],
      "name": "pauseLendingMarkets",
      "outputs": [
        {
          "internalType": "bool",
          "name": "",
          "type": "bool"
        }
      ],
      "stateMutability": "nonpayable",
      "type": "function"
    },
    {
      "inputs": [
        {
          "internalType": "bool",
          "name": "_isLiquidator",
          "type": "bool"
        }
      ],
      "name": "registerLiquidator",
      "outputs": [],
      "stateMutability": "nonpayable",
      "type": "function"
    },
    {
      "inputs": [],
      "name": "renounceOwnership",
      "outputs": [],
      "stateMutability": "nonpayable",
      "type": "function"
    },
    {
      "inputs": [],
      "name": "requiredContracts",
      "outputs": [
        {
          "internalType": "bytes32[]",
          "name": "contracts",
          "type": "bytes32[]"
        }
      ],
      "stateMutability": "pure",
      "type": "function"
    },
    {
      "inputs": [],
      "name": "resolver",
      "outputs": [
        {
          "internalType": "contract IAddressResolver",
          "name": "",
          "type": "address"
        }
      ],
      "stateMutability": "view",
      "type": "function"
    },
    {
      "inputs": [
        {
          "internalType": "bytes32",
          "name": "_ccy",
          "type": "bytes32"
        }
      ],
      "name": "rotateLendingMarkets",
      "outputs": [],
      "stateMutability": "nonpayable",
      "type": "function"
    },
    {
      "inputs": [
        {
          "internalType": "address",
          "name": "newOwner",
          "type": "address"
        }
      ],
      "name": "transferOwnership",
      "outputs": [],
      "stateMutability": "nonpayable",
      "type": "function"
    },
    {
      "inputs": [
        {
          "internalType": "bytes32",
          "name": "_ccy",
          "type": "bytes32"
        }
      ],
      "name": "unpauseLendingMarkets",
      "outputs": [
        {
          "internalType": "bool",
          "name": "",
          "type": "bool"
        }
      ],
      "stateMutability": "nonpayable",
      "type": "function"
    },
    {
      "inputs": [
        {
          "internalType": "bytes32",
          "name": "_ccy",
          "type": "bytes32"
        },
        {
          "internalType": "uint256",
          "name": "_maturity",
          "type": "uint256"
        }
      ],
      "name": "unwindOrder",
      "outputs": [
        {
          "internalType": "bool",
          "name": "",
          "type": "bool"
        }
      ],
      "stateMutability": "nonpayable",
      "type": "function"
    },
    {
      "inputs": [
        {
          "internalType": "bytes32",
          "name": "_ccy",
          "type": "bytes32"
        },
        {
          "internalType": "uint256",
          "name": "_autoRollFeeRate",
          "type": "uint256"
        }
      ],
      "name": "updateAutoRollFeeRate",
      "outputs": [],
      "stateMutability": "nonpayable",
      "type": "function"
    },
    {
      "inputs": [
        {
          "internalType": "uint256",
          "name": "_observationPeriod",
          "type": "uint256"
        }
      ],
      "name": "updateObservationPeriod",
      "outputs": [],
      "stateMutability": "nonpayable",
      "type": "function"
    },
    {
      "inputs": [
        {
          "internalType": "bytes32",
          "name": "_ccy",
          "type": "bytes32"
        },
        {
          "internalType": "uint256",
          "name": "_orderFeeRate",
          "type": "uint256"
        }
      ],
      "name": "updateOrderFeeRate",
      "outputs": [],
      "stateMutability": "nonpayable",
      "type": "function"
    }
  ],
  "transactionHash": "0x4ca5a8f40730377399514b609d55a160b2ae61c8e45cf209092ddd6230d486fe",
  "args": [],
  "numDeployments": 2,
  "solcInputHash": "3f85b78d4f02b33ea339ac5a99716c70",
  "bytecode": "0x608060405234801561001057600080fd5b5060016000556152c8806100256000396000f3fe6080604052600436106102e45760003560e01c80637c63039d11610190578063bfe61a28116100dc578063eb990c5911610095578063f2fde38b1161006f578063f2fde38b1461098f578063faca409b146109af578063fb54a6b3146109cf578063fc700810146109ef57600080fd5b8063eb990c591461091b578063ebb914161461093b578063f1eaebae1461095b57600080fd5b8063bfe61a2814610859578063cb9d74011461086c578063e0997659146108a6578063e906c100146108bb578063e99d0538146108db578063eb092a26146108fb57600080fd5b80638c197d8d11610149578063953dbcaa11610123578063953dbcaa146107d9578063a02be3dc146107f9578063b3cb845014610819578063bfd10cf61461083957600080fd5b80638c197d8d146107845780638da5cb5b146107a45780639519832b146107b957600080fd5b80637c63039d146106c4578063826b47e8146106e457806385323e1a14610704578063891d5965146107245780638a981745146107445780638b36d8331461076457600080fd5b80632f7495741161024f57806355aceb4e1161020857806370c641a6116101e257806370c641a61461064f578063715018a61461066f57806372d563ef14610684578063766cb64e146106a457600080fd5b806355aceb4e146105ad5780635c347765146105da5780635ca65d571461062f57600080fd5b80632f749574146104eb578063381ada1f1461050b5780633d03b9da14610538578063448255c71461055a57806349f2ccbf1461056d578063529a356f1461058d57600080fd5b806322365261116102a1578063223652611461043f578063268bb2791461045f57806329985e5a146104815780632af64bd3146104965780632e6c5e67146104ab5780632e77aea7146104cb57600080fd5b80630312b528146102e957806303e5fb591461034b57806304f3bcec146103935780630594de6e146103c057806317b72ff4146103ef5780631deb8f391461040f575b600080fd5b3480156102f557600080fd5b50610309610304366004614573565b610a0f565b604080519889526020890197909752958701949094526060860192909252608085015260a084015260c0830152151560e0820152610100015b60405180910390f35b34801561035757600080fd5b506103856103663660046145a8565b6000908152600080516020615253833981519152602052604090205490565b604051908152602001610342565b34801561039f57600080fd5b506103a8610ad6565b6040516001600160a01b039091168152602001610342565b3480156103cc57600080fd5b506103e06103db3660046145c1565b610af7565b60405161034293929190614628565b3480156103fb57600080fd5b5061038561040a36600461466b565b610bb6565b34801561041b57600080fd5b5061042f61042a36600461469b565b610c4b565b6040519015158152602001610342565b34801561044b57600080fd5b5061042f61045a3660046146bd565b6110bb565b34801561046b57600080fd5b5061047f61047a366004614729565b611438565b005b34801561048d57600080fd5b5061047f611453565b3480156104a257600080fd5b5061042f611600565b3480156104b757600080fd5b5061042f6104c63660046145a8565b611766565b3480156104d757600080fd5b506103856104e6366004614746565b611786565b3480156104f757600080fd5b5061047f61050636600461469b565b61181c565b34801561051757600080fd5b5061052b6105263660046145a8565b61191f565b604051610342919061477f565b34801561054457600080fd5b5061054d61199d565b60405161034291906147cc565b61042f610568366004614811565b611abf565b34801561057957600080fd5b5061042f61058836600461485a565b611bd4565b34801561059957600080fd5b5061042f6105a8366004614893565b611d1b565b3480156105b957600080fd5b506105cd6105c83660046145a8565b611d2c565b60405161034291906148b0565b3480156105e657600080fd5b506105fa6105f536600461466b565b611e9e565b604080519788526020880196909652948601939093526060850191909152608084015260a083015260c082015260e001610342565b34801561063b57600080fd5b5061047f61064a36600461469b565b611f89565b34801561065b57600080fd5b5061038561066a36600461466b565b61207b565b34801561067b57600080fd5b5061047f612113565b34801561069057600080fd5b5061047f61069f36600461469b565b61214e565b3480156106b057600080fd5b5061047f6106bf3660046148c3565b612291565b3480156106d057600080fd5b5061042f6106df366004614969565b6123e8565b3480156106f057600080fd5b5061047f6106ff366004614893565b612515565b34801561071057600080fd5b506103a861071f36600461469b565b612603565b34801561073057600080fd5b5061038561073f3660046145a8565b612665565b34801561075057600080fd5b506103a861075f36600461469b565b612683565b34801561077057600080fd5b5061047f61077f3660046145a8565b6126b5565b34801561079057600080fd5b5061047f61079f3660046145a8565b6128f9565b3480156107b057600080fd5b506103a8612931565b3480156107c557600080fd5b506103856107d436600461466b565b612959565b3480156107e557600080fd5b506103e06107f43660046145c1565b6129f5565b34801561080557600080fd5b506105cd6108143660046145a8565b612a54565b34801561082557600080fd5b5061042f6108343660046145a8565b612bbf565b34801561084557600080fd5b506105cd6108543660046145a8565b612cc4565b61042f610867366004614811565b612e2f565b34801561087857600080fd5b506103856108873660046145a8565b6000908152600080516020615273833981519152602052604090205490565b3480156108b257600080fd5b5061054d612ec0565b3480156108c757600080fd5b506103856108d6366004614746565b612f03565b3480156108e757600080fd5b5061042f6108f63660046145a8565b612f9c565b34801561090757600080fd5b506105cd6109163660046145a8565b613098565b34801561092757600080fd5b5061047f610936366004614a05565b613203565b34801561094757600080fd5b5061042f610956366004614811565b613392565b34801561096757600080fd5b507f55cc3066d618b5a688ac1f2a8234e21c685f7432b4230a1660309640d60d8f6654610385565b34801561099b57600080fd5b5061047f6109aa366004614893565b6136e9565b3480156109bb57600080fd5b5061042f6109ca366004614811565b613786565b3480156109db57600080fd5b506103856109ea366004614893565b613813565b3480156109fb57600080fd5b5061054d610a0a366004614893565b61399d565b604051626256a560e31b81526001600160a01b038416600482015260248101839052604481018290526000908190819081908190819081908190737B502aa51fE8255c2723502586202Bb96C740C8090630312b528906064016101006040518083038186803b158015610a8157600080fd5b505af4158015610a95573d6000803e3d6000fd5b505050506040513d601f19601f82011682018060405250810190610ab99190614a4b565b975097509750975097509750975097509397509397509397509397565b60006000805160206152338339815191525b546001600160a01b0316919050565b60608060606000610b066139cb565b600088815260039190910160209081526040808320898452909152908190205490516325fb168b60e11b8152600481018790526001600160a01b0390911691508190634bf62d16906024015b60006040518083038186803b158015610b6a57600080fd5b505afa158015610b7e573d6000803e3d6000fd5b505050506040513d6000823e601f3d908101601f19168201604052610ba69190810190614b1b565b9350935093505093509350939050565b6040516295a47160e71b8152600090737B502aa51fE8255c2723502586202Bb96C740C8090634ad2388090610bf390869085908790600401614ba3565b60e06040518083038186803b158015610c0b57600080fd5b505af4158015610c1f573d6000803e3d6000fd5b505050506040513d601f19601f82011682018060405250810190610c439190614bc2565b519392505050565b600060026000541415610c795760405162461bcd60e51b8152600401610c7090614c46565b60405180910390fd5b6002600090815583908390610c8c6139cb565b6000848152600391909101602090815260408083208584529091529020546001600160a01b03161415610cd15760405162461bcd60e51b8152600401610c7090614c7d565b604051639519832b60e01b815260048101869052336024820152737B502aa51fE8255c2723502586202Bb96C740C8090639519832b9060440160206040518083038186803b158015610d2257600080fd5b505af4158015610d36573d6000803e3d6000fd5b505050506040513d601f19601f82011682018060405250810190610d5a9190614ca7565b506000610d656139cb565b6000878152600391909101602090815260408083208884529091528120546001600160a01b0316915080610d976139cb565b6000898152600291909101602090815260408083206001600160a01b03878116855292529182902054915163070da1af60e11b8152336004820152911690630e1b435e90602401604080518083038186803b158015610df557600080fd5b505afa158015610e09573d6000803e3d6000fd5b505050506040513d601f19601f82011682018060405250810190610e2d9190614cc0565b915091508160001415610e795760405162461bcd60e51b81526020600482015260146024820152734675747572652056616c7565206973207a65726f60601b6044820152606401610c70565b808714610e985760405162461bcd60e51b8152600401610c7090614c7d565b6000806000610eca604051806060016040528060006001600160a01b0316815260200160008152602001600081525090565b600080871315610f9557506001610edf6139cb565b60008e8152600391909101602090815260408083208f84529091529020546001600160a01b0316634c2afa2e8233610f168b6139ef565b6040518463ffffffff1660e01b8152600401610f3493929190614d1c565b60c060405180830381600087803b158015610f4e57600080fd5b505af1158015610f62573d6000803e3d6000fd5b505050506040513d601f19601f82011682018060405250810190610f869190614dab565b92975090955093509150611063565b600087121561106357506000610fa96139cb565b60008e8152600391909101602090815260408083208f84529091529020546001600160a01b0316634c2afa2e8233610fe8610fe38c614e01565b6139ef565b6040518463ffffffff1660e01b815260040161100693929190614d1c565b60c060405180830381600087803b15801561102057600080fd5b505af1158015611034573d6000803e3d6000fd5b505050506040513d601f19601f820116820180604052508101906110589190614dab565b929750909550935091505b6110748d8d338488888b6000613a45565b6110a28d8d600084600181111561108d5761108d614ce4565b1461109957600061109c565b60015b85613b7e565b60019a5050505050505050505050600160005592915050565b6000600260005414156110e05760405162461bcd60e51b8152600401610c7090614c46565b60026000908155859085906110f36139cb565b6000848152600391909101602090815260408083208584529091529020546001600160a01b031614156111385760405162461bcd60e51b8152600401610c7090614c7d565b333b1561117c5760405162461bcd60e51b815260206004820152601260248201527143616c6c6572206d75737420626520454f4160701b6044820152606401610c70565b61118533613c06565b6111c85760405162461bcd60e51b815260206004820152601460248201527343616c6c6572206973206e6f742061637469766560601b6044820152606401610c70565b604051639519832b60e01b8152600481018890526001600160a01b0386166024820152737B502aa51fE8255c2723502586202Bb96C740C8090639519832b9060440160206040518083038186803b15801561122257600080fd5b505af4158015611236573d6000803e3d6000fd5b505050506040513d601f19601f8201168201806040525081019061125a9190614ca7565b50604051639c599f8b60e01b81523360048201526001600160a01b038616602482015260448101899052606481018890526084810187905262ffffff851660a48201526000908190737B502aa51fE8255c2723502586202Bb96C740C8090639c599f8b9060c401604080518083038186803b1580156112d857600080fd5b505af41580156112ec573d6000803e3d6000fd5b505050506040513d601f19601f820116820180604052508101906113109190614cc0565b90925090508082156113405760006113308b8b8b60008860006001613c43565b905061133c8183614e1e565b9150505b801561142157888a896001600160a01b03167f347d8f9576f47b3bd7a4821cd3d3d4171968cdd36680d4abaca7de302d836f998e8560405161138c929190918252602082015260400190565b60405180910390a460405163300074c960e01b8152737B502aa51fE8255c2723502586202Bb96C740C809063300074c9906113cf908d908d908d90600401614ba3565b60206040518083038186803b1580156113e757600080fd5b505af41580156113fb573d6000803e3d6000fd5b505050506040513d601f19601f8201168201806040525081019061141f9190614ca7565b505b600195505050505050600160005595945050505050565b801561144a576114473361402b565b50565b6114473361405a565b600061145d61199d565b905060005b81518110156115fc57600082828151811061147f5761147f614e36565b6020026020010151905060006114a060008051602061523383398151915290565b54604080517f5265736f6c766572206d697373696e67207461726765743a200000000000000060208201526039808201869052825180830390910181526059820192839052636795dbcd60e01b9092526001600160a01b0390921691636795dbcd9161151191869190605d01614e99565b60206040518083038186803b15801561152957600080fd5b505afa15801561153d573d6000803e3d6000fd5b505050506040513d601f19601f820116820180604052508101906115619190614eba565b60008381527f4abde63c3e81aefa5764b017968bc473e83e093d7e1a10247d19e0a3e4124019602090815260409182902080546001600160a01b0319166001600160a01b03851690811790915582518681529182015281519293507f88a93678a3692f6789d9546fc621bf7234b101ddb7d4fe479455112831b8aa68929081900390910190a1505080806115f490614ed7565b915050611462565b5050565b60008061160b61199d565b905060005b815181101561175d57600082828151811061162d5761162d614e36565b6020026020010151905061164c60008051602061523383398151915290565b600082815260019190910160205260409020546001600160a01b0316600080516020615233833981519152546040516321f8a72160e01b8152600481018490526001600160a01b03909116906321f8a7219060240160206040518083038186803b1580156116b957600080fd5b505afa1580156116cd573d6000803e3d6000fd5b505050506040513d601f19601f820116820180604052508101906116f19190614eba565b6001600160a01b031614158061173b575060008181527f4abde63c3e81aefa5764b017968bc473e83e093d7e1a10247d19e0a3e412401960205260409020546001600160a01b0316155b1561174a576000935050505090565b508061175581614ed7565b915050611610565b50600191505090565b60006117706139cb565b6000928352600401602052506040902054151590565b6040516295a47160e71b8152600090737B502aa51fE8255c2723502586202Bb96C740C8090634ad23880906117c390879087908790600401614ba3565b60e06040518083038186803b1580156117db57600080fd5b505af41580156117ef573d6000803e3d6000fd5b505050506040513d601f19601f820116820180604052508101906118139190614bc2565b51949350505050565b33611825612931565b6001600160a01b03161461184b5760405162461bcd60e51b8152600401610c7090614ef2565b61271081111561189d5760405162461bcd60e51b815260206004820152601a60248201527f496e76616c6964206175746f2d726f6c6c2066656520726174650000000000006044820152606401610c70565b6000828152600080516020615273833981519152602052604090205481811461191a576000838152600080516020615273833981519152602090815260409182902084905581518381529081018490527fdfbb9051e39a726dacd506a01fecef2277ab8adc7423037867c554573f179fdb91015b60405180910390a15b505050565b60606119296139cb565b600101600083815260200190815260200160002080548060200260200160405190810160405280929190818152602001828054801561199157602002820191906000526020600020905b81546001600160a01b03168152600190910190602001808311611973575b50505050509050919050565b60408051600580825260c082019092526060916020820160a080368337019050509050742132b0b1b7b7283937bc3ca1b7b73a3937b63632b960591b816000815181106119ec576119ec614e36565b6020026020010181815250507121bab93932b731bca1b7b73a3937b63632b960711b81600181518110611a2157611a21614e36565b6020026020010181815250507011d95b995cda5cd5985b1d5955985d5b1d607a1b81600281518110611a5557611a55614e36565b6020026020010181815250506a14995cd95c9d99519d5b9960aa1b81600381518110611a8357611a83614e36565b60200260200101818152505069151bdad95b95985d5b1d60b21b81600481518110611ab057611ab0614e36565b60200260200101818152505090565b600060026000541415611ae45760405162461bcd60e51b8152600401610c7090614c46565b6002600090815586908690611af76139cb565b6000848152600391909101602090815260408083208584529091529020546001600160a01b03161415611b3c5760405162461bcd60e51b8152600401610c7090614c7d565b611b44614070565b6040516396994e3760e01b8152336004820152602481018a9052604481018790526001600160a01b0391909116906396994e379034906064016000604051808303818588803b158015611b9657600080fd5b505af1158015611baa573d6000803e3d6000fd5b5050505050611bbf8888338989896000613c43565b50600192505050600160005595945050505050565b600060026000541415611bf95760405162461bcd60e51b8152600401610c7090614c46565b6002600090815584908490611c0c6139cb565b6000848152600391909101602090815260408083208584529091529020546001600160a01b03161415611c515760405162461bcd60e51b8152600401610c7090614c7d565b6000611c5b6139cb565b6000888152600391909101602090815260408083208984529091529081902054905163504b89bd60e01b815233600482015265ffffffffffff871660248201526001600160a01b039091169150819063504b89bd90604401606060405180830381600087803b158015611ccd57600080fd5b505af1158015611ce1573d6000803e3d6000fd5b505050506040513d601f19601f82011682018060405250810190611d059190614f27565b5050506001935050505060016000559392505050565b6000611d268261407f565b92915050565b60606000611d386139cb565b6000848152600191909101602052604090205467ffffffffffffffff811115611d6357611d636148fe565b604051908082528060200260200182016040528015611d8c578160200160208202803683370190505b50905060005b611d9a6139cb565b60008581526001919091016020526040902054811015611e97576000611dbe6139cb565b60010160008681526020019081526020016000208281548110611de357611de3614e36565b6000918252602091829020015460408051631b3508b760e01b815290516001600160a01b0390921693508392631b3508b792600480840193829003018186803b158015611e2f57600080fd5b505afa158015611e43573d6000803e3d6000fd5b505050506040513d601f19601f82011682018060405250810190611e679190614ca7565b838381518110611e7957611e79614e36565b60209081029190910101525080611e8f81614ed7565b915050611d92565b5092915050565b6000806000806000806000611ed789611eb56139cb565b6001600160a01b038b16600090815260059190910160205260409020906140a9565b15611f7d57604051635c34776560e01b8152600481018a90526001600160a01b0389166024820152737B502aa51fE8255c2723502586202Bb96C740C8090635c3477659060440160e06040518083038186803b158015611f3657600080fd5b505af4158015611f4a573d6000803e3d6000fd5b505050506040513d601f19601f82011682018060405250810190611f6e9190614f5e565b96509650965096509650965096505b92959891949750929550565b33611f92612931565b6001600160a01b031614611fb85760405162461bcd60e51b8152600401610c7090614ef2565b6127108111156120035760405162461bcd60e51b8152602060048201526016602482015275496e76616c6964206f7264657220666565207261746560501b6044820152606401610c70565b6000828152600080516020615253833981519152602052604090205481811461191a576000838152600080516020615253833981519152602090815260409182902084905581518381529081018490527fff4528c215dc00005504418aa82be3bb2439c39be2eb30fd44012f5e79d168e29101611911565b6040516295a47160e71b8152600090737B502aa51fE8255c2723502586202Bb96C740C8090634ad23880906120b890869085908790600401614ba3565b60e06040518083038186803b1580156120d057600080fd5b505af41580156120e4573d6000803e3d6000fd5b505050506040513d601f19601f820116820180604052508101906121089190614bc2565b60c001519392505050565b3361211c612931565b6001600160a01b0316146121425760405162461bcd60e51b8152600401610c7090614ef2565b61214c60006140c1565b565b33612157612931565b6001600160a01b03161461217d5760405162461bcd60e51b8152600401610c7090614ef2565b6040516372d563ef60e01b815260048101839052602481018290526000908190819073fFE89cDCE17105a0B114103276F3FBE64f2C83FC906372d563ef9060440160606040518083038186803b1580156121d657600080fd5b505af41580156121ea573d6000803e3d6000fd5b505050506040513d601f19601f8201168201806040525081019061220e9190614fb2565b925092509250826001600160a01b0316857fc29f3eef4e596f3e26da74f3482ffe2325449509e985d19f0a099240429add4e846122496139cb565b60008a815260019190910160209081526040918290205482516001600160a01b0390941684529083015281018890526060810185905260800160405180910390a35050505050565b3361229a612931565b6001600160a01b0316146122c05760405162461bcd60e51b8152600401610c7090614ef2565b600083116123105760405162461bcd60e51b815260206004820152601760248201527f496e76616c696420636f6d706f756e6420666163746f720000000000000000006044820152606401610c70565b61231985611766565b1561235c5760405162461bcd60e51b8152602060048201526013602482015272105b1c9958591e481a5b9a5d1a585b1a5e9959606a1b6044820152606401610c70565b60405163d3f43b7960e01b815260048101869052602481018590526044810184905273fFE89cDCE17105a0B114103276F3FBE64f2C83FC9063d3f43b799060640160006040518083038186803b1580156123b557600080fd5b505af41580156123c9573d6000803e3d6000fd5b505050506123d78583611f89565b6123e1858261181c565b5050505050565b60006002600054141561240d5760405162461bcd60e51b8152600401610c7090614c46565b600260009081555b835181101561250557600084828151811061243257612432614e36565b6020026020010151905060008073fFE89cDCE17105a0B114103276F3FBE64f2C83FC636a23a95c84886040518363ffffffff1660e01b8152600401612481929190918252602082015260400190565b60c06040518083038186803b15801561249957600080fd5b505af41580156124ad573d6000803e3d6000fd5b505050506040513d601f19601f820116820180604052508101906124d19190614ff5565b915091506124e28387600085613b7e565b6124ef8387600184613b7e565b50505080806124fd90614ed7565b915050612415565b5060019050600160005592915050565b600061251f6139cb565b6001600160a01b03831660009081526005919091016020526040812091505b61254782614132565b81101561191a57737B502aa51fE8255c2723502586202Bb96C740C80639519832b612572848461413c565b6040516001600160e01b031960e084901b16815260048101919091526001600160a01b038616602482015260440160206040518083038186803b1580156125b857600080fd5b505af41580156125cc573d6000803e3d6000fd5b505050506040513d601f19601f820116820180604052508101906125f09190614ca7565b50806125fb81614ed7565b91505061253e565b600061260d6139cb565b600084815260029190910160205260408120906126286139cb565b600095865260030160209081526040808720958752948152848620546001600160a01b039081168352908201929092529092019092205416919050565b600061266f6139cb565b600092835260040160205250604090205490565b600061268d6139cb565b600093845260030160209081526040808520938552929052509020546001600160a01b031690565b600260005414156126d85760405162461bcd60e51b8152600401610c7090614c46565b6002600090815581906126e96139cb565b60008381526001919091016020526040902054116127625760405162461bcd60e51b815260206004820152603060248201527f4e6f206c656e64696e67206d61726b65747320657869737420666f722061207360448201526f706563696669632063757272656e637960801b6064820152608401610c70565b60008073fFE89cDCE17105a0B114103276F3FBE64f2C83FC63a3d54d8c856127a3876000908152600080516020615273833981519152602052604090205490565b6040516001600160e01b031960e085901b16815260048101929092526024820152604401604080518083038186803b1580156127de57600080fd5b505af41580156127f2573d6000803e3d6000fd5b505050506040513d601f19601f820116820180604052508101906128169190614cc0565b91509150737B502aa51fE8255c2723502586202Bb96C740C8063300074c9858361283e614148565b6040518463ffffffff1660e01b815260040161285c93929190614ba3565b60206040518083038186803b15801561287457600080fd5b505af4158015612888573d6000803e3d6000fd5b505050506040513d601f19601f820116820180604052508101906128ac9190614ca7565b5060408051858152602081018490529081018290527f0c6f5a3bc801362dc3d24c87799fa831f5a601c5dbd8bed4064907844eef97369060600160405180910390a1505060016000555050565b33612902612931565b6001600160a01b0316146129285760405162461bcd60e51b8152600401610c7090614ef2565b61144781614152565b60007f9acda75aebd150dd434541a4747a6dc606f4f1a59662477e67daf1fc0bf9e0aa610ae8565b604051639519832b60e01b8152600481018390526001600160a01b0382166024820152600090737B502aa51fE8255c2723502586202Bb96C740C8090639519832b9060440160206040518083038186803b1580156129b657600080fd5b505af41580156129ca573d6000803e3d6000fd5b505050506040513d601f19601f820116820180604052508101906129ee9190614ca7565b9392505050565b60608060606000612a046139cb565b6000888152600391909101602090815260408083208984529091529081902054905163d866d35560e01b8152600481018790526001600160a01b039091169150819063d866d35590602401610b52565b60606000612a606139cb565b6000848152600191909101602052604090205467ffffffffffffffff811115612a8b57612a8b6148fe565b604051908082528060200260200182016040528015612ab4578160200160208202803683370190505b50905060005b612ac26139cb565b60008581526001919091016020526040902054811015611e97576000612ae66139cb565b60010160008681526020019081526020016000208281548110612b0b57612b0b614e36565b600091825260209182902001546040805163e16695b560e01b815290516001600160a01b039092169350839263e16695b592600480840193829003018186803b158015612b5757600080fd5b505afa158015612b6b573d6000803e3d6000fd5b505050506040513d601f19601f82011682018060405250810190612b8f9190614ca7565b838381518110612ba157612ba1614e36565b60209081029190910101525080612bb781614ed7565b915050612aba565b600033612bca612931565b6001600160a01b031614612bf05760405162461bcd60e51b8152600401610c7090614ef2565b60005b612bfb6139cb565b60008481526001919091016020526040902054811015612cbb576000612c1f6139cb565b60010160008581526020019081526020016000208281548110612c4457612c44614e36565b60009182526020822001546040805163280dce3760e21b815290516001600160a01b039092169350839263a03738dc9260048084019382900301818387803b158015612c8f57600080fd5b505af1158015612ca3573d6000803e3d6000fd5b50505050508080612cb390614ed7565b915050612bf3565b50600192915050565b60606000612cd06139cb565b6000848152600191909101602052604090205467ffffffffffffffff811115612cfb57612cfb6148fe565b604051908082528060200260200182016040528015612d24578160200160208202803683370190505b50905060005b612d326139cb565b60008581526001919091016020526040902054811015611e97576000612d566139cb565b60010160008681526020019081526020016000208281548110612d7b57612d7b614e36565b60009182526020918290200154604080516371613c2d60e01b815290516001600160a01b03909216935083926371613c2d92600480840193829003018186803b158015612dc757600080fd5b505afa158015612ddb573d6000803e3d6000fd5b505050506040513d601f19601f82011682018060405250810190612dff9190614ca7565b838381518110612e1157612e11614e36565b60209081029190910101525080612e2781614ed7565b915050612d2a565b6000612e39614070565b6040516396994e3760e01b815233600482015260248101889052604481018590526001600160a01b0391909116906396994e379034906064016000604051808303818588803b158015612e8b57600080fd5b505af1158015612e9f573d6000803e3d6000fd5b5050505050612eb18686868686613392565b50600190505b95945050505050565b6040805160018082528183019092526060916020808301908036833701905050905069151bdad95b95985d5b1d60b21b81600081518110611ab057611ab0614e36565b6040516295a47160e71b8152600090737B502aa51fE8255c2723502586202Bb96C740C8090634ad2388090612f4090879087908790600401614ba3565b60e06040518083038186803b158015612f5857600080fd5b505af4158015612f6c573d6000803e3d6000fd5b505050506040513d601f19601f82011682018060405250810190612f909190614bc2565b60200151949350505050565b600033612fa7612931565b6001600160a01b031614612fcd5760405162461bcd60e51b8152600401610c7090614ef2565b60005b612fd86139cb565b60008481526001919091016020526040902054811015612cbb576000612ffc6139cb565b6001016000858152602001908152602001600020828154811061302157613021614e36565b600091825260208220015460408051630b0863e760e11b815290516001600160a01b0390921693508392631610c7ce9260048084019382900301818387803b15801561306c57600080fd5b505af1158015613080573d6000803e3d6000fd5b5050505050808061309090614ed7565b915050612fd0565b606060006130a46139cb565b6000848152600191909101602052604090205467ffffffffffffffff8111156130cf576130cf6148fe565b6040519080825280602002602001820160405280156130f8578160200160208202803683370190505b50905060005b6131066139cb565b60008581526001919091016020526040902054811015611e9757600061312a6139cb565b6001016000868152602001908152602001600020828154811061314f5761314f614e36565b6000918252602091829020015460408051632f05aa6d60e11b815290516001600160a01b0390921693508392635e0b54da92600480840193829003018186803b15801561319b57600080fd5b505afa1580156131af573d6000803e3d6000fd5b505050506040513d601f19601f820116820180604052508101906131d39190614ca7565b8383815181106131e5576131e5614e36565b602090810291909101015250806131fb81614ed7565b9150506130fe565b600154610100900460ff161580801561322057506001805460ff16105b806132395750303b15801561323957506001805460ff16145b61329c5760405162461bcd60e51b815260206004820152602e60248201527f496e697469616c697a61626c653a20636f6e747261637420697320616c72656160448201526d191e481a5b9a5d1a585b1a5e995960921b6064820152608401610c70565b6001805460ff19168117905580156132be576001805461ff0019166101001790555b60006132c86141cc565b6001600160a01b0316141561332a5760405162461bcd60e51b815260206004820152602260248201527f4d7573742062652063616c6c65642066726f6d2070726f787920636f6e74726160448201526118dd60f21b6064820152608401610c70565b826133336139cb565b5561333e85836141f4565b61334784614206565b80156123e1576001805461ff00191681556040519081527f7f26b83ff96e1f2b6a682f133852f6798a09c465da95921460cefb38474024989060200160405180910390a15050505050565b6000600260005414156133b75760405162461bcd60e51b8152600401610c7090614c46565b60026000908155869086906133ca6139cb565b6000848152600391909101602090815260408083208584529091529020546001600160a01b0316141561340f5760405162461bcd60e51b8152600401610c7090614c7d565b604051639519832b60e01b815260048101899052336024820152600090737B502aa51fE8255c2723502586202Bb96C740C8090639519832b9060440160206040518083038186803b15801561346357600080fd5b505af4158015613477573d6000803e3d6000fd5b505050506040513d601f19601f8201168201806040525081019061349b9190614ca7565b905060146134aa826001614e1e565b11156134f15760405162461bcd60e51b8152602060048201526016602482015275546f6f206d616e7920616374697665206f726465727360501b6044820152606401610c70565b613520886134fd6139cb565b60008c8152600691909101602090815260408083203384529091529020906140a9565b61355557613553886135306139cb565b60008c81526006919091016020908152604080832033845290915290209061429b565b505b61355d614070565b6001600160a01b03166328ff7a42338b898b6040518563ffffffff1660e01b815260040161358e949392919061502a565b60206040518083038186803b1580156135a657600080fd5b505afa1580156135ba573d6000803e3d6000fd5b505050506040513d601f19601f820116820180604052508101906135de9190615055565b6136225760405162461bcd60e51b8152602060048201526015602482015274139bdd08195b9bdd59da0818dbdb1b185d195c985b605a1b6044820152606401610c70565b61362a6139cb565b60008a8152600391909101602090815260408083208b8452909152908190205490516328378aab60e01b81526001600160a01b03909116906328378aab9061367c908a9033908b908b90600401615072565b600060405180830381600087803b15801561369657600080fd5b505af11580156136aa573d6000803e3d6000fd5b505050506136d3896136ba6139cb565b336000908152600591909101602052604090209061429b565b5060019350505050600160005595945050505050565b336136f2612931565b6001600160a01b0316146137185760405162461bcd60e51b8152600401610c7090614ef2565b6001600160a01b03811661377d5760405162461bcd60e51b815260206004820152602660248201527f4f776e61626c653a206e6577206f776e657220697320746865207a65726f206160448201526564647265737360d01b6064820152608401610c70565b611447816140c1565b6000600260005414156137ab5760405162461bcd60e51b8152600401610c7090614c46565b60026000908155869086906137be6139cb565b6000848152600391909101602090815260408083208584529091529020546001600160a01b031614156138035760405162461bcd60e51b8152600401610c7090614c7d565b611bbf8888338989896000613c43565b60008061381e6139cb565b6001600160a01b03841660009081526005919091016020526040812091505b61384682614132565b811015613996576000613859838361413c565b90506000737B502aa51fE8255c2723502586202Bb96C740C80634ad23880836000896040518463ffffffff1660e01b815260040161389993929190614ba3565b60e06040518083038186803b1580156138b157600080fd5b505af41580156138c5573d6000803e3d6000fd5b505050506040513d601f19601f820116820180604052508101906138e99190614bc2565b5190506138f46142a7565b6040516303a0a22f60e41b815260048101849052602481018390526001600160a01b039190911690633a0a22f09060440160206040518083038186803b15801561393d57600080fd5b505afa158015613951573d6000803e3d6000fd5b505050506040513d601f19601f820116820180604052508101906139759190614ca7565b61397f90866150a4565b94505050808061398e90614ed7565b91505061383d565b5050919050565b6060611d266139aa6139cb565b6001600160a01b0384166000908152600591909101602052604090206142b1565b7f8041b8421ebd495cc61f38c788c9eb100daccf9bd36aa0bb920b7a15b2e0496590565b600080821215613a415760405162461bcd60e51b815260206004820181905260248201527f53616665436173743a2076616c7565206d75737420626520706f7369746976656044820152606401610c70565b5090565b8215613b74576040516305bc8af360e11b8152737B502aa51fE8255c2723502586202Bb96C740C8090630b7915e690613a8e908b908b908b908b908a908c908a906004016150e5565b60006040518083038186803b158015613aa657600080fd5b505af4158015613aba573d6000803e3d6000fd5b5050505073fFE89cDCE17105a0B114103276F3FBE64f2C83FC63e88e18378989613b027f55cc3066d618b5a688ac1f2a8234e21c685f7432b4230a1660309640d60d8f665490565b6040516001600160e01b031960e086901b168152600481019390935260248301919091526044820152606481018590526084810187905260a4810186905260c40160006040518083038186803b158015613b5b57600080fd5b505af4158015613b6f573d6000803e3d6000fd5b505050505b5050505050505050565b604081015115613c00578051604080830151602084015191516305bc8af360e11b8152737B502aa51fE8255c2723502586202Bb96C740C8093630b7915e693613bd4938a938a93928a92916000906004016150e5565b60006040518083038186803b158015613bec57600080fd5b505af4158015613b74573d6000803e3d6000fd5b50505050565b6000613c118261407f565b8015611d265750506001600160a01b031660009081526000805160206152138339815191526020526040902054431190565b6000808411613c855760405162461bcd60e51b815260206004820152600e60248201526d125b9d985b1a5908185b5bdd5b9d60921b6044820152606401610c70565b604051639519832b60e01b8152600481018990526001600160a01b0387166024820152600090737B502aa51fE8255c2723502586202Bb96C740C8090639519832b9060440160206040518083038186803b158015613ce257600080fd5b505af4158015613cf6573d6000803e3d6000fd5b505050506040513d601f19601f82011682018060405250810190613d1a9190614ca7565b9050613d5488613d286139cb565b60008c8152600691909101602090815260408083206001600160a01b038d1684529091529020906140a9565b613d9257613d9088613d646139cb565b60008c8152600691909101602090815260408083206001600160a01b038d16845290915290209061429b565b505b82613e6457613d9f614070565b6001600160a01b03166328ff7a42888b888a6040518563ffffffff1660e01b8152600401613dd0949392919061502a565b60206040518083038186803b158015613de857600080fd5b505afa158015613dfc573d6000803e3d6000fd5b505050506040513d601f19601f82011682018060405250810190613e209190615055565b613e645760405162461bcd60e51b8152602060048201526015602482015274139bdd08195b9bdd59da0818dbdb1b185d195c985b605a1b6044820152606401610c70565b600080600080613e726139cb565b60008e8152600391909101602090815260408083208f845290915290819020549051633352870560e21b81526001600160a01b039091169063cd4a1c1490613ec6908d908f908e908e908e9060040161512d565b60c060405180830381600087803b158015613ee057600080fd5b505af1158015613ef4573d6000803e3d6000fd5b505050506040513d601f19601f82011682018060405250810190613f189190615169565b93509350935093508089613f2c91906151a7565b9550600087613fad57831580613f425750600082115b15613f5557613f52600187614e1e565b95505b6014861115613f9f5760405162461bcd60e51b8152602060048201526016602482015275546f6f206d616e7920616374697665206f726465727360501b6044820152606401610c70565b613faa8e858f6142bc565b90505b613fbd8e8e8e8e8b898b88613a45565b613feb8e8e60008e6001811115613fd657613fd6614ce4565b14613fe2576000613fe5565b60015b86613b7e565b6140198e613ff76139cb565b6001600160a01b038f166000908152600591909101602052604090209061429b565b50505050505050979650505050505050565b436000805160206152138339815191525b6001600160a01b039092166000908152602092909252604090912055565b600060008051602061521383398151915261403c565b600061407a614337565b905090565b6001600160a01b031660009081526000805160206152138339815191526020526040902054151590565b600081815260018301602052604081205415156129ee565b7f9acda75aebd150dd434541a4747a6dc606f4f1a59662477e67daf1fc0bf9e0aa80546001600160a01b038381166001600160a01b0319831681179093556040519116919082907f8be0079c531659141344cd1fd0a4f28419497f9722a3daafe3b4186f6b6457e090600090a35050565b6000611d26825490565b60006129ee838361434f565b600061407a614379565b7f55cc3066d618b5a688ac1f2a8234e21c685f7432b4230a1660309640d60d8f66548181146115fc57816000805160206152538339815191526002015560408051828152602081018490527fb310034e792eb345456b77ee9b3ade0d30b9866d547921c8f4d5e9273c941a90910160405180910390a15050565b60007f360894a13ba1a3210667c828492db98dca3e2076cc3735a920a3ca505d382bbc610ae8565b6141fd826140c1565b6115fc81614152565b600080516020615233833981519152546001600160a01b03161561426c5760405162461bcd60e51b815260206004820152601b60248201527f7265736f6c766572207265676973746572656420616c726561647900000000006044820152606401610c70565b60008051602061523383398151915280546001600160a01b0319166001600160a01b0392909216919091179055565b60006129ee8383614392565b600061407a6143e1565b6060611d2682614401565b60008142106142dd5760405162461bcd60e51b8152600401610c7090614c7d565b60006142e942846151a7565b9050612eb76142fe6127106301e133806151be565b6000878152600080516020615253833981519152602052604090205486906143279085906151be565b61433191906151be565b9061445c565b600061407a69151bdad95b95985d5b1d60b21b6144cd565b600082600001828154811061436657614366614e36565b9060005260206000200154905092915050565b600061407a6a14995cd95c9d99519d5b9960aa1b6144cd565b60008181526001830160205260408120546143d957508154600181810184556000848152602080822090930184905584548482528286019093526040902091909155611d26565b506000611d26565b600061407a7121bab93932b731bca1b7b73a3937b63632b960711b6144cd565b60608160000180548060200260200160405190810160405280929190818152602001828054801561199157602002820191906000526020600020905b81548152602001906001019080831161443d5750505050509050919050565b600080821161446a57600080fd5b600561447683856151dd565b61448190600a6151be565b8361448d86600a6151be565b61449791906151dd565b6144a191906151a7565b10156144b8576144b182846151dd565b9050611d26565b6144c282846151dd565b6144b1906001614e1e565b60008181527f4abde63c3e81aefa5764b017968bc473e83e093d7e1a10247d19e0a3e41240196020908152604080832054815170026b4b9b9b4b7339030b2323932b9b99d1607d1b9381019390935260318084018690528251808503909101815260519093019091526001600160a01b03169081611e975760405162461bcd60e51b8152600401610c7091906151ff565b6001600160a01b038116811461144757600080fd5b60008060006060848603121561458857600080fd5b83356145938161455e565b95602085013595506040909401359392505050565b6000602082840312156145ba57600080fd5b5035919050565b6000806000606084860312156145d657600080fd5b505081359360208301359350604090920135919050565b600081518084526020808501945080840160005b8381101561461d57815187529582019590820190600101614601565b509495945050505050565b60608152600061463b60608301866145ed565b828103602084015261464d81866145ed565b9050828103604084015261466181856145ed565b9695505050505050565b6000806040838503121561467e57600080fd5b8235915060208301356146908161455e565b809150509250929050565b600080604083850312156146ae57600080fd5b50508035926020909101359150565b600080600080600060a086880312156146d557600080fd5b85359450602086013593506040860135925060608601356146f58161455e565b9150608086013562ffffff8116811461470d57600080fd5b809150509295509295909350565b801515811461144757600080fd5b60006020828403121561473b57600080fd5b81356129ee8161471b565b60008060006060848603121561475b57600080fd5b833592506020840135915060408401356147748161455e565b809150509250925092565b6020808252825182820181905260009190848201906040850190845b818110156147c05783516001600160a01b03168352928401929184019160010161479b565b50909695505050505050565b6020808252825182820181905260009190848201906040850190845b818110156147c0578351835292840192918401916001016147e8565b6002811061144757600080fd5b600080600080600060a0868803121561482957600080fd5b8535945060208601359350604086013561484281614804565b94979396509394606081013594506080013592915050565b60008060006060848603121561486f57600080fd5b8335925060208401359150604084013565ffffffffffff8116811461477457600080fd5b6000602082840312156148a557600080fd5b81356129ee8161455e565b6020815260006129ee60208301846145ed565b600080600080600060a086880312156148db57600080fd5b505083359560208501359550604085013594606081013594506080013592509050565b634e487b7160e01b600052604160045260246000fd5b604051601f8201601f1916810167ffffffffffffffff8111828210171561493d5761493d6148fe565b604052919050565b600067ffffffffffffffff82111561495f5761495f6148fe565b5060051b60200190565b6000806040838503121561497c57600080fd5b823567ffffffffffffffff81111561499357600080fd5b8301601f810185136149a457600080fd5b803560206149b96149b483614945565b614914565b82815260059290921b830181019181810190888411156149d857600080fd5b938201935b838510156149f6578435825293820193908201906149dd565b98969091013596505050505050565b60008060008060808587031215614a1b57600080fd5b8435614a268161455e565b93506020850135614a368161455e565b93969395505050506040820135916060013590565b600080600080600080600080610100898b031215614a6857600080fd5b885197506020890151965060408901519550606089015194506080890151935060a0890151925060c0890151915060e0890151614aa48161471b565b809150509295985092959890939650565b600082601f830112614ac657600080fd5b81516020614ad66149b483614945565b82815260059290921b84018101918181019086841115614af557600080fd5b8286015b84811015614b105780518352918301918301614af9565b509695505050505050565b600080600060608486031215614b3057600080fd5b835167ffffffffffffffff80821115614b4857600080fd5b614b5487838801614ab5565b94506020860151915080821115614b6a57600080fd5b614b7687838801614ab5565b93506040860151915080821115614b8c57600080fd5b50614b9986828701614ab5565b9150509250925092565b92835260208301919091526001600160a01b0316604082015260600190565b600060e08284031215614bd457600080fd5b60405160e0810181811067ffffffffffffffff82111715614bf757614bf76148fe565b8060405250825181526020830151602082015260408301516040820152606083015160608201526080830151608082015260a083015160a082015260c083015160c08201528091505092915050565b6020808252601f908201527f5265656e7472616e637947756172643a207265656e7472616e742063616c6c00604082015260600190565b60208082526010908201526f496e76616c6964206d6174757269747960801b604082015260600190565b600060208284031215614cb957600080fd5b5051919050565b60008060408385031215614cd357600080fd5b505080516020909101519092909150565b634e487b7160e01b600052602160045260246000fd5b60028110614d1857634e487b7160e01b600052602160045260246000fd5b9052565b60608101614d2a8286614cfa565b6001600160a01b0393909316602082015260400152919050565b600060608284031215614d5657600080fd5b6040516060810181811067ffffffffffffffff82111715614d7957614d796148fe565b80604052508091508251614d8c8161455e565b8082525060208301516020820152604083015160408201525092915050565b60008060008060c08587031215614dc157600080fd5b845193506020850151925060408501519150614de08660608701614d44565b905092959194509250565b634e487b7160e01b600052601160045260246000fd5b6000600160ff1b821415614e1757614e17614deb565b5060000390565b60008219821115614e3157614e31614deb565b500190565b634e487b7160e01b600052603260045260246000fd5b6000815180845260005b81811015614e7257602081850181015186830182015201614e56565b81811115614e84576000602083870101525b50601f01601f19169290920160200192915050565b828152604060208201526000614eb26040830184614e4c565b949350505050565b600060208284031215614ecc57600080fd5b81516129ee8161455e565b6000600019821415614eeb57614eeb614deb565b5060010190565b6020808252818101527f4f776e61626c653a2063616c6c6572206973206e6f7420746865206f776e6572604082015260600190565b600080600060608486031215614f3c57600080fd5b8351614f4781614804565b602085015160409095015190969495509392505050565b600080600080600080600060e0888a031215614f7957600080fd5b5050855160208701516040880151606089015160808a015160a08b015160c0909b0151949c939b50919990985090965094509092509050565b600080600060608486031215614fc757600080fd5b8351614fd28161455e565b6020850151909350614fe38161455e565b80925050604084015190509250925092565b60008060c0838503121561500857600080fd5b6150128484614d44565b91506150218460608501614d44565b90509250929050565b6001600160a01b0385168152602081018490526040810183905260808101612eb76060830184614cfa565b60006020828403121561506757600080fd5b81516129ee8161471b565b608081016150808287614cfa565b6001600160a01b039490941660208201526040810192909252606090910152919050565b600080821280156001600160ff1b03849003851316156150c6576150c6614deb565b600160ff1b83900384128116156150df576150df614deb565b50500190565b878152602081018790526001600160a01b038616604082015260e0810161510f6060830187614cfa565b8460808301528360a08301528260c083015298975050505050505050565b60a0810161513b8288614cfa565b6001600160a01b03959095166020820152604081019390935260608301919091521515608090910152919050565b60008060008060c0858703121561517f57600080fd5b84519350602085015192506151978660408701614d44565b60a0959095015193969295505050565b6000828210156151b9576151b9614deb565b500390565b60008160001904831182151516156151d8576151d8614deb565b500290565b6000826151fa57634e487b7160e01b600052601260045260246000fd5b500490565b6020815260006129ee6020830184614e4c56fe19bfb841e3f2b667d170c57909e7685dd6a0cee80d36344e04905cfd7d917bd74abde63c3e81aefa5764b017968bc473e83e093d7e1a10247d19e0a3e412401855cc3066d618b5a688ac1f2a8234e21c685f7432b4230a1660309640d60d8f6455cc3066d618b5a688ac1f2a8234e21c685f7432b4230a1660309640d60d8f65a2646970667358221220644ab82e51e365ad8164876330d55b53edce6f63e69110a5fb581c6fb2f3ce1464736f6c63430008090033",
  "deployedBytecode": "0x6080604052600436106102e45760003560e01c80637c63039d11610190578063bfe61a28116100dc578063eb990c5911610095578063f2fde38b1161006f578063f2fde38b1461098f578063faca409b146109af578063fb54a6b3146109cf578063fc700810146109ef57600080fd5b8063eb990c591461091b578063ebb914161461093b578063f1eaebae1461095b57600080fd5b8063bfe61a2814610859578063cb9d74011461086c578063e0997659146108a6578063e906c100146108bb578063e99d0538146108db578063eb092a26146108fb57600080fd5b80638c197d8d11610149578063953dbcaa11610123578063953dbcaa146107d9578063a02be3dc146107f9578063b3cb845014610819578063bfd10cf61461083957600080fd5b80638c197d8d146107845780638da5cb5b146107a45780639519832b146107b957600080fd5b80637c63039d146106c4578063826b47e8146106e457806385323e1a14610704578063891d5965146107245780638a981745146107445780638b36d8331461076457600080fd5b80632f7495741161024f57806355aceb4e1161020857806370c641a6116101e257806370c641a61461064f578063715018a61461066f57806372d563ef14610684578063766cb64e146106a457600080fd5b806355aceb4e146105ad5780635c347765146105da5780635ca65d571461062f57600080fd5b80632f749574146104eb578063381ada1f1461050b5780633d03b9da14610538578063448255c71461055a57806349f2ccbf1461056d578063529a356f1461058d57600080fd5b806322365261116102a1578063223652611461043f578063268bb2791461045f57806329985e5a146104815780632af64bd3146104965780632e6c5e67146104ab5780632e77aea7146104cb57600080fd5b80630312b528146102e957806303e5fb591461034b57806304f3bcec146103935780630594de6e146103c057806317b72ff4146103ef5780631deb8f391461040f575b600080fd5b3480156102f557600080fd5b50610309610304366004614573565b610a0f565b604080519889526020890197909752958701949094526060860192909252608085015260a084015260c0830152151560e0820152610100015b60405180910390f35b34801561035757600080fd5b506103856103663660046145a8565b6000908152600080516020615253833981519152602052604090205490565b604051908152602001610342565b34801561039f57600080fd5b506103a8610ad6565b6040516001600160a01b039091168152602001610342565b3480156103cc57600080fd5b506103e06103db3660046145c1565b610af7565b60405161034293929190614628565b3480156103fb57600080fd5b5061038561040a36600461466b565b610bb6565b34801561041b57600080fd5b5061042f61042a36600461469b565b610c4b565b6040519015158152602001610342565b34801561044b57600080fd5b5061042f61045a3660046146bd565b6110bb565b34801561046b57600080fd5b5061047f61047a366004614729565b611438565b005b34801561048d57600080fd5b5061047f611453565b3480156104a257600080fd5b5061042f611600565b3480156104b757600080fd5b5061042f6104c63660046145a8565b611766565b3480156104d757600080fd5b506103856104e6366004614746565b611786565b3480156104f757600080fd5b5061047f61050636600461469b565b61181c565b34801561051757600080fd5b5061052b6105263660046145a8565b61191f565b604051610342919061477f565b34801561054457600080fd5b5061054d61199d565b60405161034291906147cc565b61042f610568366004614811565b611abf565b34801561057957600080fd5b5061042f61058836600461485a565b611bd4565b34801561059957600080fd5b5061042f6105a8366004614893565b611d1b565b3480156105b957600080fd5b506105cd6105c83660046145a8565b611d2c565b60405161034291906148b0565b3480156105e657600080fd5b506105fa6105f536600461466b565b611e9e565b604080519788526020880196909652948601939093526060850191909152608084015260a083015260c082015260e001610342565b34801561063b57600080fd5b5061047f61064a36600461469b565b611f89565b34801561065b57600080fd5b5061038561066a36600461466b565b61207b565b34801561067b57600080fd5b5061047f612113565b34801561069057600080fd5b5061047f61069f36600461469b565b61214e565b3480156106b057600080fd5b5061047f6106bf3660046148c3565b612291565b3480156106d057600080fd5b5061042f6106df366004614969565b6123e8565b3480156106f057600080fd5b5061047f6106ff366004614893565b612515565b34801561071057600080fd5b506103a861071f36600461469b565b612603565b34801561073057600080fd5b5061038561073f3660046145a8565b612665565b34801561075057600080fd5b506103a861075f36600461469b565b612683565b34801561077057600080fd5b5061047f61077f3660046145a8565b6126b5565b34801561079057600080fd5b5061047f61079f3660046145a8565b6128f9565b3480156107b057600080fd5b506103a8612931565b3480156107c557600080fd5b506103856107d436600461466b565b612959565b3480156107e557600080fd5b506103e06107f43660046145c1565b6129f5565b34801561080557600080fd5b506105cd6108143660046145a8565b612a54565b34801561082557600080fd5b5061042f6108343660046145a8565b612bbf565b34801561084557600080fd5b506105cd6108543660046145a8565b612cc4565b61042f610867366004614811565b612e2f565b34801561087857600080fd5b506103856108873660046145a8565b6000908152600080516020615273833981519152602052604090205490565b3480156108b257600080fd5b5061054d612ec0565b3480156108c757600080fd5b506103856108d6366004614746565b612f03565b3480156108e757600080fd5b5061042f6108f63660046145a8565b612f9c565b34801561090757600080fd5b506105cd6109163660046145a8565b613098565b34801561092757600080fd5b5061047f610936366004614a05565b613203565b34801561094757600080fd5b5061042f610956366004614811565b613392565b34801561096757600080fd5b507f55cc3066d618b5a688ac1f2a8234e21c685f7432b4230a1660309640d60d8f6654610385565b34801561099b57600080fd5b5061047f6109aa366004614893565b6136e9565b3480156109bb57600080fd5b5061042f6109ca366004614811565b613786565b3480156109db57600080fd5b506103856109ea366004614893565b613813565b3480156109fb57600080fd5b5061054d610a0a366004614893565b61399d565b604051626256a560e31b81526001600160a01b03841660048201526024810183905260448101829052600090819081908190819081908190819073__$1f9ad3a48ce553524574a0c26027261f08$__90630312b528906064016101006040518083038186803b158015610a8157600080fd5b505af4158015610a95573d6000803e3d6000fd5b505050506040513d601f19601f82011682018060405250810190610ab99190614a4b565b975097509750975097509750975097509397509397509397509397565b60006000805160206152338339815191525b546001600160a01b0316919050565b60608060606000610b066139cb565b600088815260039190910160209081526040808320898452909152908190205490516325fb168b60e11b8152600481018790526001600160a01b0390911691508190634bf62d16906024015b60006040518083038186803b158015610b6a57600080fd5b505afa158015610b7e573d6000803e3d6000fd5b505050506040513d6000823e601f3d908101601f19168201604052610ba69190810190614b1b565b9350935093505093509350939050565b6040516295a47160e71b815260009073__$1f9ad3a48ce553524574a0c26027261f08$__90634ad2388090610bf390869085908790600401614ba3565b60e06040518083038186803b158015610c0b57600080fd5b505af4158015610c1f573d6000803e3d6000fd5b505050506040513d601f19601f82011682018060405250810190610c439190614bc2565b519392505050565b600060026000541415610c795760405162461bcd60e51b8152600401610c7090614c46565b60405180910390fd5b6002600090815583908390610c8c6139cb565b6000848152600391909101602090815260408083208584529091529020546001600160a01b03161415610cd15760405162461bcd60e51b8152600401610c7090614c7d565b604051639519832b60e01b81526004810186905233602482015273__$1f9ad3a48ce553524574a0c26027261f08$__90639519832b9060440160206040518083038186803b158015610d2257600080fd5b505af4158015610d36573d6000803e3d6000fd5b505050506040513d601f19601f82011682018060405250810190610d5a9190614ca7565b506000610d656139cb565b6000878152600391909101602090815260408083208884529091528120546001600160a01b0316915080610d976139cb565b6000898152600291909101602090815260408083206001600160a01b03878116855292529182902054915163070da1af60e11b8152336004820152911690630e1b435e90602401604080518083038186803b158015610df557600080fd5b505afa158015610e09573d6000803e3d6000fd5b505050506040513d601f19601f82011682018060405250810190610e2d9190614cc0565b915091508160001415610e795760405162461bcd60e51b81526020600482015260146024820152734675747572652056616c7565206973207a65726f60601b6044820152606401610c70565b808714610e985760405162461bcd60e51b8152600401610c7090614c7d565b6000806000610eca604051806060016040528060006001600160a01b0316815260200160008152602001600081525090565b600080871315610f9557506001610edf6139cb565b60008e8152600391909101602090815260408083208f84529091529020546001600160a01b0316634c2afa2e8233610f168b6139ef565b6040518463ffffffff1660e01b8152600401610f3493929190614d1c565b60c060405180830381600087803b158015610f4e57600080fd5b505af1158015610f62573d6000803e3d6000fd5b505050506040513d601f19601f82011682018060405250810190610f869190614dab565b92975090955093509150611063565b600087121561106357506000610fa96139cb565b60008e8152600391909101602090815260408083208f84529091529020546001600160a01b0316634c2afa2e8233610fe8610fe38c614e01565b6139ef565b6040518463ffffffff1660e01b815260040161100693929190614d1c565b60c060405180830381600087803b15801561102057600080fd5b505af1158015611034573d6000803e3d6000fd5b505050506040513d601f19601f820116820180604052508101906110589190614dab565b929750909550935091505b6110748d8d338488888b6000613a45565b6110a28d8d600084600181111561108d5761108d614ce4565b1461109957600061109c565b60015b85613b7e565b60019a5050505050505050505050600160005592915050565b6000600260005414156110e05760405162461bcd60e51b8152600401610c7090614c46565b60026000908155859085906110f36139cb565b6000848152600391909101602090815260408083208584529091529020546001600160a01b031614156111385760405162461bcd60e51b8152600401610c7090614c7d565b333b1561117c5760405162461bcd60e51b815260206004820152601260248201527143616c6c6572206d75737420626520454f4160701b6044820152606401610c70565b61118533613c06565b6111c85760405162461bcd60e51b815260206004820152601460248201527343616c6c6572206973206e6f742061637469766560601b6044820152606401610c70565b604051639519832b60e01b8152600481018890526001600160a01b038616602482015273__$1f9ad3a48ce553524574a0c26027261f08$__90639519832b9060440160206040518083038186803b15801561122257600080fd5b505af4158015611236573d6000803e3d6000fd5b505050506040513d601f19601f8201168201806040525081019061125a9190614ca7565b50604051639c599f8b60e01b81523360048201526001600160a01b038616602482015260448101899052606481018890526084810187905262ffffff851660a4820152600090819073__$1f9ad3a48ce553524574a0c26027261f08$__90639c599f8b9060c401604080518083038186803b1580156112d857600080fd5b505af41580156112ec573d6000803e3d6000fd5b505050506040513d601f19601f820116820180604052508101906113109190614cc0565b90925090508082156113405760006113308b8b8b60008860006001613c43565b905061133c8183614e1e565b9150505b801561142157888a896001600160a01b03167f347d8f9576f47b3bd7a4821cd3d3d4171968cdd36680d4abaca7de302d836f998e8560405161138c929190918252602082015260400190565b60405180910390a460405163300074c960e01b815273__$1f9ad3a48ce553524574a0c26027261f08$__9063300074c9906113cf908d908d908d90600401614ba3565b60206040518083038186803b1580156113e757600080fd5b505af41580156113fb573d6000803e3d6000fd5b505050506040513d601f19601f8201168201806040525081019061141f9190614ca7565b505b600195505050505050600160005595945050505050565b801561144a576114473361402b565b50565b6114473361405a565b600061145d61199d565b905060005b81518110156115fc57600082828151811061147f5761147f614e36565b6020026020010151905060006114a060008051602061523383398151915290565b54604080517f5265736f6c766572206d697373696e67207461726765743a200000000000000060208201526039808201869052825180830390910181526059820192839052636795dbcd60e01b9092526001600160a01b0390921691636795dbcd9161151191869190605d01614e99565b60206040518083038186803b15801561152957600080fd5b505afa15801561153d573d6000803e3d6000fd5b505050506040513d601f19601f820116820180604052508101906115619190614eba565b60008381527f4abde63c3e81aefa5764b017968bc473e83e093d7e1a10247d19e0a3e4124019602090815260409182902080546001600160a01b0319166001600160a01b03851690811790915582518681529182015281519293507f88a93678a3692f6789d9546fc621bf7234b101ddb7d4fe479455112831b8aa68929081900390910190a1505080806115f490614ed7565b915050611462565b5050565b60008061160b61199d565b905060005b815181101561175d57600082828151811061162d5761162d614e36565b6020026020010151905061164c60008051602061523383398151915290565b600082815260019190910160205260409020546001600160a01b0316600080516020615233833981519152546040516321f8a72160e01b8152600481018490526001600160a01b03909116906321f8a7219060240160206040518083038186803b1580156116b957600080fd5b505afa1580156116cd573d6000803e3d6000fd5b505050506040513d601f19601f820116820180604052508101906116f19190614eba565b6001600160a01b031614158061173b575060008181527f4abde63c3e81aefa5764b017968bc473e83e093d7e1a10247d19e0a3e412401960205260409020546001600160a01b0316155b1561174a576000935050505090565b508061175581614ed7565b915050611610565b50600191505090565b60006117706139cb565b6000928352600401602052506040902054151590565b6040516295a47160e71b815260009073__$1f9ad3a48ce553524574a0c26027261f08$__90634ad23880906117c390879087908790600401614ba3565b60e06040518083038186803b1580156117db57600080fd5b505af41580156117ef573d6000803e3d6000fd5b505050506040513d601f19601f820116820180604052508101906118139190614bc2565b51949350505050565b33611825612931565b6001600160a01b03161461184b5760405162461bcd60e51b8152600401610c7090614ef2565b61271081111561189d5760405162461bcd60e51b815260206004820152601a60248201527f496e76616c6964206175746f2d726f6c6c2066656520726174650000000000006044820152606401610c70565b6000828152600080516020615273833981519152602052604090205481811461191a576000838152600080516020615273833981519152602090815260409182902084905581518381529081018490527fdfbb9051e39a726dacd506a01fecef2277ab8adc7423037867c554573f179fdb91015b60405180910390a15b505050565b60606119296139cb565b600101600083815260200190815260200160002080548060200260200160405190810160405280929190818152602001828054801561199157602002820191906000526020600020905b81546001600160a01b03168152600190910190602001808311611973575b50505050509050919050565b60408051600580825260c082019092526060916020820160a080368337019050509050742132b0b1b7b7283937bc3ca1b7b73a3937b63632b960591b816000815181106119ec576119ec614e36565b6020026020010181815250507121bab93932b731bca1b7b73a3937b63632b960711b81600181518110611a2157611a21614e36565b6020026020010181815250507011d95b995cda5cd5985b1d5955985d5b1d607a1b81600281518110611a5557611a55614e36565b6020026020010181815250506a14995cd95c9d99519d5b9960aa1b81600381518110611a8357611a83614e36565b60200260200101818152505069151bdad95b95985d5b1d60b21b81600481518110611ab057611ab0614e36565b60200260200101818152505090565b600060026000541415611ae45760405162461bcd60e51b8152600401610c7090614c46565b6002600090815586908690611af76139cb565b6000848152600391909101602090815260408083208584529091529020546001600160a01b03161415611b3c5760405162461bcd60e51b8152600401610c7090614c7d565b611b44614070565b6040516396994e3760e01b8152336004820152602481018a9052604481018790526001600160a01b0391909116906396994e379034906064016000604051808303818588803b158015611b9657600080fd5b505af1158015611baa573d6000803e3d6000fd5b5050505050611bbf8888338989896000613c43565b50600192505050600160005595945050505050565b600060026000541415611bf95760405162461bcd60e51b8152600401610c7090614c46565b6002600090815584908490611c0c6139cb565b6000848152600391909101602090815260408083208584529091529020546001600160a01b03161415611c515760405162461bcd60e51b8152600401610c7090614c7d565b6000611c5b6139cb565b6000888152600391909101602090815260408083208984529091529081902054905163504b89bd60e01b815233600482015265ffffffffffff871660248201526001600160a01b039091169150819063504b89bd90604401606060405180830381600087803b158015611ccd57600080fd5b505af1158015611ce1573d6000803e3d6000fd5b505050506040513d601f19601f82011682018060405250810190611d059190614f27565b5050506001935050505060016000559392505050565b6000611d268261407f565b92915050565b60606000611d386139cb565b6000848152600191909101602052604090205467ffffffffffffffff811115611d6357611d636148fe565b604051908082528060200260200182016040528015611d8c578160200160208202803683370190505b50905060005b611d9a6139cb565b60008581526001919091016020526040902054811015611e97576000611dbe6139cb565b60010160008681526020019081526020016000208281548110611de357611de3614e36565b6000918252602091829020015460408051631b3508b760e01b815290516001600160a01b0390921693508392631b3508b792600480840193829003018186803b158015611e2f57600080fd5b505afa158015611e43573d6000803e3d6000fd5b505050506040513d601f19601f82011682018060405250810190611e679190614ca7565b838381518110611e7957611e79614e36565b60209081029190910101525080611e8f81614ed7565b915050611d92565b5092915050565b6000806000806000806000611ed789611eb56139cb565b6001600160a01b038b16600090815260059190910160205260409020906140a9565b15611f7d57604051635c34776560e01b8152600481018a90526001600160a01b038916602482015273__$1f9ad3a48ce553524574a0c26027261f08$__90635c3477659060440160e06040518083038186803b158015611f3657600080fd5b505af4158015611f4a573d6000803e3d6000fd5b505050506040513d601f19601f82011682018060405250810190611f6e9190614f5e565b96509650965096509650965096505b92959891949750929550565b33611f92612931565b6001600160a01b031614611fb85760405162461bcd60e51b8152600401610c7090614ef2565b6127108111156120035760405162461bcd60e51b8152602060048201526016602482015275496e76616c6964206f7264657220666565207261746560501b6044820152606401610c70565b6000828152600080516020615253833981519152602052604090205481811461191a576000838152600080516020615253833981519152602090815260409182902084905581518381529081018490527fff4528c215dc00005504418aa82be3bb2439c39be2eb30fd44012f5e79d168e29101611911565b6040516295a47160e71b815260009073__$1f9ad3a48ce553524574a0c26027261f08$__90634ad23880906120b890869085908790600401614ba3565b60e06040518083038186803b1580156120d057600080fd5b505af41580156120e4573d6000803e3d6000fd5b505050506040513d601f19601f820116820180604052508101906121089190614bc2565b60c001519392505050565b3361211c612931565b6001600160a01b0316146121425760405162461bcd60e51b8152600401610c7090614ef2565b61214c60006140c1565b565b33612157612931565b6001600160a01b03161461217d5760405162461bcd60e51b8152600401610c7090614ef2565b6040516372d563ef60e01b815260048101839052602481018290526000908190819073__$e769a865965cc8d3bf1590a15a9475ad85$__906372d563ef9060440160606040518083038186803b1580156121d657600080fd5b505af41580156121ea573d6000803e3d6000fd5b505050506040513d601f19601f8201168201806040525081019061220e9190614fb2565b925092509250826001600160a01b0316857fc29f3eef4e596f3e26da74f3482ffe2325449509e985d19f0a099240429add4e846122496139cb565b60008a815260019190910160209081526040918290205482516001600160a01b0390941684529083015281018890526060810185905260800160405180910390a35050505050565b3361229a612931565b6001600160a01b0316146122c05760405162461bcd60e51b8152600401610c7090614ef2565b600083116123105760405162461bcd60e51b815260206004820152601760248201527f496e76616c696420636f6d706f756e6420666163746f720000000000000000006044820152606401610c70565b61231985611766565b1561235c5760405162461bcd60e51b8152602060048201526013602482015272105b1c9958591e481a5b9a5d1a585b1a5e9959606a1b6044820152606401610c70565b60405163d3f43b7960e01b815260048101869052602481018590526044810184905273__$e769a865965cc8d3bf1590a15a9475ad85$__9063d3f43b799060640160006040518083038186803b1580156123b557600080fd5b505af41580156123c9573d6000803e3d6000fd5b505050506123d78583611f89565b6123e1858261181c565b5050505050565b60006002600054141561240d5760405162461bcd60e51b8152600401610c7090614c46565b600260009081555b835181101561250557600084828151811061243257612432614e36565b6020026020010151905060008073__$e769a865965cc8d3bf1590a15a9475ad85$__636a23a95c84886040518363ffffffff1660e01b8152600401612481929190918252602082015260400190565b60c06040518083038186803b15801561249957600080fd5b505af41580156124ad573d6000803e3d6000fd5b505050506040513d601f19601f820116820180604052508101906124d19190614ff5565b915091506124e28387600085613b7e565b6124ef8387600184613b7e565b50505080806124fd90614ed7565b915050612415565b5060019050600160005592915050565b600061251f6139cb565b6001600160a01b03831660009081526005919091016020526040812091505b61254782614132565b81101561191a5773__$1f9ad3a48ce553524574a0c26027261f08$__639519832b612572848461413c565b6040516001600160e01b031960e084901b16815260048101919091526001600160a01b038616602482015260440160206040518083038186803b1580156125b857600080fd5b505af41580156125cc573d6000803e3d6000fd5b505050506040513d601f19601f820116820180604052508101906125f09190614ca7565b50806125fb81614ed7565b91505061253e565b600061260d6139cb565b600084815260029190910160205260408120906126286139cb565b600095865260030160209081526040808720958752948152848620546001600160a01b039081168352908201929092529092019092205416919050565b600061266f6139cb565b600092835260040160205250604090205490565b600061268d6139cb565b600093845260030160209081526040808520938552929052509020546001600160a01b031690565b600260005414156126d85760405162461bcd60e51b8152600401610c7090614c46565b6002600090815581906126e96139cb565b60008381526001919091016020526040902054116127625760405162461bcd60e51b815260206004820152603060248201527f4e6f206c656e64696e67206d61726b65747320657869737420666f722061207360448201526f706563696669632063757272656e637960801b6064820152608401610c70565b60008073__$e769a865965cc8d3bf1590a15a9475ad85$__63a3d54d8c856127a3876000908152600080516020615273833981519152602052604090205490565b6040516001600160e01b031960e085901b16815260048101929092526024820152604401604080518083038186803b1580156127de57600080fd5b505af41580156127f2573d6000803e3d6000fd5b505050506040513d601f19601f820116820180604052508101906128169190614cc0565b9150915073__$1f9ad3a48ce553524574a0c26027261f08$__63300074c9858361283e614148565b6040518463ffffffff1660e01b815260040161285c93929190614ba3565b60206040518083038186803b15801561287457600080fd5b505af4158015612888573d6000803e3d6000fd5b505050506040513d601f19601f820116820180604052508101906128ac9190614ca7565b5060408051858152602081018490529081018290527f0c6f5a3bc801362dc3d24c87799fa831f5a601c5dbd8bed4064907844eef97369060600160405180910390a1505060016000555050565b33612902612931565b6001600160a01b0316146129285760405162461bcd60e51b8152600401610c7090614ef2565b61144781614152565b60007f9acda75aebd150dd434541a4747a6dc606f4f1a59662477e67daf1fc0bf9e0aa610ae8565b604051639519832b60e01b8152600481018390526001600160a01b038216602482015260009073__$1f9ad3a48ce553524574a0c26027261f08$__90639519832b9060440160206040518083038186803b1580156129b657600080fd5b505af41580156129ca573d6000803e3d6000fd5b505050506040513d601f19601f820116820180604052508101906129ee9190614ca7565b9392505050565b60608060606000612a046139cb565b6000888152600391909101602090815260408083208984529091529081902054905163d866d35560e01b8152600481018790526001600160a01b039091169150819063d866d35590602401610b52565b60606000612a606139cb565b6000848152600191909101602052604090205467ffffffffffffffff811115612a8b57612a8b6148fe565b604051908082528060200260200182016040528015612ab4578160200160208202803683370190505b50905060005b612ac26139cb565b60008581526001919091016020526040902054811015611e97576000612ae66139cb565b60010160008681526020019081526020016000208281548110612b0b57612b0b614e36565b600091825260209182902001546040805163e16695b560e01b815290516001600160a01b039092169350839263e16695b592600480840193829003018186803b158015612b5757600080fd5b505afa158015612b6b573d6000803e3d6000fd5b505050506040513d601f19601f82011682018060405250810190612b8f9190614ca7565b838381518110612ba157612ba1614e36565b60209081029190910101525080612bb781614ed7565b915050612aba565b600033612bca612931565b6001600160a01b031614612bf05760405162461bcd60e51b8152600401610c7090614ef2565b60005b612bfb6139cb565b60008481526001919091016020526040902054811015612cbb576000612c1f6139cb565b60010160008581526020019081526020016000208281548110612c4457612c44614e36565b60009182526020822001546040805163280dce3760e21b815290516001600160a01b039092169350839263a03738dc9260048084019382900301818387803b158015612c8f57600080fd5b505af1158015612ca3573d6000803e3d6000fd5b50505050508080612cb390614ed7565b915050612bf3565b50600192915050565b60606000612cd06139cb565b6000848152600191909101602052604090205467ffffffffffffffff811115612cfb57612cfb6148fe565b604051908082528060200260200182016040528015612d24578160200160208202803683370190505b50905060005b612d326139cb565b60008581526001919091016020526040902054811015611e97576000612d566139cb565b60010160008681526020019081526020016000208281548110612d7b57612d7b614e36565b60009182526020918290200154604080516371613c2d60e01b815290516001600160a01b03909216935083926371613c2d92600480840193829003018186803b158015612dc757600080fd5b505afa158015612ddb573d6000803e3d6000fd5b505050506040513d601f19601f82011682018060405250810190612dff9190614ca7565b838381518110612e1157612e11614e36565b60209081029190910101525080612e2781614ed7565b915050612d2a565b6000612e39614070565b6040516396994e3760e01b815233600482015260248101889052604481018590526001600160a01b0391909116906396994e379034906064016000604051808303818588803b158015612e8b57600080fd5b505af1158015612e9f573d6000803e3d6000fd5b5050505050612eb18686868686613392565b50600190505b95945050505050565b6040805160018082528183019092526060916020808301908036833701905050905069151bdad95b95985d5b1d60b21b81600081518110611ab057611ab0614e36565b6040516295a47160e71b815260009073__$1f9ad3a48ce553524574a0c26027261f08$__90634ad2388090612f4090879087908790600401614ba3565b60e06040518083038186803b158015612f5857600080fd5b505af4158015612f6c573d6000803e3d6000fd5b505050506040513d601f19601f82011682018060405250810190612f909190614bc2565b60200151949350505050565b600033612fa7612931565b6001600160a01b031614612fcd5760405162461bcd60e51b8152600401610c7090614ef2565b60005b612fd86139cb565b60008481526001919091016020526040902054811015612cbb576000612ffc6139cb565b6001016000858152602001908152602001600020828154811061302157613021614e36565b600091825260208220015460408051630b0863e760e11b815290516001600160a01b0390921693508392631610c7ce9260048084019382900301818387803b15801561306c57600080fd5b505af1158015613080573d6000803e3d6000fd5b5050505050808061309090614ed7565b915050612fd0565b606060006130a46139cb565b6000848152600191909101602052604090205467ffffffffffffffff8111156130cf576130cf6148fe565b6040519080825280602002602001820160405280156130f8578160200160208202803683370190505b50905060005b6131066139cb565b60008581526001919091016020526040902054811015611e9757600061312a6139cb565b6001016000868152602001908152602001600020828154811061314f5761314f614e36565b6000918252602091829020015460408051632f05aa6d60e11b815290516001600160a01b0390921693508392635e0b54da92600480840193829003018186803b15801561319b57600080fd5b505afa1580156131af573d6000803e3d6000fd5b505050506040513d601f19601f820116820180604052508101906131d39190614ca7565b8383815181106131e5576131e5614e36565b602090810291909101015250806131fb81614ed7565b9150506130fe565b600154610100900460ff161580801561322057506001805460ff16105b806132395750303b15801561323957506001805460ff16145b61329c5760405162461bcd60e51b815260206004820152602e60248201527f496e697469616c697a61626c653a20636f6e747261637420697320616c72656160448201526d191e481a5b9a5d1a585b1a5e995960921b6064820152608401610c70565b6001805460ff19168117905580156132be576001805461ff0019166101001790555b60006132c86141cc565b6001600160a01b0316141561332a5760405162461bcd60e51b815260206004820152602260248201527f4d7573742062652063616c6c65642066726f6d2070726f787920636f6e74726160448201526118dd60f21b6064820152608401610c70565b826133336139cb565b5561333e85836141f4565b61334784614206565b80156123e1576001805461ff00191681556040519081527f7f26b83ff96e1f2b6a682f133852f6798a09c465da95921460cefb38474024989060200160405180910390a15050505050565b6000600260005414156133b75760405162461bcd60e51b8152600401610c7090614c46565b60026000908155869086906133ca6139cb565b6000848152600391909101602090815260408083208584529091529020546001600160a01b0316141561340f5760405162461bcd60e51b8152600401610c7090614c7d565b604051639519832b60e01b81526004810189905233602482015260009073__$1f9ad3a48ce553524574a0c26027261f08$__90639519832b9060440160206040518083038186803b15801561346357600080fd5b505af4158015613477573d6000803e3d6000fd5b505050506040513d601f19601f8201168201806040525081019061349b9190614ca7565b905060146134aa826001614e1e565b11156134f15760405162461bcd60e51b8152602060048201526016602482015275546f6f206d616e7920616374697665206f726465727360501b6044820152606401610c70565b613520886134fd6139cb565b60008c8152600691909101602090815260408083203384529091529020906140a9565b61355557613553886135306139cb565b60008c81526006919091016020908152604080832033845290915290209061429b565b505b61355d614070565b6001600160a01b03166328ff7a42338b898b6040518563ffffffff1660e01b815260040161358e949392919061502a565b60206040518083038186803b1580156135a657600080fd5b505afa1580156135ba573d6000803e3d6000fd5b505050506040513d601f19601f820116820180604052508101906135de9190615055565b6136225760405162461bcd60e51b8152602060048201526015602482015274139bdd08195b9bdd59da0818dbdb1b185d195c985b605a1b6044820152606401610c70565b61362a6139cb565b60008a8152600391909101602090815260408083208b8452909152908190205490516328378aab60e01b81526001600160a01b03909116906328378aab9061367c908a9033908b908b90600401615072565b600060405180830381600087803b15801561369657600080fd5b505af11580156136aa573d6000803e3d6000fd5b505050506136d3896136ba6139cb565b336000908152600591909101602052604090209061429b565b5060019350505050600160005595945050505050565b336136f2612931565b6001600160a01b0316146137185760405162461bcd60e51b8152600401610c7090614ef2565b6001600160a01b03811661377d5760405162461bcd60e51b815260206004820152602660248201527f4f776e61626c653a206e6577206f776e657220697320746865207a65726f206160448201526564647265737360d01b6064820152608401610c70565b611447816140c1565b6000600260005414156137ab5760405162461bcd60e51b8152600401610c7090614c46565b60026000908155869086906137be6139cb565b6000848152600391909101602090815260408083208584529091529020546001600160a01b031614156138035760405162461bcd60e51b8152600401610c7090614c7d565b611bbf8888338989896000613c43565b60008061381e6139cb565b6001600160a01b03841660009081526005919091016020526040812091505b61384682614132565b811015613996576000613859838361413c565b9050600073__$1f9ad3a48ce553524574a0c26027261f08$__634ad23880836000896040518463ffffffff1660e01b815260040161389993929190614ba3565b60e06040518083038186803b1580156138b157600080fd5b505af41580156138c5573d6000803e3d6000fd5b505050506040513d601f19601f820116820180604052508101906138e99190614bc2565b5190506138f46142a7565b6040516303a0a22f60e41b815260048101849052602481018390526001600160a01b039190911690633a0a22f09060440160206040518083038186803b15801561393d57600080fd5b505afa158015613951573d6000803e3d6000fd5b505050506040513d601f19601f820116820180604052508101906139759190614ca7565b61397f90866150a4565b94505050808061398e90614ed7565b91505061383d565b5050919050565b6060611d266139aa6139cb565b6001600160a01b0384166000908152600591909101602052604090206142b1565b7f8041b8421ebd495cc61f38c788c9eb100daccf9bd36aa0bb920b7a15b2e0496590565b600080821215613a415760405162461bcd60e51b815260206004820181905260248201527f53616665436173743a2076616c7565206d75737420626520706f7369746976656044820152606401610c70565b5090565b8215613b74576040516305bc8af360e11b815273__$1f9ad3a48ce553524574a0c26027261f08$__90630b7915e690613a8e908b908b908b908b908a908c908a906004016150e5565b60006040518083038186803b158015613aa657600080fd5b505af4158015613aba573d6000803e3d6000fd5b5050505073__$e769a865965cc8d3bf1590a15a9475ad85$__63e88e18378989613b027f55cc3066d618b5a688ac1f2a8234e21c685f7432b4230a1660309640d60d8f665490565b6040516001600160e01b031960e086901b168152600481019390935260248301919091526044820152606481018590526084810187905260a4810186905260c40160006040518083038186803b158015613b5b57600080fd5b505af4158015613b6f573d6000803e3d6000fd5b505050505b5050505050505050565b604081015115613c00578051604080830151602084015191516305bc8af360e11b815273__$1f9ad3a48ce553524574a0c26027261f08$__93630b7915e693613bd4938a938a93928a92916000906004016150e5565b60006040518083038186803b158015613bec57600080fd5b505af4158015613b74573d6000803e3d6000fd5b50505050565b6000613c118261407f565b8015611d265750506001600160a01b031660009081526000805160206152138339815191526020526040902054431190565b6000808411613c855760405162461bcd60e51b815260206004820152600e60248201526d125b9d985b1a5908185b5bdd5b9d60921b6044820152606401610c70565b604051639519832b60e01b8152600481018990526001600160a01b038716602482015260009073__$1f9ad3a48ce553524574a0c26027261f08$__90639519832b9060440160206040518083038186803b158015613ce257600080fd5b505af4158015613cf6573d6000803e3d6000fd5b505050506040513d601f19601f82011682018060405250810190613d1a9190614ca7565b9050613d5488613d286139cb565b60008c8152600691909101602090815260408083206001600160a01b038d1684529091529020906140a9565b613d9257613d9088613d646139cb565b60008c8152600691909101602090815260408083206001600160a01b038d16845290915290209061429b565b505b82613e6457613d9f614070565b6001600160a01b03166328ff7a42888b888a6040518563ffffffff1660e01b8152600401613dd0949392919061502a565b60206040518083038186803b158015613de857600080fd5b505afa158015613dfc573d6000803e3d6000fd5b505050506040513d601f19601f82011682018060405250810190613e209190615055565b613e645760405162461bcd60e51b8152602060048201526015602482015274139bdd08195b9bdd59da0818dbdb1b185d195c985b605a1b6044820152606401610c70565b600080600080613e726139cb565b60008e8152600391909101602090815260408083208f845290915290819020549051633352870560e21b81526001600160a01b039091169063cd4a1c1490613ec6908d908f908e908e908e9060040161512d565b60c060405180830381600087803b158015613ee057600080fd5b505af1158015613ef4573d6000803e3d6000fd5b505050506040513d601f19601f82011682018060405250810190613f189190615169565b93509350935093508089613f2c91906151a7565b9550600087613fad57831580613f425750600082115b15613f5557613f52600187614e1e565b95505b6014861115613f9f5760405162461bcd60e51b8152602060048201526016602482015275546f6f206d616e7920616374697665206f726465727360501b6044820152606401610c70565b613faa8e858f6142bc565b90505b613fbd8e8e8e8e8b898b88613a45565b613feb8e8e60008e6001811115613fd657613fd6614ce4565b14613fe2576000613fe5565b60015b86613b7e565b6140198e613ff76139cb565b6001600160a01b038f166000908152600591909101602052604090209061429b565b50505050505050979650505050505050565b436000805160206152138339815191525b6001600160a01b039092166000908152602092909252604090912055565b600060008051602061521383398151915261403c565b600061407a614337565b905090565b6001600160a01b031660009081526000805160206152138339815191526020526040902054151590565b600081815260018301602052604081205415156129ee565b7f9acda75aebd150dd434541a4747a6dc606f4f1a59662477e67daf1fc0bf9e0aa80546001600160a01b038381166001600160a01b0319831681179093556040519116919082907f8be0079c531659141344cd1fd0a4f28419497f9722a3daafe3b4186f6b6457e090600090a35050565b6000611d26825490565b60006129ee838361434f565b600061407a614379565b7f55cc3066d618b5a688ac1f2a8234e21c685f7432b4230a1660309640d60d8f66548181146115fc57816000805160206152538339815191526002015560408051828152602081018490527fb310034e792eb345456b77ee9b3ade0d30b9866d547921c8f4d5e9273c941a90910160405180910390a15050565b60007f360894a13ba1a3210667c828492db98dca3e2076cc3735a920a3ca505d382bbc610ae8565b6141fd826140c1565b6115fc81614152565b600080516020615233833981519152546001600160a01b03161561426c5760405162461bcd60e51b815260206004820152601b60248201527f7265736f6c766572207265676973746572656420616c726561647900000000006044820152606401610c70565b60008051602061523383398151915280546001600160a01b0319166001600160a01b0392909216919091179055565b60006129ee8383614392565b600061407a6143e1565b6060611d2682614401565b60008142106142dd5760405162461bcd60e51b8152600401610c7090614c7d565b60006142e942846151a7565b9050612eb76142fe6127106301e133806151be565b6000878152600080516020615253833981519152602052604090205486906143279085906151be565b61433191906151be565b9061445c565b600061407a69151bdad95b95985d5b1d60b21b6144cd565b600082600001828154811061436657614366614e36565b9060005260206000200154905092915050565b600061407a6a14995cd95c9d99519d5b9960aa1b6144cd565b60008181526001830160205260408120546143d957508154600181810184556000848152602080822090930184905584548482528286019093526040902091909155611d26565b506000611d26565b600061407a7121bab93932b731bca1b7b73a3937b63632b960711b6144cd565b60608160000180548060200260200160405190810160405280929190818152602001828054801561199157602002820191906000526020600020905b81548152602001906001019080831161443d5750505050509050919050565b600080821161446a57600080fd5b600561447683856151dd565b61448190600a6151be565b8361448d86600a6151be565b61449791906151dd565b6144a191906151a7565b10156144b8576144b182846151dd565b9050611d26565b6144c282846151dd565b6144b1906001614e1e565b60008181527f4abde63c3e81aefa5764b017968bc473e83e093d7e1a10247d19e0a3e41240196020908152604080832054815170026b4b9b9b4b7339030b2323932b9b99d1607d1b9381019390935260318084018690528251808503909101815260519093019091526001600160a01b03169081611e975760405162461bcd60e51b8152600401610c7091906151ff565b6001600160a01b038116811461144757600080fd5b60008060006060848603121561458857600080fd5b83356145938161455e565b95602085013595506040909401359392505050565b6000602082840312156145ba57600080fd5b5035919050565b6000806000606084860312156145d657600080fd5b505081359360208301359350604090920135919050565b600081518084526020808501945080840160005b8381101561461d57815187529582019590820190600101614601565b509495945050505050565b60608152600061463b60608301866145ed565b828103602084015261464d81866145ed565b9050828103604084015261466181856145ed565b9695505050505050565b6000806040838503121561467e57600080fd5b8235915060208301356146908161455e565b809150509250929050565b600080604083850312156146ae57600080fd5b50508035926020909101359150565b600080600080600060a086880312156146d557600080fd5b85359450602086013593506040860135925060608601356146f58161455e565b9150608086013562ffffff8116811461470d57600080fd5b809150509295509295909350565b801515811461144757600080fd5b60006020828403121561473b57600080fd5b81356129ee8161471b565b60008060006060848603121561475b57600080fd5b833592506020840135915060408401356147748161455e565b809150509250925092565b6020808252825182820181905260009190848201906040850190845b818110156147c05783516001600160a01b03168352928401929184019160010161479b565b50909695505050505050565b6020808252825182820181905260009190848201906040850190845b818110156147c0578351835292840192918401916001016147e8565b6002811061144757600080fd5b600080600080600060a0868803121561482957600080fd5b8535945060208601359350604086013561484281614804565b94979396509394606081013594506080013592915050565b60008060006060848603121561486f57600080fd5b8335925060208401359150604084013565ffffffffffff8116811461477457600080fd5b6000602082840312156148a557600080fd5b81356129ee8161455e565b6020815260006129ee60208301846145ed565b600080600080600060a086880312156148db57600080fd5b505083359560208501359550604085013594606081013594506080013592509050565b634e487b7160e01b600052604160045260246000fd5b604051601f8201601f1916810167ffffffffffffffff8111828210171561493d5761493d6148fe565b604052919050565b600067ffffffffffffffff82111561495f5761495f6148fe565b5060051b60200190565b6000806040838503121561497c57600080fd5b823567ffffffffffffffff81111561499357600080fd5b8301601f810185136149a457600080fd5b803560206149b96149b483614945565b614914565b82815260059290921b830181019181810190888411156149d857600080fd5b938201935b838510156149f6578435825293820193908201906149dd565b98969091013596505050505050565b60008060008060808587031215614a1b57600080fd5b8435614a268161455e565b93506020850135614a368161455e565b93969395505050506040820135916060013590565b600080600080600080600080610100898b031215614a6857600080fd5b885197506020890151965060408901519550606089015194506080890151935060a0890151925060c0890151915060e0890151614aa48161471b565b809150509295985092959890939650565b600082601f830112614ac657600080fd5b81516020614ad66149b483614945565b82815260059290921b84018101918181019086841115614af557600080fd5b8286015b84811015614b105780518352918301918301614af9565b509695505050505050565b600080600060608486031215614b3057600080fd5b835167ffffffffffffffff80821115614b4857600080fd5b614b5487838801614ab5565b94506020860151915080821115614b6a57600080fd5b614b7687838801614ab5565b93506040860151915080821115614b8c57600080fd5b50614b9986828701614ab5565b9150509250925092565b92835260208301919091526001600160a01b0316604082015260600190565b600060e08284031215614bd457600080fd5b60405160e0810181811067ffffffffffffffff82111715614bf757614bf76148fe565b8060405250825181526020830151602082015260408301516040820152606083015160608201526080830151608082015260a083015160a082015260c083015160c08201528091505092915050565b6020808252601f908201527f5265656e7472616e637947756172643a207265656e7472616e742063616c6c00604082015260600190565b60208082526010908201526f496e76616c6964206d6174757269747960801b604082015260600190565b600060208284031215614cb957600080fd5b5051919050565b60008060408385031215614cd357600080fd5b505080516020909101519092909150565b634e487b7160e01b600052602160045260246000fd5b60028110614d1857634e487b7160e01b600052602160045260246000fd5b9052565b60608101614d2a8286614cfa565b6001600160a01b0393909316602082015260400152919050565b600060608284031215614d5657600080fd5b6040516060810181811067ffffffffffffffff82111715614d7957614d796148fe565b80604052508091508251614d8c8161455e565b8082525060208301516020820152604083015160408201525092915050565b60008060008060c08587031215614dc157600080fd5b845193506020850151925060408501519150614de08660608701614d44565b905092959194509250565b634e487b7160e01b600052601160045260246000fd5b6000600160ff1b821415614e1757614e17614deb565b5060000390565b60008219821115614e3157614e31614deb565b500190565b634e487b7160e01b600052603260045260246000fd5b6000815180845260005b81811015614e7257602081850181015186830182015201614e56565b81811115614e84576000602083870101525b50601f01601f19169290920160200192915050565b828152604060208201526000614eb26040830184614e4c565b949350505050565b600060208284031215614ecc57600080fd5b81516129ee8161455e565b6000600019821415614eeb57614eeb614deb565b5060010190565b6020808252818101527f4f776e61626c653a2063616c6c6572206973206e6f7420746865206f776e6572604082015260600190565b600080600060608486031215614f3c57600080fd5b8351614f4781614804565b602085015160409095015190969495509392505050565b600080600080600080600060e0888a031215614f7957600080fd5b5050855160208701516040880151606089015160808a015160a08b015160c0909b0151949c939b50919990985090965094509092509050565b600080600060608486031215614fc757600080fd5b8351614fd28161455e565b6020850151909350614fe38161455e565b80925050604084015190509250925092565b60008060c0838503121561500857600080fd5b6150128484614d44565b91506150218460608501614d44565b90509250929050565b6001600160a01b0385168152602081018490526040810183905260808101612eb76060830184614cfa565b60006020828403121561506757600080fd5b81516129ee8161471b565b608081016150808287614cfa565b6001600160a01b039490941660208201526040810192909252606090910152919050565b600080821280156001600160ff1b03849003851316156150c6576150c6614deb565b600160ff1b83900384128116156150df576150df614deb565b50500190565b878152602081018790526001600160a01b038616604082015260e0810161510f6060830187614cfa565b8460808301528360a08301528260c083015298975050505050505050565b60a0810161513b8288614cfa565b6001600160a01b03959095166020820152604081019390935260608301919091521515608090910152919050565b60008060008060c0858703121561517f57600080fd5b84519350602085015192506151978660408701614d44565b60a0959095015193969295505050565b6000828210156151b9576151b9614deb565b500390565b60008160001904831182151516156151d8576151d8614deb565b500290565b6000826151fa57634e487b7160e01b600052601260045260246000fd5b500490565b6020815260006129ee6020830184614e4c56fe19bfb841e3f2b667d170c57909e7685dd6a0cee80d36344e04905cfd7d917bd74abde63c3e81aefa5764b017968bc473e83e093d7e1a10247d19e0a3e412401855cc3066d618b5a688ac1f2a8234e21c685f7432b4230a1660309640d60d8f6455cc3066d618b5a688ac1f2a8234e21c685f7432b4230a1660309640d60d8f65a2646970667358221220644ab82e51e365ad8164876330d55b53edce6f63e69110a5fb581c6fb2f3ce1464736f6c63430008090033",
  "libraries": {
    "FundManagementLogic": "0x7B502aa51fE8255c2723502586202Bb96C740C80",
    "LendingMarketOperationLogic": "0xfFE89cDCE17105a0B114103276F3FBE64f2C83FC"
  },
  "implementation": "0x4Da63D63a3cFe93698e95e031A9F75a58EFb9Bc0",
  "devdoc": {
    "kind": "dev",
    "methods": {
      "acceptedContracts()": {
        "details": "The contact name listed in this method is also needed to be listed `requiredContracts` method."
      },
      "calculateFunds(bytes32,address)": {
        "params": {
          "_ccy": "Currency name in bytes32",
          "_user": "User's address"
        },
        "returns": {
          "borrowedAmount": "The borrowed amount due to the borrow orders being filled on the order book",
          "claimableAmount": "The claimable amount due to the lending orders being filled on the order book",
          "collateralAmount": "The actual collateral amount that is calculated by netting using the haircut.",
          "debtAmount": "The debt amount due to the borrow orders being filled on the order book",
          "lentAmount": "The lent amount due to the lend orders being filled on the order book",
          "workingBorrowOrdersAmount": "The working orders amount on the borrow order book",
          "workingLendOrdersAmount": "The working orders amount on the lend order book"
        }
      },
      "calculateTotalFundsInETH(address,bytes32,uint256)": {
        "params": {
          "_user": "User's address"
        }
      },
      "cancelOrder(bytes32,uint256,uint48)": {
        "params": {
          "_ccy": "Currency name in bytes32 of the selected market",
          "_maturity": "The maturity of the selected market",
          "_orderId": "Market order id"
        }
      },
      "cleanUpAllFunds(address)": {
        "params": {
          "_user": "User's address"
        }
      },
      "cleanUpFunds(bytes32,address)": {
        "params": {
          "_ccy": "Currency name in bytes32",
          "_user": "User's address"
        }
      },
      "createLendingMarket(bytes32,uint256)": {
        "params": {
          "_ccy": "Main currency for new lending market",
          "_openingDate": "Timestamp when the lending market opens"
        }
      },
      "createOrder(bytes32,uint256,uint8,uint256,uint256)": {
        "params": {
          "_amount": "Amount of funds the maker wants to borrow/lend",
          "_ccy": "Currency name in bytes32 of the selected market",
          "_maturity": "The maturity of the selected market",
          "_side": "Order position type, Borrow or Lend",
          "_unitPrice": "Amount of unit price taker wish to borrow/lend"
        },
        "returns": {
          "_0": "True if the execution of the operation succeeds"
        }
      },
      "createPreOrder(bytes32,uint256,uint8,uint256,uint256)": {
        "params": {
          "_amount": "Amount of funds the maker wants to borrow/lend",
          "_ccy": "Currency name in bytes32 of the selected market",
          "_maturity": "The maturity of the selected market",
          "_side": "Order position type, Borrow or Lend",
          "_unitPrice": "Amount of unit price taker wish to borrow/lend"
        },
        "returns": {
          "_0": "True if the execution of the operation succeeds"
        }
      },
      "depositAndCreateOrder(bytes32,uint256,uint8,uint256,uint256)": {
        "params": {
          "_amount": "Amount of funds the maker wants to borrow/lend",
          "_ccy": "Currency name in bytes32 of the selected market",
          "_maturity": "The maturity of the selected market",
          "_side": "Order position type, Borrow or Lend",
          "_unitPrice": "Amount of unit price taker wish to borrow/lend"
        },
        "returns": {
          "_0": "True if the execution of the operation succeeds"
        }
      },
      "depositAndCreatePreOrder(bytes32,uint256,uint8,uint256,uint256)": {
        "params": {
          "_amount": "Amount of funds the maker wants to borrow/lend",
          "_ccy": "Currency name in bytes32 of the selected market",
          "_maturity": "The maturity of the selected market",
          "_side": "Order position type, Borrow or Lend",
          "_unitPrice": "Amount of unit price taker wish to borrow/lend"
        },
        "returns": {
          "_0": "True if the execution of the operation succeeds"
        }
      },
      "executeLiquidationCall(bytes32,bytes32,uint256,address,uint24)": {
        "details": "A liquidation amount is calculated from the selected debt, but its maximum amount is the same as a collateral amount. That amount needs to be set at liquidationAmountMax otherwise currency swapping using Uniswap will fail if the collateral is insufficient.",
        "params": {
          "_collateralCcy": "Currency name to be used as collateral",
          "_debtCcy": "Currency name to be used as debt",
          "_debtMaturity": "The market maturity of the debt",
          "_poolFee": "Uniswap pool fee",
          "_user": "User's address"
        },
        "returns": {
          "_0": "True if the execution of the operation succeeds"
        }
      },
      "getAutoRollFeeRate(bytes32)": {
        "params": {
          "_ccy": "Currency name in bytes32"
        },
        "returns": {
          "_0": "The auto-roll fee rate received by protocol"
        }
      },
      "getBorrowOrderBook(bytes32,uint256,uint256)": {
        "params": {
          "_ccy": "Currency name in bytes32",
          "_limit": "The limit number to get",
          "_maturity": "The maturity of the market"
        },
        "returns": {
          "amounts": "The array of borrow order amounts",
          "quantities": "The array of borrow order quantities",
          "unitPrices": "The array of borrow unit prices"
        }
      },
      "getBorrowUnitPrices(bytes32)": {
        "params": {
          "_ccy": "Currency name in bytes32"
        },
        "returns": {
          "_0": "Array with the borrowing prices per future value of the lending market"
        }
      },
      "getFutureValue(bytes32,uint256,address)": {
        "params": {
          "_ccy": "Currency name in bytes32 for Lending Market",
          "_maturity": "The maturity of the market",
          "_user": "User's address"
        },
        "returns": {
          "futureValue": "The future value"
        }
      },
      "getFutureValueVault(bytes32,uint256)": {
        "params": {
          "_ccy": "Currency name in bytes32",
          "_maturity": "The maturity of the market"
        },
        "returns": {
          "_0": "The lending market address"
        }
      },
      "getGenesisDate(bytes32)": {
        "params": {
          "_ccy": "Currency name in bytes32"
        },
        "returns": {
          "_0": "The genesis date"
        }
      },
      "getLendOrderBook(bytes32,uint256,uint256)": {
        "params": {
          "_ccy": "Currency name in bytes32",
          "_limit": "The limit number to get",
          "_maturity": "The maturity of the market"
        },
        "returns": {
          "amounts": "The array of lend order amounts",
          "quantities": "The array of lend order quantities",
          "unitPrices": "The array of borrow unit prices"
        }
      },
      "getLendUnitPrices(bytes32)": {
        "params": {
          "_ccy": "Currency name in bytes32"
        },
        "returns": {
          "_0": "Array with the lending prices per future value of the lending market"
        }
      },
      "getLendingMarket(bytes32,uint256)": {
        "params": {
          "_ccy": "Currency name in bytes32",
          "_maturity": "The maturity of the market"
        },
        "returns": {
          "_0": "The lending market address"
        }
      },
      "getLendingMarkets(bytes32)": {
        "params": {
          "_ccy": "Currency name in bytes32"
        },
        "returns": {
          "_0": "Array with the lending market address"
        }
      },
      "getMaturities(bytes32)": {
        "params": {
          "_ccy": "Currency name in bytes32"
        },
        "returns": {
          "_0": "Array with the lending market maturity"
        }
      },
      "getMidUnitPrices(bytes32)": {
        "params": {
          "_ccy": "Currency name in bytes32"
        },
        "returns": {
          "_0": "Array with the mid prices per future value of the lending market"
        }
      },
      "getObservationPeriod()": {
        "returns": {
          "_0": "The observation period to calculate the volume-weighted average price of transactions"
        }
      },
      "getOrderFeeRate(bytes32)": {
        "params": {
          "_ccy": "Currency name in bytes32"
        },
        "returns": {
          "_0": "The order fee rate received by protocol"
        }
      },
      "getPresentValue(bytes32,uint256,address)": {
        "params": {
          "_ccy": "Currency name in bytes32 for Lending Market",
          "_maturity": "The maturity of the market",
          "_user": "User's address"
        },
        "returns": {
          "presentValue": "The present value"
        }
      },
      "getTotalPresentValue(bytes32,address)": {
        "params": {
          "_ccy": "Currency name in bytes32 for Lending Market",
          "_user": "User's address"
        },
        "returns": {
          "totalPresentValue": "The total present value"
        }
      },
      "getTotalPresentValueInETH(address)": {
        "params": {
          "_user": "User's address"
        },
        "returns": {
          "totalPresentValue": "The total present value in ETH"
        }
      },
      "getUsedCurrencies(address)": {
        "params": {
          "_user": "User's address"
        },
        "returns": {
          "_0": "The array of the currency"
        }
      },
      "initialize(address,address,uint256,uint256)": {
        "details": "Function is invoked by the proxy contract when the contract is added to the ProxyController.",
        "params": {
          "_marketBasePeriod": "The base period for market maturity",
          "_observationPeriod": "The observation period to calculate the volume-weighted average price of transactions",
          "_owner": "The address of the contract owner",
          "_resolver": "The address of the Address Resolver contract"
        }
      },
      "initializeLendingMarket(bytes32,uint256,uint256,uint256,uint256)": {
        "params": {
          "_autoRollFeeRate": "The auto roll fee rate received by protocol",
          "_ccy": "Currency name in bytes32",
          "_compoundFactor": "The initial compound factor when the initial market is opened",
          "_genesisDate": "The genesis date when the initial market is opened",
          "_orderFeeRate": "The order fee rate received by protocol"
        }
      },
      "isInitializedLendingMarket(bytes32)": {
        "params": {
          "_ccy": "Currency name in bytes32"
        },
        "returns": {
          "_0": "The boolean if the lending market is initialized or not"
        }
      },
      "isLiquidator(address)": {
        "returns": {
          "_0": "The boolean if the user is registered as a liquidator or not"
        }
      },
      "owner()": {
        "details": "Returns the address of the current owner."
      },
      "pauseLendingMarkets(bytes32)": {
        "params": {
          "_ccy": "Currency for pausing all lending markets"
        },
        "returns": {
          "_0": "True if the execution of the operation succeeds"
        }
      },
      "registerLiquidator(bool)": {
        "params": {
          "_isLiquidator": "The boolean if the user is a liquidator or not"
        }
      },
      "renounceOwnership()": {
        "details": "Leaves the contract without owner. It will not be possible to call `onlyOwner` functions anymore. Can only be called by the current owner. NOTE: Renouncing ownership will leave the contract without an owner, thereby removing any functionality that is only available to the owner."
      },
      "requiredContracts()": {
        "details": "The contract name list is in `./libraries/Contracts.sol`."
      },
      "rotateLendingMarkets(bytes32)": {
        "params": {
          "_ccy": "Currency name in bytes32 of the selected market"
        }
      },
      "transferOwnership(address)": {
        "details": "Transfers ownership of the contract to a new account (`newOwner`). Can only be called by the current owner."
      },
      "unpauseLendingMarkets(bytes32)": {
        "params": {
          "_ccy": "Currency name in bytes32"
        },
        "returns": {
          "_0": "True if the execution of the operation succeeds"
        }
      },
      "unwindOrder(bytes32,uint256)": {
        "params": {
          "_ccy": "Currency name in bytes32 of the selected market",
          "_maturity": "The maturity of the selected market"
        }
      },
      "updateAutoRollFeeRate(bytes32,uint256)": {
        "params": {
          "_autoRollFeeRate": "The order fee rate received by protocol",
          "_ccy": "Currency name in bytes32"
        }
      },
      "updateObservationPeriod(uint256)": {
        "params": {
          "_observationPeriod": "The observation period to calculate the volume-weighted average price of transactions"
        }
      },
      "updateOrderFeeRate(bytes32,uint256)": {
        "params": {
          "_ccy": "Currency name in bytes32",
          "_orderFeeRate": "The order fee rate received by protocol"
        }
      }
    },
    "version": 1
  },
  "userdoc": {
    "kind": "user",
    "methods": {
      "acceptedContracts()": {
        "notice": "Returns contract names that can call this contract."
      },
      "calculateFunds(bytes32,address)": {
        "notice": "Gets the funds that are calculated from the user's lending and borrowing order list for the selected currency."
      },
      "calculateTotalFundsInETH(address,bytes32,uint256)": {
        "notice": "Gets the funds that are calculated from the user's lending and borrowing order list for all currencies in ETH."
      },
      "cancelOrder(bytes32,uint256,uint48)": {
        "notice": "Cancels the own order."
      },
      "cleanUpAllFunds(address)": {
        "notice": "Clean up all funds of the user"
      },
      "cleanUpFunds(bytes32,address)": {
        "notice": "Clean up user funds used for lazy evaluation by the following actions: - Removes order IDs that is already filled on the order book. - Convert Future values that have already been auto-rolled to Genesis values."
      },
      "createLendingMarket(bytes32,uint256)": {
        "notice": "Deploys new Lending Market and save address at lendingMarkets mapping.Reverts on deployment market with existing currency and term"
      },
      "createOrder(bytes32,uint256,uint8,uint256,uint256)": {
        "notice": "Creates an order. Takes orders if the orders are matched, and places new order if not match it. In addition, converts the future value to the genesis value if there is future value in past maturity before the execution of order creation."
      },
      "createPreOrder(bytes32,uint256,uint8,uint256,uint256)": {
        "notice": "Creates a pre-order. A pre-order will only be accepted from 48 hours to 1 hour before the market opens (Pre-order period). At the end of this period, Itayose will be executed."
      },
      "depositAndCreateOrder(bytes32,uint256,uint8,uint256,uint256)": {
        "notice": "Deposits funds and creates an order at the same time."
      },
      "depositAndCreatePreOrder(bytes32,uint256,uint8,uint256,uint256)": {
        "notice": "Deposits funds and creates a pre-order at the same time."
      },
      "executeLiquidationCall(bytes32,bytes32,uint256,address,uint24)": {
        "notice": "Liquidates a lending position if the user's coverage is less than 1."
      },
      "getAutoRollFeeRate(bytes32)": {
        "notice": "Gets the auto-roll fee rate"
      },
      "getBorrowOrderBook(bytes32,uint256,uint256)": {
        "notice": "Gets the order book of borrow."
      },
      "getBorrowUnitPrices(bytes32)": {
        "notice": "Gets borrow prices per future value for the selected currency."
      },
      "getFutureValue(bytes32,uint256,address)": {
        "notice": "Gets the future value of the account for selected currency and maturity."
      },
      "getFutureValueVault(bytes32,uint256)": {
        "notice": "Gets the feture value contract address for the selected currency and maturity."
      },
      "getGenesisDate(bytes32)": {
        "notice": "Gets the genesis date when the first market opens for the selected currency."
      },
      "getLendOrderBook(bytes32,uint256,uint256)": {
        "notice": "Gets the order book of lend."
      },
      "getLendUnitPrices(bytes32)": {
        "notice": "Gets lend prices per future value for the selected currency."
      },
      "getLendingMarket(bytes32,uint256)": {
        "notice": "Gets the lending market contract address for the selected currency and maturity."
      },
      "getLendingMarkets(bytes32)": {
        "notice": "Gets the lending market contract addresses for the selected currency."
      },
      "getMaturities(bytes32)": {
        "notice": "Gets maturities for the selected currency."
      },
      "getMidUnitPrices(bytes32)": {
        "notice": "Gets mid prices per future value for the selected currency."
      },
      "getObservationPeriod()": {
        "notice": "Gets the observation period"
      },
      "getOrderFeeRate(bytes32)": {
        "notice": "Gets the order fee rate"
      },
      "getPresentValue(bytes32,uint256,address)": {
        "notice": "Gets the present value of the account for selected currency and maturity."
      },
      "getTotalPresentValue(bytes32,address)": {
        "notice": "Gets the total present value of the account for selected currency."
      },
      "getTotalPresentValueInETH(address)": {
        "notice": "Gets the total present value of the account converted to ETH."
      },
      "getUsedCurrencies(address)": {
        "notice": "Get all the currencies in which the user has lending positions or orders."
      },
      "initialize(address,address,uint256,uint256)": {
        "notice": "Initializes the contract."
      },
      "initializeLendingMarket(bytes32,uint256,uint256,uint256,uint256)": {
        "notice": "Initialize the lending market to set a genesis date and compound factor"
      },
      "isInitializedLendingMarket(bytes32)": {
        "notice": "Gets if the lending market is initialized."
      },
      "isLiquidator(address)": {
        "notice": "Gets if the user is registered as a liquidator."
      },
      "pauseLendingMarkets(bytes32)": {
        "notice": "Pauses previously deployed lending market by currency"
      },
      "registerLiquidator(bool)": {
        "notice": "Registers a user as a liquidator."
      },
      "requiredContracts()": {
        "notice": "Returns the contract names used in this contract."
      },
      "rotateLendingMarkets(bytes32)": {
        "notice": "Rotates the lending markets. In this rotation, the following actions are happened. - Updates the maturity at the beginning of the market array. - Moves the beginning of the market array to the end of it (Market rotation). - Update the compound factor in this contract using the next market unit price. (Auto-rolls) - Convert the future value held by reserve funds into the genesis value"
      },
      "unpauseLendingMarkets(bytes32)": {
        "notice": "Unpauses previously deployed lending market by currency"
      },
      "unwindOrder(bytes32,uint256)": {
        "notice": "Unwind all orders by creating an opposite position order."
      },
      "updateAutoRollFeeRate(bytes32,uint256)": {
        "notice": "Updates the auto-roll fee rate"
      },
      "updateObservationPeriod(uint256)": {
        "notice": "Updates the observation period"
      },
      "updateOrderFeeRate(bytes32,uint256)": {
        "notice": "Updates the order fee rate"
      }
    },
    "notice": "Implements the module to manage separated lending order-book markets per maturity. This contract also works as a factory contract that can deploy(start)a new lending market for selected currency and maturity and has the calculation logic for the Genesis value in addition. Deployed Lending Markets are rotated and reused as it reaches the maturity date. At the time of rotation, a new maturity date is set and the compound factor is updated. The users mainly call this contract to create orders to lend or borrow funds.",
    "version": 1
  },
  "storageLayout": {
    "storage": [
      {
        "astId": 1446,
        "contract": "contracts/LendingMarketController.sol:LendingMarketController",
        "label": "_status",
        "offset": 0,
        "slot": "0",
        "type": "t_uint256"
      },
      {
        "astId": 1183,
        "contract": "contracts/LendingMarketController.sol:LendingMarketController",
        "label": "_initialized",
        "offset": 0,
        "slot": "1",
        "type": "t_uint8"
      },
      {
        "astId": 1186,
        "contract": "contracts/LendingMarketController.sol:LendingMarketController",
        "label": "_initializing",
        "offset": 1,
        "slot": "1",
        "type": "t_bool"
      }
    ],
    "types": {
      "t_bool": {
        "encoding": "inplace",
        "label": "bool",
        "numberOfBytes": "1"
      },
      "t_uint256": {
        "encoding": "inplace",
        "label": "uint256",
        "numberOfBytes": "32"
      },
      "t_uint8": {
        "encoding": "inplace",
        "label": "uint8",
        "numberOfBytes": "1"
      }
    }
  }
}