{
  "address": "0xfFE89cDCE17105a0B114103276F3FBE64f2C83FC",
  "abi": [
    {
      "inputs": [
        {
          "internalType": "uint256",
          "name": "_timestamp",
          "type": "uint256"
        },
        {
          "internalType": "uint256",
          "name": "_period",
          "type": "uint256"
        }
      ],
      "name": "calculateNextMaturity",
      "outputs": [
        {
          "internalType": "uint256",
          "name": "",
          "type": "uint256"
        }
      ],
      "stateMutability": "pure",
      "type": "function"
    }
  ],
  "transactionHash": "0x2d8ee9433573a309e94a281751e27a457a098086716f6fba3d6b6acd922cbbad",
  "args": [],
  "numDeployments": 1,
  "solcInputHash": "3f85b78d4f02b33ea339ac5a99716c70",
  "bytecode": "0x611f4d61003a600b82828239805160001a60731461002d57634e487b7160e01b600052600060045260246000fd5b30600052607381538281f3fe730000000000000000000000000000000000000000301460806040526004361061006c5760003560e01c8063420eadb7146100715780636a23a95c1461009757806372d563ef146100c5578063a3d54d8c1461010b578063d3f43b7914610140578063e88e183714610162575b600080fd5b61008461007f366004611a35565b610182565b6040519081526020015b60405180910390f35b8180156100a357600080fd5b506100b76100b2366004611a35565b6101ab565b60405161008e929190611a57565b8180156100d157600080fd5b506100e56100e0366004611a35565b61042b565b604080516001600160a01b0394851681529390921660208401529082015260600161008e565b81801561011757600080fd5b5061012b610126366004611a35565b6109c9565b6040805192835260208301919091520161008e565b81801561014c57600080fd5b5061016061015b366004611aa5565b610e29565b005b81801561016e57600080fd5b5061016061017d366004611ad1565b610ed5565b60008161019b576101948360076110ff565b90506101a5565b6101948383611127565b92915050565b6101d8604051806060016040528060006001600160a01b0316815260200160008152602001600081525090565b610205604051806060016040528060006001600160a01b0316815260200160008152602001600081525090565b600061020f6111f4565b600086815260039190910160209081526040808320878452825291829020548251639d65290760e01b815292516001600160a01b0390911693508392639d652907926004808301939192829003018186803b15801561026d57600080fd5b505afa158015610281573d6000803e3d6000fd5b505050506040513d601f19601f820116820180604052508101906102a59190611b14565b1561042357600080826001600160a01b0316637e7069386040518163ffffffff1660e01b815260040161010060405180830381600087803b1580156102e957600080fd5b505af11580156102fd573d6000803e3d6000fd5b505050506040513d601f19601f820116820180604052508101906103219190611bc1565b9097509550909250905081158015906103845750826001600160a01b03166103476111f4565b600101600089815260200190815260200160002060008154811061036d5761036d611c0a565b6000918252602090912001546001600160a01b0316145b156104205760006103b18388846103996111f4565b60008d81526004919091016020526040902054611218565b90506103bb61128c565b60405163a969285f60e01b8152600481018a9052602481018390526001600160a01b03919091169063a969285f90604401600060405180830381600087803b15801561040657600080fd5b505af115801561041a573d6000803e3d6000fd5b50505050505b50505b509250929050565b600080600061043861128c565b6001600160a01b031663f7b637bb866040518263ffffffff1660e01b815260040161046591815260200190565b60206040518083038186803b15801561047d57600080fd5b505afa158015610491573d6000803e3d6000fd5b505050506040513d601f19601f820116820180604052508101906104b59190611b14565b6105255760405162461bcd60e51b815260206004820152603660248201527f4c656e64696e67206d61726b6574206861736e2774206265656e20696e697469604482015275616c697a656420696e207468652063757272656e637960501b60648201526084015b60405180910390fd5b61052d6112b0565b6001600160a01b0316631eae0893866040518263ffffffff1660e01b815260040161055a91815260200190565b60206040518083038186803b15801561057257600080fd5b505afa158015610586573d6000803e3d6000fd5b505050506040513d601f19601f820116820180604052508101906105aa9190611b14565b6105ef5760405162461bcd60e51b81526020600482015260166024820152754e6f6e20737570706f727465642063757272656e637960501b604482015260640161051c565b6105f76111f4565b6000868152600191909101602052604090205461069a5761061661128c565b6001600160a01b03166349a1d218866040518263ffffffff1660e01b815260040161064391815260200190565b60206040518083038186803b15801561065b57600080fd5b505afa15801561066f573d6000803e3d6000fd5b505050506040513d601f19601f820116820180604052508101906106939190611c20565b9050610784565b60006106a46111f4565b6000878152600191820160205260409020906106be6111f4565b600089815260019190910160205260409020546106db9190611c4f565b815481106106eb576106eb611c0a565b600091825260209182902001546040805163e16695b560e01b815290516001600160a01b039092169263e16695b592600480840193829003018186803b15801561073457600080fd5b505afa158015610748573d6000803e3d6000fd5b505050506040513d601f19601f8201168201806040525081019061076c9190611c20565b90506107808161077a6111f4565b54610182565b9150505b8084106107ec5760405162461bcd60e51b815260206004820152603060248201527f4d61726b6574206f70656e696e672064617465206d757374206265206265666f60448201526f7265206d61747572697479206461746560801b606482015260840161051c565b6107f46112d0565b604051634672758f60e01b81526004810187905260248101839052604481018690526001600160a01b039190911690634672758f90606401602060405180830381600087803b15801561084657600080fd5b505af115801561085a573d6000803e3d6000fd5b505050506040513d601f19601f8201168201806040525081019061087e9190611c66565b92506108886112d0565b6001600160a01b031663a97c4b536040518163ffffffff1660e01b8152600401602060405180830381600087803b1580156108c257600080fd5b505af11580156108d6573d6000803e3d6000fd5b505050506040513d601f19601f820116820180604052508101906108fa9190611c66565b91506109046111f4565b6000868152600191820160209081526040822080549384018155825290200180546001600160a01b0319166001600160a01b038516179055826109456111f4565b600087815260039190910160209081526040808320858452909152902080546001600160a01b0319166001600160a01b0392909216919091179055816109896111f4565b6000968752600201602090815260408088206001600160a01b038781168a52925290962080546001600160a01b0319169190961617909455909390929150565b60008060006109d66111f4565b60010160008681526020019081526020016000209050600081600081548110610a0157610a01611c0a565b600091825260208220015483546001600160a01b03909116925083906001908110610a2e57610a2e611c0a565b60009182526020808320909101546040805163e16695b560e01b815290516001600160a01b039092169450849263e16695b592600480840193829003018186803b158015610a7b57600080fd5b505afa158015610a8f573d6000803e3d6000fd5b505050506040513d601f19601f82011682018060405250810190610ab39190611c20565b9050610b638460018680549050610aca9190611c4f565b81548110610ada57610ada611c0a565b600091825260209182902001546040805163e16695b560e01b815290516001600160a01b039092169263e16695b592600480840193829003018186803b158015610b2357600080fd5b505afa158015610b37573d6000803e3d6000fd5b505050506040513d601f19601f82011682018060405250810190610b5b9190611c20565b61077a6111f4565b604051630437309d60e51b815260048101829052602481018390529095506001600160a01b038416906386e613a090604401602060405180830381600087803b158015610baf57600080fd5b505af1158015610bc3573d6000803e3d6000fd5b505050506040513d601f19601f82011682018060405250810190610be79190611c20565b955060005b8454811015610c965784546000908290610c0890600190611c4f565b14610c435785610c19836001611c81565b81548110610c2957610c29611c0a565b6000918252602090912001546001600160a01b0316610c45565b845b905080868381548110610c5a57610c5a611c0a565b600091825260209091200180546001600160a01b0319166001600160a01b03929092169190911790555080610c8e81611c99565b915050610bec565b506000610ca16111f4565b60008a8152600291909101602090815260408083206001600160a01b038089168552925290912054169050610cd461128c565b6001600160a01b031663348183cf8a8985610cef8e886112f3565b604051634955b91f60e11b8152600481018e90528e906001600160a01b038916906392ab723e9060240160206040518083038186803b158015610d3157600080fd5b505afa158015610d45573d6000803e3d6000fd5b505050506040513d601f19601f82011682018060405250810190610d699190611c20565b6040516001600160e01b031960e089901b1681526004810196909652602486019490945260448501929092526064840152608483015260a482015260c401600060405180830381600087803b158015610dc157600080fd5b505af1158015610dd5573d6000803e3d6000fd5b5050505083610de26111f4565b60009a8b5260030160209081526040808c20898d5290915290992080546001600160a01b0319166001600160a01b03909a1699909917909855509396929550919350505050565b610e3161128c565b6001600160a01b031663a2d7d02d84602484610e4f8761077a6111f4565b6040516001600160e01b031960e087901b168152600481019490945260ff909216602484015260448301526064820152608401600060405180830381600087803b158015610e9c57600080fd5b505af1158015610eb0573d6000803e3d6000fd5b5050505081610ebd6111f4565b60009485526004016020526040909320929092555050565b610edd6111f4565b6000878152600391909101602090815260408083208884529091529020546001600160a01b0316610f0c6111f4565b6001016000888152602001908152602001600020600181548110610f3257610f32611c0a565b6000918252602090912001546001600160a01b031614156110f7576000610f576111f4565b6001016000888152602001908152602001600020600081548110610f7d57610f7d611c0a565b600091825260209182902001546040805163e16695b560e01b815290516001600160a01b039092169263e16695b592600480840193829003018186803b158015610fc657600080fd5b505afa158015610fda573d6000803e3d6000fd5b505050506040513d601f19601f82011682018060405250810190610ffe9190611c20565b90506110086111f4565b60008881526008919091016020908152604080832089845290915290205461105d5761103684874284611218565b61103e6111f4565b6000898152600991909101602090815260408083208a84529091529020555b804210801561107557506110718582611c4f565b4210155b156110f557826110836111f4565b6000898152600891909101602090815260408083208a8452909152812080549091906110b0908490611c81565b909155508290506110bf6111f4565b6000898152600891909101602090815260408083208a8452909152812060010180549091906110ef908490611c81565b90915550505b505b505050505050565b600061110e6201518083611cb4565b6111189084611c81565b9050828110156101a557600080fd5b600080806111476111428661113d876001611c81565b611449565b611520565b5091509150600061115a83836000611541565b9050600061116782611564565b905060006005826005841061117d576000611180565b60075b60ff1661118d9190611c81565b6111979190611c4f565b90506111a3838261159f565b9550600086116111e95760405162461bcd60e51b81526020600482015260116024820152700496e76616c69642054696d657374616d7607c1b604482015260640161051c565b505050505092915050565b7f8041b8421ebd495cc61f38c788c9eb100daccf9bd36aa0bb920b7a15b2e0496590565b6000806112258486611c4f565b905060006112338487611c4f565b905061123f8288611cb4565b8161124c89612710611c4f565b6112569190611cb4565b6112609190611c81565b8261126d89612710611cb4565b6112779190611cb4565b6112819190611ce9565b979650505050505050565b60006112ab7011d95b995cda5cd5985b1d5955985d5b1d607a1b6115c7565b905090565b60006112ab7121bab93932b731bca1b7b73a3937b63632b960711b6115c7565b60006112ab742132b0b1b7b7283937bc3ca1b7b73a3937b63632b960591b6115c7565b6000806112fe6111f4565b60008581526008919091016020908152604080832086845282529182902082518084019093528054835260010154908201819052909150156113615761135a816020015161271083600001516113549190611cb4565b90611658565b9150611442565b6113696111f4565b600085815260099190910160209081526040808320868452909152902054156113b9576113946111f4565b6000858152600991909101602090815260408083208684529091529020549150611442565b6113c161128c565b6001600160a01b031663d637c15f856040518263ffffffff1660e01b81526004016113ee91815260200190565b60a06040518083038186803b15801561140657600080fd5b505afa15801561141a573d6000803e3d6000fd5b505050506040513d601f19601f8201168201806040525081019061143e9190611cfd565b5191505b5092915050565b600080808061146361145e6201518088611ce9565b6116c2565b919450925090506114748583611c81565b9150600c611483600184611c4f565b61148d9190611ce9565b6114979084611c81565b9250600c6114a6600184611c4f565b6114b09190611d7b565b6114bb906001611c81565b915060006114c98484611836565b9050808211156114d7578091505b6114e46201518088611d7b565b620151806114f38686866118bc565b6114fd9190611cb4565b6115079190611c81565b94508685101561151657600080fd5b5050505092915050565b6000808061153461145e6201518086611ce9565b9196909550909350915050565b6000620151806115528585856118bc565b61155c9190611cb4565b949350505050565b6000806115746201518084611ce9565b90506007611583826003611c81565b61158d9190611d7b565b611598906001611c81565b9392505050565b60006115ae6201518083611cb4565b6115b89084611c4f565b9050828111156101a557600080fd5b60008181527f4abde63c3e81aefa5764b017968bc473e83e093d7e1a10247d19e0a3e41240196020908152604080832054815170026b4b9b9b4b7339030b2323932b9b99d1607d1b9381019390935260318084018690528251808503909101815260519093019091526001600160a01b031690816114425760405162461bcd60e51b815260040161051c9190611d8f565b600080821161166657600080fd5b60056116728385611ce9565b61167d90600a611cb4565b8361168986600a611cb4565b6116939190611ce9565b61169d9190611c4f565b10156116ad576101948284611ce9565b6116b78284611ce9565b610194906001611c81565b60008080838162253d8c6116d98362010bd9611de4565b6116e39190611de4565b9050600062023ab16116f6836004611e25565b6117009190611eaa565b905060046117118262023ab1611e25565b61171c906003611de4565b6117269190611eaa565b6117309083611ed8565b9150600062164b09611743846001611de4565b61174f90610fa0611e25565b6117599190611eaa565b90506004611769826105b5611e25565b6117739190611eaa565b61177d9084611ed8565b61178890601f611de4565b9250600061098f61179a856050611e25565b6117a49190611eaa565b9050600060506117b68361098f611e25565b6117c09190611eaa565b6117ca9086611ed8565b90506117d7600b83611eaa565b94506117e485600c611e25565b6117ef836002611de4565b6117f99190611ed8565b91508483611808603187611ed8565b611813906064611e25565b61181d9190611de4565b6118279190611de4565b9a919950975095505050505050565b600081600114806118475750816003145b806118525750816005145b8061185d5750816007145b806118685750816008145b80611873575081600a145b8061187e575081600c145b1561188b5750601f6101a5565b8160021461189b5750601e6101a5565b6118a4836119f9565b6118af57601c6118b2565b601d5b60ff169392505050565b60006107b28410156118cd57600080fd5b838383600062253d8c60046064600c6118e7600e88611ed8565b6118f19190611eaa565b6118fd88611324611de4565b6119079190611de4565b6119119190611eaa565b61191c906003611e25565b6119269190611eaa565b600c80611934600e88611ed8565b61193e9190611eaa565b61194990600c611e25565b611954600288611ed8565b61195e9190611ed8565b61196a9061016f611e25565b6119749190611eaa565b6004600c611983600e89611ed8565b61198d9190611eaa565b611999896112c0611de4565b6119a39190611de4565b6119af906105b5611e25565b6119b99190611eaa565b6119c5617d4b87611ed8565b6119cf9190611de4565b6119d99190611de4565b6119e39190611ed8565b6119ed9190611ed8565b98975050505050505050565b6000611a06600483611d7b565b158015611a1c5750611a19606483611d7b565b15155b806101a55750611a2e61019083611d7b565b1592915050565b60008060408385031215611a4857600080fd5b50508035926020909101359150565b82516001600160a01b03168152602080840151908201526040808401519082015260c0810182516001600160a01b0316606083015260208301516080830152604083015160a0830152611598565b600080600060608486031215611aba57600080fd5b505081359360208301359350604090920135919050565b60008060008060008060c08789031215611aea57600080fd5b505084359660208601359650604086013595606081013595506080810135945060a0013592509050565b600060208284031215611b2657600080fd5b8151801515811461159857600080fd5b80516001600160a01b0381168114611b4d57600080fd5b919050565b600060608284031215611b6457600080fd5b6040516060810181811067ffffffffffffffff82111715611b9557634e487b7160e01b600052604160045260246000fd5b604052905080611ba483611b36565b815260208301516020820152604083015160408201525092915050565b6000806000806101008587031215611bd857600080fd5b8451935060208501519250611bf08660408701611b52565b9150611bff8660a08701611b52565b905092959194509250565b634e487b7160e01b600052603260045260246000fd5b600060208284031215611c3257600080fd5b5051919050565b634e487b7160e01b600052601160045260246000fd5b600082821015611c6157611c61611c39565b500390565b600060208284031215611c7857600080fd5b61159882611b36565b60008219821115611c9457611c94611c39565b500190565b6000600019821415611cad57611cad611c39565b5060010190565b6000816000190483118215151615611cce57611cce611c39565b500290565b634e487b7160e01b600052601260045260246000fd5b600082611cf857611cf8611cd3565b500490565b600060a08284031215611d0f57600080fd5b60405160a0810181811067ffffffffffffffff82111715611d4057634e487b7160e01b600052604160045260246000fd5b806040525082518152602083015160208201526040830151604082015260608301516060820152608083015160808201528091505092915050565b600082611d8a57611d8a611cd3565b500690565b600060208083528351808285015260005b81811015611dbc57858101830151858201604001528201611da0565b81811115611dce576000604083870101525b50601f01601f1916929092016040019392505050565b600080821280156001600160ff1b0384900385131615611e0657611e06611c39565b600160ff1b8390038412811615611e1f57611e1f611c39565b50500190565b60006001600160ff1b0381841382841380821686840486111615611e4b57611e4b611c39565b600160ff1b6000871282811687830589121615611e6a57611e6a611c39565b60008712925087820587128484161615611e8657611e86611c39565b87850587128184161615611e9c57611e9c611c39565b505050929093029392505050565b600082611eb957611eb9611cd3565b600160ff1b821460001984141615611ed357611ed3611c39565b500590565b60008083128015600160ff1b850184121615611ef657611ef6611c39565b6001600160ff1b0384018313811615611f1157611f11611c39565b5050039056fea26469706673582212200636509dc4d142b9b1897861fc87492e799d65136507f2db2116104e7841d7de64736f6c63430008090033",
  "devdoc": {
    "kind": "dev",
    "methods": {},
    "version": 1
  },
  "userdoc": {
    "kind": "user",
    "methods": {},
    "version": 1
  },
  "storageLayout": {
    "storage": [],
    "types": null
  }
}