{
  "address": "0x5C9142886C74b255F5C5Fb573034248C0160C47C",
  "abi": [
    {
      "inputs": [
        {
          "internalType": "enum ProtocolTypes.Side",
          "name": "_side",
          "type": "ProtocolTypes.Side"
        },
        {
          "internalType": "uint256",
          "name": "_futureValue",
          "type": "uint256"
        }
      ],
      "name": "estimateFilledAmount",
      "outputs": [
        {
          "internalType": "uint256",
          "name": "amount",
          "type": "uint256"
        }
      ],
      "stateMutability": "view",
      "type": "function"
    },
    {
      "inputs": [
        {
          "internalType": "uint256",
          "name": "_limit",
          "type": "uint256"
        }
      ],
      "name": "getBorrowOrderBook",
      "outputs": [
        {
          "internalType": "uint256[]",
          "name": "unitPrices",
          "type": "uint256[]"
        },
        {
          "internalType": "uint256[]",
          "name": "amounts",
          "type": "uint256[]"
        },
        {
          "internalType": "uint256[]",
          "name": "quantities",
          "type": "uint256[]"
        }
      ],
      "stateMutability": "view",
      "type": "function"
    },
    {
      "inputs": [
        {
          "internalType": "address",
          "name": "_user",
          "type": "address"
        }
      ],
      "name": "getBorrowOrderIds",
      "outputs": [
        {
          "internalType": "uint48[]",
          "name": "activeOrderIds",
          "type": "uint48[]"
        },
        {
          "internalType": "uint48[]",
          "name": "inActiveOrderIds",
          "type": "uint48[]"
        }
      ],
      "stateMutability": "view",
      "type": "function"
    },
    {
      "inputs": [],
      "name": "getHighestLendingUnitPrice",
      "outputs": [
        {
          "internalType": "uint256",
          "name": "",
          "type": "uint256"
        }
      ],
      "stateMutability": "view",
      "type": "function"
    },
    {
      "inputs": [
        {
          "internalType": "uint256",
          "name": "_limit",
          "type": "uint256"
        }
      ],
      "name": "getLendOrderBook",
      "outputs": [
        {
          "internalType": "uint256[]",
          "name": "unitPrices",
          "type": "uint256[]"
        },
        {
          "internalType": "uint256[]",
          "name": "amounts",
          "type": "uint256[]"
        },
        {
          "internalType": "uint256[]",
          "name": "quantities",
          "type": "uint256[]"
        }
      ],
      "stateMutability": "view",
      "type": "function"
    },
    {
      "inputs": [
        {
          "internalType": "address",
          "name": "_user",
          "type": "address"
        }
      ],
      "name": "getLendOrderIds",
      "outputs": [
        {
          "internalType": "uint48[]",
          "name": "activeOrderIds",
          "type": "uint48[]"
        },
        {
          "internalType": "uint48[]",
          "name": "inActiveOrderIds",
          "type": "uint48[]"
        }
      ],
      "stateMutability": "view",
      "type": "function"
    },
    {
      "inputs": [],
      "name": "getLowestBorrowingUnitPrice",
      "outputs": [
        {
          "internalType": "uint256",
          "name": "",
          "type": "uint256"
        }
      ],
      "stateMutability": "view",
      "type": "function"
    },
    {
      "inputs": [],
      "name": "getOpeningUnitPrice",
      "outputs": [
        {
          "internalType": "uint256",
          "name": "openingUnitPrice",
          "type": "uint256"
        },
        {
          "internalType": "uint256",
          "name": "totalOffsetAmount",
          "type": "uint256"
        }
      ],
      "stateMutability": "view",
      "type": "function"
    },
    {
      "inputs": [
        {
          "internalType": "uint48",
          "name": "_orderId",
          "type": "uint48"
        }
      ],
      "name": "getOrder",
      "outputs": [
        {
          "internalType": "enum ProtocolTypes.Side",
          "name": "side",
          "type": "ProtocolTypes.Side"
        },
        {
          "internalType": "uint256",
          "name": "unitPrice",
          "type": "uint256"
        },
        {
          "internalType": "uint256",
          "name": "maturity",
          "type": "uint256"
        },
        {
          "internalType": "address",
          "name": "maker",
          "type": "address"
        },
        {
          "internalType": "uint256",
          "name": "amount",
          "type": "uint256"
        },
        {
          "internalType": "uint256",
          "name": "timestamp",
          "type": "uint256"
        }
      ],
      "stateMutability": "view",
      "type": "function"
    },
    {
      "inputs": [
        {
          "internalType": "address",
          "name": "_user",
          "type": "address"
        }
      ],
      "name": "getTotalAmountFromBorrowOrders",
      "outputs": [
        {
          "internalType": "uint256",
          "name": "activeAmount",
          "type": "uint256"
        },
        {
          "internalType": "uint256",
          "name": "inactiveAmount",
          "type": "uint256"
        },
        {
          "internalType": "uint256",
          "name": "inactiveFutureValue",
          "type": "uint256"
        },
        {
          "internalType": "uint256",
          "name": "maturity",
          "type": "uint256"
        }
      ],
      "stateMutability": "view",
      "type": "function"
    },
    {
      "inputs": [
        {
          "internalType": "address",
          "name": "_user",
          "type": "address"
        }
      ],
      "name": "getTotalAmountFromLendOrders",
      "outputs": [
        {
          "internalType": "uint256",
          "name": "activeAmount",
          "type": "uint256"
        },
        {
          "internalType": "uint256",
          "name": "inactiveAmount",
          "type": "uint256"
        },
        {
          "internalType": "uint256",
          "name": "inactiveFutureValue",
          "type": "uint256"
        },
        {
          "internalType": "uint256",
          "name": "maturity",
          "type": "uint256"
        }
      ],
      "stateMutability": "view",
      "type": "function"
    }
  ],
  "transactionHash": "0x5013f26759a8a0ad1ade9d5b6bbeb120d020da01977dd077fc0528389c15d431",
  "args": [],
  "numDeployments": 1,
  "solcInputHash": "3f85b78d4f02b33ea339ac5a99716c70",
  "bytecode": "0x61547361003a600b82828239805160001a60731461002d57634e487b7160e01b600052600060045260246000fd5b30600052607381538281f3fe73000000000000000000000000000000000000000030146080604052600436106101155760003560e01c80638152b173116100ac578063d866d3551161007b578063d866d35514610352578063e2afb04114610365578063e3d904d81461036d578063e7df768c146103a0578063fa6127aa146103b357600080fd5b80638152b17314610299578063914551f1146102ba5780639ca16952146102da578063bcc012ad1461033f57600080fd5b806363978ac8116100e857806363978ac8146101be5780636a2c4274146102285780636c5db843146102455780637ce219aa1461027457600080fd5b80633684d3ea1461011a5780634a53967b146101565780634bf62d1614610186578063614152b9146101a8575b600080fd5b81801561012657600080fd5b5061013a610135366004614fd3565b6103c6565b60405165ffffffffffff90911681526020015b60405180910390f35b81801561016257600080fd5b50610176610171366004615033565b6105d1565b60405161014d94939291906150a0565b6101996101943660046150cf565b610824565b60405161014d93929190615118565b6101b0610ad8565b60405190815260200161014d565b8180156101ca57600080fd5b506101de6101d936600461515b565b610b22565b60408051978852602088019690965265ffffffffffff909416948601949094526001600160a01b039091166060850152608084015260a083019190915260c082015260e00161014d565b610230610c2b565b6040805192835260208301919091520161014d565b81801561025157600080fd5b506102656102603660046151a4565b610dfd565b60405161014d9392919061520f565b61028761028236600461522e565b610f9b565b60405161014d96959493929190615249565b6102ac6102a7366004615288565b61112a565b60405161014d9291906152a3565b8180156102c657600080fd5b506101766102d5366004615033565b611486565b8180156102e657600080fd5b506102fa6102f53660046152c8565b6116cc565b6040805197885260208801969096529486019390935265ffffffffffff90911660608501526001600160a01b0316608084015260a083015260c082015260e00161014d565b6102ac61034d366004615288565b611777565b6101996103603660046150cf565b611a86565b6101b0611cc0565b61038061037b366004615288565b611cd2565b60408051948552602085019390935291830152606082015260800161014d565b6103806103ae366004615288565b611fff565b6101b06103c13660046152c8565b612308565b60006103d06123a3565b905060405180608001604052808760018111156103ef576103ef6151d7565b8152602001848152602001610402612402565b60030154815260200142815250610417612402565b65ffffffffffff831660009081526009919091016020526040902081518154829060ff19166001838181111561044f5761044f6151d7565b021790555060208201516001820155604082015160028201556060909101516003909101556000866001811115610488576104886151d7565b1415610533576104cf838287878661049e612402565b600b0160006104ab612402565b6003015481526020019081526020016000206124269095949392919063ffffffff16565b6104d7612402565b6001600160a01b03861660009081526006918201602090815260408220805460018101825590835291206005808304909101805465ffffffffffff808716939094069094026101000a91820292909102199092161790556105c8565b6001866001811115610547576105476151d7565b14156105c85761056a838287878661055d612402565b600c0160006104ab612402565b610572612402565b6001600160a01b03861660009081526007919091016020908152604082208054600181018255908352912060058083049091018054919092066006026101000a65ffffffffffff81810219909216918416021790555b95945050505050565b606060008060008060006105e488611777565b91509150816105f1612402565b60070160008a6001600160a01b03166001600160a01b03168152602001908152602001600020908051906020019061062a929190614eaa565b50815181519095508067ffffffffffffffff81111561064b5761064b6152e4565b604051908082528060200260200182016040528015610674578160200160208202803683370190505b50965060005b8181101561081757600061068c612402565b60090160008584815181106106a3576106a36152fa565b602002602001015165ffffffffffff1681526020019081526020016000206040518060800160405290816000820160009054906101000a900460ff1660018111156106f0576106f06151d7565b6001811115610701576107016151d7565b815260200160018201548152602001600282015481526020016003820154815250509050600061076a8260200151868581518110610741576107416152fa565b6020026020010151610751612402565b60008f8152600c919091016020526040902091906124ef565b90506107af8260200151868581518110610786576107866152fa565b6020026020010151610796612402565b60008f8152600c919091016020526040902091906125aa565b6107b99089615326565b97508060a00151876107cb9190615326565b965080600001518a84815181106107e4576107e46152fa565b602002602001019065ffffffffffff16908165ffffffffffff16815250505050808061080f9061533e565b91505061067a565b5050505092959194509250565b60608060608367ffffffffffffffff811115610842576108426152e4565b60405190808252806020026020018201604052801561086b578160200160208202803683370190505b5092508367ffffffffffffffff811115610887576108876152e4565b6040519080825280602002602001820160405280156108b0578160200160208202803683370190505b5091508367ffffffffffffffff8111156108cc576108cc6152e4565b6040519080825280602002602001820160405280156108f5578160200160208202803683370190505b5090506000610929610905612402565b600b016000610912612402565b6003015481526020019081526020016000206125e7565b9050808460008151811061093f5761093f6152fa565b60200260200101818152505061098481610957612402565b600b016000610964612402565b60030154815260200190815260200160002061262e90919063ffffffff16565b83600081518110610997576109976152fa565b6020026020010181815250506109dc816109af612402565b600b0160006109bc612402565b60030154815260200190815260200160002061264790919063ffffffff16565b826000815181106109ef576109ef6152fa565b602090810291909101015260015b8451811015610acf5781610a1057610acf565b610a4982610a1c612402565b600b016000610a29612402565b60030154815260200190815260200160002061266090919063ffffffff16565b915081858281518110610a5e57610a5e6152fa565b602002602001018181525050610a7682610957612402565b848281518110610a8857610a886152fa565b602002602001018181525050610aa0826109af612402565b838281518110610ab257610ab26152fa565b602090810291909101015280610ac78161533e565b9150506109fd565b50509193909250565b600080610b0a610ae6612402565b600c016000610af3612402565b60030154815260200190815260200160002061275a565b90508015610b185780610b1c565b6127105b91505090565b6000806000806000806000610b35614f5f565b60018b6001811115610b4957610b496151d7565b1415610b9f57610b8d8a8a6000610b5e612402565b600b016000610b6b612402565b60030154815260200190815260200160002061279c909392919063ffffffff16565b939b509099509350909150610c049050565b60008b6001811115610bb357610bb36151d7565b1415610c0457610bf78a8a6000610bc8612402565b600c016000610bd5612402565b600301548152602001908152602001600020612ada909392919063ffffffff16565b939b509099509350909150505b805160208201516040830151606090930151999d989c50909a509850969590945092505050565b6000806000610c38611cc0565b90506000610c44610ad8565b90506000610c5483610957612402565b90506000610c7183610c64612402565b600c016000610964612402565b90506000610c7d612402565b600c016000610c8a612402565b60030154815260200190815260200160002090506000610ca8612402565b600b016000610cb5612402565b60030154815260200190815260200160002090505b858511158015610cda5750600085115b8015610ce65750600086115b15610df35782841115610d39578597508287610d029190615326565b9650610d0e8385615359565b9350610d1a8286612e1c565b60008181526001840160205260409020600501549095505b9250610cca565b82841015610d86578497508387610d509190615326565b9650610d5c8484615359565b9250610d688187612660565b60008181526001830160205260409020600501549096509350610cca565b6002610d928688615326565b610d9c9190615370565b9750610da88488615326565b9650610db48187612660565b9550610dc08286612e1c565b60008781526001830160205260409020600501549095506000868152600184016020526040902060050154909450610d32565b5050505050509091565b600080600080610e0b612402565b65ffffffffffff861660009081526009919091016020526040908190208151608081019092528054829060ff166001811115610e4957610e496151d7565b6001811115610e5a57610e5a6151d7565b81526001820154602082015260028201546040820152600390910154606090910152905060008082516001811115610e9457610e946151d7565b1415610f1557610ed9826020015187610eab612402565b600b016000610eb8612402565b600301548152602001908152602001600020612f169092919063ffffffff16565b9050610f10610ee6612402565b6001600160a01b03891660009081526006919091016020526040902065ffffffffffff8816612f2f565b610f85565b600182516001811115610f2a57610f2a6151d7565b1415610f8557610f4e826020015187610f41612402565b600c016000610eb8612402565b9050610f85610f5b612402565b6001600160a01b03891660009081526007919091016020526040902065ffffffffffff8816612f2f565b8151602090920151919450925090509250925092565b6000806000806000806000610fae612402565b65ffffffffffff891660009081526009919091016020526040908190208151608081019092528054829060ff166001811115610fec57610fec6151d7565b6001811115610ffd57610ffd6151d7565b8152602001600182015481526020016002820154815260200160038201548152505090506110596040805160c081018252600080825260208201819052918101829052606081018290526080810182905260a081019190915290565b60008251600181111561106e5761106e6151d7565b14156110a9576110a282602001518a611085612402565b6040808701516000908152600b92909201602052902091906124ef565b90506110da565b6110d782602001518a6110ba612402565b6040808701516000908152600c92909201602052902091906124ef565b90505b60608101516001600160a01b03161561111e5781600001518260200151836040015183606001518460a0015185608001519750975097509750975097505050611121565b50505b91939550919395565b606080600080600061113a612402565b60030154611146612402565b6001600160a01b03881660009081526008919091016020526040902054141590508061119657611174612402565b6001600160a01b03871660009081526006919091016020526040902054611199565b60005b67ffffffffffffffff8111156111b1576111b16152e4565b6040519080825280602002602001820160405280156111da578160200160208202803683370190505b5094506111e5612402565b6001600160a01b0387166000908152600691909101602052604090205467ffffffffffffffff81111561121a5761121a6152e4565b604051908082528060200260200182016040528015611243578160200160208202803683370190505b50935060005b611251612402565b6001600160a01b0388166000908152600691909101602052604090205481101561147d57600061127f612402565b6001600160a01b0389166000908152600691909101602052604090208054839081106112ad576112ad6152fa565b90600052602060002090600591828204019190066006029054906101000a900465ffffffffffff16905060006112e1612402565b65ffffffffffff831660009081526009919091016020526040908190208151608081019092528054829060ff16600181111561131f5761131f6151d7565b6001811115611330576113306151d7565b8152602001600182015481526020016002820154815260200160038201548152505090506113b6816020015183611365612402565b600b016000611372612402565b60080160008f6001600160a01b03166001600160a01b031681526020019081526020016000205481526020019081526020016000206130859092919063ffffffff16565b611413576113c5600186615326565b945081876113d38886615359565b815181106113e3576113e36152fa565b602002602001019065ffffffffffff16908165ffffffffffff16815250508361140e57600188510388525b611468565b8361146057611423600187615326565b955081886114318786615359565b81518110611441576114416152fa565b602002602001019065ffffffffffff16908165ffffffffffff16815250505b600187510387525b505080806114759061533e565b915050611249565b50505050915091565b606060008060008060006114998861112a565b91509150816114a6612402565b60060160008a6001600160a01b03166001600160a01b0316815260200190815260200160002090805190602001906114df929190614eaa565b50815181519095508067ffffffffffffffff811115611500576115006152e4565b604051908082528060200260200182016040528015611529578160200160208202803683370190505b50965060005b81811015610817576000611541612402565b6009016000858481518110611558576115586152fa565b602002602001015165ffffffffffff1681526020019081526020016000206040518060800160405290816000820160009054906101000a900460ff1660018111156115a5576115a56151d7565b60018111156115b6576115b66151d7565b815260200160018201548152602001600282015481526020016003820154815250509050600061161f82602001518685815181106115f6576115f66152fa565b6020026020010151611606612402565b60008f8152600b919091016020526040902091906124ef565b9050611664826020015186858151811061163b5761163b6152fa565b602002602001015161164b612402565b60008f8152600b919091016020526040902091906125aa565b61166e9089615326565b97508060a00151876116809190615326565b965080600001518a8481518110611699576116996152fa565b602002602001019065ffffffffffff16908165ffffffffffff1681525050505080806116c49061533e565b91505061152f565b60008060008060008060006116df614f5f565b60018a60018111156116f3576116f36151d7565b141561171a576117086000808b610b5e612402565b939b5091995097509091506117509050565b60008a600181111561172e5761172e6151d7565b1415611750576117436000808b610bc8612402565b939b509199509750909150505b805160208201516040830151606090930151999c989b509699509795969095945092505050565b6060806000806000611787612402565b60030154611793612402565b6001600160a01b0388166000908152600891909101602052604090205414159050806117e3576117c1612402565b6001600160a01b038716600090815260079190910160205260409020546117e6565b60005b67ffffffffffffffff8111156117fe576117fe6152e4565b604051908082528060200260200182016040528015611827578160200160208202803683370190505b509450611832612402565b6001600160a01b0387166000908152600791909101602052604090205467ffffffffffffffff811115611867576118676152e4565b604051908082528060200260200182016040528015611890578160200160208202803683370190505b50935060005b61189e612402565b6001600160a01b0388166000908152600791909101602052604090205481101561147d5760006118cc612402565b6001600160a01b0389166000908152600791909101602052604090208054839081106118fa576118fa6152fa565b90600052602060002090600591828204019190066006029054906101000a900465ffffffffffff169050600061192e612402565b65ffffffffffff831660009081526009919091016020526040908190208151608081019092528054829060ff16600181111561196c5761196c6151d7565b600181111561197d5761197d6151d7565b8152602001600182015481526020016002820154815260200160038201548152505090506119bf8160200151836119b2612402565b600c016000611372612402565b611a1c576119ce600186615326565b945081876119dc8886615359565b815181106119ec576119ec6152fa565b602002602001019065ffffffffffff16908165ffffffffffff168152505083611a1757600188510388525b611a71565b611a27600187615326565b955083611a69578188611a3a8786615359565b81518110611a4a57611a4a6152fa565b602002602001019065ffffffffffff16908165ffffffffffff16815250505b600187510387525b50508080611a7e9061533e565b915050611896565b60608060608367ffffffffffffffff811115611aa457611aa46152e4565b604051908082528060200260200182016040528015611acd578160200160208202803683370190505b5092508367ffffffffffffffff811115611ae957611ae96152e4565b604051908082528060200260200182016040528015611b12578160200160208202803683370190505b5091508367ffffffffffffffff811115611b2e57611b2e6152e4565b604051908082528060200260200182016040528015611b57578160200160208202803683370190505b5090506000611b67610ae6612402565b90508084600081518110611b7d57611b7d6152fa565b602002602001018181525050611b9581610c64612402565b83600081518110611ba857611ba86152fa565b602002602001018181525050611bcd81611bc0612402565b600c0160006109bc612402565b82600081518110611be057611be06152fa565b602090810291909101015260015b8451811015610acf5781611c0157610acf565b611c3a82611c0d612402565b600c016000611c1a612402565b600301548152602001908152602001600020612e1c90919063ffffffff16565b915081858281518110611c4f57611c4f6152fa565b602002602001018181525050611c6782610c64612402565b848281518110611c7957611c796152fa565b602002602001018181525050611c9182611bc0612402565b838281518110611ca357611ca36152fa565b602090810291909101015280611cb88161533e565b915050611bee565b6000611ccd610905612402565b905090565b600080600080600080611ce487611777565b9150915060005b8251811015611e1a576000611cfe612402565b6009016000858481518110611d1557611d156152fa565b602002602001015165ffffffffffff1681526020019081526020016000206040518060800160405290816000820160009054906101000a900460ff166001811115611d6257611d626151d7565b6001811115611d7357611d736151d7565b8152602001600182015481526020016002820154815260200160038201548152505090506000611df18260200151868581518110611db357611db36152fa565b6020026020010151611dc3612402565b600c016000611dd0612402565b6003015481526020019081526020016000206124ef9092919063ffffffff16565b90508060a0015189611e039190615326565b985050508080611e129061533e565b915050611ceb565b50611e23612402565b6001600160a01b0388166000908152600891909101602052604081205493505b8151811015611ff5576000611e56612402565b6009016000848481518110611e6d57611e6d6152fa565b602002602001015165ffffffffffff1681526020019081526020016000206040518060800160405290816000820160009054906101000a900460ff166001811115611eba57611eba6151d7565b6001811115611ecb57611ecb6151d7565b8152602001600182015481526020016002820154815260200160038201548152505090506000611f1b8260200151858581518110611f0b57611f0b6152fa565b60200260200101516110ba612402565b90508060a0015188611f2d9190615326565b6020830151909850611f3d612402565b600a016000868681518110611f5457611f546152fa565b60209081029190910181015165ffffffffffff1682528101919091526040016000205460ff16151560011415611fb7576000611f8e612402565b60040160008560400151815260200190815260200160002054905081811115611fb5578091505b505b611fd3816127108460a00151611fcd9190615392565b906130a3565b611fdd9089615326565b97505050508080611fed9061533e565b915050611e43565b5050509193509193565b6000806000806000806120118761112a565b9150915061201d612402565b6001600160a01b0388166000908152600891909101602052604081205493505b825181101561214b576000612050612402565b6009016000858481518110612067576120676152fa565b602002602001015165ffffffffffff1681526020019081526020016000206040518060800160405290816000820160009054906101000a900460ff1660018111156120b4576120b46151d7565b60018111156120c5576120c56151d7565b81526020016001820154815260200160028201548152602001600382015481525050905060006121228260200151868581518110612105576121056152fa565b6020026020010151612115612402565b600b016000611dd0612402565b90508060a00151896121349190615326565b9850505080806121439061533e565b91505061203d565b5060005b8151811015611ff5576000612162612402565b6009016000848481518110612179576121796152fa565b602002602001015165ffffffffffff1681526020019081526020016000206040518060800160405290816000820160009054906101000a900460ff1660018111156121c6576121c66151d7565b60018111156121d7576121d76151d7565b8152600182015460208201526002820154604082015260039091015460609091015290508461220857806040015194505b60006122348260200151858581518110612224576122246152fa565b6020026020010151611085612402565b90508060a00151886122469190615326565b6020830151909850612256612402565b600a01600086868151811061226d5761226d6152fa565b60209081029190910181015165ffffffffffff1682528101919091526040016000205460ff161515600114156122d05760006122a7612402565b600401600085604001518152602001908152602001600020549050818110156122ce578091505b505b6122e6816127108460a00151611fcd9190615392565b6122f09089615326565b975050505080806123009061533e565b91505061214f565b6000600183600181111561231e5761231e6151d7565b14156123645761235d82612330612402565b600b01600061233d612402565b60030154815260200190815260200160002061310d90919063ffffffff16565b905061239d565b61235d82612370612402565b600c01600061237d612402565b6003015481526020019081526020016000206131c990919063ffffffff16565b92915050565b60006123ad612402565b600101805465ffffffffffff169060006123c6836153b1565b91906101000a81548165ffffffffffff021916908365ffffffffffff160217905550506123f1612402565b6001015465ffffffffffff16919050565b7ffc2836757f9146445fc75bc3c897a210ec004e4ee60fc8627ef5cbf2842b3d0a90565b600082116124715760405162461bcd60e51b8152602060048201526013602482015272125b9cdd59999a58da595b9d08185b5bdd5b9d606a1b60448201526064015b60405180910390fd5b6127108511156124b85760405162461bcd60e51b8152602060048201526012602482015271496e73756666696369656e742076616c756560701b6044820152606401612468565b6124c2868661327d565b80156124da576124d5868686868661344d565b6124e7565b6124e786868686866134c6565b505050505050565b6040805160c081018252600080825260208201819052918101829052606081018290526080810182905260a081019190915250600082815260018085016020908152604080842065ffffffffffff80871686526006909101835293819020815160c08101835281548087168252600160301b8104871694820194909452600160601b90930490941690820152908201546001600160a01b031660608201526002820154608082015260039091015460a08201525b9392505050565b6000828152600184016020908152604080832065ffffffffffff851684526006019091528120600301546125df908490613537565b949350505050565b8054806125f657506000919050565b5b6000818152600183016020526040902060020154156126295760009081526001820160205260409020600201546125f7565b919050565b6000908152600191909101602052604090206005015490565b6000908152600191909101602052604090206004015490565b6000816126d05760405162461bcd60e51b815260206004820152603860248201527f4f7264657253746174697374696373547265652834303229202d205374617274604482015277696e672076616c75652063616e6e6f74206265207a65726f60401b6064820152608401612468565b60008281526001808501602052604090912001541561270857600082815260018085016020526040909120015461235d908490613549565b5060008181526001830160205260409020545b801580159061273c5750600081815260018085016020526040909120015482145b1561239d57600081815260018401602052604090205490915061271b565b80548061276957506000919050565b5b60008181526001808401602052604090912001541561262957600090815260018083016020526040909120015461276a565b6000806000806127aa614f5f565b60006127b58a6125e7565b905060008089831015806127c7575089155b61280e5760405162461bcd60e51b8152602060048201526018602482015277496e73756666696369656e74206c696d69742076616c756560401b6044820152606401612468565b6000805b8c83108061281e57508c155b801561283157508a88108061283157508a155b801561283c57508415155b801561285057508b8510158061285057508b155b1561290957600085815260018f01602052604090206005015493506128758484615326565b92508499506128848585613537565b61288e9089615326565b975061289a848a615326565b98508c831180156128aa57508c15155b156128cc576128b98d84615359565b91506128c58583613537565b90506128f8565b8a881180156128da57508a15155b156128f8576128e98b89615359565b90506128f58582613586565b91505b6129028e86612660565b9450612812565b811561291c57612919828a615359565b98505b801561292f5761292c8189615359565b97505b8215612a22578115612959578994506129528e8661294d8588615359565b613598565b955061297e565b801561297e5789945061297b8e866129718885613586565b61294d9088615359565b95505b600085815260018f01602052604081206002810191909155548515612a20575b8015612a205785811015612a0a57808f60010160008881526020019081526020016000206000015414612a0657808f600101600088815260200190815260200160002060000181905550858f6001016000838152602001908152602001600020600201819055505b8095505b600090815260018f01602052604090205461299e565b505b828d1115612a3757612a34838e615359565b96505b6000612a428f61275a565b90508a81148015612a6b57508e6001016000828152602001908152602001600020600501546000145b15612a795760008f55612ac0565b8e548b1080612a9357508e548b148015612a935750838a10155b15612ac057858f6000018190555060008f6001016000888152602001908152602001600020600001819055505b612ac98f6138ce565b505050505050945094509450945094565b600080600080612ae8614f5f565b6000612af38a61275a565b90506000808983111580612b05575089155b612b4c5760405162461bcd60e51b8152602060048201526018602482015277496e73756666696369656e74206c696d69742076616c756560401b6044820152606401612468565b6000805b8c831080612b5c57508c155b8015612b6f57508a881080612b6f57508a155b8015612b7a57508415155b8015612b8e57508b85111580612b8e57508b155b15612c4757600085815260018f0160205260409020600501549350612bb38484615326565b9250849950612bc28585613537565b612bcc9089615326565b9750612bd8848a615326565b98508c83118015612be857508c15155b15612c0a57612bf78d84615359565b9150612c038583613537565b9050612c36565b8a88118015612c1857508a15155b15612c3657612c278b89615359565b9050612c338582613586565b91505b612c408e86612e1c565b9450612b50565b8115612c5a57612c57828a615359565b98505b8015612c6d57612c6a8189615359565b97505b8215612d75578115612c9257899450612c8b8e8661294d8588615359565b9550612cad565b8015612cad57899450612caa8e866129718885613586565b95505b60008e60010160008781526020019081526020016000206001018190555060008e600101600087815260200190815260200160002060000154905060008614612d73575b8015612d735785811115612d5d57808f60010160008881526020019081526020016000206000015414612d5957808f600101600088815260200190815260200160002060000181905550858f6001016000838152602001908152602001600020600101819055505b8095505b600090815260018f016020526040902054612cf1565b505b828d1115612d8a57612d87838e615359565b96505b6000612d958f6125e7565b90508a81148015612dbe57508e6001016000828152602001908152602001600020600501546000145b15612dcc5760008f55612e13565b8e548b1180612de657508e548b148015612de65750838a10155b15612e1357858f6000018190555060008f6001016000888152602001908152602001600020600001819055505b612ac98f61399d565b600081612e8c5760405162461bcd60e51b815260206004820152603860248201527f4f7264657253746174697374696373547265652834303129202d205374617274604482015277696e672076616c75652063616e6e6f74206265207a65726f60401b6064820152608401612468565b600082815260018401602052604090206002015415612ec457600082815260018401602052604090206002015461235d908490613a2c565b5060008181526001830160205260409020545b8015801590612ef85750600081815260018401602052604090206002015482145b1561239d576000818152600184016020526040902054909150612ed7565b6000612f23848484613a64565b90506125a38484613cd0565b8154600090612f4090600190615359565b905060005b81811161307f5782848281548110612f5f57612f5f6152fa565b90600052602060002090600591828204019190066006029054906101000a900465ffffffffffff1665ffffffffffff16141561306d57818114613026576000848381548110612fb057612fb06152fa565b90600052602060002090600591828204019190066006029054906101000a900465ffffffffffff16905080858381548110612fed57612fed6152fa565b90600052602060002090600591828204019190066006026101000a81548165ffffffffffff021916908365ffffffffffff160217905550505b83805480613036576130366153d7565b60019003818190600052602060002090600591828204019190066006026101000a81549065ffffffffffff0219169055905561307f565b806130778161533e565b915050612f45565b50505050565b6000613092848484613f8d565b80156125df57506125df84846140d6565b60008082116130b157600080fd5b60056130bd8385615370565b6130c890600a615392565b836130d486600a615392565b6130de9190615370565b6130e89190615359565b10156130f85761235d8284615370565b6131028284615370565b61235d906001615326565b600080613119846125e7565b905060008092505b838110801561312f57508115155b156131c1576000828152600186016020526040812060050154906131538483613537565b905061315f8184615326565b9250858311156131a15760006131758785615359565b61317f9083615359565b905061318f82611fcd8386615392565b6131999087615326565b9550506131ae565b6131ab8286615326565b94505b6131b88785612660565b93505050613121565b505092915050565b6000806131d58461275a565b905060008092505b83811080156131eb57508115155b156131c15760008281526001860160205260408120600501549061320f8483613537565b905061321b8184615326565b92508583111561325d5760006132318785615359565b61323b9083615359565b905061324b82611fcd8386615392565b6132559087615326565b95505061326a565b6132678286615326565b94505b6132748785612e1c565b935050506131dd565b806132f05760405162461bcd60e51b815260206004820152603960248201527f4f7264657253746174697374696373547265652834303529202d2056616c756560448201527f20746f20696e736572742063616e6e6f74206265207a65726f000000000000006064820152608401612468565b81546000905b801561335457809150808310156133205760009081526001808501602052604090912001546132f6565b808311156133415760009081526001840160205260409020600201546132f6565b8083141561334f5750505050565b6132f6565b60008381526001850160205260409020845415806133a35750600083815260018087016020526040909120015484148015906133a3575060008381526001860160205260409020600201548414155b156133d157600060048201819055600582018190556133c5908690869061418f565b6133d1858560006141c7565b82815560006001808301829055600283019190915560038201805460ff19169091179055826134025783855561343c565b82841015613425576000838152600180870160205260409091200184905561343c565b600083815260018601602052604090206002018490555b6134468585614207565b5050505050565b600084815260018601602052604081209061346b8787878787614472565b905061348f8787838560030160019054906101000a900465ffffffffffff16614611565b61349a87878361418f565b6003820154600160381b900465ffffffffffff166134bd576134bd8787836141c7565b50505050505050565b600084815260018601602052604090206003810154610100900465ffffffffffff166134f9576124d5868686868661344d565b60006135088787878787614472565b905061352c87878460030160079054906101000a900465ffffffffffff1684614611565b6134bd8787836141c7565b60006125a383611fcd61271085615392565b60005b600082815260018401602052604090206002015415613580576000918252600183016020526040909120600201549061354c565b50919050565b60006125a3612710611fcd8585615392565b6135a0614f5f565b60008381526001850160205260409020600581015483111561362a5760405162461bcd60e51b815260206004820152603960248201527f4f7264657253746174697374696373547265652834313029202d20416d6f756e60448201527f7420746f2066696c6c20697320696e73756666696369656e74000000000000006064820152608401612468565b60038082015465ffffffffffff61010090910481166000818152600685016020908152604091829020825160c08101845281548087168252600160301b8104871693820193909352600160601b9092049094169181019190915260018301546001600160a01b0316606082015260028301546080820152919092015460a082015284915b65ffffffffffff8116158015906136c457508215155b156138265765ffffffffffff8082166000908152600686016020908152604091829020825160c08101845281548086168252600160301b8104861693820193909352600160601b9092049093169181019190915260018201546001600160a01b031660608201526002820154608082015260039091015460a0820181905290925083106137685760a082015161375a9084615359565b9250816020015190506136ae565b6040518060800160405280836000015165ffffffffffff16815260200183606001516001600160a01b031681526020018481526020016137a88986613537565b905260409283015165ffffffffffff908116600090815260068701602090815290859020855160c08101875281548085168252600160301b8104851693820193909352600160601b9092049092169481019490945260018101546001600160a01b03166060850152600281015460808501526003015460a084015294505b815165ffffffffffff16156138465761384488888460000151614686565b505b6040850151156138c357604080860151600089815260018b016020908152838220895165ffffffffffff168352600601905291822060030180549192909161388f908490615359565b9091555050604080860151600089815260018b016020529182206005018054919290916138bd908490615359565b90915550505b505050509392505050565b8054600090815260018201602052604090206002015415801561390557508054600090815260018083016020526040909120015415155b1561395e57805460009081526001808301602052604080832090910154825290206002015415613950578054600090815260018083016020526040909120015461395090829061486c565b61395e818260000154614944565b8054600090815260018201602052604090206003015460ff161561399a57805460009081526001820160205260409020600301805460ff191690555b50565b805460009081526001808301602052604090912001541580156139d457508054600090815260018201602052604090206002015415155b1561395e578054600090815260018083016020526040808320600201548352909120015415613a1e5780546000908152600182016020526040902060020154613a1e908290614944565b61395e81826000015461486c565b60005b600082815260018085016020526040909120015415613580576000918252600180840160205260409092209091015490613a2f565b6000613a71848484613085565b613a8d5760405162461bcd60e51b8152600401612468906153ed565b50600082815260018085016020908152604080842065ffffffffffff80871680875260068301855295839020835160c08101855281548084168252600160301b8104841696820196909652600160601b909504821693850193909352938201546001600160a01b031660608401526002820154608084015260039182015460a084018190529181015491949093610100909204909116148015613b455750600382015465ffffffffffff858116600160381b90920416145b15613b6757613b568686600061418f565b613b62868660006141c7565b613c39565b600382015465ffffffffffff858116610100909204161415613bc557613b928686836020015161418f565b60208082015165ffffffffffff1660009081526006840190915260409020805465ffffffffffff60601b19169055613c39565b600382015465ffffffffffff858116600160381b909204161415613c2557613bf2868683604001516141c7565b60408082015165ffffffffffff166000908152600684016020522080546bffffffffffff00000000000019169055613c39565b613c39868683604001518460200151614611565b805165ffffffffffff1660009081526006830160205260408120805471ffffffffffffffffffffffffffffffffffff19168155600180820180546001600160a01b031916905560028201839055600390910182905560048401805491929091613ca3908490615359565b909155505060a0810151600583018054600090613cc1908490615359565b90915550929695505050505050565b80613d435760405162461bcd60e51b815260206004820152603960248201527f4f7264657253746174697374696373547265652834303729202d2056616c756560448201527f20746f2064656c6574652063616e6e6f74206265207a65726f000000000000006064820152608401612468565b60008181526001830160205260408120600481015490919081906134465760008481526001808701602052604090912001541580613d9257506000848152600186016020526040902060020154155b15613d9e575082613de6565b5060008381526001850160205260409020600201545b600081815260018087016020526040909120015415613de6576000908152600180860160205260409091200154613db4565b600081815260018087016020526040909120015415613e1a5760008181526001808701602052604090912001549150613e31565b600081815260018601602052604090206002015491505b60008181526001860160205260408082205484835291208190558015613ea2576000818152600180880160205260409091200154821415613e875760008181526001808801602052604090912001839055613ea6565b60008181526001870160205260409020600201839055613ea6565b8286555b600082815260018701602052604090206003015460ff1615858314613f3057613ed0878488614a19565b60008681526001888101602052604080832080830154878552828520938401819055845281842087905560028082015490840181905584529083208690556003908101549286905201805460ff191660ff90921615159190911790559194915b8015613f4057613f408785614a90565b50506000818152600180870160205260408220828155908101829055600281018290556003810180546cffffffffffffffffffffffffff1916905560048101829055600501555050505050565b600082815260018085016020908152604080842065ffffffffffff808716808752600683018552838720845160c0810186528154808516808352600160301b8204861698830198909852600160601b900490931694830194909452948301546001600160a01b031660608201526002830154608082015260039092015460a0830152859390921461402457600093505050506125a3565b5b604081015165ffffffffffff16156140b75760409081015165ffffffffffff808216600090815260068501602090815290849020845160c08101865281548085168252600160301b8104851693820193909352600160601b9092049092169381019390935260018101546001600160a01b03166060840152600281015460808401526003015460a08301529250614025565b5060030154610100900465ffffffffffff908116911614949350505050565b6000816140e55750600061239d565b82548214156140f65750600161239d565b815b600081815260018501602052604090205415614185576000818152600180860160205260408083205480845292200154821480159061414a575060008181526001860160205260409020600201548214155b1561415a5760009250505061239d565b845481141561416e5760019250505061239d565b5060009081526001840160205260409020546140f8565b5060009392505050565b6000918252600190920160205260409020600301805465ffffffffffff9092166101000266ffffffffffff0019909216919091179055565b6000918252600190920160205260409020600301805465ffffffffffff909216600160381b026cffffffffffff0000000000000019909216919091179055565b60005b825482148015906142345750600082815260018401602052604080822054825290206003015460ff165b156144505760008281526001808501602052604080832054808452818420548452922001548114156143575760008181526001850160205260408082205482528082206002015480835291206003015490925060ff16156142dd576000818152600180860160205260408083206003808201805460ff1990811690915587865283862082018054821690558254865292852001805490921690921790559082905254925061444a565b600081815260018501602052604090206002015483141561430557809250614305848461486c565b50600082815260018085016020526040808320548084528184206003808201805460ff19908116909155825487529386200180549093169093179091559182905254614352908590614944565b61444a565b6000818152600180860160205260408083205483528083209091015480835291206003015490925060ff16156143d5576000818152600180860160205260408083206003808201805460ff1990811690915587865283862082018054821690558254865292852001805490921690921790559082905254925061444a565b60008181526001808601602052604090912001548314156143fd578092506143fd8484614944565b50600082815260018085016020526040808320548084528184206003808201805460ff1990811690915582548752938620018054909316909317909155918290525461444a90859061486c565b5061420a565b505080546000908152600190910160205260409020600301805460ff19169055565b6000848152600186016020908152604080832065ffffffffffff8716845260068101909252822060020154156145055760405162461bcd60e51b815260206004820152603260248201527f4f7264657253746174697374696373547265652834303929202d204f726465726044820152711034b21030b63932b0b23c9032bc34b9ba1760711b6064820152608401612468565b600181600401600082825461451a9190615326565b92505081905550828160050160008282546145359190615326565b90915550506040805160c08101825265ffffffffffff808816808352600060208085018281528587018381526001600160a01b03808d16606089019081524260808a0190815260a08a018e81529787526006909b019094529790932095518654915193518616600160601b0265ffffffffffff60601b19948716600160301b026bffffffffffffffffffffffff199093169682169690961791909117929092169390931784559151600184018054919095166001600160a01b031990911617909355925160028201559051600390910155905095945050505050565b60009283526001939093016020908152604080842065ffffffffffff938416808652600690910190925280842080546bffffffffffff0000000000001916600160301b9490961693840295909517909455908252919020805465ffffffffffff60601b1916600160601b909202919091179055565b6000614693848484613085565b6146af5760405162461bcd60e51b8152600401612468906153ed565b50600082815260018085016020908152604080842065ffffffffffff808716865260068201808552838720845160c08101865281548085168252600160301b8104851682890152600160601b9004841681870152818801546001600160a01b031660608201526002820154608082015260039182015460a08201819052828601546101009004909416808a529290965293909620909201549194909390915b8665ffffffffffff1683146147b257600092835260068501602052604090922054600160301b900465ffffffffffff1691816147898161533e565b60008581526006880160205260409020600301549093506147ab915082615326565b905061474e565b600385015465ffffffffffff888116600160381b9092041614156147ed576147dc8989600061418f565b6147e8898960006141c7565b61482b565b6147fc8989866020015161418f565b60208085015165ffffffffffff1660009081526006870190915260409020805465ffffffffffff60601b191690555b8185600401600082825461483f9190615359565b925050819055508085600501600082825461485a9190615359565b90915550959998505050505050505050565b6000818152600180840160205260408083206002810180549154828652928520909301549385905291839055909180156148b457600081815260018601602052604090208490555b60008381526001860160205260409020829055816148d457828555614921565b600082815260018087016020526040909120015484141561490a5760008281526001808701602052604090912001839055614921565b600082815260018601602052604090206002018390555b505060008181526001938401602052604080822090940183905591825291902055565b6000818152600180840160205260408083209182018054925483855291842060020154938590528390559091801561498a57600081815260018601602052604090208490555b60008381526001860160205260409020829055816149aa578285556149f7565b60008281526001860160205260409020600201548414156149e057600082815260018601602052604090206002018390556149f7565b600082815260018087016020526040909120018390555b5050600081815260019093016020526040808420600201839055918352912055565b600081815260018401602052604080822054848352912081905580614a405782845561307f565b6000818152600180860160205260409091200154821415614a76576000818152600180860160205260409091200183905561307f565b600090815260019390930160205250604090912060020155565b60005b82548214801590614ab85750600082815260018401602052604090206003015460ff16155b15614e8b576000828152600180850160205260408083205480845292200154831415614cb45760008181526001850160205260408082206002015480835291206003015490925060ff1615614b5c576000828152600180860160205260408083206003908101805460ff19908116909155858552919093209092018054909216179055614b45848261486c565b600081815260018501602052604090206002015491505b60008281526001808601602052604080832090910154825290206003015460ff16158015614ba75750600082815260018501602052604080822060020154825290206003015460ff16155b15614bd457600082815260018581016020526040909120600301805460ff19169091179055915081614e85565b600082815260018501602052604080822060020154825290206003015460ff16614c51576000828152600180860160205260408083208083015484529083206003908101805460ff1990811690915593869052018054909216179055614c3a8483614944565b600081815260018501602052604090206002015491505b600081815260018501602052604080822060039081018054868552838520808401805460ff909316151560ff199384161790558254821690925560029091015484529190922090910180549091169055614cab848261486c565b83549250614e85565b6000818152600180860160205260408083209091015480835291206003015490925060ff1615614d33576000828152600180860160205260408083206003908101805460ff19908116909155858552919093209092018054909216179055614d1c8482614944565b600081815260018086016020526040909120015491505b600082815260018501602052604080822060020154825290206003015460ff16158015614d7e575060008281526001808601602052604080832090910154825290206003015460ff16155b15614dab57600082815260018581016020526040909120600301805460ff19169091179055915081614e85565b60008281526001808601602052604080832090910154825290206003015460ff16614e2a57600082815260018086016020526040808320600281015484529083206003908101805460ff1990811690915593869052018054909216179055614e13848361486c565b600081815260018086016020526040909120015491505b60008181526001808601602052604080832060039081018054878652838620808401805460ff909316151560ff19938416179055825482169092559301548452922090910180549091169055614e808482614944565b835492505b50614a93565b506000908152600190910160205260409020600301805460ff19169055565b82805482825590600052602060002090600401600590048101928215614f4f5791602002820160005b83821115614f1b57835183826101000a81548165ffffffffffff021916908365ffffffffffff1602179055509260200192600601602081600501049283019260010302614ed3565b8015614f4d5782816101000a81549065ffffffffffff0219169055600601602081600501049283019260010302614f1b565b505b50614f5b929150614f98565b5090565b6040518060800160405280600065ffffffffffff16815260200160006001600160a01b0316815260200160008152602001600081525090565b5b80821115614f5b5760008155600101614f99565b80356002811061262957600080fd5b80356001600160a01b038116811461262957600080fd5b600080600080600060a08688031215614feb57600080fd5b614ff486614fad565b945061500260208701614fbc565b935060408601359250606086013591506080860135801515811461502557600080fd5b809150509295509295909350565b6000806040838503121561504657600080fd5b61504f83614fbc565b946020939093013593505050565b600081518084526020808501945080840160005b8381101561509557815165ffffffffffff1687529582019590820190600101615071565b509495945050505050565b6080815260006150b3608083018761505d565b6020830195909552506040810192909252606090910152919050565b6000602082840312156150e157600080fd5b5035919050565b600081518084526020808501945080840160005b83811015615095578151875295820195908201906001016150fc565b60608152600061512b60608301866150e8565b828103602084015261513d81866150e8565b9050828103604084015261515181856150e8565b9695505050505050565b60008060006060848603121561517057600080fd5b61517984614fad565b95602085013595506040909401359392505050565b803565ffffffffffff8116811461262957600080fd5b600080604083850312156151b757600080fd5b6151c083614fbc565b91506151ce6020840161518e565b90509250929050565b634e487b7160e01b600052602160045260246000fd5b6002811061520b57634e487b7160e01b600052602160045260246000fd5b9052565b6060810161521d82866151ed565b602082019390935260400152919050565b60006020828403121561524057600080fd5b6125a38261518e565b60c0810161525782896151ed565b602082019690965260408101949094526001600160a01b03929092166060840152608083015260a090910152919050565b60006020828403121561529a57600080fd5b6125a382614fbc565b6040815260006152b6604083018561505d565b82810360208401526105c8818561505d565b600080604083850312156152db57600080fd5b61504f83614fad565b634e487b7160e01b600052604160045260246000fd5b634e487b7160e01b600052603260045260246000fd5b634e487b7160e01b600052601160045260246000fd5b6000821982111561533957615339615310565b500190565b600060001982141561535257615352615310565b5060010190565b60008282101561536b5761536b615310565b500390565b60008261538d57634e487b7160e01b600052601260045260246000fd5b500490565b60008160001904831182151516156153ac576153ac615310565b500290565b600065ffffffffffff808316818114156153cd576153cd615310565b6001019392505050565b634e487b7160e01b600052603160045260246000fd5b60208082526030908201527f4f7264657253746174697374696373547265652834313029202d204f7264657260408201526f103237b2b9903737ba1032bc34b9ba1760811b60608201526080019056fea264697066735822122030a1aceffc5abb0844be189af85d806766d5baef31da8c287a4bdfcf6b59658e64736f6c63430008090033",
  "devdoc": {
    "kind": "dev",
    "methods": {},
    "version": 1
  },
  "userdoc": {
    "kind": "user",
    "methods": {},
    "version": 1
  },
  "storageLayout": {
    "storage": [],
    "types": null
  }
}