{
  "address": "0x05328E6938742F05C362b4F694eE1C820ccaCb46",
  "abi": [
    {
      "inputs": [
        {
          "internalType": "address",
          "name": "_resolver",
          "type": "address"
        }
      ],
      "stateMutability": "nonpayable",
      "type": "constructor"
    },
    {
      "anonymous": false,
      "inputs": [
        {
          "indexed": true,
          "internalType": "address",
          "name": "previousOwner",
          "type": "address"
        },
        {
          "indexed": true,
          "internalType": "address",
          "name": "newOwner",
          "type": "address"
        }
      ],
      "name": "OwnershipTransferred",
      "type": "event"
    },
    {
      "anonymous": false,
      "inputs": [
        {
          "indexed": true,
          "internalType": "bytes32",
          "name": "id",
          "type": "bytes32"
        },
        {
          "indexed": true,
          "internalType": "address",
          "name": "proxyAddress",
          "type": "address"
        },
        {
          "indexed": true,
          "internalType": "address",
          "name": "implementationAddress",
          "type": "address"
        }
      ],
      "name": "ProxyCreated",
      "type": "event"
    },
    {
      "anonymous": false,
      "inputs": [
        {
          "indexed": true,
          "internalType": "bytes32",
          "name": "id",
          "type": "bytes32"
        },
        {
          "indexed": true,
          "internalType": "address",
          "name": "proxyAddress",
          "type": "address"
        },
        {
          "indexed": true,
          "internalType": "address",
          "name": "newImplementationAddress",
          "type": "address"
        },
        {
          "indexed": false,
          "internalType": "address",
          "name": "oldImplementationAddress",
          "type": "address"
        }
      ],
      "name": "ProxyUpdated",
      "type": "event"
    },
    {
      "inputs": [
        {
          "internalType": "address",
          "name": "newAdmin",
          "type": "address"
        },
        {
          "internalType": "address[]",
          "name": "destinations",
          "type": "address[]"
        }
      ],
      "name": "changeProxyAdmins",
      "outputs": [],
      "stateMutability": "nonpayable",
      "type": "function"
    },
    {
      "inputs": [
        {
          "internalType": "bytes32",
          "name": "name",
          "type": "bytes32"
        }
      ],
      "name": "getAddress",
      "outputs": [
        {
          "internalType": "address",
          "name": "proxyAddress",
          "type": "address"
        }
      ],
      "stateMutability": "view",
      "type": "function"
    },
    {
      "inputs": [],
      "name": "getAddressResolverAddress",
      "outputs": [
        {
          "internalType": "address",
          "name": "",
          "type": "address"
        }
      ],
      "stateMutability": "view",
      "type": "function"
    },
    {
      "inputs": [],
      "name": "owner",
      "outputs": [
        {
          "internalType": "address",
          "name": "",
          "type": "address"
        }
      ],
      "stateMutability": "view",
      "type": "function"
    },
    {
      "inputs": [],
      "name": "renounceOwnership",
      "outputs": [],
      "stateMutability": "nonpayable",
      "type": "function"
    },
    {
      "inputs": [
        {
          "internalType": "address",
          "name": "newImpl",
          "type": "address"
        }
      ],
      "name": "setAddressResolverImpl",
      "outputs": [],
      "stateMutability": "nonpayable",
      "type": "function"
    },
    {
      "inputs": [
        {
          "internalType": "address",
          "name": "newImpl",
          "type": "address"
        }
      ],
      "name": "setBeaconProxyControllerImpl",
      "outputs": [],
      "stateMutability": "nonpayable",
      "type": "function"
    },
    {
      "inputs": [
        {
          "internalType": "address",
          "name": "newImpl",
          "type": "address"
        }
      ],
      "name": "setCurrencyControllerImpl",
      "outputs": [],
      "stateMutability": "nonpayable",
      "type": "function"
    },
    {
      "inputs": [
        {
          "internalType": "address",
          "name": "newImpl",
          "type": "address"
        }
      ],
      "name": "setGenesisValueVaultImpl",
      "outputs": [],
      "stateMutability": "nonpayable",
      "type": "function"
    },
    {
      "inputs": [
        {
          "internalType": "address",
          "name": "newImpl",
          "type": "address"
        },
        {
          "internalType": "uint256",
          "name": "marketBasePeriod",
          "type": "uint256"
        },
        {
          "internalType": "uint256",
          "name": "observationPeriod",
          "type": "uint256"
        }
      ],
      "name": "setLendingMarketControllerImpl",
      "outputs": [],
      "stateMutability": "nonpayable",
      "type": "function"
    },
    {
      "inputs": [
        {
          "internalType": "address",
          "name": "newImpl",
          "type": "address"
        },
        {
          "internalType": "address",
          "name": "WETH9",
          "type": "address"
        }
      ],
      "name": "setReserveFundImpl",
      "outputs": [],
      "stateMutability": "nonpayable",
      "type": "function"
    },
    {
      "inputs": [
        {
          "internalType": "address",
          "name": "newImpl",
          "type": "address"
        },
        {
          "internalType": "uint256",
          "name": "liquidationThresholdRate",
          "type": "uint256"
        },
        {
          "internalType": "uint256",
          "name": "liquidationProtocolFeeRate",
          "type": "uint256"
        },
        {
          "internalType": "uint256",
          "name": "liquidatorFeeRate",
          "type": "uint256"
        },
        {
          "internalType": "address",
          "name": "uniswapRouter",
          "type": "address"
        },
        {
          "internalType": "address",
          "name": "uniswapQuoter",
          "type": "address"
        },
        {
          "internalType": "address",
          "name": "WETH9",
          "type": "address"
        }
      ],
      "name": "setTokenVaultImpl",
      "outputs": [],
      "stateMutability": "nonpayable",
      "type": "function"
    },
    {
      "inputs": [
        {
          "internalType": "address",
          "name": "newOwner",
          "type": "address"
        }
      ],
      "name": "transferOwnership",
      "outputs": [],
      "stateMutability": "nonpayable",
      "type": "function"
    }
  ],
  "transactionHash": "0xd26800f518f6081b6c4be7b91d87dcaa46ef4394e02700ad697f61c0a7dac5ef",
  "args": [
    "0x0000000000000000000000000000000000000000"
  ],
  "numDeployments": 1,
  "solcInputHash": "3f85b78d4f02b33ea339ac5a99716c70",
  "bytecode": "0x608060405234801561001057600080fd5b50604051611cb8380380611cb883398101604081905261002f91610196565b61003833610146565b6001600160a01b0381161561014057600081905060006001600160a01b0316816001600160a01b0316635c60da1b6040518163ffffffff1660e01b815260040160206040518083038186803b15801561009057600080fd5b505afa1580156100a4573d6000803e3d6000fd5b505050506040513d601f19601f820116820180604052508101906100c89190610196565b6001600160a01b031614156101235760405162461bcd60e51b815260206004820152601760248201527f50726f78792061646472657373206e6f7420666f756e64000000000000000000604482015260640160405180910390fd5b50600180546001600160a01b0319166001600160a01b0383161790555b506101c6565b600080546001600160a01b038381166001600160a01b0319831681178455604051919092169283917f8be0079c531659141344cd1fd0a4f28419497f9722a3daafe3b4186f6b6457e09190a35050565b6000602082840312156101a857600080fd5b81516001600160a01b03811681146101bf57600080fd5b9392505050565b611ae3806101d56000396000f3fe60806040523480156200001157600080fd5b5060043610620000df5760003560e01c80637b6f04bd1162000097578063b995d10e116200006e578063b995d10e14620001ba578063d49c857a14620001d1578063d56de53314620001e8578063f2fde38b14620001ff57600080fd5b80637b6f04bd146200017f5780638da5cb5b146200019657806394f6744314620001a857600080fd5b806283d54614620000e45780631ef6e93014620000fd57806321f8a7211462000114578063227222ee1462000147578063604226bd146200015e578063715018a61462000175575b600080fd5b620000fb620000f536600462000c02565b62000216565b005b620000fb6200010e36600462000c02565b62000282565b6200012b6200012536600462000c29565b6200030d565b6040516001600160a01b03909116815260200160405180910390f35b620000fb6200015836600462000c43565b620004a2565b620000fb6200016f36600462000cd2565b62000564565b620000fb62000610565b620000fb6200019036600462000d56565b62000628565b6000546001600160a01b03166200012b565b6001546001600160a01b03166200012b565b620000fb620001cb36600462000c02565b620006c2565b620000fb620001e236600462000d8e565b62000735565b620000fb620001f936600462000c02565b620007b0565b620000fb6200021036600462000c02565b6200082d565b62000220620008ac565b60405133602482015260009060440160408051601f198184030181529190526020810180516001600160e01b031663189acdbd60e31b17905290506200027d7121bab93932b731bca1b7b73a3937b63632b960711b838362000908565b505050565b6200028c620008ac565b60405133602482015260009060440160408051601f198184030181529190526020810180516001600160e01b031663189acdbd60e31b17905290506000620002e86e20b2323932b9b9a932b9b7b63b32b960891b848462000908565b600180546001600160a01b0319166001600160a01b0392909216919091179055505050565b60015460408051636795dbcd60e01b815260048101849052602481019190915260116044820152701059191c995cdcc81b9bdd08199bdd5b99607a1b60648201526000916001600160a01b031690636795dbcd9060840160206040518083038186803b1580156200037d57600080fd5b505afa15801562000392573d6000803e3d6000fd5b505050506040513d601f19601f82011682018060405250810190620003b8919062000dcc565b9050600081905060006001600160a01b0316816001600160a01b0316635c60da1b6040518163ffffffff1660e01b815260040160206040518083038186803b1580156200040457600080fd5b505afa15801562000419573d6000803e3d6000fd5b505050506040513d601f19601f820116820180604052508101906200043f919062000dcc565b6001600160a01b031614156200049c5760405162461bcd60e51b815260206004820152601760248201527f50726f78792061646472657373206e6f7420666f756e6400000000000000000060448201526064015b60405180910390fd5b50919050565b620004ac620008ac565b60005b818110156200055e576000838383818110620004cf57620004cf62000dec565b9050602002016020810190620004e6919062000c02565b6040516308f2839760e41b81526001600160a01b03878116600483015291925090821690638f28397090602401600060405180830381600087803b1580156200052e57600080fd5b505af115801562000543573d6000803e3d6000fd5b50505050508080620005559062000e02565b915050620004af565b50505050565b6200056e620008ac565b6001546040513360248201526001600160a01b039182166044820152606481018890526084810187905260a4810186905284821660c482015283821660e48201529082166101048201526000906101240160408051601f198184030181529190526020810180516001600160e01b0316630c7b46f360e21b17905290506200060569151bdad95b95985d5b1d60b21b898362000908565b505050505050505050565b6200061a620008ac565b62000626600062000ada565b565b62000632620008ac565b6001546040513360248201526001600160a01b039091166044820152606481018390526084810182905260009060a40160408051601f198184030181529190526020810180516001600160e01b031663eb990c5960e01b1790529050620006bb7f4c656e64696e674d61726b6574436f6e74726f6c6c6572000000000000000000858362000908565b5050505050565b620006cc620008ac565b6001546040516001600160a01b03909116602482015260009060440160408051601f198184030181529190526020810180516001600160e01b031663189acdbd60e31b17905290506200027d7011d95b995cda5cd5985b1d5955985d5b1d607a1b838362000908565b6200073f620008ac565b6001546040513360248201526001600160a01b039182166044820152908216606482015260009060840160408051601f198184030181529190526020810180516001600160e01b031663c0c53b8b60e01b17905290506200055e6a14995cd95c9d99519d5b9960aa1b848362000908565b620007ba620008ac565b6001546040513360248201526001600160a01b03909116604482015260009060640160408051601f198184030181529190526020810180516001600160e01b031663485cc95560e01b17905290506200027d742132b0b1b7b7283937bc3ca1b7b73a3937b63632b960591b838362000908565b62000837620008ac565b6001600160a01b0381166200089e5760405162461bcd60e51b815260206004820152602660248201527f4f776e61626c653a206e6577206f776e657220697320746865207a65726f206160448201526564647265737360d01b606482015260840162000493565b620008a98162000ada565b50565b6000546001600160a01b03163314620006265760405162461bcd60e51b815260206004820181905260248201527f4f776e61626c653a2063616c6c6572206973206e6f7420746865206f776e6572604482015260640162000493565b6000620009158462000b2a565b905060006001600160a01b038216620009af578383604051620009389062000bde565b6200094592919062000e2c565b604051809103906000f08015801562000962573d6000803e3d6000fd5b509050809150836001600160a01b0316826001600160a01b0316867f4a465a9bd819d9662563c1e11ae958f8109e437e7f4bf1c6ef0b9a7b3f35d47860405160405180910390a462000ad2565b8190506000816001600160a01b0316635c60da1b6040518163ffffffff1660e01b815260040160206040518083038186803b158015620009ee57600080fd5b505afa15801562000a03573d6000803e3d6000fd5b505050506040513d601f19601f8201168201806040525081019062000a29919062000dcc565b604051631b2ce7f360e11b81526001600160a01b03878116600483015291925090831690633659cfe690602401600060405180830381600087803b15801562000a7157600080fd5b505af115801562000a86573d6000803e3d6000fd5b50506040516001600160a01b03848116825280891693508616915088907f5e29c26cc3fab416c412dd806a8fd96b2e1c640466a1501765da26bc1e8f24ea9060200160405180910390a4505b509392505050565b600080546001600160a01b038381166001600160a01b0319831681178455604051919092169283917f8be0079c531659141344cd1fd0a4f28419497f9722a3daafe3b4186f6b6457e09190a35050565b60006e20b2323932b9b9a932b9b7b63b32b960891b82141562000b585750506001546001600160a01b031690565b6001546040516321f8a72160e01b8152600481018490526001600160a01b03909116906321f8a7219060240160206040518083038186803b15801562000b9d57600080fd5b505afa15801562000bb2573d6000803e3d6000fd5b505050506040513d601f19601f8201168201806040525081019062000bd8919062000dcc565b92915050565b610c198062000e9583390190565b6001600160a01b0381168114620008a957600080fd5b60006020828403121562000c1557600080fd5b813562000c228162000bec565b9392505050565b60006020828403121562000c3c57600080fd5b5035919050565b60008060006040848603121562000c5957600080fd5b833562000c668162000bec565b9250602084013567ffffffffffffffff8082111562000c8457600080fd5b818601915086601f83011262000c9957600080fd5b81358181111562000ca957600080fd5b8760208260051b850101111562000cbf57600080fd5b6020830194508093505050509250925092565b600080600080600080600060e0888a03121562000cee57600080fd5b873562000cfb8162000bec565b9650602088013595506040880135945060608801359350608088013562000d228162000bec565b925060a088013562000d348162000bec565b915060c088013562000d468162000bec565b8091505092959891949750929550565b60008060006060848603121562000d6c57600080fd5b833562000d798162000bec565b95602085013595506040909401359392505050565b6000806040838503121562000da257600080fd5b823562000daf8162000bec565b9150602083013562000dc18162000bec565b809150509250929050565b60006020828403121562000ddf57600080fd5b815162000c228162000bec565b634e487b7160e01b600052603260045260246000fd5b600060001982141562000e2557634e487b7160e01b600052601160045260246000fd5b5060010190565b60018060a01b038316815260006020604081840152835180604085015260005b8181101562000e6a5785810183015185820160600152820162000e4c565b8181111562000e7d576000606083870101525b50601f01601f19169290920160600194935050505056fe608060405260405162000c1938038062000c19833981016040819052620000269162000472565b818162000036828260006200004c565b506200004490503362000089565b5050620005a0565b6200005783620000e4565b600082511180620000655750805b1562000084576200008283836200012660201b6200016a1760201c565b505b505050565b7f7e644d79422f17c01e4894b5f4f588d331ebfa28653d42ae832dc59e38c9798f620000b462000155565b604080516001600160a01b03928316815291841660208301520160405180910390a1620000e1816200018e565b50565b620000ef8162000243565b6040516001600160a01b038216907fbc7cd75a20ee27fd9adebab32041f755214dbc6bffa90cc0225b39da2e5c2d3b90600090a250565b60606200014e838360405180606001604052806027815260200162000bf260279139620002f7565b9392505050565b60006200017f60008051602062000bd283398151915260001b620003dd60201b620001961760201c565b546001600160a01b0316919050565b6001600160a01b038116620001f95760405162461bcd60e51b815260206004820152602660248201527f455243313936373a206e65772061646d696e20697320746865207a65726f206160448201526564647265737360d01b60648201526084015b60405180910390fd5b806200022260008051602062000bd283398151915260001b620003dd60201b620001961760201c565b80546001600160a01b0319166001600160a01b039290921691909117905550565b6200025981620003e060201b620001991760201c565b620002bd5760405162461bcd60e51b815260206004820152602d60248201527f455243313936373a206e657720696d706c656d656e746174696f6e206973206e60448201526c1bdd08184818dbdb9d1c9858dd609a1b6064820152608401620001f0565b80620002227f360894a13ba1a3210667c828492db98dca3e2076cc3735a920a3ca505d382bbc60001b620003dd60201b620001961760201c565b60606001600160a01b0384163b620003615760405162461bcd60e51b815260206004820152602660248201527f416464726573733a2064656c65676174652063616c6c20746f206e6f6e2d636f6044820152651b9d1c9858dd60d21b6064820152608401620001f0565b600080856001600160a01b0316856040516200037e91906200054d565b600060405180830381855af49150503d8060008114620003bb576040519150601f19603f3d011682016040523d82523d6000602084013e620003c0565b606091505b509092509050620003d3828286620003ef565b9695505050505050565b90565b6001600160a01b03163b151590565b60608315620004005750816200014e565b825115620004115782518084602001fd5b8160405162461bcd60e51b8152600401620001f091906200056b565b634e487b7160e01b600052604160045260246000fd5b60005b838110156200046057818101518382015260200162000446565b83811115620000825750506000910152565b600080604083850312156200048657600080fd5b82516001600160a01b03811681146200049e57600080fd5b60208401519092506001600160401b0380821115620004bc57600080fd5b818501915085601f830112620004d157600080fd5b815181811115620004e657620004e66200042d565b604051601f8201601f19908116603f011681019083821181831017156200051157620005116200042d565b816040528281528860208487010111156200052b57600080fd5b6200053e83602083016020880162000443565b80955050505050509250929050565b600082516200056181846020870162000443565b9190910192915050565b60208152600082518060208401526200058c81604085016020870162000443565b601f01601f19169190910160400192915050565b61062280620005b06000396000f3fe6080604052600436106100435760003560e01c80633659cfe61461005a5780635c60da1b1461007a5780638f283970146100ab578063f851a440146100cb57610052565b36610052576100506100e0565b005b6100506100e0565b34801561006657600080fd5b5061005061007536600461051d565b6100f2565b34801561008657600080fd5b5061008f610127565b6040516001600160a01b03909116815260200160405180910390f35b3480156100b757600080fd5b506100506100c636600461051d565b610136565b3480156100d757600080fd5b5061008f610160565b6100f06100eb6101a8565b6101b2565b565b6100fa6101d6565b6001600160a01b0316336001600160a01b0316141561011f5761011c81610209565b50565b61011c6100e0565b60006101316101a8565b905090565b61013e6101d6565b6001600160a01b0316336001600160a01b0316141561011f5761011c81610249565b60006101316101d6565b606061018f83836040518060600160405280602781526020016105c66027913961029d565b9392505050565b90565b6001600160a01b03163b151590565b600061013161037f565b3660008037600080366000845af43d6000803e8080156101d1573d6000f35b3d6000fd5b60007fb53127684a568b3173ae13b9f8a6016e243e63b6e8ee1178d6a717850b5d61035b546001600160a01b0316919050565b610212816103a7565b6040516001600160a01b038216907fbc7cd75a20ee27fd9adebab32041f755214dbc6bffa90cc0225b39da2e5c2d3b90600090a250565b7f7e644d79422f17c01e4894b5f4f588d331ebfa28653d42ae832dc59e38c9798f6102726101d6565b604080516001600160a01b03928316815291841660208301520160405180910390a161011c81610458565b60606001600160a01b0384163b61030a5760405162461bcd60e51b815260206004820152602660248201527f416464726573733a2064656c65676174652063616c6c20746f206e6f6e2d636f6044820152651b9d1c9858dd60d21b60648201526084015b60405180910390fd5b600080856001600160a01b0316856040516103259190610576565b600060405180830381855af49150503d8060008114610360576040519150601f19603f3d011682016040523d82523d6000602084013e610365565b606091505b50915091506103758282866104e4565b9695505050505050565b60007f360894a13ba1a3210667c828492db98dca3e2076cc3735a920a3ca505d382bbc6101fa565b6001600160a01b0381163b6104145760405162461bcd60e51b815260206004820152602d60248201527f455243313936373a206e657720696d706c656d656e746174696f6e206973206e60448201526c1bdd08184818dbdb9d1c9858dd609a1b6064820152608401610301565b807f360894a13ba1a3210667c828492db98dca3e2076cc3735a920a3ca505d382bbc5b80546001600160a01b0319166001600160a01b039290921691909117905550565b6001600160a01b0381166104bd5760405162461bcd60e51b815260206004820152602660248201527f455243313936373a206e65772061646d696e20697320746865207a65726f206160448201526564647265737360d01b6064820152608401610301565b807fb53127684a568b3173ae13b9f8a6016e243e63b6e8ee1178d6a717850b5d6103610437565b606083156104f357508161018f565b8251156105035782518084602001fd5b8160405162461bcd60e51b81526004016103019190610592565b60006020828403121561052f57600080fd5b81356001600160a01b038116811461018f57600080fd5b60005b83811015610561578181015183820152602001610549565b83811115610570576000848401525b50505050565b60008251610588818460208701610546565b9190910192915050565b60208152600082518060208401526105b1816040850160208701610546565b601f01601f1916919091016040019291505056fe416464726573733a206c6f772d6c6576656c2064656c65676174652063616c6c206661696c6564a2646970667358221220f1372821076d8e792dabcc60cb0774a959e21ee3459ca0f4c980f1230b38292464736f6c63430008090033b53127684a568b3173ae13b9f8a6016e243e63b6e8ee1178d6a717850b5d6103416464726573733a206c6f772d6c6576656c2064656c65676174652063616c6c206661696c6564a2646970667358221220d4a987ff2ed5f92875af2dfa036720ec7ea5afd5163ac60c60b4c5d28f1b218864736f6c63430008090033",
  "devdoc": {
    "kind": "dev",
    "methods": {
      "changeProxyAdmins(address,address[])": {
        "params": {
          "destinations": "The destination contract addresses",
          "newAdmin": "The address of new admin"
        }
      },
      "constructor": {
        "details": "Set a proxy contract address of AddressResolver if it already exists. If not, set zero address here and call `setAddressResolverImpl` using the implementation address of AddressResolver to create a proxy contract.",
        "params": {
          "_resolver": "The address of the Address Resolver contract"
        }
      },
      "getAddress(bytes32)": {
        "params": {
          "name": "The cache name of the contract"
        },
        "returns": {
          "proxyAddress": "The proxy address for selected name"
        }
      },
      "getAddressResolverAddress()": {
        "returns": {
          "_0": "The contract address of AddressResolver"
        }
      },
      "owner()": {
        "details": "Returns the address of the current owner."
      },
      "renounceOwnership()": {
        "details": "Leaves the contract without owner. It will not be possible to call `onlyOwner` functions anymore. Can only be called by the current owner. NOTE: Renouncing ownership will leave the contract without an owner, thereby removing any functionality that is only available to the owner."
      },
      "setAddressResolverImpl(address)": {
        "params": {
          "newImpl": "The address of implementation contract"
        }
      },
      "setBeaconProxyControllerImpl(address)": {
        "params": {
          "newImpl": "The address of implementation contract"
        }
      },
      "setCurrencyControllerImpl(address)": {
        "params": {
          "newImpl": "The address of implementation contract"
        }
      },
      "setGenesisValueVaultImpl(address)": {
        "params": {
          "newImpl": "The address of implementation contract"
        }
      },
      "setLendingMarketControllerImpl(address,uint256,uint256)": {
        "params": {
          "newImpl": "The address of implementation contract",
          "observationPeriod": "The observation period to calculate the volume-weighted average price of transactions"
        }
      },
      "setReserveFundImpl(address,address)": {
        "params": {
          "WETH9": "The address of WETH",
          "newImpl": "The address of implementation contract"
        }
      },
      "setTokenVaultImpl(address,uint256,uint256,uint256,address,address,address)": {
        "params": {
          "WETH9": "The address of WETH",
          "liquidationProtocolFeeRate": "The liquidation fee rate received by protocol",
          "liquidationThresholdRate": "The rate used as the auto liquidation threshold",
          "liquidatorFeeRate": "The liquidation fee rate received by liquidators",
          "newImpl": "The address of implementation contract",
          "uniswapQuoter": "Uniswap quoter contract address",
          "uniswapRouter": "Uniswap router contract address"
        }
      },
      "transferOwnership(address)": {
        "details": "Transfers ownership of the contract to a new account (`newOwner`). Can only be called by the current owner."
      }
    },
    "version": 1
  },
  "userdoc": {
    "kind": "user",
    "methods": {
      "changeProxyAdmins(address,address[])": {
        "notice": "Updates admin addresses of proxy contract"
      },
      "constructor": {
        "notice": "Contract constructor function."
      },
      "getAddress(bytes32)": {
        "notice": "Gets the proxy address fro selected name"
      },
      "getAddressResolverAddress()": {
        "notice": "Gets the proxy address of AddressResolver"
      },
      "setAddressResolverImpl(address)": {
        "notice": "Sets the implementation contract of AddressResolver"
      },
      "setBeaconProxyControllerImpl(address)": {
        "notice": "Sets the implementation contract of CurrencyController"
      },
      "setCurrencyControllerImpl(address)": {
        "notice": "Sets the implementation contract of CurrencyController"
      },
      "setGenesisValueVaultImpl(address)": {
        "notice": "Sets the implementation contract of GenesisValueVault"
      },
      "setLendingMarketControllerImpl(address,uint256,uint256)": {
        "notice": "Sets the implementation contract of LendingMarketController"
      },
      "setReserveFundImpl(address,address)": {
        "notice": "Sets the implementation contract of ReserveFund"
      },
      "setTokenVaultImpl(address,uint256,uint256,uint256,address,address,address)": {
        "notice": "Sets the implementation contract of TokenVault"
      }
    },
    "notice": "Implements the management of proxy contracts. All proxy contracts are deployed from this contract. This contract is also used to update the proxy implementation.",
    "version": 1
  },
  "storageLayout": {
    "storage": [
      {
        "astId": 503,
        "contract": "contracts/ProxyController.sol:ProxyController",
        "label": "_owner",
        "offset": 0,
        "slot": "0",
        "type": "t_address"
      },
      {
        "astId": 13365,
        "contract": "contracts/ProxyController.sol:ProxyController",
        "label": "resolver",
        "offset": 0,
        "slot": "1",
        "type": "t_contract(IAddressResolver)15095"
      }
    ],
    "types": {
      "t_address": {
        "encoding": "inplace",
        "label": "address",
        "numberOfBytes": "20"
      },
      "t_contract(IAddressResolver)15095": {
        "encoding": "inplace",
        "label": "contract IAddressResolver",
        "numberOfBytes": "20"
      }
    }
  }
}