{
  "address": "0x243db0aBb1fEaEf28DDf151688aEa5cc0834EB5F",
  "abi": [
    {
      "inputs": [
        {
          "internalType": "uint256[]",
          "name": "data",
          "type": "uint256[]"
        }
      ],
      "name": "sort",
      "outputs": [
        {
          "internalType": "uint256[]",
          "name": "",
          "type": "uint256[]"
        }
      ],
      "stateMutability": "pure",
      "type": "function"
    }
  ],
  "transactionHash": "0x789475921a168832463815091e5fce4a513ea7b3928d1b36f673d1bcbcc20b54",
  "args": [],
  "numDeployments": 1,
  "solcInputHash": "3f85b78d4f02b33ea339ac5a99716c70",
  "bytecode": "0x61048e61003a600b82828239805160001a60731461002d57634e487b7160e01b600052600060045260246000fd5b30600052607381538281f3fe73000000000000000000000000000000000000000030146080604052600436106100355760003560e01c80639ec8b0261461003a575b600080fd5b61004d610048366004610219565b610063565b60405161005a91906102d7565b60405180910390f35b606061007e826000600185516100799190610331565b610082565b5090565b818180821415610093575050505050565b60008560026100a28787610348565b6100ac9190610387565b6100b690876103c3565b815181106100c6576100c6610404565b602002602001015190505b8183136101d5575b808684815181106100ec576100ec610404565b6020026020010151101561010c57826101048161041a565b9350506100d9565b85828151811061011e5761011e610404565b602002602001015181101561013f57816101378161043a565b92505061010c565b8183136101d05785828151811061015857610158610404565b602002602001015186848151811061017257610172610404565b602002602001015187858151811061018c5761018c610404565b602002602001018885815181106101a5576101a5610404565b602090810291909101019190915252826101be8161041a565b93505081806101cc9061043a565b9250505b6100d1565b818512156101e8576101e8868684610082565b838312156101fb576101fb868486610082565b505050505050565b634e487b7160e01b600052604160045260246000fd5b6000602080838503121561022c57600080fd5b823567ffffffffffffffff8082111561024457600080fd5b818501915085601f83011261025857600080fd5b81358181111561026a5761026a610203565b8060051b604051601f19603f8301168101818110858211171561028f5761028f610203565b6040529182528482019250838101850191888311156102ad57600080fd5b938501935b828510156102cb578435845293850193928501926102b2565b98975050505050505050565b6020808252825182820181905260009190848201906040850190845b8181101561030f578351835292840192918401916001016102f3565b50909695505050505050565b634e487b7160e01b600052601160045260246000fd5b6000828210156103435761034361031b565b500390565b60008083128015600160ff1b8501841216156103665761036661031b565b6001600160ff1b03840183138116156103815761038161031b565b50500390565b6000826103a457634e487b7160e01b600052601260045260246000fd5b600160ff1b8214600019841416156103be576103be61031b565b500590565b600080821280156001600160ff1b03849003851316156103e5576103e561031b565b600160ff1b83900384128116156103fe576103fe61031b565b50500190565b634e487b7160e01b600052603260045260246000fd5b60006001600160ff1b038214156104335761043361031b565b5060010190565b6000600160ff1b8214156104505761045061031b565b50600019019056fea2646970667358221220ffd786b965cc13e7f92df648bd4a5254f7a580302011537b502ce834cc308aa064736f6c63430008090033",
  "devdoc": {
    "kind": "dev",
    "methods": {},
    "version": 1
  },
  "userdoc": {
    "kind": "user",
    "methods": {},
    "version": 1
  },
  "storageLayout": {
    "storage": [],
    "types": null
  }
}