{
  "address": "0x16b90666b9E85ae2cF25a5DC3a6B5DF803013dE8",
  "abi": [
    {
      "anonymous": false,
      "inputs": [
        {
          "indexed": false,
          "internalType": "bytes32",
          "name": "name",
          "type": "bytes32"
        },
        {
          "indexed": false,
          "internalType": "address",
          "name": "destination",
          "type": "address"
        }
      ],
      "name": "CacheUpdated",
      "type": "event"
    },
    {
      "anonymous": false,
      "inputs": [
        {
          "indexed": false,
          "internalType": "uint8",
          "name": "version",
          "type": "uint8"
        }
      ],
      "name": "Initialized",
      "type": "event"
    },
    {
      "anonymous": false,
      "inputs": [
        {
          "indexed": true,
          "internalType": "address",
          "name": "previousOwner",
          "type": "address"
        },
        {
          "indexed": true,
          "internalType": "address",
          "name": "newOwner",
          "type": "address"
        }
      ],
      "name": "OwnershipTransferred",
      "type": "event"
    },
    {
      "anonymous": false,
      "inputs": [
        {
          "indexed": false,
          "internalType": "address",
          "name": "account",
          "type": "address"
        }
      ],
      "name": "Pause",
      "type": "event"
    },
    {
      "anonymous": false,
      "inputs": [
        {
          "indexed": false,
          "internalType": "address",
          "name": "account",
          "type": "address"
        }
      ],
      "name": "Unpause",
      "type": "event"
    },
    {
      "inputs": [],
      "name": "acceptedContracts",
      "outputs": [
        {
          "internalType": "bytes32[]",
          "name": "contracts",
          "type": "bytes32[]"
        }
      ],
      "stateMutability": "pure",
      "type": "function"
    },
    {
      "inputs": [],
      "name": "buildCache",
      "outputs": [],
      "stateMutability": "nonpayable",
      "type": "function"
    },
    {
      "inputs": [
        {
          "internalType": "bytes32",
          "name": "_ccy",
          "type": "bytes32"
        },
        {
          "internalType": "uint256",
          "name": "_amount",
          "type": "uint256"
        }
      ],
      "name": "deposit",
      "outputs": [],
      "stateMutability": "payable",
      "type": "function"
    },
    {
      "inputs": [
        {
          "internalType": "address",
          "name": "_owner",
          "type": "address"
        },
        {
          "internalType": "address",
          "name": "_resolver",
          "type": "address"
        },
        {
          "internalType": "address",
          "name": "_WETH9",
          "type": "address"
        }
      ],
      "name": "initialize",
      "outputs": [],
      "stateMutability": "nonpayable",
      "type": "function"
    },
    {
      "inputs": [],
      "name": "isPaused",
      "outputs": [
        {
          "internalType": "bool",
          "name": "",
          "type": "bool"
        }
      ],
      "stateMutability": "view",
      "type": "function"
    },
    {
      "inputs": [],
      "name": "isResolverCached",
      "outputs": [
        {
          "internalType": "bool",
          "name": "",
          "type": "bool"
        }
      ],
      "stateMutability": "view",
      "type": "function"
    },
    {
      "inputs": [],
      "name": "owner",
      "outputs": [
        {
          "internalType": "address",
          "name": "",
          "type": "address"
        }
      ],
      "stateMutability": "view",
      "type": "function"
    },
    {
      "inputs": [],
      "name": "pause",
      "outputs": [],
      "stateMutability": "nonpayable",
      "type": "function"
    },
    {
      "inputs": [],
      "name": "renounceOwnership",
      "outputs": [],
      "stateMutability": "nonpayable",
      "type": "function"
    },
    {
      "inputs": [],
      "name": "requiredContracts",
      "outputs": [
        {
          "internalType": "bytes32[]",
          "name": "contracts",
          "type": "bytes32[]"
        }
      ],
      "stateMutability": "pure",
      "type": "function"
    },
    {
      "inputs": [],
      "name": "resolver",
      "outputs": [
        {
          "internalType": "contract IAddressResolver",
          "name": "",
          "type": "address"
        }
      ],
      "stateMutability": "view",
      "type": "function"
    },
    {
      "inputs": [
        {
          "internalType": "address",
          "name": "newOwner",
          "type": "address"
        }
      ],
      "name": "transferOwnership",
      "outputs": [],
      "stateMutability": "nonpayable",
      "type": "function"
    },
    {
      "inputs": [],
      "name": "unpause",
      "outputs": [],
      "stateMutability": "nonpayable",
      "type": "function"
    },
    {
      "inputs": [
        {
          "internalType": "bytes32",
          "name": "_ccy",
          "type": "bytes32"
        },
        {
          "internalType": "uint256",
          "name": "_amount",
          "type": "uint256"
        }
      ],
      "name": "withdraw",
      "outputs": [],
      "stateMutability": "nonpayable",
      "type": "function"
    }
  ],
  "transactionHash": "0xc0678538a1d454fa11975ccc6f89dc8261a535c075f60540b3e58215ede42988",
  "args": [],
  "numDeployments": 2,
  "solcInputHash": "3f85b78d4f02b33ea339ac5a99716c70",
  "bytecode": "0x608060405234801561001057600080fd5b50611819806100206000396000f3fe6080604052600436106100dd5760003560e01c8063715018a61161007f578063b187bd2611610059578063b187bd26146101f9578063c0c53b8b1461021e578063e09976591461023e578063f2fde38b1461025257600080fd5b8063715018a6146101ba5780638456cb59146101cf5780638da5cb5b146101e457600080fd5b806329985e5a116100bb57806329985e5a146101495780632af64bd31461015e5780633d03b9da146101835780633f4ba83a146101a557600080fd5b8063040cf020146100e257806304f3bcec146101045780631de26e1614610136575b600080fd5b3480156100ee57600080fd5b506101026100fd3660046114e1565b610272565b005b34801561011057600080fd5b506101196103a7565b6040516001600160a01b0390911681526020015b60405180910390f35b6101026101443660046114e1565b6103c8565b34801561015557600080fd5b50610102610510565b34801561016a57600080fd5b506101736106b9565b604051901515815260200161012d565b34801561018f57600080fd5b5061019861081f565b60405161012d9190611503565b3480156101b157600080fd5b50610102610871565b3480156101c657600080fd5b506101026108be565b3480156101db57600080fd5b506101026108f9565b3480156101f057600080fd5b50610119610943565b34801561020557600080fd5b506000805160206117a48339815191525460ff16610173565b34801561022a57600080fd5b5061010261023936600461155c565b61096b565b34801561024a57600080fd5b506060610198565b34801561025e57600080fd5b5061010261026d3660046115a7565b610b15565b3361027b610943565b6001600160a01b0316146102aa5760405162461bcd60e51b81526004016102a1906115cb565b60405180910390fd5b6102b2610bb5565b6040516220678160e51b815260048101849052602481018390526001600160a01b03919091169063040cf02090604401600060405180830381600087803b1580156102fc57600080fd5b505af1158015610310573d6000803e3d6000fd5b505050506103a361031f610bb5565b6001600160a01b031663b12e4410846040518263ffffffff1660e01b815260040161034c91815260200190565b60206040518083038186803b15801561036457600080fd5b505afa158015610378573d6000803e3d6000fd5b505050506040513d601f19601f8201168201806040525081019061039c9190611600565b3383610bc4565b5050565b60006000805160206117848339815191525b546001600160a01b0316919050565b336103d1610943565b6001600160a01b0316146103f75760405162461bcd60e51b81526004016102a1906115cb565b6000610401610bb5565b6001600160a01b031663b12e4410846040518263ffffffff1660e01b815260040161042e91815260200190565b60206040518083038186803b15801561044657600080fd5b505afa15801561045a573d6000803e3d6000fd5b505050506040513d601f19601f8201168201806040525081019061047e9190611600565b90506104928161048c610bb5565b84610c01565b61049e81333085610d1c565b6104a6610bb5565b604051630ef1370b60e11b815260048101859052602481018490526001600160a01b039190911690631de26e169034906044016000604051808303818588803b1580156104f257600080fd5b505af1158015610506573d6000803e3d6000fd5b5050505050505050565b600061051a61081f565b905060005b81518110156103a357600082828151811061053c5761053c61161d565b60200260200101519050600061055d60008051602061178483398151915290565b54604080517f5265736f6c766572206d697373696e67207461726765743a200000000000000060208201526039808201869052825180830390910181526059820192839052636795dbcd60e01b9092526001600160a01b0390921691636795dbcd916105ce91869190605d0161168b565b60206040518083038186803b1580156105e657600080fd5b505afa1580156105fa573d6000803e3d6000fd5b505050506040513d601f19601f8201168201806040525081019061061e9190611600565b60008381527f4abde63c3e81aefa5764b017968bc473e83e093d7e1a10247d19e0a3e4124019602090815260409182902080546001600160a01b0319166001600160a01b03851690811790915582518681529182015281519293507f88a93678a3692f6789d9546fc621bf7234b101ddb7d4fe479455112831b8aa68929081900390910190a1505080806106b1906116ac565b91505061051f565b6000806106c461081f565b905060005b81518110156108165760008282815181106106e6576106e661161d565b6020026020010151905061070560008051602061178483398151915290565b600082815260019190910160205260409020546001600160a01b0316600080516020611784833981519152546040516321f8a72160e01b8152600481018490526001600160a01b03909116906321f8a7219060240160206040518083038186803b15801561077257600080fd5b505afa158015610786573d6000803e3d6000fd5b505050506040513d601f19601f820116820180604052508101906107aa9190611600565b6001600160a01b03161415806107f4575060008181527f4abde63c3e81aefa5764b017968bc473e83e093d7e1a10247d19e0a3e412401960205260409020546001600160a01b0316155b15610803576000935050505090565b508061080e816116ac565b9150506106c9565b50600191505090565b6040805160018082528183019092526060916020808301908036833701905050905069151bdad95b95985d5b1d60b21b816000815181106108625761086261161d565b60200260200101818152505090565b6000805160206117a4833981519152805460ff191690556040513381527faeb196d352664784d1900b0e7414a8face7d29f4dae8c4b0cf68ed477423bbf4906020015b60405180910390a1565b336108c7610943565b6001600160a01b0316146108ed5760405162461bcd60e51b81526004016102a1906115cb565b6108f76000610d5a565b565b6000805160206117a4833981519152805460ff191660011790556040513381527f5ee71a369c8672edded508e624ffc9257fa1ae6886ef32905c18e60196bca399906020016108b4565b60007f9acda75aebd150dd434541a4747a6dc606f4f1a59662477e67daf1fc0bf9e0aa6103b9565b600054610100900460ff161580801561098b5750600054600160ff909116105b806109a55750303b1580156109a5575060005460ff166001145b610a085760405162461bcd60e51b815260206004820152602e60248201527f496e697469616c697a61626c653a20636f6e747261637420697320616c72656160448201526d191e481a5b9a5d1a585b1a5e995960921b60648201526084016102a1565b6000805460ff191660011790558015610a2b576000805461ff0019166101001790555b6000610a35610dcb565b6001600160a01b03161415610a975760405162461bcd60e51b815260206004820152602260248201527f4d7573742062652063616c6c65642066726f6d2070726f787920636f6e74726160448201526118dd60f21b60648201526084016102a1565b6000805160206117a4833981519152805460ff19169055610ab784610d5a565b610ac083610df3565b610ac982610e8b565b8015610b0f576000805461ff0019169055604051600181527f7f26b83ff96e1f2b6a682f133852f6798a09c465da95921460cefb38474024989060200160405180910390a15b50505050565b33610b1e610943565b6001600160a01b031614610b445760405162461bcd60e51b81526004016102a1906115cb565b6001600160a01b038116610ba95760405162461bcd60e51b815260206004820152602660248201527f4f776e61626c653a206e6577206f776e657220697320746865207a65726f206160448201526564647265737360d01b60648201526084016102a1565b610bb281610d5a565b50565b6000610bbf610efc565b905090565b6000805160206117c4833981519152546001600160a01b0384811691161415610bf657610bf18282610f14565b505050565b610bf183838361105f565b604080516001600160a01b038481166024830152604480830185905283518084039091018152606490920183526020820180516001600160e01b031663095ea7b360e01b1790529151600092839290871691610c5d91906116d5565b6000604051808303816000865af19150503d8060008114610c9a576040519150601f19603f3d011682016040523d82523d6000602084013e610c9f565b606091505b5091509150818015610cc9575080511580610cc9575080806020019051810190610cc991906116f1565b610d155760405162461bcd60e51b815260206004820152601e60248201527f5472616e7366657248656c7065723a20415050524f56455f4641494c4544000060448201526064016102a1565b5050505050565b6000805160206117c4833981519152546001600160a01b0385811691161415610d4e57610d498282611143565b610b0f565b610b0f8484848461128c565b7f9acda75aebd150dd434541a4747a6dc606f4f1a59662477e67daf1fc0bf9e0aa80546001600160a01b038381166001600160a01b0319831681179093556040519116919082907f8be0079c531659141344cd1fd0a4f28419497f9722a3daafe3b4186f6b6457e090600090a35050565b60007f360894a13ba1a3210667c828492db98dca3e2076cc3735a920a3ca505d382bbc6103b9565b600080516020611784833981519152546001600160a01b031615610e595760405162461bcd60e51b815260206004820152601b60248201527f7265736f6c766572207265676973746572656420616c7265616479000000000060448201526064016102a1565b806000805160206117848339815191525b80546001600160a01b0319166001600160a01b039290921691909117905550565b6000805160206117c4833981519152546001600160a01b031615610ee75760405162461bcd60e51b8152602060048201526013602482015272105b1c9958591e481a5b9a5d1a585b1a5e9959606a1b60448201526064016102a1565b806000805160206117c4833981519152610e6a565b6000610bbf69151bdad95b95985d5b1d60b21b611380565b60006000805160206117c4833981519152546040516370a0823160e01b81523060048201526001600160a01b03909116906370a082319060240160206040518083038186803b158015610f6657600080fd5b505afa158015610f7a573d6000803e3d6000fd5b505050506040513d601f19601f82011682018060405250810190610f9e9190611713565b905081811015610fe45760405162461bcd60e51b8152602060048201526011602482015270092dce6eaccccd2c6d2cadce840ae8aa89607b1b60448201526064016102a1565b8015610bf1576000805160206117c483398151915254604051632e1a7d4d60e01b8152600481018490526001600160a01b0390911690632e1a7d4d90602401600060405180830381600087803b15801561103d57600080fd5b505af1158015611051573d6000803e3d6000fd5b50505050610bf18383611418565b604080516001600160a01b038481166024830152604480830185905283518084039091018152606490920183526020820180516001600160e01b031663a9059cbb60e01b17905291516000928392908716916110bb91906116d5565b6000604051808303816000865af19150503d80600081146110f8576040519150601f19603f3d011682016040523d82523d6000602084013e6110fd565b606091505b509150915081801561112757508051158061112757508080602001905181019061112791906116f1565b610d155760405162461bcd60e51b81526004016102a19061172c565b804710156111865760405162461bcd60e51b815260206004820152601060248201526f092dce6eaccccd2c6d2cadce8408aa8960831b60448201526064016102a1565b6000805160206117c48339815191525460408051630d0e30db60e41b815290516001600160a01b039092169163d0e30db0918491600480830192600092919082900301818588803b1580156111da57600080fd5b505af11580156111ee573d6000803e3d6000fd5b50505050506112086000805160206117c483398151915290565b5460405163a9059cbb60e01b81526001600160a01b038481166004830152602482018490529091169063a9059cbb90604401602060405180830381600087803b15801561125457600080fd5b505af1158015611268573d6000803e3d6000fd5b505050506040513d601f19601f82011682018060405250810190610bf191906116f1565b604080516001600160a01b0385811660248301528481166044830152606480830185905283518084039091018152608490920183526020820180516001600160e01b03166323b872dd60e01b17905291516000928392908816916112f091906116d5565b6000604051808303816000865af19150503d806000811461132d576040519150601f19603f3d011682016040523d82523d6000602084013e611332565b606091505b509150915081801561135c57508051158061135c57508080602001905181019061135c91906116f1565b6113785760405162461bcd60e51b81526004016102a19061172c565b505050505050565b60008181527f4abde63c3e81aefa5764b017968bc473e83e093d7e1a10247d19e0a3e41240196020908152604080832054815170026b4b9b9b4b7339030b2323932b9b99d1607d1b9381019390935260318084018690528251808503909101815260519093019091526001600160a01b031690816114115760405162461bcd60e51b81526004016102a19190611770565b5092915050565b604080516000808252602082019092526001600160a01b03841690839060405161144291906116d5565b60006040518083038185875af1925050503d806000811461147f576040519150601f19603f3d011682016040523d82523d6000602084013e611484565b606091505b5050905080610bf15760405162461bcd60e51b815260206004820152602360248201527f5472616e7366657248656c7065723a204554485f5452414e534645525f46414960448201526213115160ea1b60648201526084016102a1565b600080604083850312156114f457600080fd5b50508035926020909101359150565b6020808252825182820181905260009190848201906040850190845b8181101561153b5783518352928401929184019160010161151f565b50909695505050505050565b6001600160a01b0381168114610bb257600080fd5b60008060006060848603121561157157600080fd5b833561157c81611547565b9250602084013561158c81611547565b9150604084013561159c81611547565b809150509250925092565b6000602082840312156115b957600080fd5b81356115c481611547565b9392505050565b6020808252818101527f4f776e61626c653a2063616c6c6572206973206e6f7420746865206f776e6572604082015260600190565b60006020828403121561161257600080fd5b81516115c481611547565b634e487b7160e01b600052603260045260246000fd5b60005b8381101561164e578181015183820152602001611636565b83811115610b0f5750506000910152565b60008151808452611677816020860160208601611633565b601f01601f19169290920160200192915050565b8281526040602082015260006116a4604083018461165f565b949350505050565b60006000198214156116ce57634e487b7160e01b600052601160045260246000fd5b5060010190565b600082516116e7818460208701611633565b9190910192915050565b60006020828403121561170357600080fd5b815180151581146115c457600080fd5b60006020828403121561172557600080fd5b5051919050565b60208082526024908201527f5472616e7366657248656c7065723a205452414e534645525f46524f4d5f46416040820152631253115160e21b606082015260800190565b6020815260006115c4602083018461165f56fe4abde63c3e81aefa5764b017968bc473e83e093d7e1a10247d19e0a3e41240186f3088bd2046115232bd6d07a71df2fcaf1e55c5eb2db67ff171bb3e2086b0677522ee63bb7da831844dcdb60f35e8cfa51225eeb4ed6734e421ed06f0d56805a26469706673582212207b4268f295cdecf7fd18a00aea59215431a04b9c3416310d2ac79b7728a4396264736f6c63430008090033",
  "implementation": "0x0a5aBB5F787A7f867628c82ec3cB9d2cb4119eA8",
  "devdoc": {
    "kind": "dev",
    "methods": {
      "acceptedContracts()": {
        "details": "The contact name listed in this method is also needed to be listed `requiredContracts` method."
      },
      "deposit(bytes32,uint256)": {
        "details": "Deposits funds by the caller into the token vault as reserve fund.",
        "params": {
          "_amount": "Amount of funds to deposit",
          "_ccy": "Currency name in bytes32"
        }
      },
      "initialize(address,address,address)": {
        "details": "Function is invoked by the proxy contract when the contract is added to the ProxyController.",
        "params": {
          "_WETH9": "The address of WETH",
          "_owner": "The address of the contract owner",
          "_resolver": "The address of the Address Resolver contract"
        }
      },
      "isPaused()": {
        "returns": {
          "_0": "The boolean if the reserve fund is paused"
        }
      },
      "owner()": {
        "details": "Returns the address of the current owner."
      },
      "renounceOwnership()": {
        "details": "Leaves the contract without owner. It will not be possible to call `onlyOwner` functions anymore. Can only be called by the current owner. NOTE: Renouncing ownership will leave the contract without an owner, thereby removing any functionality that is only available to the owner."
      },
      "requiredContracts()": {
        "details": "The contract name list is in `./libraries/Contracts.sol`."
      },
      "transferOwnership(address)": {
        "details": "Transfers ownership of the contract to a new account (`newOwner`). Can only be called by the current owner."
      },
      "withdraw(bytes32,uint256)": {
        "details": "Withdraw funds by the caller from the token vault.",
        "params": {
          "_amount": "Amount of funds to deposit",
          "_ccy": "Currency name in bytes32"
        }
      }
    },
    "version": 1
  },
  "userdoc": {
    "kind": "user",
    "methods": {
      "acceptedContracts()": {
        "notice": "Returns contract names that can call this contract."
      },
      "initialize(address,address,address)": {
        "notice": "Initializes the contract."
      },
      "isPaused()": {
        "notice": "Gets if the reserve fund is paused."
      },
      "pause()": {
        "notice": "Pauses the reserve fund."
      },
      "requiredContracts()": {
        "notice": "Returns the contract names used in this contract."
      },
      "unpause()": {
        "notice": "Unpauses the reserve fund."
      }
    },
    "notice": "Implements managing of the reserve fund.",
    "version": 1
  },
  "storageLayout": {
    "storage": [
      {
        "astId": 1183,
        "contract": "contracts/ReserveFund.sol:ReserveFund",
        "label": "_initialized",
        "offset": 0,
        "slot": "0",
        "type": "t_uint8"
      },
      {
        "astId": 1186,
        "contract": "contracts/ReserveFund.sol:ReserveFund",
        "label": "_initializing",
        "offset": 1,
        "slot": "0",
        "type": "t_bool"
      }
    ],
    "types": {
      "t_bool": {
        "encoding": "inplace",
        "label": "bool",
        "numberOfBytes": "1"
      },
      "t_uint8": {
        "encoding": "inplace",
        "label": "uint8",
        "numberOfBytes": "1"
      }
    }
  }
}