{
  "address": "0x2f9997629Ff1D73fADA6Dc6824A335fb20e3a731",
  "abi": [
    {
      "anonymous": false,
      "inputs": [
        {
          "indexed": false,
          "internalType": "bytes32",
          "name": "name",
          "type": "bytes32"
        },
        {
          "indexed": false,
          "internalType": "address",
          "name": "destination",
          "type": "address"
        }
      ],
      "name": "CacheUpdated",
      "type": "event"
    },
    {
      "anonymous": false,
      "inputs": [
        {
          "indexed": false,
          "internalType": "bytes32",
          "name": "ccy",
          "type": "bytes32"
        },
        {
          "indexed": false,
          "internalType": "address",
          "name": "tokenAddress",
          "type": "address"
        },
        {
          "indexed": false,
          "internalType": "bool",
          "name": "isCollateral",
          "type": "bool"
        }
      ],
      "name": "CurrencyRegistered",
      "type": "event"
    },
    {
      "anonymous": false,
      "inputs": [
        {
          "indexed": false,
          "internalType": "bytes32",
          "name": "ccy",
          "type": "bytes32"
        },
        {
          "indexed": false,
          "internalType": "bool",
          "name": "isCollateral",
          "type": "bool"
        }
      ],
      "name": "CurrencyUpdated",
      "type": "event"
    },
    {
      "anonymous": false,
      "inputs": [
        {
          "indexed": true,
          "internalType": "address",
          "name": "user",
          "type": "address"
        },
        {
          "indexed": false,
          "internalType": "bytes32",
          "name": "ccy",
          "type": "bytes32"
        },
        {
          "indexed": false,
          "internalType": "uint256",
          "name": "amount",
          "type": "uint256"
        }
      ],
      "name": "Deposit",
      "type": "event"
    },
    {
      "anonymous": false,
      "inputs": [
        {
          "indexed": false,
          "internalType": "uint8",
          "name": "version",
          "type": "uint8"
        }
      ],
      "name": "Initialized",
      "type": "event"
    },
    {
      "anonymous": false,
      "inputs": [
        {
          "indexed": true,
          "internalType": "address",
          "name": "previousOwner",
          "type": "address"
        },
        {
          "indexed": true,
          "internalType": "address",
          "name": "newOwner",
          "type": "address"
        }
      ],
      "name": "OwnershipTransferred",
      "type": "event"
    },
    {
      "anonymous": false,
      "inputs": [
        {
          "indexed": true,
          "internalType": "address",
          "name": "user",
          "type": "address"
        },
        {
          "indexed": false,
          "internalType": "bytes32",
          "name": "ccyIn",
          "type": "bytes32"
        },
        {
          "indexed": false,
          "internalType": "bytes32",
          "name": "ccyOut",
          "type": "bytes32"
        },
        {
          "indexed": false,
          "internalType": "uint256",
          "name": "amountIn",
          "type": "uint256"
        },
        {
          "indexed": false,
          "internalType": "uint256",
          "name": "amountOut",
          "type": "uint256"
        },
        {
          "indexed": false,
          "internalType": "uint256",
          "name": "liquidatorFee",
          "type": "uint256"
        },
        {
          "indexed": false,
          "internalType": "uint256",
          "name": "protocolFee",
          "type": "uint256"
        }
      ],
      "name": "Swap",
      "type": "event"
    },
    {
      "anonymous": false,
      "inputs": [
        {
          "indexed": true,
          "internalType": "address",
          "name": "user",
          "type": "address"
        },
        {
          "indexed": false,
          "internalType": "bytes32",
          "name": "ccy",
          "type": "bytes32"
        },
        {
          "indexed": false,
          "internalType": "uint256",
          "name": "amount",
          "type": "uint256"
        }
      ],
      "name": "Withdraw",
      "type": "event"
    },
    {
      "inputs": [],
      "name": "acceptedContracts",
      "outputs": [
        {
          "internalType": "bytes32[]",
          "name": "contracts",
          "type": "bytes32[]"
        }
      ],
      "stateMutability": "pure",
      "type": "function"
    },
    {
      "inputs": [
        {
          "internalType": "address",
          "name": "_user",
          "type": "address"
        },
        {
          "internalType": "bytes32",
          "name": "_ccy",
          "type": "bytes32"
        },
        {
          "internalType": "uint256",
          "name": "_amount",
          "type": "uint256"
        }
      ],
      "name": "addDepositAmount",
      "outputs": [],
      "stateMutability": "nonpayable",
      "type": "function"
    },
    {
      "inputs": [],
      "name": "buildCache",
      "outputs": [],
      "stateMutability": "nonpayable",
      "type": "function"
    },
    {
      "inputs": [
        {
          "internalType": "bytes32",
          "name": "_ccy",
          "type": "bytes32"
        },
        {
          "internalType": "uint256",
          "name": "_amount",
          "type": "uint256"
        }
      ],
      "name": "deposit",
      "outputs": [],
      "stateMutability": "payable",
      "type": "function"
    },
    {
      "inputs": [
        {
          "internalType": "address",
          "name": "_from",
          "type": "address"
        },
        {
          "internalType": "bytes32",
          "name": "_ccy",
          "type": "bytes32"
        },
        {
          "internalType": "uint256",
          "name": "_amount",
          "type": "uint256"
        }
      ],
      "name": "depositFrom",
      "outputs": [],
      "stateMutability": "payable",
      "type": "function"
    },
    {
      "inputs": [],
      "name": "getCollateralCurrencies",
      "outputs": [
        {
          "internalType": "bytes32[]",
          "name": "",
          "type": "bytes32[]"
        }
      ],
      "stateMutability": "view",
      "type": "function"
    },
    {
      "inputs": [],
      "name": "getCollateralParameters",
      "outputs": [
        {
          "internalType": "uint256",
          "name": "liquidationThresholdRate",
          "type": "uint256"
        },
        {
          "internalType": "uint256",
          "name": "liquidationProtocolFeeRate",
          "type": "uint256"
        },
        {
          "internalType": "uint256",
          "name": "liquidatorFeeRate",
          "type": "uint256"
        },
        {
          "internalType": "address",
          "name": "uniswapRouter",
          "type": "address"
        },
        {
          "internalType": "address",
          "name": "uniswapQuoter",
          "type": "address"
        }
      ],
      "stateMutability": "view",
      "type": "function"
    },
    {
      "inputs": [
        {
          "internalType": "address",
          "name": "_user",
          "type": "address"
        }
      ],
      "name": "getCoverage",
      "outputs": [
        {
          "internalType": "uint256",
          "name": "coverage",
          "type": "uint256"
        }
      ],
      "stateMutability": "view",
      "type": "function"
    },
    {
      "inputs": [
        {
          "internalType": "address",
          "name": "_user",
          "type": "address"
        },
        {
          "internalType": "bytes32",
          "name": "_ccy",
          "type": "bytes32"
        }
      ],
      "name": "getDepositAmount",
      "outputs": [
        {
          "internalType": "uint256",
          "name": "",
          "type": "uint256"
        }
      ],
      "stateMutability": "view",
      "type": "function"
    },
    {
      "inputs": [
        {
          "internalType": "address",
          "name": "_user",
          "type": "address"
        }
      ],
      "name": "getLiquidationAmount",
      "outputs": [
        {
          "internalType": "uint256",
          "name": "liquidationAmount",
          "type": "uint256"
        }
      ],
      "stateMutability": "view",
      "type": "function"
    },
    {
      "inputs": [
        {
          "internalType": "bytes32",
          "name": "_ccy",
          "type": "bytes32"
        }
      ],
      "name": "getTokenAddress",
      "outputs": [
        {
          "internalType": "address",
          "name": "",
          "type": "address"
        }
      ],
      "stateMutability": "view",
      "type": "function"
    },
    {
      "inputs": [
        {
          "internalType": "address",
          "name": "_user",
          "type": "address"
        }
      ],
      "name": "getTotalCollateralAmount",
      "outputs": [
        {
          "internalType": "uint256",
          "name": "totalCollateralAmount",
          "type": "uint256"
        }
      ],
      "stateMutability": "view",
      "type": "function"
    },
    {
      "inputs": [
        {
          "internalType": "bytes32",
          "name": "_ccy",
          "type": "bytes32"
        }
      ],
      "name": "getTotalDepositAmount",
      "outputs": [
        {
          "internalType": "uint256",
          "name": "",
          "type": "uint256"
        }
      ],
      "stateMutability": "view",
      "type": "function"
    },
    {
      "inputs": [
        {
          "internalType": "address",
          "name": "_user",
          "type": "address"
        }
      ],
      "name": "getUnusedCollateral",
      "outputs": [
        {
          "internalType": "uint256",
          "name": "",
          "type": "uint256"
        }
      ],
      "stateMutability": "view",
      "type": "function"
    },
    {
      "inputs": [
        {
          "internalType": "address",
          "name": "_user",
          "type": "address"
        }
      ],
      "name": "getUsedCurrencies",
      "outputs": [
        {
          "internalType": "bytes32[]",
          "name": "",
          "type": "bytes32[]"
        }
      ],
      "stateMutability": "view",
      "type": "function"
    },
    {
      "inputs": [
        {
          "internalType": "address",
          "name": "_user",
          "type": "address"
        }
      ],
      "name": "getWithdrawableCollateral",
      "outputs": [
        {
          "internalType": "uint256",
          "name": "",
          "type": "uint256"
        }
      ],
      "stateMutability": "view",
      "type": "function"
    },
    {
      "inputs": [
        {
          "internalType": "address",
          "name": "_owner",
          "type": "address"
        },
        {
          "internalType": "address",
          "name": "_resolver",
          "type": "address"
        },
        {
          "internalType": "uint256",
          "name": "_liquidationThresholdRate",
          "type": "uint256"
        },
        {
          "internalType": "uint256",
          "name": "_liquidationProtocolFeeRate",
          "type": "uint256"
        },
        {
          "internalType": "uint256",
          "name": "_liquidatorFeeRate",
          "type": "uint256"
        },
        {
          "internalType": "address",
          "name": "_uniswapRouter",
          "type": "address"
        },
        {
          "internalType": "address",
          "name": "_uniswapQuoter",
          "type": "address"
        },
        {
          "internalType": "address",
          "name": "_WETH9",
          "type": "address"
        }
      ],
      "name": "initialize",
      "outputs": [],
      "stateMutability": "nonpayable",
      "type": "function"
    },
    {
      "inputs": [
        {
          "internalType": "bytes32[]",
          "name": "_ccys",
          "type": "bytes32[]"
        }
      ],
      "name": "isCollateral",
      "outputs": [
        {
          "internalType": "bool[]",
          "name": "isCollateralCurrencies",
          "type": "bool[]"
        }
      ],
      "stateMutability": "view",
      "type": "function"
    },
    {
      "inputs": [
        {
          "internalType": "bytes32",
          "name": "_ccy",
          "type": "bytes32"
        }
      ],
      "name": "isCollateral",
      "outputs": [
        {
          "internalType": "bool",
          "name": "",
          "type": "bool"
        }
      ],
      "stateMutability": "view",
      "type": "function"
    },
    {
      "inputs": [
        {
          "internalType": "address",
          "name": "_user",
          "type": "address"
        }
      ],
      "name": "isCovered",
      "outputs": [
        {
          "internalType": "bool",
          "name": "",
          "type": "bool"
        }
      ],
      "stateMutability": "view",
      "type": "function"
    },
    {
      "inputs": [
        {
          "internalType": "address",
          "name": "_user",
          "type": "address"
        },
        {
          "internalType": "bytes32",
          "name": "_unsettledOrderCcy",
          "type": "bytes32"
        },
        {
          "internalType": "uint256",
          "name": "_unsettledOrderAmount",
          "type": "uint256"
        },
        {
          "internalType": "enum ProtocolTypes.Side",
          "name": "_unsettledOrderSide",
          "type": "uint8"
        }
      ],
      "name": "isCovered",
      "outputs": [
        {
          "internalType": "bool",
          "name": "",
          "type": "bool"
        }
      ],
      "stateMutability": "view",
      "type": "function"
    },
    {
      "inputs": [
        {
          "internalType": "bytes32",
          "name": "_ccy",
          "type": "bytes32"
        }
      ],
      "name": "isRegisteredCurrency",
      "outputs": [
        {
          "internalType": "bool",
          "name": "",
          "type": "bool"
        }
      ],
      "stateMutability": "view",
      "type": "function"
    },
    {
      "inputs": [],
      "name": "isResolverCached",
      "outputs": [
        {
          "internalType": "bool",
          "name": "",
          "type": "bool"
        }
      ],
      "stateMutability": "view",
      "type": "function"
    },
    {
      "inputs": [],
      "name": "owner",
      "outputs": [
        {
          "internalType": "address",
          "name": "",
          "type": "address"
        }
      ],
      "stateMutability": "view",
      "type": "function"
    },
    {
      "inputs": [
        {
          "internalType": "bytes32",
          "name": "_ccy",
          "type": "bytes32"
        },
        {
          "internalType": "address",
          "name": "_tokenAddress",
          "type": "address"
        },
        {
          "internalType": "bool",
          "name": "_isCollateral",
          "type": "bool"
        }
      ],
      "name": "registerCurrency",
      "outputs": [],
      "stateMutability": "nonpayable",
      "type": "function"
    },
    {
      "inputs": [
        {
          "internalType": "address",
          "name": "_user",
          "type": "address"
        },
        {
          "internalType": "bytes32",
          "name": "_ccy",
          "type": "bytes32"
        },
        {
          "internalType": "uint256",
          "name": "_amount",
          "type": "uint256"
        }
      ],
      "name": "removeDepositAmount",
      "outputs": [],
      "stateMutability": "nonpayable",
      "type": "function"
    },
    {
      "inputs": [],
      "name": "renounceOwnership",
      "outputs": [],
      "stateMutability": "nonpayable",
      "type": "function"
    },
    {
      "inputs": [],
      "name": "requiredContracts",
      "outputs": [
        {
          "internalType": "bytes32[]",
          "name": "contracts",
          "type": "bytes32[]"
        }
      ],
      "stateMutability": "pure",
      "type": "function"
    },
    {
      "inputs": [],
      "name": "resolver",
      "outputs": [
        {
          "internalType": "contract IAddressResolver",
          "name": "",
          "type": "address"
        }
      ],
      "stateMutability": "view",
      "type": "function"
    },
    {
      "inputs": [
        {
          "internalType": "uint256",
          "name": "_liquidationThresholdRate",
          "type": "uint256"
        },
        {
          "internalType": "uint256",
          "name": "_liquidationProtocolFeeRate",
          "type": "uint256"
        },
        {
          "internalType": "uint256",
          "name": "_liquidatorFeeRate",
          "type": "uint256"
        },
        {
          "internalType": "address",
          "name": "_uniswapRouter",
          "type": "address"
        },
        {
          "internalType": "address",
          "name": "_uniswapQuoter",
          "type": "address"
        }
      ],
      "name": "setCollateralParameters",
      "outputs": [],
      "stateMutability": "nonpayable",
      "type": "function"
    },
    {
      "inputs": [
        {
          "internalType": "address",
          "name": "_liquidator",
          "type": "address"
        },
        {
          "internalType": "address",
          "name": "_user",
          "type": "address"
        },
        {
          "internalType": "bytes32",
          "name": "_ccyFrom",
          "type": "bytes32"
        },
        {
          "internalType": "bytes32",
          "name": "_ccyTo",
          "type": "bytes32"
        },
        {
          "internalType": "uint256",
          "name": "_amountOut",
          "type": "uint256"
        },
        {
          "internalType": "uint24",
          "name": "_poolFee",
          "type": "uint24"
        },
        {
          "internalType": "uint256",
          "name": "_offsetAmount",
          "type": "uint256"
        }
      ],
      "name": "swapDepositAmounts",
      "outputs": [
        {
          "internalType": "uint256",
          "name": "amountOut",
          "type": "uint256"
        }
      ],
      "stateMutability": "nonpayable",
      "type": "function"
    },
    {
      "inputs": [
        {
          "internalType": "address",
          "name": "newOwner",
          "type": "address"
        }
      ],
      "name": "transferOwnership",
      "outputs": [],
      "stateMutability": "nonpayable",
      "type": "function"
    },
    {
      "inputs": [
        {
          "internalType": "bytes32",
          "name": "_ccy",
          "type": "bytes32"
        },
        {
          "internalType": "bool",
          "name": "_isCollateral",
          "type": "bool"
        }
      ],
      "name": "updateCurrency",
      "outputs": [],
      "stateMutability": "nonpayable",
      "type": "function"
    },
    {
      "inputs": [
        {
          "internalType": "bytes32",
          "name": "_ccy",
          "type": "bytes32"
        },
        {
          "internalType": "uint256",
          "name": "_amount",
          "type": "uint256"
        }
      ],
      "name": "withdraw",
      "outputs": [],
      "stateMutability": "nonpayable",
      "type": "function"
    },
    {
      "stateMutability": "payable",
      "type": "receive"
    }
  ],
  "transactionHash": "0x27e9db7280597f2c871e48c44298b581ff9e176f7e120a7d8638c2d4072cee26",
  "args": [],
  "numDeployments": 2,
  "solcInputHash": "3f85b78d4f02b33ea339ac5a99716c70",
  "bytecode": "0x608060405234801561001057600080fd5b5061370d806100206000396000f3fe6080604052600436106101fd5760003560e01c80635bffeb661161010d578063ab2a0777116100a0578063d5e190d01161006f578063d5e190d014610672578063e099765914610687578063f2fde38b1461069c578063fb7bd3b4146106bc578063fc700810146106dc57600080fd5b8063ab2a0777146105cf578063afe8efcf146105ef578063b12e44101461060f578063ca4230311461065257600080fd5b80638da5cb5b116100dc5780638da5cb5b146105675780638e19aff31461057c578063948060dd1461059c57806396994e37146105bc57600080fd5b80635bffeb66146104c95780635d861505146104e95780635d95df8a14610532578063715018a61461055257600080fd5b806329985e5a116101905780633f90a08e1161015f5780633f90a08e146103f05780634ba0c9b51461041d5780634c6aa99c1461043d57806354821c2114610489578063549687c2146104a957600080fd5b806329985e5a146103845780632af64bd31461039957806331ed1bcc146103ae5780633d03b9da146103ce57600080fd5b80630cfe33fa116101cc5780630cfe33fa146103115780631de26e161461033157806325e1f09f1461034457806328ff7a421461036457600080fd5b80630253cd7e14610261578063040cf0201461029457806304f3bcec146102b45780630cf7505d146102e157600080fd5b3661025c5761020a6106fc565b6001600160a01b0316336001600160a01b03161461025a5760405162461bcd60e51b815260206004820152600860248201526709cdee840ae8aa8960c31b60448201526064015b60405180910390fd5b005b600080fd5b34801561026d57600080fd5b5061028161027c366004612e3a565b61071d565b6040519081526020015b60405180910390f35b3480156102a057600080fd5b5061025a6102af366004612e66565b6107bb565b3480156102c057600080fd5b506102c96107f1565b6040516001600160a01b03909116815260200161028b565b3480156102ed57600080fd5b506103016102fc366004612e88565b610807565b604051901515815260200161028b565b34801561031d57600080fd5b5061028161032c366004612ea1565b610831565b61025a61033f366004612e66565b6108e8565b34801561035057600080fd5b5061030161035f366004612ea1565b610919565b34801561037057600080fd5b5061030161037f366004612ec5565b6109bc565b34801561039057600080fd5b5061025a610a83565b3480156103a557600080fd5b50610301610c30565b3480156103ba57600080fd5b5061025a6103c9366004612f13565b610d96565b3480156103da57600080fd5b506103e3610f3b565b60405161028b9190612fa1565b3480156103fc57600080fd5b5061041061040b366004612fe5565b610ffd565b60405161028b919061305a565b34801561042957600080fd5b5061025a610438366004613094565b6110ab565b34801561044957600080fd5b50610281610458366004612e88565b60009081527f53832330c92cb5d80f0e1ff6fdb9886f7fad39132543bafb7497316eae2a831b602052604090205490565b34801561049557600080fd5b506102816104a4366004612ea1565b611167565b3480156104b557600080fd5b5061025a6104c43660046130c9565b6111fe565b3480156104d557600080fd5b5061025a6104e436600461312d565b611241565b3480156104f557600080fd5b506104fe6113dd565b604080519586526020860194909452928401919091526001600160a01b03908116606084015216608082015260a00161028b565b34801561053e57600080fd5b5061030161054d366004612e88565b61141e565b34801561055e57600080fd5b5061025a611438565b34801561057357600080fd5b506102c9611473565b34801561058857600080fd5b5061025a61059736600461316f565b61149b565b3480156105a857600080fd5b506102816105b7366004612ea1565b611565565b61025a6105ca366004613094565b6115f3565b3480156105db57600080fd5b506102816105ea36600461319f565b611623565b3480156105fb57600080fd5b5061028161060a366004612ea1565b6117e1565b34801561061b57600080fd5b506102c961062a366004612e88565b600090815260008051602061367883398151915260205260409020546001600160a01b031690565b34801561065e57600080fd5b5061028161066d366004612ea1565b6118b6565b34801561067e57600080fd5b506103e361198c565b34801561069357600080fd5b506103e36119aa565b3480156106a857600080fd5b5061025a6106b7366004612ea1565b611a26565b3480156106c857600080fd5b5061025a6106d7366004613094565b611ac6565b3480156106e857600080fd5b506103e36106f7366004612ea1565b611b4c565b60006000805160206136988339815191525b546001600160a01b0316919050565b604051630129e6bf60e11b81526001600160a01b03831660048201526024810182905260009073c43B86487A4F061fd9ABdecF5d40725fbD39188e90630253cd7e9060440160206040518083038186803b15801561077a57600080fd5b505af415801561078e573d6000803e3d6000fd5b505050506040513d601f19601f820116820180604052508101906107b29190613219565b90505b92915050565b816107c581610807565b6107e15760405162461bcd60e51b815260040161025190613232565b6107ec338484611bde565b505050565b600060008051602061365883398151915261070e565b600090815260008051602061367883398151915260205260409020546001600160a01b0316151590565b60405163654c629560e01b81526001600160a01b03821660048201526000908190819073c43B86487A4F061fd9ABdecF5d40725fbD39188e9063654c62959060240160606040518083038186803b15801561088b57600080fd5b505af415801561089f573d6000803e3d6000fd5b505050506040513d601f19601f820116820180604052508101906108c39190613269565b50915091508082116108d65760006108e0565b6108e081836132ad565b949350505050565b816108f281610807565b61090e5760405162461bcd60e51b815260040161025190613232565b6107ec338484611d96565b60405163fd2117fb60e01b81526001600160a01b038216600482015260006024820181905260448201819052606482018190529073c43B86487A4F061fd9ABdecF5d40725fbD39188e9063fd2117fb9060840160206040518083038186803b15801561098457600080fd5b505af4158015610998573d6000803e3d6000fd5b505050506040513d601f19601f820116820180604052508101906107b591906132c4565b600073c43B86487A4F061fd9ABdecF5d40725fbD39188e63fd2117fb8686868660018111156109ed576109ed6132e1565b60405160e086901b6001600160e01b03191681526001600160a01b0394909416600485015260248401929092526044830152600114606482015260840160206040518083038186803b158015610a4257600080fd5b505af4158015610a56573d6000803e3d6000fd5b505050506040513d601f19601f82011682018060405250810190610a7a91906132c4565b95945050505050565b6000610a8d610f3b565b905060005b8151811015610c2c576000828281518110610aaf57610aaf6132f7565b602002602001015190506000610ad060008051602061365883398151915290565b54604080517f5265736f6c766572206d697373696e67207461726765743a200000000000000060208201526039808201869052825180830390910181526059820192839052636795dbcd60e01b9092526001600160a01b0390921691636795dbcd91610b4191869190605d01613365565b60206040518083038186803b158015610b5957600080fd5b505afa158015610b6d573d6000803e3d6000fd5b505050506040513d601f19601f82011682018060405250810190610b91919061337e565b60008381527f4abde63c3e81aefa5764b017968bc473e83e093d7e1a10247d19e0a3e4124019602090815260409182902080546001600160a01b0319166001600160a01b03851690811790915582518681529182015281519293507f88a93678a3692f6789d9546fc621bf7234b101ddb7d4fe479455112831b8aa68929081900390910190a150508080610c249061339b565b915050610a92565b5050565b600080610c3b610f3b565b905060005b8151811015610d8d576000828281518110610c5d57610c5d6132f7565b60200260200101519050610c7c60008051602061365883398151915290565b600082815260019190910160205260409020546001600160a01b0316600080516020613658833981519152546040516321f8a72160e01b8152600481018490526001600160a01b03909116906321f8a7219060240160206040518083038186803b158015610ce957600080fd5b505afa158015610cfd573d6000803e3d6000fd5b505050506040513d601f19601f82011682018060405250810190610d21919061337e565b6001600160a01b0316141580610d6b575060008181527f4abde63c3e81aefa5764b017968bc473e83e093d7e1a10247d19e0a3e412401960205260409020546001600160a01b0316155b15610d7a576000935050505090565b5080610d858161339b565b915050610c40565b50600191505090565b600054610100900460ff1615808015610db65750600054600160ff909116105b80610dd05750303b158015610dd0575060005460ff166001145b610e335760405162461bcd60e51b815260206004820152602e60248201527f496e697469616c697a61626c653a20636f6e747261637420697320616c72656160448201526d191e481a5b9a5d1a585b1a5e995960921b6064820152608401610251565b6000805460ff191660011790558015610e56576000805461ff0019166101001790555b6000610e60611ef4565b6001600160a01b03161415610ec25760405162461bcd60e51b815260206004820152602260248201527f4d7573742062652063616c6c65642066726f6d2070726f787920636f6e74726160448201526118dd60f21b6064820152608401610251565b610ecb89611f1c565b610ed488611f8d565b610edd82612025565b610eea8787878787612096565b8015610f30576000805461ff0019169055604051600181527f7f26b83ff96e1f2b6a682f133852f6798a09c465da95921460cefb38474024989060200160405180910390a15b505050505050505050565b604080516003808252608082019092526060916020820183803683370190505090507121bab93932b731bca1b7b73a3937b63632b960711b81600081518110610f8657610f866132f7565b602002602001018181525050762632b73234b733a6b0b935b2ba21b7b73a3937b63632b960491b81600181518110610fc057610fc06132f7565b6020026020010181815250506a14995cd95c9d99519d5b9960aa1b81600281518110610fee57610fee6132f7565b60200260200101818152505090565b60608167ffffffffffffffff811115611018576110186133b6565b604051908082528060200260200182016040528015611041578160200160208202803683370190505b50905060005b828110156110a457611070848483818110611064576110646132f7565b9050602002013561141e565b828281518110611082576110826132f7565b911515602092830291909101909101528061109c8161339b565b915050611047565b5092915050565b6110b43361249a565b6110d05760405162461bcd60e51b8152600401610251906133cc565b816110da81610807565b6110f65760405162461bcd60e51b815260040161025190613232565b604051634ba0c9b560e01b815273c43B86487A4F061fd9ABdecF5d40725fbD39188e90634ba0c9b59061113190879087908790600401613403565b60006040518083038186803b15801561114957600080fd5b505af415801561115d573d6000803e3d6000fd5b5050505050505050565b60405163654c629560e01b81526001600160a01b038216600482015260009073c43B86487A4F061fd9ABdecF5d40725fbD39188e9063654c62959060240160606040518083038186803b1580156111bd57600080fd5b505af41580156111d1573d6000803e3d6000fd5b505050506040513d601f19601f820116820180604052508101906111f59190613269565b50909392505050565b33611207611473565b6001600160a01b03161461122d5760405162461bcd60e51b815260040161025190613424565b61123a8585858585612096565b5050505050565b3361124a611473565b6001600160a01b0316146112705760405162461bcd60e51b815260040161025190613424565b611278612514565b6001600160a01b0316631eae0893846040518263ffffffff1660e01b81526004016112a591815260200190565b60206040518083038186803b1580156112bd57600080fd5b505afa1580156112d1573d6000803e3d6000fd5b505050506040513d601f19601f820116820180604052508101906112f591906132c4565b6113345760405162461bcd60e51b815260206004820152601060248201526f496e76616c69642063757272656e637960801b6044820152606401610251565b60008381526000805160206136788339815191526020526040902080546001600160a01b0319166001600160a01b038416179055801561138a57611388836000805160206136b88339815191525b9061251e565b505b604080518481526001600160a01b0384166020820152821515918101919091527ff776c30df345d55df252bb5181a0c2bb23d601166606790a6f1b938d7e158503906060015b60405180910390a1505050565b60008060008060006113ed61252a565b94506113f761253a565b935061140161254d565b925061140b612560565b915061141561257c565b90509091929394565b60006107b56000805160206136b883398151915283612598565b33611441611473565b6001600160a01b0316146114675760405162461bcd60e51b815260040161025190613424565b6114716000611f1c565b565b60007f9acda75aebd150dd434541a4747a6dc606f4f1a59662477e67daf1fc0bf9e0aa61070e565b336114a4611473565b6001600160a01b0316146114ca5760405162461bcd60e51b815260040161025190613424565b816114d481610807565b6114f05760405162461bcd60e51b815260040161025190613232565b81156115145761150e836000805160206136b8833981519152611382565b5061152e565b61152c6000805160206136b8833981519152846125b0565b505b6040805184815283151560208201527f97caf2b3b2f0aa460ca08b20c07f7a43ccf688e2f3b7179f2cf9113fb892bf8191016113d0565b60405163948060dd60e01b81526001600160a01b038216600482015260009073c43B86487A4F061fd9ABdecF5d40725fbD39188e9063948060dd9060240160206040518083038186803b1580156115bb57600080fd5b505af41580156115cf573d6000803e3d6000fd5b505050506040513d601f19601f820116820180604052508101906107b59190613219565b6115fc3361249a565b6116185760405162461bcd60e51b8152600401610251906133cc565b6107ec838383611d96565b600061162e3361249a565b61164a5760405162461bcd60e51b8152600401610251906133cc565b6116538661141e565b61169f5760405162461bcd60e51b815260206004820152601c60248201527f4e6f74207265676973746572656420617320636f6c6c61746572616c000000006044820152606401610251565b60405163ab2a077760e01b81526001600160a01b03808a1660048301528816602482015260448101879052606481018690526084810185905262ffffff841660a482015260c481018390526000908190819073c43B86487A4F061fd9ABdecF5d40725fbD39188e9063ab2a07779060e40160806040518083038186803b15801561172857600080fd5b505af415801561173c573d6000803e3d6000fd5b505050506040513d601f19601f820116820180604052508101906117609190613459565b929650909450925090506001600160a01b038a167fe388e4575608d6ee73a58c36e5ac2bbc5099054aa117945d3935653895ed8d3e8a8a866117a28a8a61348f565b6040805194855260208501939093529183015260608201526080810185905260a0810184905260c00160405180910390a2505050979650505050505050565b60405163654c629560e01b81526001600160a01b03821660048201526000908190819073c43B86487A4F061fd9ABdecF5d40725fbD39188e9063654c62959060240160606040518083038186803b15801561183b57600080fd5b505af415801561184f573d6000803e3d6000fd5b505050506040513d601f19601f820116820180604052508101906118739190613269565b509150915061188061252a565b61188a90826134a7565b611896612710846134a7565b10156118ac576118a76002826134c6565b6108e0565b6000949350505050565b60405163654c629560e01b81526001600160a01b03821660048201526000908190819073c43B86487A4F061fd9ABdecF5d40725fbD39188e9063654c62959060240160606040518083038186803b15801561191057600080fd5b505af4158015611924573d6000803e3d6000fd5b505050506040513d601f19601f820116820180604052508101906119489190613269565b5091509150816000141561196e57801561196457600019611967565b60005b9250611985565b8161197b612710836134a7565b6108e091906134c6565b5050919050565b60606119a56000805160206136b88339815191526125bc565b905090565b6040805160028082526060808301845292602083019080368337019050509050762632b73234b733a6b0b935b2ba21b7b73a3937b63632b960491b816000815181106119f8576119f86132f7565b6020026020010181815250506a14995cd95c9d99519d5b9960aa1b81600181518110610fee57610fee6132f7565b33611a2f611473565b6001600160a01b031614611a555760405162461bcd60e51b815260040161025190613424565b6001600160a01b038116611aba5760405162461bcd60e51b815260206004820152602660248201527f4f776e61626c653a206e6577206f776e657220697320746865207a65726f206160448201526564647265737360d01b6064820152608401610251565b611ac381611f1c565b50565b611acf3361249a565b611aeb5760405162461bcd60e51b8152600401610251906133cc565b81611af581610807565b611b115760405162461bcd60e51b815260040161025190613232565b604051633edef4ed60e21b815273c43B86487A4F061fd9ABdecF5d40725fbD39188e9063fb7bd3b49061113190879087908790600401613403565b604051630fc7008160e41b81526001600160a01b038216600482015260609073c43B86487A4F061fd9ABdecF5d40725fbD39188e9063fc7008109060240160006040518083038186803b158015611ba257600080fd5b505af4158015611bb6573d6000803e3d6000fd5b505050506040513d6000823e601f3d908101601f191682016040526107b591908101906134e8565b60008111611bfe5760405162461bcd60e51b8152600401610251906135a6565b611c066125c7565b604051639519832b60e01b8152600481018490526001600160a01b0385811660248301529190911690639519832b90604401602060405180830381600087803b158015611c5257600080fd5b505af1158015611c66573d6000803e3d6000fd5b505050506040513d601f19601f82011682018060405250810190611c8a9190613219565b5060405163148b8b9d60e11b815260009073c43B86487A4F061fd9ABdecF5d40725fbD39188e90632917173a90611cc990879087908790600401613403565b60206040518083038186803b158015611ce157600080fd5b505af4158015611cf5573d6000803e3d6000fd5b505050506040513d601f19601f82011682018060405250810190611d199190613219565b60008481526000805160206136788339815191526020526040902054909150611d4c906001600160a01b031685836125d1565b60408051848152602081018390526001600160a01b038616917fc3ded2be7db21b1af963f267d27750e4a15f174547d88b886b9bda43e2c6fa32910160405180910390a250505050565b60008111611db65760405162461bcd60e51b8152600401610251906135a6565b611dbe6106fc565b600083815260008051602061367883398151915260205260409020546001600160a01b039081169116141580611df357503481145b611e0f5760405162461bcd60e51b8152600401610251906135a6565b60008281526000805160206136788339815191526020526040902054611e40906001600160a01b0316843084612609565b604051634ba0c9b560e01b815273c43B86487A4F061fd9ABdecF5d40725fbD39188e90634ba0c9b590611e7b90869086908690600401613403565b60006040518083038186803b158015611e9357600080fd5b505af4158015611ea7573d6000803e3d6000fd5b505060408051858152602081018590526001600160a01b03871693507f19dacbf83c5de6658e14cbf7bcae5c15eca2eedecf1c66fbca928e4d351bea0f92500160405180910390a2505050565b60007f360894a13ba1a3210667c828492db98dca3e2076cc3735a920a3ca505d382bbc61070e565b7f9acda75aebd150dd434541a4747a6dc606f4f1a59662477e67daf1fc0bf9e0aa80546001600160a01b038381166001600160a01b0319831681179093556040519116919082907f8be0079c531659141344cd1fd0a4f28419497f9722a3daafe3b4186f6b6457e090600090a35050565b600080516020613658833981519152546001600160a01b031615611ff35760405162461bcd60e51b815260206004820152601b60248201527f7265736f6c766572207265676973746572656420616c726561647900000000006044820152606401610251565b806000805160206136588339815191525b80546001600160a01b0319166001600160a01b039290921691909117905550565b600080516020613698833981519152546001600160a01b0316156120815760405162461bcd60e51b8152602060048201526013602482015272105b1c9958591e481a5b9a5d1a585b1a5e9959606a1b6044820152606401610251565b80600080516020613698833981519152612004565b600085116120f15760405162461bcd60e51b815260206004820152602260248201527f496e76616c6964206c69717569646174696f6e207468726573686f6c64207261604482015261746560f01b6064820152608401610251565b6127108411156121515760405162461bcd60e51b815260206004820152602560248201527f496e76616c6964206c69717569646174696f6e2070726f746f636f6c20666565604482015264207261746560d81b6064820152608401610251565b6127108311156121a35760405162461bcd60e51b815260206004820152601b60248201527f496e76616c6964206c697175696461746f7220666565207261746500000000006044820152606401610251565b6001600160a01b0382166121f25760405162461bcd60e51b815260206004820152601660248201527524b73b30b634b2102ab734b9bbb0b8102937baba32b960511b6044820152606401610251565b6001600160a01b0381166122415760405162461bcd60e51b815260206004820152601660248201527524b73b30b634b2102ab734b9bbb0b81028bab7ba32b960511b6044820152606401610251565b61224961264d565b54851461229c577fd3353684d64f1c80498433d8407c96e6bbeb1ec88b6200ec97d2c910fdbd0da461227961264d565b5460408051918252602082018890520160405180910390a18461229a61264d565b555b6122a461264d565b600101548414612300577f651b17c8e9402610e6210cfaa5b252d2186f8a16adf58c9c0fd5793bc4ea9b1f6122d761264d565b6001015460408051918252602082018790520160405180910390a1836122fb61264d565b600101555b61230861264d565b600201548314612364578261231b61264d565b600201557f7e8f030f9238551b066874b952f0c6ba811ba426ab231ba4825421d5d8f5cd9561234861264d565b6002015460408051918252602082018690520160405180910390a15b61236c61264d565b600301546001600160a01b038381169116146123fc577fe7295f605b21e8c0803de3b127af76ce45d81732d075acf86e5959e923605bdc6123ab61264d565b60030154604080516001600160a01b03928316815291851660208301520160405180910390a1816123da61264d565b60030180546001600160a01b0319166001600160a01b03929092169190911790555b61240461264d565b600401546001600160a01b0382811691161461123a577fc3e7ec97cf382bb0aa286de53d3fbce580f260e5940bce703c49d62eb33ef4bc61244361264d565b60040154604080516001600160a01b03928316815291841660208301520160405180910390a18061247261264d565b60040180546001600160a01b0319166001600160a01b03929092169190911790555050505050565b6000806124a56119aa565b905060005b815181101561250a576124d58282815181106124c8576124c86132f7565b6020026020010151612671565b6001600160a01b0316846001600160a01b031614156124f8575060019392505050565b806125028161339b565b9150506124aa565b5060009392505050565b60006119a561267c565b60006107b2838361269c565b600061253461264d565b54919050565b600061254461264d565b60010154905090565b600061255761264d565b60020154905090565b600061256a61264d565b600301546001600160a01b0316919050565b600061258661264d565b600401546001600160a01b0316919050565b600081815260018301602052604081205415156107b2565b60006107b283836126eb565b60606107b5826127de565b60006119a561283a565b600080516020613698833981519152546001600160a01b03848116911614156125fe576107ec828261285f565b6107ec8383836129aa565b600080516020613698833981519152546001600160a01b038581169116141561263b576126368282612a8e565b612647565b61264784848484612bd7565b50505050565b7f1aaabb4945989eb9ee8150fddc35fcfc125664a7b898aa2de5931bb12484d05290565b60006107b582612ccb565b60006119a57121bab93932b731bca1b7b73a3937b63632b960711b612ccb565b60008181526001830160205260408120546126e3575081546001818101845560008481526020808220909301849055845484825282860190935260409020919091556107b5565b5060006107b5565b600081815260018301602052604081205480156127d457600061270f6001836132ad565b8554909150600090612723906001906132ad565b9050818114612788576000866000018281548110612743576127436132f7565b9060005260206000200154905080876000018481548110612766576127666132f7565b6000918252602080832090910192909255918252600188019052604090208390555b8554869080612799576127996135ce565b6001900381819060005260206000200160009055905585600101600086815260200190815260200160002060009055600193505050506107b5565b60009150506107b5565b60608160000180548060200260200160405190810160405280929190818152602001828054801561282e57602002820191906000526020600020905b81548152602001906001019080831161281a575b50505050509050919050565b60006119a5762632b73234b733a6b0b935b2ba21b7b73a3937b63632b960491b612ccb565b6000600080516020613698833981519152546040516370a0823160e01b81523060048201526001600160a01b03909116906370a082319060240160206040518083038186803b1580156128b157600080fd5b505afa1580156128c5573d6000803e3d6000fd5b505050506040513d601f19601f820116820180604052508101906128e99190613219565b90508181101561292f5760405162461bcd60e51b8152602060048201526011602482015270092dce6eaccccd2c6d2cadce840ae8aa89607b1b6044820152606401610251565b80156107ec5760008051602061369883398151915254604051632e1a7d4d60e01b8152600481018490526001600160a01b0390911690632e1a7d4d90602401600060405180830381600087803b15801561298857600080fd5b505af115801561299c573d6000803e3d6000fd5b505050506107ec8383612d5c565b604080516001600160a01b038481166024830152604480830185905283518084039091018152606490920183526020820180516001600160e01b031663a9059cbb60e01b1790529151600092839290871691612a0691906135e4565b6000604051808303816000865af19150503d8060008114612a43576040519150601f19603f3d011682016040523d82523d6000602084013e612a48565b606091505b5091509150818015612a72575080511580612a72575080806020019051810190612a7291906132c4565b61123a5760405162461bcd60e51b815260040161025190613600565b80471015612ad15760405162461bcd60e51b815260206004820152601060248201526f092dce6eaccccd2c6d2cadce8408aa8960831b6044820152606401610251565b6000805160206136988339815191525460408051630d0e30db60e41b815290516001600160a01b039092169163d0e30db0918491600480830192600092919082900301818588803b158015612b2557600080fd5b505af1158015612b39573d6000803e3d6000fd5b5050505050612b5360008051602061369883398151915290565b5460405163a9059cbb60e01b81526001600160a01b038481166004830152602482018490529091169063a9059cbb90604401602060405180830381600087803b158015612b9f57600080fd5b505af1158015612bb3573d6000803e3d6000fd5b505050506040513d601f19601f820116820180604052508101906107ec91906132c4565b604080516001600160a01b0385811660248301528481166044830152606480830185905283518084039091018152608490920183526020820180516001600160e01b03166323b872dd60e01b1790529151600092839290881691612c3b91906135e4565b6000604051808303816000865af19150503d8060008114612c78576040519150601f19603f3d011682016040523d82523d6000602084013e612c7d565b606091505b5091509150818015612ca7575080511580612ca7575080806020019051810190612ca791906132c4565b612cc35760405162461bcd60e51b815260040161025190613600565b505050505050565b60008181527f4abde63c3e81aefa5764b017968bc473e83e093d7e1a10247d19e0a3e41240196020908152604080832054815170026b4b9b9b4b7339030b2323932b9b99d1607d1b9381019390935260318084018690528251808503909101815260519093019091526001600160a01b031690816110a45760405162461bcd60e51b81526004016102519190613644565b604080516000808252602082019092526001600160a01b038416908390604051612d8691906135e4565b60006040518083038185875af1925050503d8060008114612dc3576040519150601f19603f3d011682016040523d82523d6000602084013e612dc8565b606091505b50509050806107ec5760405162461bcd60e51b815260206004820152602360248201527f5472616e7366657248656c7065723a204554485f5452414e534645525f46414960448201526213115160ea1b6064820152608401610251565b6001600160a01b0381168114611ac357600080fd5b60008060408385031215612e4d57600080fd5b8235612e5881612e25565b946020939093013593505050565b60008060408385031215612e7957600080fd5b50508035926020909101359150565b600060208284031215612e9a57600080fd5b5035919050565b600060208284031215612eb357600080fd5b8135612ebe81612e25565b9392505050565b60008060008060808587031215612edb57600080fd5b8435612ee681612e25565b93506020850135925060408501359150606085013560028110612f0857600080fd5b939692955090935050565b600080600080600080600080610100898b031215612f3057600080fd5b8835612f3b81612e25565b97506020890135612f4b81612e25565b965060408901359550606089013594506080890135935060a0890135612f7081612e25565b925060c0890135612f8081612e25565b915060e0890135612f9081612e25565b809150509295985092959890939650565b6020808252825182820181905260009190848201906040850190845b81811015612fd957835183529284019291840191600101612fbd565b50909695505050505050565b60008060208385031215612ff857600080fd5b823567ffffffffffffffff8082111561301057600080fd5b818501915085601f83011261302457600080fd5b81358181111561303357600080fd5b8660208260051b850101111561304857600080fd5b60209290920196919550909350505050565b6020808252825182820181905260009190848201906040850190845b81811015612fd9578351151583529284019291840191600101613076565b6000806000606084860312156130a957600080fd5b83356130b481612e25565b95602085013595506040909401359392505050565b600080600080600060a086880312156130e157600080fd5b853594506020860135935060408601359250606086013561310181612e25565b9150608086013561311181612e25565b809150509295509295909350565b8015158114611ac357600080fd5b60008060006060848603121561314257600080fd5b83359250602084013561315481612e25565b915060408401356131648161311f565b809150509250925092565b6000806040838503121561318257600080fd5b8235915060208301356131948161311f565b809150509250929050565b600080600080600080600060e0888a0312156131ba57600080fd5b87356131c581612e25565b965060208801356131d581612e25565b955060408801359450606088013593506080880135925060a088013562ffffff8116811461320257600080fd5b8092505060c0880135905092959891949750929550565b60006020828403121561322b57600080fd5b5051919050565b60208082526017908201527f43757272656e6379206e6f742072656769737465726564000000000000000000604082015260600190565b60008060006060848603121561327e57600080fd5b8351925060208401519150604084015190509250925092565b634e487b7160e01b600052601160045260246000fd5b6000828210156132bf576132bf613297565b500390565b6000602082840312156132d657600080fd5b8151612ebe8161311f565b634e487b7160e01b600052602160045260246000fd5b634e487b7160e01b600052603260045260246000fd5b60005b83811015613328578181015183820152602001613310565b838111156126475750506000910152565b6000815180845261335181602086016020860161330d565b601f01601f19169290920160200192915050565b8281526040602082015260006108e06040830184613339565b60006020828403121561339057600080fd5b8151612ebe81612e25565b60006000198214156133af576133af613297565b5060010190565b634e487b7160e01b600052604160045260246000fd5b60208082526017908201527f4f6e6c7920416363657074656420436f6e747261637473000000000000000000604082015260600190565b6001600160a01b039390931683526020830191909152604082015260600190565b6020808252818101527f4f776e61626c653a2063616c6c6572206973206e6f7420746865206f776e6572604082015260600190565b6000806000806080858703121561346f57600080fd5b505082516020840151604085015160609095015191969095509092509050565b600082198211156134a2576134a2613297565b500190565b60008160001904831182151516156134c1576134c1613297565b500290565b6000826134e357634e487b7160e01b600052601260045260246000fd5b500490565b600060208083850312156134fb57600080fd5b825167ffffffffffffffff8082111561351357600080fd5b818501915085601f83011261352757600080fd5b815181811115613539576135396133b6565b8060051b604051601f19603f8301168101818110858211171561355e5761355e6133b6565b60405291825284820192508381018501918883111561357c57600080fd5b938501935b8285101561359a57845184529385019392850192613581565b98975050505050505050565b6020808252600e908201526d125b9d985b1a5908185b5bdd5b9d60921b604082015260600190565b634e487b7160e01b600052603160045260246000fd5b600082516135f681846020870161330d565b9190910192915050565b60208082526024908201527f5472616e7366657248656c7065723a205452414e534645525f46524f4d5f46416040820152631253115160e21b606082015260800190565b6020815260006107b2602083018461333956fe4abde63c3e81aefa5764b017968bc473e83e093d7e1a10247d19e0a3e412401853832330c92cb5d80f0e1ff6fdb9886f7fad39132543bafb7497316eae2a83197522ee63bb7da831844dcdb60f35e8cfa51225eeb4ed6734e421ed06f0d5680553832330c92cb5d80f0e1ff6fdb9886f7fad39132543bafb7497316eae2a8317a26469706673582212206af30bf7a7d327105a28f16add502a791088e14da98105bc5d885caa2a17993f64736f6c63430008090033",
  "deployedBytecode": "0x6080604052600436106101fd5760003560e01c80635bffeb661161010d578063ab2a0777116100a0578063d5e190d01161006f578063d5e190d014610672578063e099765914610687578063f2fde38b1461069c578063fb7bd3b4146106bc578063fc700810146106dc57600080fd5b8063ab2a0777146105cf578063afe8efcf146105ef578063b12e44101461060f578063ca4230311461065257600080fd5b80638da5cb5b116100dc5780638da5cb5b146105675780638e19aff31461057c578063948060dd1461059c57806396994e37146105bc57600080fd5b80635bffeb66146104c95780635d861505146104e95780635d95df8a14610532578063715018a61461055257600080fd5b806329985e5a116101905780633f90a08e1161015f5780633f90a08e146103f05780634ba0c9b51461041d5780634c6aa99c1461043d57806354821c2114610489578063549687c2146104a957600080fd5b806329985e5a146103845780632af64bd31461039957806331ed1bcc146103ae5780633d03b9da146103ce57600080fd5b80630cfe33fa116101cc5780630cfe33fa146103115780631de26e161461033157806325e1f09f1461034457806328ff7a421461036457600080fd5b80630253cd7e14610261578063040cf0201461029457806304f3bcec146102b45780630cf7505d146102e157600080fd5b3661025c5761020a6106fc565b6001600160a01b0316336001600160a01b03161461025a5760405162461bcd60e51b815260206004820152600860248201526709cdee840ae8aa8960c31b60448201526064015b60405180910390fd5b005b600080fd5b34801561026d57600080fd5b5061028161027c366004612e3a565b61071d565b6040519081526020015b60405180910390f35b3480156102a057600080fd5b5061025a6102af366004612e66565b6107bb565b3480156102c057600080fd5b506102c96107f1565b6040516001600160a01b03909116815260200161028b565b3480156102ed57600080fd5b506103016102fc366004612e88565b610807565b604051901515815260200161028b565b34801561031d57600080fd5b5061028161032c366004612ea1565b610831565b61025a61033f366004612e66565b6108e8565b34801561035057600080fd5b5061030161035f366004612ea1565b610919565b34801561037057600080fd5b5061030161037f366004612ec5565b6109bc565b34801561039057600080fd5b5061025a610a83565b3480156103a557600080fd5b50610301610c30565b3480156103ba57600080fd5b5061025a6103c9366004612f13565b610d96565b3480156103da57600080fd5b506103e3610f3b565b60405161028b9190612fa1565b3480156103fc57600080fd5b5061041061040b366004612fe5565b610ffd565b60405161028b919061305a565b34801561042957600080fd5b5061025a610438366004613094565b6110ab565b34801561044957600080fd5b50610281610458366004612e88565b60009081527f53832330c92cb5d80f0e1ff6fdb9886f7fad39132543bafb7497316eae2a831b602052604090205490565b34801561049557600080fd5b506102816104a4366004612ea1565b611167565b3480156104b557600080fd5b5061025a6104c43660046130c9565b6111fe565b3480156104d557600080fd5b5061025a6104e436600461312d565b611241565b3480156104f557600080fd5b506104fe6113dd565b604080519586526020860194909452928401919091526001600160a01b03908116606084015216608082015260a00161028b565b34801561053e57600080fd5b5061030161054d366004612e88565b61141e565b34801561055e57600080fd5b5061025a611438565b34801561057357600080fd5b506102c9611473565b34801561058857600080fd5b5061025a61059736600461316f565b61149b565b3480156105a857600080fd5b506102816105b7366004612ea1565b611565565b61025a6105ca366004613094565b6115f3565b3480156105db57600080fd5b506102816105ea36600461319f565b611623565b3480156105fb57600080fd5b5061028161060a366004612ea1565b6117e1565b34801561061b57600080fd5b506102c961062a366004612e88565b600090815260008051602061367883398151915260205260409020546001600160a01b031690565b34801561065e57600080fd5b5061028161066d366004612ea1565b6118b6565b34801561067e57600080fd5b506103e361198c565b34801561069357600080fd5b506103e36119aa565b3480156106a857600080fd5b5061025a6106b7366004612ea1565b611a26565b3480156106c857600080fd5b5061025a6106d7366004613094565b611ac6565b3480156106e857600080fd5b506103e36106f7366004612ea1565b611b4c565b60006000805160206136988339815191525b546001600160a01b0316919050565b604051630129e6bf60e11b81526001600160a01b03831660048201526024810182905260009073__$09c51783f1a1597899ee0a3142cec7935a$__90630253cd7e9060440160206040518083038186803b15801561077a57600080fd5b505af415801561078e573d6000803e3d6000fd5b505050506040513d601f19601f820116820180604052508101906107b29190613219565b90505b92915050565b816107c581610807565b6107e15760405162461bcd60e51b815260040161025190613232565b6107ec338484611bde565b505050565b600060008051602061365883398151915261070e565b600090815260008051602061367883398151915260205260409020546001600160a01b0316151590565b60405163654c629560e01b81526001600160a01b03821660048201526000908190819073__$09c51783f1a1597899ee0a3142cec7935a$__9063654c62959060240160606040518083038186803b15801561088b57600080fd5b505af415801561089f573d6000803e3d6000fd5b505050506040513d601f19601f820116820180604052508101906108c39190613269565b50915091508082116108d65760006108e0565b6108e081836132ad565b949350505050565b816108f281610807565b61090e5760405162461bcd60e51b815260040161025190613232565b6107ec338484611d96565b60405163fd2117fb60e01b81526001600160a01b038216600482015260006024820181905260448201819052606482018190529073__$09c51783f1a1597899ee0a3142cec7935a$__9063fd2117fb9060840160206040518083038186803b15801561098457600080fd5b505af4158015610998573d6000803e3d6000fd5b505050506040513d601f19601f820116820180604052508101906107b591906132c4565b600073__$09c51783f1a1597899ee0a3142cec7935a$__63fd2117fb8686868660018111156109ed576109ed6132e1565b60405160e086901b6001600160e01b03191681526001600160a01b0394909416600485015260248401929092526044830152600114606482015260840160206040518083038186803b158015610a4257600080fd5b505af4158015610a56573d6000803e3d6000fd5b505050506040513d601f19601f82011682018060405250810190610a7a91906132c4565b95945050505050565b6000610a8d610f3b565b905060005b8151811015610c2c576000828281518110610aaf57610aaf6132f7565b602002602001015190506000610ad060008051602061365883398151915290565b54604080517f5265736f6c766572206d697373696e67207461726765743a200000000000000060208201526039808201869052825180830390910181526059820192839052636795dbcd60e01b9092526001600160a01b0390921691636795dbcd91610b4191869190605d01613365565b60206040518083038186803b158015610b5957600080fd5b505afa158015610b6d573d6000803e3d6000fd5b505050506040513d601f19601f82011682018060405250810190610b91919061337e565b60008381527f4abde63c3e81aefa5764b017968bc473e83e093d7e1a10247d19e0a3e4124019602090815260409182902080546001600160a01b0319166001600160a01b03851690811790915582518681529182015281519293507f88a93678a3692f6789d9546fc621bf7234b101ddb7d4fe479455112831b8aa68929081900390910190a150508080610c249061339b565b915050610a92565b5050565b600080610c3b610f3b565b905060005b8151811015610d8d576000828281518110610c5d57610c5d6132f7565b60200260200101519050610c7c60008051602061365883398151915290565b600082815260019190910160205260409020546001600160a01b0316600080516020613658833981519152546040516321f8a72160e01b8152600481018490526001600160a01b03909116906321f8a7219060240160206040518083038186803b158015610ce957600080fd5b505afa158015610cfd573d6000803e3d6000fd5b505050506040513d601f19601f82011682018060405250810190610d21919061337e565b6001600160a01b0316141580610d6b575060008181527f4abde63c3e81aefa5764b017968bc473e83e093d7e1a10247d19e0a3e412401960205260409020546001600160a01b0316155b15610d7a576000935050505090565b5080610d858161339b565b915050610c40565b50600191505090565b600054610100900460ff1615808015610db65750600054600160ff909116105b80610dd05750303b158015610dd0575060005460ff166001145b610e335760405162461bcd60e51b815260206004820152602e60248201527f496e697469616c697a61626c653a20636f6e747261637420697320616c72656160448201526d191e481a5b9a5d1a585b1a5e995960921b6064820152608401610251565b6000805460ff191660011790558015610e56576000805461ff0019166101001790555b6000610e60611ef4565b6001600160a01b03161415610ec25760405162461bcd60e51b815260206004820152602260248201527f4d7573742062652063616c6c65642066726f6d2070726f787920636f6e74726160448201526118dd60f21b6064820152608401610251565b610ecb89611f1c565b610ed488611f8d565b610edd82612025565b610eea8787878787612096565b8015610f30576000805461ff0019169055604051600181527f7f26b83ff96e1f2b6a682f133852f6798a09c465da95921460cefb38474024989060200160405180910390a15b505050505050505050565b604080516003808252608082019092526060916020820183803683370190505090507121bab93932b731bca1b7b73a3937b63632b960711b81600081518110610f8657610f866132f7565b602002602001018181525050762632b73234b733a6b0b935b2ba21b7b73a3937b63632b960491b81600181518110610fc057610fc06132f7565b6020026020010181815250506a14995cd95c9d99519d5b9960aa1b81600281518110610fee57610fee6132f7565b60200260200101818152505090565b60608167ffffffffffffffff811115611018576110186133b6565b604051908082528060200260200182016040528015611041578160200160208202803683370190505b50905060005b828110156110a457611070848483818110611064576110646132f7565b9050602002013561141e565b828281518110611082576110826132f7565b911515602092830291909101909101528061109c8161339b565b915050611047565b5092915050565b6110b43361249a565b6110d05760405162461bcd60e51b8152600401610251906133cc565b816110da81610807565b6110f65760405162461bcd60e51b815260040161025190613232565b604051634ba0c9b560e01b815273__$09c51783f1a1597899ee0a3142cec7935a$__90634ba0c9b59061113190879087908790600401613403565b60006040518083038186803b15801561114957600080fd5b505af415801561115d573d6000803e3d6000fd5b5050505050505050565b60405163654c629560e01b81526001600160a01b038216600482015260009073__$09c51783f1a1597899ee0a3142cec7935a$__9063654c62959060240160606040518083038186803b1580156111bd57600080fd5b505af41580156111d1573d6000803e3d6000fd5b505050506040513d601f19601f820116820180604052508101906111f59190613269565b50909392505050565b33611207611473565b6001600160a01b03161461122d5760405162461bcd60e51b815260040161025190613424565b61123a8585858585612096565b5050505050565b3361124a611473565b6001600160a01b0316146112705760405162461bcd60e51b815260040161025190613424565b611278612514565b6001600160a01b0316631eae0893846040518263ffffffff1660e01b81526004016112a591815260200190565b60206040518083038186803b1580156112bd57600080fd5b505afa1580156112d1573d6000803e3d6000fd5b505050506040513d601f19601f820116820180604052508101906112f591906132c4565b6113345760405162461bcd60e51b815260206004820152601060248201526f496e76616c69642063757272656e637960801b6044820152606401610251565b60008381526000805160206136788339815191526020526040902080546001600160a01b0319166001600160a01b038416179055801561138a57611388836000805160206136b88339815191525b9061251e565b505b604080518481526001600160a01b0384166020820152821515918101919091527ff776c30df345d55df252bb5181a0c2bb23d601166606790a6f1b938d7e158503906060015b60405180910390a1505050565b60008060008060006113ed61252a565b94506113f761253a565b935061140161254d565b925061140b612560565b915061141561257c565b90509091929394565b60006107b56000805160206136b883398151915283612598565b33611441611473565b6001600160a01b0316146114675760405162461bcd60e51b815260040161025190613424565b6114716000611f1c565b565b60007f9acda75aebd150dd434541a4747a6dc606f4f1a59662477e67daf1fc0bf9e0aa61070e565b336114a4611473565b6001600160a01b0316146114ca5760405162461bcd60e51b815260040161025190613424565b816114d481610807565b6114f05760405162461bcd60e51b815260040161025190613232565b81156115145761150e836000805160206136b8833981519152611382565b5061152e565b61152c6000805160206136b8833981519152846125b0565b505b6040805184815283151560208201527f97caf2b3b2f0aa460ca08b20c07f7a43ccf688e2f3b7179f2cf9113fb892bf8191016113d0565b60405163948060dd60e01b81526001600160a01b038216600482015260009073__$09c51783f1a1597899ee0a3142cec7935a$__9063948060dd9060240160206040518083038186803b1580156115bb57600080fd5b505af41580156115cf573d6000803e3d6000fd5b505050506040513d601f19601f820116820180604052508101906107b59190613219565b6115fc3361249a565b6116185760405162461bcd60e51b8152600401610251906133cc565b6107ec838383611d96565b600061162e3361249a565b61164a5760405162461bcd60e51b8152600401610251906133cc565b6116538661141e565b61169f5760405162461bcd60e51b815260206004820152601c60248201527f4e6f74207265676973746572656420617320636f6c6c61746572616c000000006044820152606401610251565b60405163ab2a077760e01b81526001600160a01b03808a1660048301528816602482015260448101879052606481018690526084810185905262ffffff841660a482015260c481018390526000908190819073__$09c51783f1a1597899ee0a3142cec7935a$__9063ab2a07779060e40160806040518083038186803b15801561172857600080fd5b505af415801561173c573d6000803e3d6000fd5b505050506040513d601f19601f820116820180604052508101906117609190613459565b929650909450925090506001600160a01b038a167fe388e4575608d6ee73a58c36e5ac2bbc5099054aa117945d3935653895ed8d3e8a8a866117a28a8a61348f565b6040805194855260208501939093529183015260608201526080810185905260a0810184905260c00160405180910390a2505050979650505050505050565b60405163654c629560e01b81526001600160a01b03821660048201526000908190819073__$09c51783f1a1597899ee0a3142cec7935a$__9063654c62959060240160606040518083038186803b15801561183b57600080fd5b505af415801561184f573d6000803e3d6000fd5b505050506040513d601f19601f820116820180604052508101906118739190613269565b509150915061188061252a565b61188a90826134a7565b611896612710846134a7565b10156118ac576118a76002826134c6565b6108e0565b6000949350505050565b60405163654c629560e01b81526001600160a01b03821660048201526000908190819073__$09c51783f1a1597899ee0a3142cec7935a$__9063654c62959060240160606040518083038186803b15801561191057600080fd5b505af4158015611924573d6000803e3d6000fd5b505050506040513d601f19601f820116820180604052508101906119489190613269565b5091509150816000141561196e57801561196457600019611967565b60005b9250611985565b8161197b612710836134a7565b6108e091906134c6565b5050919050565b60606119a56000805160206136b88339815191526125bc565b905090565b6040805160028082526060808301845292602083019080368337019050509050762632b73234b733a6b0b935b2ba21b7b73a3937b63632b960491b816000815181106119f8576119f86132f7565b6020026020010181815250506a14995cd95c9d99519d5b9960aa1b81600181518110610fee57610fee6132f7565b33611a2f611473565b6001600160a01b031614611a555760405162461bcd60e51b815260040161025190613424565b6001600160a01b038116611aba5760405162461bcd60e51b815260206004820152602660248201527f4f776e61626c653a206e6577206f776e657220697320746865207a65726f206160448201526564647265737360d01b6064820152608401610251565b611ac381611f1c565b50565b611acf3361249a565b611aeb5760405162461bcd60e51b8152600401610251906133cc565b81611af581610807565b611b115760405162461bcd60e51b815260040161025190613232565b604051633edef4ed60e21b815273__$09c51783f1a1597899ee0a3142cec7935a$__9063fb7bd3b49061113190879087908790600401613403565b604051630fc7008160e41b81526001600160a01b038216600482015260609073__$09c51783f1a1597899ee0a3142cec7935a$__9063fc7008109060240160006040518083038186803b158015611ba257600080fd5b505af4158015611bb6573d6000803e3d6000fd5b505050506040513d6000823e601f3d908101601f191682016040526107b591908101906134e8565b60008111611bfe5760405162461bcd60e51b8152600401610251906135a6565b611c066125c7565b604051639519832b60e01b8152600481018490526001600160a01b0385811660248301529190911690639519832b90604401602060405180830381600087803b158015611c5257600080fd5b505af1158015611c66573d6000803e3d6000fd5b505050506040513d601f19601f82011682018060405250810190611c8a9190613219565b5060405163148b8b9d60e11b815260009073__$09c51783f1a1597899ee0a3142cec7935a$__90632917173a90611cc990879087908790600401613403565b60206040518083038186803b158015611ce157600080fd5b505af4158015611cf5573d6000803e3d6000fd5b505050506040513d601f19601f82011682018060405250810190611d199190613219565b60008481526000805160206136788339815191526020526040902054909150611d4c906001600160a01b031685836125d1565b60408051848152602081018390526001600160a01b038616917fc3ded2be7db21b1af963f267d27750e4a15f174547d88b886b9bda43e2c6fa32910160405180910390a250505050565b60008111611db65760405162461bcd60e51b8152600401610251906135a6565b611dbe6106fc565b600083815260008051602061367883398151915260205260409020546001600160a01b039081169116141580611df357503481145b611e0f5760405162461bcd60e51b8152600401610251906135a6565b60008281526000805160206136788339815191526020526040902054611e40906001600160a01b0316843084612609565b604051634ba0c9b560e01b815273__$09c51783f1a1597899ee0a3142cec7935a$__90634ba0c9b590611e7b90869086908690600401613403565b60006040518083038186803b158015611e9357600080fd5b505af4158015611ea7573d6000803e3d6000fd5b505060408051858152602081018590526001600160a01b03871693507f19dacbf83c5de6658e14cbf7bcae5c15eca2eedecf1c66fbca928e4d351bea0f92500160405180910390a2505050565b60007f360894a13ba1a3210667c828492db98dca3e2076cc3735a920a3ca505d382bbc61070e565b7f9acda75aebd150dd434541a4747a6dc606f4f1a59662477e67daf1fc0bf9e0aa80546001600160a01b038381166001600160a01b0319831681179093556040519116919082907f8be0079c531659141344cd1fd0a4f28419497f9722a3daafe3b4186f6b6457e090600090a35050565b600080516020613658833981519152546001600160a01b031615611ff35760405162461bcd60e51b815260206004820152601b60248201527f7265736f6c766572207265676973746572656420616c726561647900000000006044820152606401610251565b806000805160206136588339815191525b80546001600160a01b0319166001600160a01b039290921691909117905550565b600080516020613698833981519152546001600160a01b0316156120815760405162461bcd60e51b8152602060048201526013602482015272105b1c9958591e481a5b9a5d1a585b1a5e9959606a1b6044820152606401610251565b80600080516020613698833981519152612004565b600085116120f15760405162461bcd60e51b815260206004820152602260248201527f496e76616c6964206c69717569646174696f6e207468726573686f6c64207261604482015261746560f01b6064820152608401610251565b6127108411156121515760405162461bcd60e51b815260206004820152602560248201527f496e76616c6964206c69717569646174696f6e2070726f746f636f6c20666565604482015264207261746560d81b6064820152608401610251565b6127108311156121a35760405162461bcd60e51b815260206004820152601b60248201527f496e76616c6964206c697175696461746f7220666565207261746500000000006044820152606401610251565b6001600160a01b0382166121f25760405162461bcd60e51b815260206004820152601660248201527524b73b30b634b2102ab734b9bbb0b8102937baba32b960511b6044820152606401610251565b6001600160a01b0381166122415760405162461bcd60e51b815260206004820152601660248201527524b73b30b634b2102ab734b9bbb0b81028bab7ba32b960511b6044820152606401610251565b61224961264d565b54851461229c577fd3353684d64f1c80498433d8407c96e6bbeb1ec88b6200ec97d2c910fdbd0da461227961264d565b5460408051918252602082018890520160405180910390a18461229a61264d565b555b6122a461264d565b600101548414612300577f651b17c8e9402610e6210cfaa5b252d2186f8a16adf58c9c0fd5793bc4ea9b1f6122d761264d565b6001015460408051918252602082018790520160405180910390a1836122fb61264d565b600101555b61230861264d565b600201548314612364578261231b61264d565b600201557f7e8f030f9238551b066874b952f0c6ba811ba426ab231ba4825421d5d8f5cd9561234861264d565b6002015460408051918252602082018690520160405180910390a15b61236c61264d565b600301546001600160a01b038381169116146123fc577fe7295f605b21e8c0803de3b127af76ce45d81732d075acf86e5959e923605bdc6123ab61264d565b60030154604080516001600160a01b03928316815291851660208301520160405180910390a1816123da61264d565b60030180546001600160a01b0319166001600160a01b03929092169190911790555b61240461264d565b600401546001600160a01b0382811691161461123a577fc3e7ec97cf382bb0aa286de53d3fbce580f260e5940bce703c49d62eb33ef4bc61244361264d565b60040154604080516001600160a01b03928316815291841660208301520160405180910390a18061247261264d565b60040180546001600160a01b0319166001600160a01b03929092169190911790555050505050565b6000806124a56119aa565b905060005b815181101561250a576124d58282815181106124c8576124c86132f7565b6020026020010151612671565b6001600160a01b0316846001600160a01b031614156124f8575060019392505050565b806125028161339b565b9150506124aa565b5060009392505050565b60006119a561267c565b60006107b2838361269c565b600061253461264d565b54919050565b600061254461264d565b60010154905090565b600061255761264d565b60020154905090565b600061256a61264d565b600301546001600160a01b0316919050565b600061258661264d565b600401546001600160a01b0316919050565b600081815260018301602052604081205415156107b2565b60006107b283836126eb565b60606107b5826127de565b60006119a561283a565b600080516020613698833981519152546001600160a01b03848116911614156125fe576107ec828261285f565b6107ec8383836129aa565b600080516020613698833981519152546001600160a01b038581169116141561263b576126368282612a8e565b612647565b61264784848484612bd7565b50505050565b7f1aaabb4945989eb9ee8150fddc35fcfc125664a7b898aa2de5931bb12484d05290565b60006107b582612ccb565b60006119a57121bab93932b731bca1b7b73a3937b63632b960711b612ccb565b60008181526001830160205260408120546126e3575081546001818101845560008481526020808220909301849055845484825282860190935260409020919091556107b5565b5060006107b5565b600081815260018301602052604081205480156127d457600061270f6001836132ad565b8554909150600090612723906001906132ad565b9050818114612788576000866000018281548110612743576127436132f7565b9060005260206000200154905080876000018481548110612766576127666132f7565b6000918252602080832090910192909255918252600188019052604090208390555b8554869080612799576127996135ce565b6001900381819060005260206000200160009055905585600101600086815260200190815260200160002060009055600193505050506107b5565b60009150506107b5565b60608160000180548060200260200160405190810160405280929190818152602001828054801561282e57602002820191906000526020600020905b81548152602001906001019080831161281a575b50505050509050919050565b60006119a5762632b73234b733a6b0b935b2ba21b7b73a3937b63632b960491b612ccb565b6000600080516020613698833981519152546040516370a0823160e01b81523060048201526001600160a01b03909116906370a082319060240160206040518083038186803b1580156128b157600080fd5b505afa1580156128c5573d6000803e3d6000fd5b505050506040513d601f19601f820116820180604052508101906128e99190613219565b90508181101561292f5760405162461bcd60e51b8152602060048201526011602482015270092dce6eaccccd2c6d2cadce840ae8aa89607b1b6044820152606401610251565b80156107ec5760008051602061369883398151915254604051632e1a7d4d60e01b8152600481018490526001600160a01b0390911690632e1a7d4d90602401600060405180830381600087803b15801561298857600080fd5b505af115801561299c573d6000803e3d6000fd5b505050506107ec8383612d5c565b604080516001600160a01b038481166024830152604480830185905283518084039091018152606490920183526020820180516001600160e01b031663a9059cbb60e01b1790529151600092839290871691612a0691906135e4565b6000604051808303816000865af19150503d8060008114612a43576040519150601f19603f3d011682016040523d82523d6000602084013e612a48565b606091505b5091509150818015612a72575080511580612a72575080806020019051810190612a7291906132c4565b61123a5760405162461bcd60e51b815260040161025190613600565b80471015612ad15760405162461bcd60e51b815260206004820152601060248201526f092dce6eaccccd2c6d2cadce8408aa8960831b6044820152606401610251565b6000805160206136988339815191525460408051630d0e30db60e41b815290516001600160a01b039092169163d0e30db0918491600480830192600092919082900301818588803b158015612b2557600080fd5b505af1158015612b39573d6000803e3d6000fd5b5050505050612b5360008051602061369883398151915290565b5460405163a9059cbb60e01b81526001600160a01b038481166004830152602482018490529091169063a9059cbb90604401602060405180830381600087803b158015612b9f57600080fd5b505af1158015612bb3573d6000803e3d6000fd5b505050506040513d601f19601f820116820180604052508101906107ec91906132c4565b604080516001600160a01b0385811660248301528481166044830152606480830185905283518084039091018152608490920183526020820180516001600160e01b03166323b872dd60e01b1790529151600092839290881691612c3b91906135e4565b6000604051808303816000865af19150503d8060008114612c78576040519150601f19603f3d011682016040523d82523d6000602084013e612c7d565b606091505b5091509150818015612ca7575080511580612ca7575080806020019051810190612ca791906132c4565b612cc35760405162461bcd60e51b815260040161025190613600565b505050505050565b60008181527f4abde63c3e81aefa5764b017968bc473e83e093d7e1a10247d19e0a3e41240196020908152604080832054815170026b4b9b9b4b7339030b2323932b9b99d1607d1b9381019390935260318084018690528251808503909101815260519093019091526001600160a01b031690816110a45760405162461bcd60e51b81526004016102519190613644565b604080516000808252602082019092526001600160a01b038416908390604051612d8691906135e4565b60006040518083038185875af1925050503d8060008114612dc3576040519150601f19603f3d011682016040523d82523d6000602084013e612dc8565b606091505b50509050806107ec5760405162461bcd60e51b815260206004820152602360248201527f5472616e7366657248656c7065723a204554485f5452414e534645525f46414960448201526213115160ea1b6064820152608401610251565b6001600160a01b0381168114611ac357600080fd5b60008060408385031215612e4d57600080fd5b8235612e5881612e25565b946020939093013593505050565b60008060408385031215612e7957600080fd5b50508035926020909101359150565b600060208284031215612e9a57600080fd5b5035919050565b600060208284031215612eb357600080fd5b8135612ebe81612e25565b9392505050565b60008060008060808587031215612edb57600080fd5b8435612ee681612e25565b93506020850135925060408501359150606085013560028110612f0857600080fd5b939692955090935050565b600080600080600080600080610100898b031215612f3057600080fd5b8835612f3b81612e25565b97506020890135612f4b81612e25565b965060408901359550606089013594506080890135935060a0890135612f7081612e25565b925060c0890135612f8081612e25565b915060e0890135612f9081612e25565b809150509295985092959890939650565b6020808252825182820181905260009190848201906040850190845b81811015612fd957835183529284019291840191600101612fbd565b50909695505050505050565b60008060208385031215612ff857600080fd5b823567ffffffffffffffff8082111561301057600080fd5b818501915085601f83011261302457600080fd5b81358181111561303357600080fd5b8660208260051b850101111561304857600080fd5b60209290920196919550909350505050565b6020808252825182820181905260009190848201906040850190845b81811015612fd9578351151583529284019291840191600101613076565b6000806000606084860312156130a957600080fd5b83356130b481612e25565b95602085013595506040909401359392505050565b600080600080600060a086880312156130e157600080fd5b853594506020860135935060408601359250606086013561310181612e25565b9150608086013561311181612e25565b809150509295509295909350565b8015158114611ac357600080fd5b60008060006060848603121561314257600080fd5b83359250602084013561315481612e25565b915060408401356131648161311f565b809150509250925092565b6000806040838503121561318257600080fd5b8235915060208301356131948161311f565b809150509250929050565b600080600080600080600060e0888a0312156131ba57600080fd5b87356131c581612e25565b965060208801356131d581612e25565b955060408801359450606088013593506080880135925060a088013562ffffff8116811461320257600080fd5b8092505060c0880135905092959891949750929550565b60006020828403121561322b57600080fd5b5051919050565b60208082526017908201527f43757272656e6379206e6f742072656769737465726564000000000000000000604082015260600190565b60008060006060848603121561327e57600080fd5b8351925060208401519150604084015190509250925092565b634e487b7160e01b600052601160045260246000fd5b6000828210156132bf576132bf613297565b500390565b6000602082840312156132d657600080fd5b8151612ebe8161311f565b634e487b7160e01b600052602160045260246000fd5b634e487b7160e01b600052603260045260246000fd5b60005b83811015613328578181015183820152602001613310565b838111156126475750506000910152565b6000815180845261335181602086016020860161330d565b601f01601f19169290920160200192915050565b8281526040602082015260006108e06040830184613339565b60006020828403121561339057600080fd5b8151612ebe81612e25565b60006000198214156133af576133af613297565b5060010190565b634e487b7160e01b600052604160045260246000fd5b60208082526017908201527f4f6e6c7920416363657074656420436f6e747261637473000000000000000000604082015260600190565b6001600160a01b039390931683526020830191909152604082015260600190565b6020808252818101527f4f776e61626c653a2063616c6c6572206973206e6f7420746865206f776e6572604082015260600190565b6000806000806080858703121561346f57600080fd5b505082516020840151604085015160609095015191969095509092509050565b600082198211156134a2576134a2613297565b500190565b60008160001904831182151516156134c1576134c1613297565b500290565b6000826134e357634e487b7160e01b600052601260045260246000fd5b500490565b600060208083850312156134fb57600080fd5b825167ffffffffffffffff8082111561351357600080fd5b818501915085601f83011261352757600080fd5b815181811115613539576135396133b6565b8060051b604051601f19603f8301168101818110858211171561355e5761355e6133b6565b60405291825284820192508381018501918883111561357c57600080fd5b938501935b8285101561359a57845184529385019392850192613581565b98975050505050505050565b6020808252600e908201526d125b9d985b1a5908185b5bdd5b9d60921b604082015260600190565b634e487b7160e01b600052603160045260246000fd5b600082516135f681846020870161330d565b9190910192915050565b60208082526024908201527f5472616e7366657248656c7065723a205452414e534645525f46524f4d5f46416040820152631253115160e21b606082015260800190565b6020815260006107b2602083018461333956fe4abde63c3e81aefa5764b017968bc473e83e093d7e1a10247d19e0a3e412401853832330c92cb5d80f0e1ff6fdb9886f7fad39132543bafb7497316eae2a83197522ee63bb7da831844dcdb60f35e8cfa51225eeb4ed6734e421ed06f0d5680553832330c92cb5d80f0e1ff6fdb9886f7fad39132543bafb7497316eae2a8317a26469706673582212206af30bf7a7d327105a28f16add502a791088e14da98105bc5d885caa2a17993f64736f6c63430008090033",
  "libraries": {
    "DepositManagementLogic": "0xc43B86487A4F061fd9ABdecF5d40725fbD39188e"
  },
  "implementation": "0x41bd8e3F18229F38d52B5ED3B6BFdc3Bc1b367Bf",
  "devdoc": {
    "kind": "dev",
    "methods": {
      "acceptedContracts()": {
        "details": "The contact name listed in this method is also needed to be listed `requiredContracts` method."
      },
      "addDepositAmount(address,bytes32,uint256)": {
        "details": "Adds deposit amount.",
        "params": {
          "_amount": "Amount of funds to deposit",
          "_ccy": "Currency name in bytes32",
          "_user": "User's address"
        }
      },
      "deposit(bytes32,uint256)": {
        "details": "Deposits funds by the caller into collateral.",
        "params": {
          "_amount": "Amount of funds to deposit",
          "_ccy": "Currency name in bytes32"
        }
      },
      "depositFrom(address,bytes32,uint256)": {
        "details": "Deposits funds by the `from` into collateral.",
        "params": {
          "_amount": "Amount of funds to deposit",
          "_ccy": "Currency name in bytes32",
          "_from": "user's address"
        }
      },
      "getCollateralCurrencies()": {
        "returns": {
          "_0": "Array of the currency accepted as collateral"
        }
      },
      "getCollateralParameters()": {
        "returns": {
          "liquidationProtocolFeeRate": "Liquidation fee rate received by protocol",
          "liquidationThresholdRate": "Auto liquidation threshold rate",
          "liquidatorFeeRate": "Liquidation fee rate received by liquidators",
          "uniswapQuoter": "Uniswap quoter contract address",
          "uniswapRouter": "Uniswap router contract address"
        }
      },
      "getCoverage(address)": {
        "params": {
          "_user": "User's address"
        },
        "returns": {
          "coverage": "The rate of collateral used"
        }
      },
      "getDepositAmount(address,bytes32)": {
        "params": {
          "_ccy": "Currency name in bytes32",
          "_user": "User's address"
        },
        "returns": {
          "_0": "The deposited amount"
        }
      },
      "getLiquidationAmount(address)": {
        "params": {
          "_user": "User's address"
        },
        "returns": {
          "liquidationAmount": "The the amount to be liquidated"
        }
      },
      "getTokenAddress(bytes32)": {
        "params": {
          "_ccy": "Currency name in bytes32"
        },
        "returns": {
          "_0": "The token contract address"
        }
      },
      "getTotalCollateralAmount(address)": {
        "params": {
          "_user": "User's address"
        },
        "returns": {
          "totalCollateralAmount": "The total collateral amount in ETH"
        }
      },
      "getTotalDepositAmount(bytes32)": {
        "params": {
          "_ccy": "Currency name in bytes32"
        },
        "returns": {
          "_0": "The total deposited amount"
        }
      },
      "getUnusedCollateral(address)": {
        "params": {
          "_user": "User's address"
        },
        "returns": {
          "_0": "The total amount of unused collateral"
        }
      },
      "getUsedCurrencies(address)": {
        "params": {
          "_user": "User's address"
        },
        "returns": {
          "_0": "The currency names in bytes32"
        }
      },
      "getWithdrawableCollateral(address)": {
        "params": {
          "_user": "User's address"
        },
        "returns": {
          "_0": "Maximum amount of ETH that can be withdrawn"
        }
      },
      "initialize(address,address,uint256,uint256,uint256,address,address,address)": {
        "details": "Function is invoked by the proxy contract when the contract is added to the ProxyController.",
        "params": {
          "_WETH9": "The address of WETH",
          "_liquidationProtocolFeeRate": "The liquidation fee rate received by protocol",
          "_liquidationThresholdRate": "The liquidation threshold rate",
          "_liquidatorFeeRate": "The liquidation fee rate received by liquidators",
          "_owner": "The address of the contract owner",
          "_resolver": "The address of the Address Resolver contract",
          "_uniswapQuoter": "Uniswap quoter contract address",
          "_uniswapRouter": "Uniswap router contract address"
        }
      },
      "isCollateral(bytes32)": {
        "params": {
          "_ccy": "Currency name in bytes32"
        },
        "returns": {
          "_0": "The boolean if the currency has been registered or not"
        }
      },
      "isCollateral(bytes32[])": {
        "params": {
          "_ccys": "Currency name list in bytes32"
        },
        "returns": {
          "isCollateralCurrencies": "Array of the boolean if the currency has been registered or not"
        }
      },
      "isCovered(address)": {
        "params": {
          "_user": "User's address"
        },
        "returns": {
          "_0": "The boolean if the collateral has sufficient coverage or not"
        }
      },
      "isCovered(address,bytes32,uint256,uint8)": {
        "params": {
          "_unsettledOrderAmount": "Additional unsettled order amount",
          "_unsettledOrderCcy": "Additional unsettled order currency name in bytes32",
          "_user": "User's address"
        },
        "returns": {
          "_0": "The boolean if the collateral has sufficient coverage or not"
        }
      },
      "isRegisteredCurrency(bytes32)": {
        "params": {
          "_ccy": "Currency name in bytes32"
        },
        "returns": {
          "_0": "The boolean if the currency has been registered or not"
        }
      },
      "owner()": {
        "details": "Returns the address of the current owner."
      },
      "registerCurrency(bytes32,address,bool)": {
        "params": {
          "_ccy": "Currency name in bytes32",
          "_isCollateral": "Boolean if the selected currency is acceptable as collateral.",
          "_tokenAddress": "Token contract address of the selected currency"
        }
      },
      "removeDepositAmount(address,bytes32,uint256)": {
        "params": {
          "_amount": "Amount of funds to withdraw.",
          "_ccy": "Currency name in bytes32",
          "_user": "User's address"
        }
      },
      "renounceOwnership()": {
        "details": "Leaves the contract without owner. It will not be possible to call `onlyOwner` functions anymore. Can only be called by the current owner. NOTE: Renouncing ownership will leave the contract without an owner, thereby removing any functionality that is only available to the owner."
      },
      "requiredContracts()": {
        "details": "The contract name list is in `./libraries/Contracts.sol`."
      },
      "setCollateralParameters(uint256,uint256,uint256,address,address)": {
        "params": {
          "_liquidationProtocolFeeRate": "The liquidation fee rate received by protocol",
          "_liquidationThresholdRate": "The auto liquidation threshold rate",
          "_liquidatorFeeRate": "The liquidation fee rate received by liquidators",
          "_uniswapQuoter": "Uniswap quoter contract address",
          "_uniswapRouter": "Uniswap router contract address"
        }
      },
      "swapDepositAmounts(address,address,bytes32,bytes32,uint256,uint24,uint256)": {
        "params": {
          "_amountOut": "Amount to be converted to",
          "_ccyFrom": "Currency name to be converted from",
          "_ccyTo": "Currency name to be converted to",
          "_liquidator": "Liquidator's address",
          "_offsetAmount": "User's deposit amount to be offset against the reserve fund",
          "_poolFee": "Uniswap pool fee",
          "_user": "User's address"
        }
      },
      "transferOwnership(address)": {
        "details": "Transfers ownership of the contract to a new account (`newOwner`). Can only be called by the current owner."
      },
      "updateCurrency(bytes32,bool)": {
        "params": {
          "_ccy": "Currency name in bytes32",
          "_isCollateral": "Boolean if the selected currency is acceptable as collateral."
        }
      },
      "withdraw(bytes32,uint256)": {
        "params": {
          "_amount": "Amount of funds to withdraw.",
          "_ccy": "Currency name in bytes32"
        }
      }
    },
    "version": 1
  },
  "userdoc": {
    "kind": "user",
    "methods": {
      "acceptedContracts()": {
        "notice": "Returns contract names that can call this contract."
      },
      "getCollateralCurrencies()": {
        "notice": "Gets the currencies accepted as collateral"
      },
      "getCollateralParameters()": {
        "notice": "Gets the collateral parameters"
      },
      "getCoverage(address)": {
        "notice": "Gets the rate of collateral used."
      },
      "getDepositAmount(address,bytes32)": {
        "notice": "Gets the amount deposited in the user's collateral."
      },
      "getLiquidationAmount(address)": {
        "notice": "Gets the amount to be liquidated."
      },
      "getTokenAddress(bytes32)": {
        "notice": "Gets the token contract address"
      },
      "getTotalCollateralAmount(address)": {
        "notice": "Gets the total collateral amount."
      },
      "getTotalDepositAmount(bytes32)": {
        "notice": "Gets the total amount deposited of the selected currency"
      },
      "getUnusedCollateral(address)": {
        "notice": "Gets the total amount of the unused collateral"
      },
      "getUsedCurrencies(address)": {
        "notice": "Gets the currencies that the user used as collateral."
      },
      "getWithdrawableCollateral(address)": {
        "notice": "Gets the maximum amount of ETH that can be withdrawn from user collateral."
      },
      "initialize(address,address,uint256,uint256,uint256,address,address,address)": {
        "notice": "Initializes the contract."
      },
      "isCollateral(bytes32)": {
        "notice": "Gets if the currency is acceptable as collateral"
      },
      "isCollateral(bytes32[])": {
        "notice": "Gets if the currencies are acceptable as collateral"
      },
      "isCovered(address)": {
        "notice": "Gets if the collateral has enough coverage."
      },
      "isCovered(address,bytes32,uint256,uint8)": {
        "notice": "Gets if the collateral has enough coverage."
      },
      "isRegisteredCurrency(bytes32)": {
        "notice": "Gets if the currency has been registered"
      },
      "registerCurrency(bytes32,address,bool)": {
        "notice": "Registers new currency and sets if it is acceptable as collateral."
      },
      "removeDepositAmount(address,bytes32,uint256)": {
        "notice": "Removes deposit amount."
      },
      "requiredContracts()": {
        "notice": "Returns the contract names used in this contract."
      },
      "setCollateralParameters(uint256,uint256,uint256,address,address)": {
        "notice": "Sets main collateral parameters this function solves the issue of frontrunning during parameters tuning.Triggers only be contract owner"
      },
      "swapDepositAmounts(address,address,bytes32,bytes32,uint256,uint24,uint256)": {
        "notice": "Swap the deposited amount to convert to a different currency using Uniswap for liquidation."
      },
      "updateCurrency(bytes32,bool)": {
        "notice": "Updates the currency if it is acceptable as collateral."
      },
      "withdraw(bytes32,uint256)": {
        "notice": "Withdraws funds by the caller from unused collateral."
      }
    },
    "notice": "Implements the management of the token in each currency for users. This contract manages the following data related to tokens. - Deposited token amount as the collateral - Parameters related to the collateral   - Margin Call Threshold Rate   - Auto Liquidation Threshold Rate   - Liquidation Price Rate   - Min Collateral Rate To address a currency as collateral, it must be registered using `registerCurrency` method in this contract.",
    "version": 1
  },
  "storageLayout": {
    "storage": [
      {
        "astId": 1183,
        "contract": "contracts/TokenVault.sol:TokenVault",
        "label": "_initialized",
        "offset": 0,
        "slot": "0",
        "type": "t_uint8"
      },
      {
        "astId": 1186,
        "contract": "contracts/TokenVault.sol:TokenVault",
        "label": "_initializing",
        "offset": 1,
        "slot": "0",
        "type": "t_bool"
      }
    ],
    "types": {
      "t_bool": {
        "encoding": "inplace",
        "label": "bool",
        "numberOfBytes": "1"
      },
      "t_uint8": {
        "encoding": "inplace",
        "label": "uint8",
        "numberOfBytes": "1"
      }
    }
  }
}